{
  "abi": [
    {
      "inputs": [
        {
          "internalType": "contract IEntryPoint",
          "name": "_entryPoint",
          "type": "address"
        },
        {
          "internalType": "address",
          "name": "_verifyingSigner",
          "type": "address"
        }
      ],
      "stateMutability": "nonpayable",
      "type": "constructor"
    },
    {
      "anonymous": false,
      "inputs": [
        {
          "indexed": true,
          "internalType": "address",
          "name": "previousOwner",
          "type": "address"
        },
        {
          "indexed": true,
          "internalType": "address",
          "name": "newOwner",
          "type": "address"
        }
      ],
      "name": "OwnershipTransferred",
      "type": "event"
    },
    {
      "inputs": [
        {
          "internalType": "uint32",
          "name": "unstakeDelaySec",
          "type": "uint32"
        }
      ],
      "name": "addStake",
      "outputs": [],
      "stateMutability": "payable",
      "type": "function"
    },
    {
      "inputs": [],
      "name": "deposit",
      "outputs": [],
      "stateMutability": "payable",
      "type": "function"
    },
    {
      "inputs": [],
      "name": "entryPoint",
      "outputs": [
        {
          "internalType": "contract IEntryPoint",
          "name": "",
          "type": "address"
        }
      ],
      "stateMutability": "view",
      "type": "function"
    },
    {
      "inputs": [],
      "name": "getDeposit",
      "outputs": [
        {
          "internalType": "uint256",
          "name": "",
          "type": "uint256"
        }
      ],
      "stateMutability": "view",
      "type": "function"
    },
    {
      "inputs": [
        {
          "components": [
            {
              "internalType": "address",
              "name": "sender",
              "type": "address"
            },
            {
              "internalType": "uint256",
              "name": "nonce",
              "type": "uint256"
            },
            {
              "internalType": "bytes",
              "name": "initCode",
              "type": "bytes"
            },
            {
              "internalType": "bytes",
              "name": "callData",
              "type": "bytes"
            },
            {
              "internalType": "uint256",
              "name": "callGasLimit",
              "type": "uint256"
            },
            {
              "internalType": "uint256",
              "name": "verificationGasLimit",
              "type": "uint256"
            },
            {
              "internalType": "uint256",
              "name": "preVerificationGas",
              "type": "uint256"
            },
            {
              "internalType": "uint256",
              "name": "maxFeePerGas",
              "type": "uint256"
            },
            {
              "internalType": "uint256",
              "name": "maxPriorityFeePerGas",
              "type": "uint256"
            },
            {
              "internalType": "bytes",
              "name": "paymasterAndData",
              "type": "bytes"
            },
            {
              "internalType": "bytes",
              "name": "signature",
              "type": "bytes"
            }
          ],
          "internalType": "struct UserOperation",
          "name": "userOp",
          "type": "tuple"
        },
        {
          "internalType": "uint48",
          "name": "validUntil",
          "type": "uint48"
        },
        {
          "internalType": "uint48",
          "name": "validAfter",
          "type": "uint48"
        }
      ],
      "name": "getHash",
      "outputs": [
        {
          "internalType": "bytes32",
          "name": "",
          "type": "bytes32"
        }
      ],
      "stateMutability": "view",
      "type": "function"
    },
    {
      "inputs": [],
      "name": "owner",
      "outputs": [
        {
          "internalType": "address",
          "name": "",
          "type": "address"
        }
      ],
      "stateMutability": "view",
      "type": "function"
    },
    {
      "inputs": [
        {
          "internalType": "bytes",
          "name": "paymasterAndData",
          "type": "bytes"
        }
      ],
      "name": "parsePaymasterAndData",
      "outputs": [
        {
          "internalType": "uint48",
          "name": "validUntil",
          "type": "uint48"
        },
        {
          "internalType": "uint48",
          "name": "validAfter",
          "type": "uint48"
        },
        {
          "internalType": "bytes",
          "name": "signature",
          "type": "bytes"
        }
      ],
      "stateMutability": "pure",
      "type": "function"
    },
    {
      "inputs": [
        {
          "internalType": "enum IPaymaster.PostOpMode",
          "name": "mode",
          "type": "uint8"
        },
        {
          "internalType": "bytes",
          "name": "context",
          "type": "bytes"
        },
        {
          "internalType": "uint256",
          "name": "actualGasCost",
          "type": "uint256"
        }
      ],
      "name": "postOp",
      "outputs": [],
      "stateMutability": "nonpayable",
      "type": "function"
    },
    {
      "inputs": [],
      "name": "renounceOwnership",
      "outputs": [],
      "stateMutability": "nonpayable",
      "type": "function"
    },
    {
      "inputs": [
        {
          "internalType": "address",
          "name": "",
          "type": "address"
        }
      ],
      "name": "senderNonce",
      "outputs": [
        {
          "internalType": "uint256",
          "name": "",
          "type": "uint256"
        }
      ],
      "stateMutability": "view",
      "type": "function"
    },
    {
      "inputs": [
        {
          "internalType": "address",
          "name": "newOwner",
          "type": "address"
        }
      ],
      "name": "transferOwnership",
      "outputs": [],
      "stateMutability": "nonpayable",
      "type": "function"
    },
    {
      "inputs": [],
      "name": "unlockStake",
      "outputs": [],
      "stateMutability": "nonpayable",
      "type": "function"
    },
    {
      "inputs": [
        {
          "components": [
            {
              "internalType": "address",
              "name": "sender",
              "type": "address"
            },
            {
              "internalType": "uint256",
              "name": "nonce",
              "type": "uint256"
            },
            {
              "internalType": "bytes",
              "name": "initCode",
              "type": "bytes"
            },
            {
              "internalType": "bytes",
              "name": "callData",
              "type": "bytes"
            },
            {
              "internalType": "uint256",
              "name": "callGasLimit",
              "type": "uint256"
            },
            {
              "internalType": "uint256",
              "name": "verificationGasLimit",
              "type": "uint256"
            },
            {
              "internalType": "uint256",
              "name": "preVerificationGas",
              "type": "uint256"
            },
            {
              "internalType": "uint256",
              "name": "maxFeePerGas",
              "type": "uint256"
            },
            {
              "internalType": "uint256",
              "name": "maxPriorityFeePerGas",
              "type": "uint256"
            },
            {
              "internalType": "bytes",
              "name": "paymasterAndData",
              "type": "bytes"
            },
            {
              "internalType": "bytes",
              "name": "signature",
              "type": "bytes"
            }
          ],
          "internalType": "struct UserOperation",
          "name": "userOp",
          "type": "tuple"
        },
        {
          "internalType": "bytes32",
          "name": "userOpHash",
          "type": "bytes32"
        },
        {
          "internalType": "uint256",
          "name": "maxCost",
          "type": "uint256"
        }
      ],
      "name": "validatePaymasterUserOp",
      "outputs": [
        {
          "internalType": "bytes",
          "name": "context",
          "type": "bytes"
        },
        {
          "internalType": "uint256",
          "name": "validationData",
          "type": "uint256"
        }
      ],
      "stateMutability": "nonpayable",
      "type": "function"
    },
    {
      "inputs": [],
      "name": "verifyingSigner",
      "outputs": [
        {
          "internalType": "address",
          "name": "",
          "type": "address"
        }
      ],
      "stateMutability": "view",
      "type": "function"
    },
    {
      "inputs": [
        {
          "internalType": "address payable",
          "name": "withdrawAddress",
          "type": "address"
        }
      ],
      "name": "withdrawStake",
      "outputs": [],
      "stateMutability": "nonpayable",
      "type": "function"
    },
    {
      "inputs": [
        {
          "internalType": "address payable",
          "name": "withdrawAddress",
          "type": "address"
        },
        {
          "internalType": "uint256",
          "name": "amount",
          "type": "uint256"
        }
      ],
      "name": "withdrawTo",
      "outputs": [],
      "stateMutability": "nonpayable",
      "type": "function"
    }
  ],
  "bytecode": {
    "object": "0x60c060405234801561001057600080fd5b5060405161137d38038061137d83398101604081905261002f916100b9565b8161003933610051565b6001600160a01b039081166080521660a052506100f3565b600080546001600160a01b038381166001600160a01b0319831681178455604051919092169283917f8be0079c531659141344cd1fd0a4f28419497f9722a3daafe3b4186f6b6457e09190a35050565b6001600160a01b03811681146100b657600080fd5b50565b600080604083850312156100cc57600080fd5b82516100d7816100a1565b60208401519092506100e8816100a1565b809150509250929050565b60805160a05161122d6101506000396000818161013f0152610a7801526000818161026e01528181610352015281816103e9015281816104ff015281816105930152818161060a01528181610697015261087a015261122d6000f3fe6080604052600436106100f35760003560e01c8063a9a234091161008a578063c399ec8811610059578063c399ec88146102c5578063d0e30db0146102da578063f2fde38b146102e2578063f465c77e1461030257600080fd5b8063a9a234091461023c578063b0d691fe1461025c578063bb9fe6bf14610290578063c23a5cea146102a557600080fd5b80638da5cb5b116100c65780638da5cb5b1461019357806394d4ad60146101b157806394e1fc19146101e15780639c90b4431461020f57600080fd5b80630396cb60146100f8578063205c28781461010d57806323d9ac9b1461012d578063715018a61461017e575b600080fd5b61010b610106366004610daa565b610330565b005b34801561011957600080fd5b5061010b610128366004610dec565b6103bb565b34801561013957600080fd5b506101617f000000000000000000000000000000000000000000000000000000000000000081565b6040516001600160a01b0390911681526020015b60405180910390f35b34801561018a57600080fd5b5061010b61042d565b34801561019f57600080fd5b506000546001600160a01b0316610161565b3480156101bd57600080fd5b506101d16101cc366004610e5a565b610441565b6040516101759493929190610e9c565b3480156101ed57600080fd5b506102016101fc366004610f1c565b61047e565b604051908152602001610175565b34801561021b57600080fd5b5061020161022a366004610f7a565b60016020526000908152604090205481565b34801561024857600080fd5b5061010b610257366004610f97565b6104db565b34801561026857600080fd5b506101617f000000000000000000000000000000000000000000000000000000000000000081565b34801561029c57600080fd5b5061010b6104f5565b3480156102b157600080fd5b5061010b6102c0366004610f7a565b61056c565b3480156102d157600080fd5b506102016105f2565b61010b610682565b3480156102ee57600080fd5b5061010b6102fd366004610f7a565b6106e4565b34801561030e57600080fd5b5061032261031d366004610ff7565b610762565b60405161017592919061108b565b610338610786565b604051621cb65b60e51b815263ffffffff821660048201527f00000000000000000000000000000000000000000000000000000000000000006001600160a01b031690630396cb609034906024016000604051808303818588803b15801561039f57600080fd5b505af11580156103b3573d6000803e3d6000fd5b505050505050565b6103c3610786565b60405163040b850f60e31b81526001600160a01b038381166004830152602482018390527f0000000000000000000000000000000000000000000000000000000000000000169063205c287890604401600060405180830381600087803b15801561039f57600080fd5b610435610786565b61043f60006107e0565b565b60008036816104546054601487896110ad565b81019061046191906110d7565b909450925061047385605481896110ad565b949793965094505050565b600061048984610830565b6001600160a01b038535166000908152600160209081526040918290205491516104bc939246923092899189910161110a565b6040516020818303038152906040528051906020012090509392505050565b6104e361086f565b6104ef848484846108df565b50505050565b6104fd610786565b7f00000000000000000000000000000000000000000000000000000000000000006001600160a01b031663bb9fe6bf6040518163ffffffff1660e01b8152600401600060405180830381600087803b15801561055857600080fd5b505af11580156104ef573d6000803e3d6000fd5b610574610786565b60405163611d2e7560e11b81526001600160a01b0382811660048301527f0000000000000000000000000000000000000000000000000000000000000000169063c23a5cea90602401600060405180830381600087803b1580156105d757600080fd5b505af11580156105eb573d6000803e3d6000fd5b5050505050565b6040516370a0823160e01b81523060048201526000907f00000000000000000000000000000000000000000000000000000000000000006001600160a01b0316906370a0823190602401602060405180830381865afa158015610659573d6000803e3d6000fd5b505050506040513d601f19601f8201168201806040525081019061067d919061115a565b905090565b60405163b760faf960e01b81523060048201527f00000000000000000000000000000000000000000000000000000000000000006001600160a01b03169063b760faf99034906024016000604051808303818588803b1580156105d757600080fd5b6106ec610786565b6001600160a01b0381166107565760405162461bcd60e51b815260206004820152602660248201527f4f776e61626c653a206e6577206f776e657220697320746865207a65726f206160448201526564647265737360d01b60648201526084015b60405180910390fd5b61075f816107e0565b50565b6060600061076e61086f565b610779858585610917565b915091505b935093915050565b6000546001600160a01b0316331461043f5760405162461bcd60e51b815260206004820181905260248201527f4f776e61626c653a2063616c6c6572206973206e6f7420746865206f776e6572604482015260640161074d565b600080546001600160a01b038381166001600160a01b0319831681178455604051919092169283917f8be0079c531659141344cd1fd0a4f28419497f9722a3daafe3b4186f6b6457e09190a35050565b6060366000610843610120850185611173565b915091508360208184030360405194506020810185016040528085528082602087013750505050919050565b336001600160a01b037f0000000000000000000000000000000000000000000000000000000000000000161461043f5760405162461bcd60e51b815260206004820152601560248201527414d95b99195c881b9bdd08115b9d1c9e541bda5b9d605a1b604482015260640161074d565b60405162461bcd60e51b815260206004820152600d60248201526c6d757374206f7665727269646560981b604482015260640161074d565b60606000808036816109306101cc6101208b018b611173565b9296509094509250905060408114806109495750604181145b6109bd576040805162461bcd60e51b81526020600482015260248101919091527f566572696679696e675061796d61737465723a20696e76616c6964207369676e60448201527f6174757265206c656e67746820696e207061796d6173746572416e6444617461606482015260840161074d565b6000610a006109cd8b878761047e565b7f19457468657265756d205369676e6564204d6573736167653a0a3332000000006000908152601c91909152603c902090565b6001600160a01b038b35166000908152600160205260408120805492935090610a28836111ba565b9190505550610a6d8184848080601f016020809104026020016040519081016040528093929190818152602001838380828437600092019190915250610afb92505050565b6001600160a01b03167f00000000000000000000000000000000000000000000000000000000000000006001600160a01b031614610ad057610ab160018686610b1f565b604051806020016040528060008152509096509650505050505061077e565b610adc60008686610b1f565b6040805160208101909152600081529b909a5098505050505050505050565b6000806000610b0a8585610b57565b91509150610b1781610b9c565b509392505050565b600060d08265ffffffffffff16901b60a08465ffffffffffff16901b85610b47576000610b4a565b60015b60ff161717949350505050565b6000808251604103610b8d5760208301516040840151606085015160001a610b8187828585610ce6565b94509450505050610b95565b506000905060025b9250929050565b6000816004811115610bb057610bb06111e1565b03610bb85750565b6001816004811115610bcc57610bcc6111e1565b03610c195760405162461bcd60e51b815260206004820152601860248201527f45434453413a20696e76616c6964207369676e61747572650000000000000000604482015260640161074d565b6002816004811115610c2d57610c2d6111e1565b03610c7a5760405162461bcd60e51b815260206004820152601f60248201527f45434453413a20696e76616c6964207369676e6174757265206c656e67746800604482015260640161074d565b6003816004811115610c8e57610c8e6111e1565b0361075f5760405162461bcd60e51b815260206004820152602260248201527f45434453413a20696e76616c6964207369676e6174757265202773272076616c604482015261756560f01b606482015260840161074d565b6000807f7fffffffffffffffffffffffffffffff5d576e7357a4501ddfe92f46681b20a0831115610d1d5750600090506003610da1565b6040805160008082526020820180845289905260ff881692820192909252606081018690526080810185905260019060a0016020604051602081039080840390855afa158015610d71573d6000803e3d6000fd5b5050604051601f1901519150506001600160a01b038116610d9a57600060019250925050610da1565b9150600090505b94509492505050565b600060208284031215610dbc57600080fd5b813563ffffffff81168114610dd057600080fd5b9392505050565b6001600160a01b038116811461075f57600080fd5b60008060408385031215610dff57600080fd5b8235610e0a81610dd7565b946020939093013593505050565b60008083601f840112610e2a57600080fd5b50813567ffffffffffffffff811115610e4257600080fd5b602083019150836020828501011115610b9557600080fd5b60008060208385031215610e6d57600080fd5b823567ffffffffffffffff811115610e8457600080fd5b610e9085828601610e18565b90969095509350505050565b600065ffffffffffff808716835280861660208401525060606040830152826060830152828460808401376000608084840101526080601f19601f850116830101905095945050505050565b60006101608284031215610efb57600080fd5b50919050565b803565ffffffffffff81168114610f1757600080fd5b919050565b600080600060608486031215610f3157600080fd5b833567ffffffffffffffff811115610f4857600080fd5b610f5486828701610ee8565b935050610f6360208501610f01565b9150610f7160408501610f01565b90509250925092565b600060208284031215610f8c57600080fd5b8135610dd081610dd7565b60008060008060608587031215610fad57600080fd5b843560038110610fbc57600080fd5b9350602085013567ffffffffffffffff811115610fd857600080fd5b610fe487828801610e18565b9598909750949560400135949350505050565b60008060006060848603121561100c57600080fd5b833567ffffffffffffffff81111561102357600080fd5b61102f86828701610ee8565b9660208601359650604090950135949350505050565b6000815180845260005b8181101561106b5760208185018101518683018201520161104f565b506000602082860101526020601f19601f83011685010191505092915050565b60408152600061109e6040830185611045565b90508260208301529392505050565b600080858511156110bd57600080fd5b838611156110ca57600080fd5b5050820193919092039150565b600080604083850312156110ea57600080fd5b6110f383610f01565b915061110160208401610f01565b90509250929050565b60c08152600061111d60c0830189611045565b6020830197909752506001600160a01b03949094166040850152606084019290925265ffffffffffff90811660808401521660a090910152919050565b60006020828403121561116c57600080fd5b5051919050565b6000808335601e1984360301811261118a57600080fd5b83018035915067ffffffffffffffff8211156111a557600080fd5b602001915036819003821315610b9557600080fd5b6000600182016111da57634e487b7160e01b600052601160045260246000fd5b5060010190565b634e487b7160e01b600052602160045260246000fdfea2646970667358221220e7f178228941ada4bad7a3ec3f433d50bb92f51cf49ae6523caa3995500dcc7364736f6c63430008130033",
    "linkReferences": {}
  },
  "methodIdentifiers": {
    "addStake(uint32)": "0396cb60",
    "deposit()": "d0e30db0",
    "entryPoint()": "b0d691fe",
    "getDeposit()": "c399ec88",
    "getHash((address,uint256,bytes,bytes,uint256,uint256,uint256,uint256,uint256,bytes,bytes),uint48,uint48)": "94e1fc19",
    "owner()": "8da5cb5b",
    "parsePaymasterAndData(bytes)": "94d4ad60",
    "postOp(uint8,bytes,uint256)": "a9a23409",
    "renounceOwnership()": "715018a6",
    "senderNonce(address)": "9c90b443",
    "transferOwnership(address)": "f2fde38b",
    "unlockStake()": "bb9fe6bf",
    "validatePaymasterUserOp((address,uint256,bytes,bytes,uint256,uint256,uint256,uint256,uint256,bytes,bytes),bytes32,uint256)": "f465c77e",
    "verifyingSigner()": "23d9ac9b",
    "withdrawStake(address)": "c23a5cea",
    "withdrawTo(address,uint256)": "205c2878"
  },
  "id": 19
}