{
  "_format": "hh-sol-artifact-1",
  "contractName": "Melon",
  "sourceName": "contracts/Melon.sol",
  "abi": [
    {
      "inputs": [
        {
          "internalType": "bytes16",
          "name": "_appId",
          "type": "bytes16"
        },
        {
          "internalType": "bytes16",
          "name": "_groupId",
          "type": "bytes16"
        },
        {
          "internalType": "address",
          "name": "_owner",
          "type": "address"
        }
      ],
      "stateMutability": "nonpayable",
      "type": "constructor"
    },
    {
      "anonymous": false,
      "inputs": [
        {
          "indexed": true,
          "internalType": "address",
          "name": "previousOwner",
          "type": "address"
        },
        {
          "indexed": true,
          "internalType": "address",
          "name": "newOwner",
          "type": "address"
        }
      ],
      "name": "OwnershipTransferred",
      "type": "event"
    },
    {
      "inputs": [],
      "name": "ADDRESSES_PROVIDER_V2",
      "outputs": [
        {
          "internalType": "contract IAddressesProvider",
          "name": "",
          "type": "address"
        }
      ],
      "stateMutability": "view",
      "type": "function"
    },
    {
      "inputs": [],
      "name": "APP_ID",
      "outputs": [
        {
          "internalType": "bytes16",
          "name": "",
          "type": "bytes16"
        }
      ],
      "stateMutability": "view",
      "type": "function"
    },
    {
      "inputs": [],
      "name": "IS_IMPERSONATION_MODE",
      "outputs": [
        {
          "internalType": "bool",
          "name": "",
          "type": "bool"
        }
      ],
      "stateMutability": "view",
      "type": "function"
    },
    {
      "inputs": [],
      "name": "SISMO_CONNECT_LIB_VERSION",
      "outputs": [
        {
          "internalType": "uint256",
          "name": "",
          "type": "uint256"
        }
      ],
      "stateMutability": "view",
      "type": "function"
    },
    {
      "inputs": [
        {
          "internalType": "uint256",
          "name": "",
          "type": "uint256"
        },
        {
          "internalType": "uint256",
          "name": "",
          "type": "uint256"
        }
      ],
      "name": "actionDone",
      "outputs": [
        {
          "internalType": "uint256",
          "name": "",
          "type": "uint256"
        }
      ],
      "stateMutability": "view",
      "type": "function"
    },
    {
      "inputs": [],
      "name": "config",
      "outputs": [
        {
          "components": [
            {
              "internalType": "bytes16",
              "name": "appId",
              "type": "bytes16"
            },
            {
              "components": [
                {
                  "internalType": "bool",
                  "name": "isImpersonationMode",
                  "type": "bool"
                }
              ],
              "internalType": "struct VaultConfig",
              "name": "vault",
              "type": "tuple"
            }
          ],
          "internalType": "struct SismoConnectConfig",
          "name": "",
          "type": "tuple"
        }
      ],
      "stateMutability": "view",
      "type": "function"
    },
    {
      "inputs": [
        {
          "internalType": "uint256",
          "name": "",
          "type": "uint256"
        }
      ],
      "name": "contracts",
      "outputs": [
        {
          "internalType": "address",
          "name": "",
          "type": "address"
        }
      ],
      "stateMutability": "view",
      "type": "function"
    },
    {
      "inputs": [],
      "name": "daoContract",
      "outputs": [
        {
          "internalType": "contract IDAO",
          "name": "",
          "type": "address"
        }
      ],
      "stateMutability": "view",
      "type": "function"
    },
    {
      "inputs": [
        {
          "internalType": "uint256",
          "name": "_minRank",
          "type": "uint256"
        },
        {
          "internalType": "uint256",
          "name": "_maxNumberActions",
          "type": "uint256"
        },
        {
          "internalType": "address",
          "name": "_contract",
          "type": "address"
        }
      ],
      "name": "giveAction",
      "outputs": [],
      "stateMutability": "nonpayable",
      "type": "function"
    },
    {
      "inputs": [],
      "name": "id",
      "outputs": [
        {
          "internalType": "uint256",
          "name": "",
          "type": "uint256"
        }
      ],
      "stateMutability": "view",
      "type": "function"
    },
    {
      "inputs": [],
      "name": "lastAuth",
      "outputs": [
        {
          "internalType": "uint256",
          "name": "",
          "type": "uint256"
        }
      ],
      "stateMutability": "view",
      "type": "function"
    },
    {
      "inputs": [],
      "name": "lastResult",
      "outputs": [
        {
          "internalType": "uint256",
          "name": "",
          "type": "uint256"
        }
      ],
      "stateMutability": "view",
      "type": "function"
    },
    {
      "inputs": [
        {
          "internalType": "uint256",
          "name": "",
          "type": "uint256"
        }
      ],
      "name": "maxActionById",
      "outputs": [
        {
          "internalType": "uint256",
          "name": "",
          "type": "uint256"
        }
      ],
      "stateMutability": "view",
      "type": "function"
    },
    {
      "inputs": [
        {
          "internalType": "bytes",
          "name": "response",
          "type": "bytes"
        },
        {
          "internalType": "uint256",
          "name": "_rank",
          "type": "uint256"
        },
        {
          "internalType": "address",
          "name": "_wallet",
          "type": "address"
        },
        {
          "internalType": "uint256",
          "name": "_id",
          "type": "uint256"
        },
        {
          "internalType": "bytes32",
          "name": "_arg",
          "type": "bytes32"
        }
      ],
      "name": "melonAction",
      "outputs": [
        {
          "components": [
            {
              "internalType": "bytes16",
              "name": "appId",
              "type": "bytes16"
            },
            {
              "internalType": "bytes16",
              "name": "namespace",
              "type": "bytes16"
            },
            {
              "internalType": "bytes32",
              "name": "version",
              "type": "bytes32"
            },
            {
              "components": [
                {
                  "internalType": "enum AuthType",
                  "name": "authType",
                  "type": "uint8"
                },
                {
                  "internalType": "bool",
                  "name": "isAnon",
                  "type": "bool"
                },
                {
                  "internalType": "uint256",
                  "name": "userId",
                  "type": "uint256"
                },
                {
                  "internalType": "bytes",
                  "name": "extraData",
                  "type": "bytes"
                },
                {
                  "internalType": "bytes",
                  "name": "proofData",
                  "type": "bytes"
                }
              ],
              "internalType": "struct VerifiedAuth[]",
              "name": "auths",
              "type": "tuple[]"
            },
            {
              "components": [
                {
                  "internalType": "enum ClaimType",
                  "name": "claimType",
                  "type": "uint8"
                },
                {
                  "internalType": "bytes16",
                  "name": "groupId",
                  "type": "bytes16"
                },
                {
                  "internalType": "bytes16",
                  "name": "groupTimestamp",
                  "type": "bytes16"
                },
                {
                  "internalType": "uint256",
                  "name": "value",
                  "type": "uint256"
                },
                {
                  "internalType": "bytes",
                  "name": "extraData",
                  "type": "bytes"
                },
                {
                  "internalType": "uint256",
                  "name": "proofId",
                  "type": "uint256"
                },
                {
                  "internalType": "bytes",
                  "name": "proofData",
                  "type": "bytes"
                }
              ],
              "internalType": "struct VerifiedClaim[]",
              "name": "claims",
              "type": "tuple[]"
            },
            {
              "internalType": "bytes",
              "name": "signedMessage",
              "type": "bytes"
            }
          ],
          "internalType": "struct SismoConnectVerifiedResult",
          "name": "result",
          "type": "tuple"
        }
      ],
      "stateMutability": "nonpayable",
      "type": "function"
    },
    {
      "inputs": [
        {
          "internalType": "uint256",
          "name": "",
          "type": "uint256"
        }
      ],
      "name": "minRank",
      "outputs": [
        {
          "internalType": "uint256",
          "name": "",
          "type": "uint256"
        }
      ],
      "stateMutability": "view",
      "type": "function"
    },
    {
      "inputs": [],
      "name": "owner",
      "outputs": [
        {
          "internalType": "address",
          "name": "",
          "type": "address"
        }
      ],
      "stateMutability": "view",
      "type": "function"
    },
    {
      "inputs": [],
      "name": "renounceOwnership",
      "outputs": [],
      "stateMutability": "nonpayable",
      "type": "function"
    },
    {
      "inputs": [
        {
          "internalType": "address",
          "name": "newOwner",
          "type": "address"
        }
      ],
      "name": "transferOwnership",
      "outputs": [],
      "stateMutability": "nonpayable",
      "type": "function"
    },
    {
      "inputs": [
        {
          "internalType": "uint256",
          "name": "amount",
          "type": "uint256"
        },
        {
          "internalType": "address",
          "name": "token",
          "type": "address"
        }
      ],
      "name": "withdrawToOwner",
      "outputs": [],
      "stateMutability": "nonpayable",
      "type": "function"
    },
    {
      "stateMutability": "payable",
      "type": "receive"
    }
  ],
  "bytecode": "0x6101806040523480156200001257600080fd5b5060405162004bea38038062004bea833981810160405281019062000038919062000979565b6200004983620005e360201b60201c565b620000696200005d6200062b60201b60201c565b6200063360201b60201c565b80600001516fffffffffffffffffffffffffffffffff1916610120816fffffffffffffffffffffffffffffffff191681525050806020015160000151151561014081151581525050733cd5334eb64ebbd4003b72022cc25465f1bfcee673ffffffffffffffffffffffffffffffffffffffff1663693ec85e6040518060400160405280601981526020017f7369736d6f436f6e6e65637456657269666965722d76312e32000000000000008152506040518263ffffffff1660e01b815260040162000135919062000a6f565b602060405180830381865afa15801562000153573d6000803e3d6000fd5b505050506040513d601f19601f8201168201806040525081019062000179919062000a93565b73ffffffffffffffffffffffffffffffffffffffff1660808173ffffffffffffffffffffffffffffffffffffffff1681525050733cd5334eb64ebbd4003b72022cc25465f1bfcee673ffffffffffffffffffffffffffffffffffffffff1663693ec85e6040518060400160405280601781526020017f61757468526571756573744275696c6465722d76312e310000000000000000008152506040518263ffffffff1660e01b815260040162000230919062000a6f565b602060405180830381865afa1580156200024e573d6000803e3d6000fd5b505050506040513d601f19601f8201168201806040525081019062000274919062000a93565b73ffffffffffffffffffffffffffffffffffffffff1660a08173ffffffffffffffffffffffffffffffffffffffff1681525050733cd5334eb64ebbd4003b72022cc25465f1bfcee673ffffffffffffffffffffffffffffffffffffffff1663693ec85e6040518060400160405280601881526020017f636c61696d526571756573744275696c6465722d76312e3100000000000000008152506040518263ffffffff1660e01b81526004016200032b919062000a6f565b602060405180830381865afa15801562000349573d6000803e3d6000fd5b505050506040513d601f19601f820116820180604052508101906200036f919062000a93565b73ffffffffffffffffffffffffffffffffffffffff1660c08173ffffffffffffffffffffffffffffffffffffffff1681525050733cd5334eb64ebbd4003b72022cc25465f1bfcee673ffffffffffffffffffffffffffffffffffffffff1663693ec85e6040518060400160405280601581526020017f7369676e61747572654275696c6465722d76312e3100000000000000000000008152506040518263ffffffff1660e01b815260040162000426919062000a6f565b602060405180830381865afa15801562000444573d6000803e3d6000fd5b505050506040513d601f19601f820116820180604052508101906200046a919062000a93565b73ffffffffffffffffffffffffffffffffffffffff1660e08173ffffffffffffffffffffffffffffffffffffffff1681525050733cd5334eb64ebbd4003b72022cc25465f1bfcee673ffffffffffffffffffffffffffffffffffffffff1663693ec85e6040518060400160405280601381526020017f726571756573744275696c6465722d76312e31000000000000000000000000008152506040518263ffffffff1660e01b815260040162000521919062000a6f565b602060405180830381865afa1580156200053f573d6000803e3d6000fd5b505050506040513d601f19601f8201168201806040525081019062000565919062000a93565b73ffffffffffffffffffffffffffffffffffffffff166101008173ffffffffffffffffffffffffffffffffffffffff168152505050816fffffffffffffffffffffffffffffffff1916610160816fffffffffffffffffffffffffffffffff191681525050620005da81620006f760201b60201c565b50505062000bcf565b620005ed62000868565b6040518060400160405280836fffffffffffffffffffffffffffffffff19168152602001620006216200078d60201b60201c565b8152509050919050565b600033905090565b60008060009054906101000a900473ffffffffffffffffffffffffffffffffffffffff169050816000806101000a81548173ffffffffffffffffffffffffffffffffffffffff021916908373ffffffffffffffffffffffffffffffffffffffff1602179055508173ffffffffffffffffffffffffffffffffffffffff168173ffffffffffffffffffffffffffffffffffffffff167f8be0079c531659141344cd1fd0a4f28419497f9722a3daafe3b4186f6b6457e060405160405180910390a35050565b62000707620007ae60201b60201c565b600073ffffffffffffffffffffffffffffffffffffffff168173ffffffffffffffffffffffffffffffffffffffff160362000779576040517f08c379a0000000000000000000000000000000000000000000000000000000008152600401620007709062000b3b565b60405180910390fd5b6200078a816200063360201b60201c565b50565b620007976200089d565b604051806020016040528060001515815250905090565b620007be6200062b60201b60201c565b73ffffffffffffffffffffffffffffffffffffffff16620007e46200083f60201b60201c565b73ffffffffffffffffffffffffffffffffffffffff16146200083d576040517f08c379a0000000000000000000000000000000000000000000000000000000008152600401620008349062000bad565b60405180910390fd5b565b60008060009054906101000a900473ffffffffffffffffffffffffffffffffffffffff16905090565b604051806040016040528060006fffffffffffffffffffffffffffffffff19168152602001620008976200089d565b81525090565b60405180602001604052806000151581525090565b600080fd5b60007fffffffffffffffffffffffffffffffff0000000000000000000000000000000082169050919050565b620008ee81620008b7565b8114620008fa57600080fd5b50565b6000815190506200090e81620008e3565b92915050565b600073ffffffffffffffffffffffffffffffffffffffff82169050919050565b6000620009418262000914565b9050919050565b620009538162000934565b81146200095f57600080fd5b50565b600081519050620009738162000948565b92915050565b600080600060608486031215620009955762000994620008b2565b5b6000620009a586828701620008fd565b9350506020620009b886828701620008fd565b9250506040620009cb8682870162000962565b9150509250925092565b600081519050919050565b600082825260208201905092915050565b60005b8381101562000a11578082015181840152602081019050620009f4565b60008484015250505050565b6000601f19601f8301169050919050565b600062000a3b82620009d5565b62000a478185620009e0565b935062000a59818560208601620009f1565b62000a648162000a1d565b840191505092915050565b6000602082019050818103600083015262000a8b818462000a2e565b905092915050565b60006020828403121562000aac5762000aab620008b2565b5b600062000abc8482850162000962565b91505092915050565b7f4f776e61626c653a206e6577206f776e657220697320746865207a65726f206160008201527f6464726573730000000000000000000000000000000000000000000000000000602082015250565b600062000b23602683620009e0565b915062000b308262000ac5565b604082019050919050565b6000602082019050818103600083015262000b568162000b14565b9050919050565b7f4f776e61626c653a2063616c6c6572206973206e6f7420746865206f776e6572600082015250565b600062000b95602083620009e0565b915062000ba28262000b5d565b602082019050919050565b6000602082019050818103600083015262000bc88162000b86565b9050919050565b60805160a05160c05160e05161010051610120516101405161016051613faa62000c406000396000610735015260008181610b9f0152610bf3015260008181610b7e0152610c4e015260006110ce01526000610e3101526000610d800152600050506000610f050152613faa6000f3fe6080604052600436106101185760003560e01c806379502c55116100a0578063af640d0f11610064578063af640d0f146103c0578063c10a20bb146103eb578063c187bbc114610416578063c9512d9914610441578063f2fde38b1461046c5761011f565b806379502c55146102d75780638da5cb5b14610302578063a183dc271461032d578063abcc11d814610358578063ae8927de146103835761011f565b8063474da79a116100e7578063474da79a146101f25780634a7ffcbc1461022f5780635f57a3851461025a5780636fc0d73a14610283578063715018a6146102c05761011f565b8063040287a3146101245780630dca932f1461014d5780631120b7e01461018a57806346916301146101c75761011f565b3661011f57005b600080fd5b34801561013057600080fd5b5061014b600480360381019061014691906113c1565b610495565b005b34801561015957600080fd5b50610174600480360381019061016f919061157d565b6106e0565b6040516101819190611b01565b60405180910390f35b34801561019657600080fd5b506101b160048036038101906101ac9190611b23565b6109c9565b6040516101be9190611b5f565b60405180910390f35b3480156101d357600080fd5b506101dc6109e1565b6040516101e99190611bd9565b60405180910390f35b3480156101fe57600080fd5b5061021960048036038101906102149190611b23565b6109f9565b6040516102269190611c03565b60405180910390f35b34801561023b57600080fd5b50610244610a2c565b6040516102519190611c3f565b60405180910390f35b34801561026657600080fd5b50610281600480360381019061027c9190611c5a565b610a52565b005b34801561028f57600080fd5b506102aa60048036038101906102a59190611b23565b610b45565b6040516102b79190611b5f565b60405180910390f35b3480156102cc57600080fd5b506102d5610b5d565b005b3480156102e357600080fd5b506102ec610b71565b6040516102f99190611cf8565b60405180910390f35b34801561030e57600080fd5b50610317610bc8565b6040516103249190611c03565b60405180910390f35b34801561033957600080fd5b50610342610bf1565b60405161034f9190611d22565b60405180910390f35b34801561036457600080fd5b5061036d610c15565b60405161037a9190611b5f565b60405180910390f35b34801561038f57600080fd5b506103aa60048036038101906103a59190611d3d565b610c1b565b6040516103b79190611b5f565b60405180910390f35b3480156103cc57600080fd5b506103d5610c40565b6040516103e29190611b5f565b60405180910390f35b3480156103f757600080fd5b50610400610c46565b60405161040d9190611b5f565b60405180910390f35b34801561042257600080fd5b5061042b610c4c565b6040516104389190611d8c565b60405180910390f35b34801561044d57600080fd5b50610456610c70565b6040516104639190611b5f565b60405180910390f35b34801561047857600080fd5b50610493600480360381019061048e9190611da7565b610c75565b005b61049d610cf8565b600082116104e0576040517f08c379a00000000000000000000000000000000000000000000000000000000081526004016104d790611e57565b60405180910390fd5b60008073ffffffffffffffffffffffffffffffffffffffff168273ffffffffffffffffffffffffffffffffffffffff16146105e45760008290508073ffffffffffffffffffffffffffffffffffffffff1663a9059cbb61053e610bc8565b866040518363ffffffff1660e01b815260040161055c929190611e77565b6020604051808303816000875af115801561057b573d6000803e3d6000fd5b505050506040513d601f19601f8201168201806040525081019061059f9190611ecc565b6105de576040517f08c379a00000000000000000000000000000000000000000000000000000000081526004016105d590611f45565b60405180910390fd5b506106db565b82471015610627576040517f08c379a000000000000000000000000000000000000000000000000000000000815260040161061e90611fb1565b60405180910390fd5b61062f610bc8565b73ffffffffffffffffffffffffffffffffffffffff168360405161065290612002565b60006040518083038185875af1925050503d806000811461068f576040519150601f19603f3d011682016040523d82523d6000602084013e610694565b606091505b505080915050806106da576040517f08c379a00000000000000000000000000000000000000000000000000000000081526004016106d190612063565b60405180910390fd5b5b505050565b6106e8611195565b826007541161072c576040517f08c379a0000000000000000000000000000000000000000000000000000000008152600401610723906120cf565b60405180910390fd5b6107878661075a7f000000000000000000000000000000000000000000000000000000000000000088610d76565b6107828760405160200161076e9190611c03565b604051602081830303815290604052610e27565b610ed5565b905080608001516000815181106107a1576107a06120ef565b5b60200260200101516060015160036000858152602001908152602001600020541115610802576040517f08c379a00000000000000000000000000000000000000000000000000000000081526004016107f99061216a565b60405180910390fd5b60026000848152602001908152602001600020546001600085815260200190815260200160002060008360600151600081518110610843576108426120ef565b5b6020026020010151604001518152602001908152602001600020541061089e576040517f08c379a0000000000000000000000000000000000000000000000000000000008152600401610895906121fc565b60405180910390fd5b60016000848152602001908152602001600020600082606001516000815181106108cb576108ca6120ef565b5b602002602001015160400151815260200190815260200160002060008154809291906108f69061224b565b91905055506004600084815260200190815260200160002060009054906101000a900473ffffffffffffffffffffffffffffffffffffffff1673ffffffffffffffffffffffffffffffffffffffff1663ac7a43d58260800151600081518110610962576109616120ef565b5b60200260200101516060015186856040518463ffffffff1660e01b815260040161098e939291906122a2565b600060405180830381600087803b1580156109a857600080fd5b505af11580156109bc573d6000803e3d6000fd5b5050505095945050505050565b60036020528060005260406000206000915090505481565b733cd5334eb64ebbd4003b72022cc25465f1bfcee681565b60046020528060005260406000206000915054906101000a900473ffffffffffffffffffffffffffffffffffffffff1681565b600860009054906101000a900473ffffffffffffffffffffffffffffffffffffffff1681565b610a5a610cf8565b6000600754905060076000815480929190610a749061224b565b91905055506001841015610abd576040517f08c379a0000000000000000000000000000000000000000000000000000000008152600401610ab490612325565b60405180910390fd5b826002600083815260200190815260200160002081905550836003600083815260200190815260200160002081905550816004600083815260200190815260200160002060006101000a81548173ffffffffffffffffffffffffffffffffffffffff021916908373ffffffffffffffffffffffffffffffffffffffff16021790555050505050565b60026020528060005260406000206000915090505481565b610b65610cf8565b610b6f6000610fb8565b565b610b796111f4565b610bc37f00000000000000000000000000000000000000000000000000000000000000007f000000000000000000000000000000000000000000000000000000000000000061107c565b905090565b60008060009054906101000a900473ffffffffffffffffffffffffffffffffffffffff16905090565b7f000000000000000000000000000000000000000000000000000000000000000081565b60055481565b6001602052816000526040600020602052806000526040600020600091509150505481565b60075481565b60065481565b7f000000000000000000000000000000000000000000000000000000000000000081565b600281565b610c7d610cf8565b600073ffffffffffffffffffffffffffffffffffffffff168173ffffffffffffffffffffffffffffffffffffffff1603610cec576040517f08c379a0000000000000000000000000000000000000000000000000000000008152600401610ce3906123b7565b60405180910390fd5b610cf581610fb8565b50565b610d006110bc565b73ffffffffffffffffffffffffffffffffffffffff16610d1e610bc8565b73ffffffffffffffffffffffffffffffffffffffff1614610d74576040517f08c379a0000000000000000000000000000000000000000000000000000000008152600401610d6b90612423565b60405180910390fd5b565b610d7e611227565b7f000000000000000000000000000000000000000000000000000000000000000073ffffffffffffffffffffffffffffffffffffffff16638628695b84846040518363ffffffff1660e01b8152600401610dd9929190612443565b600060405180830381865afa158015610df6573d6000803e3d6000fd5b505050506040513d6000823e3d601f19601f82011682018060405250810190610e1f919061261c565b905092915050565b610e2f6112a0565b7f000000000000000000000000000000000000000000000000000000000000000073ffffffffffffffffffffffffffffffffffffffff16636835f32c836040518263ffffffff1660e01b8152600401610e8891906126af565b600060405180830381865afa158015610ea5573d6000803e3d6000fd5b505050506040513d6000823e3d601f19601f82011682018060405250810190610ece919061276d565b9050919050565b610edd611195565b600084806020019051810190610ef39190612dbc565b90506000610f0185856110c4565b90507f000000000000000000000000000000000000000000000000000000000000000073ffffffffffffffffffffffffffffffffffffffff166312b037ff8383610f49610b71565b6040518463ffffffff1660e01b8152600401610f67939291906135c3565b600060405180830381865afa158015610f84573d6000803e3d6000fd5b505050506040513d6000823e3d601f19601f82011682018060405250810190610fad9190613a6e565b925050509392505050565b60008060009054906101000a900473ffffffffffffffffffffffffffffffffffffffff169050816000806101000a81548173ffffffffffffffffffffffffffffffffffffffff021916908373ffffffffffffffffffffffffffffffffffffffff1602179055508173ffffffffffffffffffffffffffffffffffffffff168173ffffffffffffffffffffffffffffffffffffffff167f8be0079c531659141344cd1fd0a4f28419497f9722a3daafe3b4186f6b6457e060405160405180910390a35050565b6110846111f4565b6040518060400160405280846fffffffffffffffffffffffffffffffff191681526020016110b184611175565b815250905092915050565b600033905090565b6110cc6112c3565b7f000000000000000000000000000000000000000000000000000000000000000073ffffffffffffffffffffffffffffffffffffffff1663c9f97f5384846040518363ffffffff1660e01b8152600401611127929190613baa565b600060405180830381865afa158015611144573d6000803e3d6000fd5b505050506040513d6000823e3d601f19601f8201168201806040525081019061116d9190613f2b565b905092915050565b61117d611304565b60405180602001604052808315158152509050919050565b6040518060c0016040528060006fffffffffffffffffffffffffffffffff1916815260200160006fffffffffffffffffffffffffffffffff19168152602001600080191681526020016060815260200160608152602001606081525090565b604051806040016040528060006fffffffffffffffffffffffffffffffff19168152602001611221611304565b81525090565b6040518060e00160405280600060048111156112465761124561168a565b5b815260200160006fffffffffffffffffffffffffffffffff1916815260200160006fffffffffffffffffffffffffffffffff1916815260200160008152602001600015158152602001600015158152602001606081525090565b604051806060016040528060608152602001600015158152602001606081525090565b604051806080016040528060006fffffffffffffffffffffffffffffffff1916815260200160608152602001606081526020016112fe6112a0565b81525090565b60405180602001604052806000151581525090565b6000604051905090565b600080fd5b600080fd5b6000819050919050565b6113408161132d565b811461134b57600080fd5b50565b60008135905061135d81611337565b92915050565b600073ffffffffffffffffffffffffffffffffffffffff82169050919050565b600061138e82611363565b9050919050565b61139e81611383565b81146113a957600080fd5b50565b6000813590506113bb81611395565b92915050565b600080604083850312156113d8576113d7611323565b5b60006113e68582860161134e565b92505060206113f7858286016113ac565b9150509250929050565b600080fd5b600080fd5b6000601f19601f8301169050919050565b7f4e487b7100000000000000000000000000000000000000000000000000000000600052604160045260246000fd5b6114548261140b565b810181811067ffffffffffffffff821117156114735761147261141c565b5b80604052505050565b6000611486611319565b9050611492828261144b565b919050565b600067ffffffffffffffff8211156114b2576114b161141c565b5b6114bb8261140b565b9050602081019050919050565b82818337600083830152505050565b60006114ea6114e584611497565b61147c565b90508281526020810184848401111561150657611505611406565b5b6115118482856114c8565b509392505050565b600082601f83011261152e5761152d611401565b5b813561153e8482602086016114d7565b91505092915050565b6000819050919050565b61155a81611547565b811461156557600080fd5b50565b60008135905061157781611551565b92915050565b600080600080600060a0868803121561159957611598611323565b5b600086013567ffffffffffffffff8111156115b7576115b6611328565b5b6115c388828901611519565b95505060206115d48882890161134e565b94505060406115e5888289016113ac565b93505060606115f68882890161134e565b925050608061160788828901611568565b9150509295509295909350565b60007fffffffffffffffffffffffffffffffff0000000000000000000000000000000082169050919050565b61164981611614565b82525050565b61165881611547565b82525050565b600081519050919050565b600082825260208201905092915050565b6000819050602082019050919050565b7f4e487b7100000000000000000000000000000000000000000000000000000000600052602160045260246000fd5b600681106116ca576116c961168a565b5b50565b60008190506116db826116b9565b919050565b60006116eb826116cd565b9050919050565b6116fb816116e0565b82525050565b60008115159050919050565b61171681611701565b82525050565b6117258161132d565b82525050565b600081519050919050565b600082825260208201905092915050565b60005b8381101561176557808201518184015260208101905061174a565b60008484015250505050565b600061177c8261172b565b6117868185611736565b9350611796818560208601611747565b61179f8161140b565b840191505092915050565b600060a0830160008301516117c260008601826116f2565b5060208301516117d5602086018261170d565b5060408301516117e8604086018261171c565b50606083015184820360608601526118008282611771565b9150506080830151848203608086015261181a8282611771565b9150508091505092915050565b600061183383836117aa565b905092915050565b6000602082019050919050565b60006118538261165e565b61185d8185611669565b93508360208202850161186f8561167a565b8060005b858110156118ab578484038952815161188c8582611827565b94506118978361183b565b925060208a01995050600181019050611873565b50829750879550505050505092915050565b600081519050919050565b600082825260208201905092915050565b6000819050602082019050919050565b600581106118fa576118f961168a565b5b50565b600081905061190b826118e9565b919050565b600061191b826118fd565b9050919050565b61192b81611910565b82525050565b600060e0830160008301516119496000860182611922565b50602083015161195c6020860182611640565b50604083015161196f6040860182611640565b506060830151611982606086018261171c565b506080830151848203608086015261199a8282611771565b91505060a08301516119af60a086018261171c565b5060c083015184820360c08601526119c78282611771565b9150508091505092915050565b60006119e08383611931565b905092915050565b6000602082019050919050565b6000611a00826118bd565b611a0a81856118c8565b935083602082028501611a1c856118d9565b8060005b85811015611a585784840389528151611a3985826119d4565b9450611a44836119e8565b925060208a01995050600181019050611a20565b50829750879550505050505092915050565b600060c083016000830151611a826000860182611640565b506020830151611a956020860182611640565b506040830151611aa8604086018261164f565b5060608301518482036060860152611ac08282611848565b91505060808301518482036080860152611ada82826119f5565b91505060a083015184820360a0860152611af48282611771565b9150508091505092915050565b60006020820190508181036000830152611b1b8184611a6a565b905092915050565b600060208284031215611b3957611b38611323565b5b6000611b478482850161134e565b91505092915050565b611b598161132d565b82525050565b6000602082019050611b746000830184611b50565b92915050565b6000819050919050565b6000611b9f611b9a611b9584611363565b611b7a565b611363565b9050919050565b6000611bb182611b84565b9050919050565b6000611bc382611ba6565b9050919050565b611bd381611bb8565b82525050565b6000602082019050611bee6000830184611bca565b92915050565b611bfd81611383565b82525050565b6000602082019050611c186000830184611bf4565b92915050565b6000611c2982611ba6565b9050919050565b611c3981611c1e565b82525050565b6000602082019050611c546000830184611c30565b92915050565b600080600060608486031215611c7357611c72611323565b5b6000611c818682870161134e565b9350506020611c928682870161134e565b9250506040611ca3868287016113ac565b9150509250925092565b602082016000820151611cc3600085018261170d565b50505050565b604082016000820151611cdf6000850182611640565b506020820151611cf26020850182611cad565b50505050565b6000604082019050611d0d6000830184611cc9565b92915050565b611d1c81611701565b82525050565b6000602082019050611d376000830184611d13565b92915050565b60008060408385031215611d5457611d53611323565b5b6000611d628582860161134e565b9250506020611d738582860161134e565b9150509250929050565b611d8681611614565b82525050565b6000602082019050611da16000830184611d7d565b92915050565b600060208284031215611dbd57611dbc611323565b5b6000611dcb848285016113ac565b91505092915050565b600082825260208201905092915050565b7f54686520616d6f756e74206d7573742062652067726561746572207468616e2060008201527f7a65726f00000000000000000000000000000000000000000000000000000000602082015250565b6000611e41602483611dd4565b9150611e4c82611de5565b604082019050919050565b60006020820190508181036000830152611e7081611e34565b9050919050565b6000604082019050611e8c6000830185611bf4565b611e996020830184611b50565b9392505050565b611ea981611701565b8114611eb457600080fd5b50565b600081519050611ec681611ea0565b92915050565b600060208284031215611ee257611ee1611323565b5b6000611ef084828501611eb7565b91505092915050565b7f546f6b656e207472616e73666572206661696c65640000000000000000000000600082015250565b6000611f2f601583611dd4565b9150611f3a82611ef9565b602082019050919050565b60006020820190508181036000830152611f5e81611f22565b9050919050565b7f496e73756666696369656e742062616c616e6365000000000000000000000000600082015250565b6000611f9b601483611dd4565b9150611fa682611f65565b602082019050919050565b60006020820190508181036000830152611fca81611f8e565b9050919050565b600081905092915050565b50565b6000611fec600083611fd1565b9150611ff782611fdc565b600082019050919050565b600061200d82611fdf565b9150819050919050565b7f457468657273207472616e73666572206661696c656400000000000000000000600082015250565b600061204d601683611dd4565b915061205882612017565b602082019050919050565b6000602082019050818103600083015261207c81612040565b9050919050565b7f496420646f65736e277420657869737400000000000000000000000000000000600082015250565b60006120b9601083611dd4565b91506120c482612083565b602082019050919050565b600060208201905081810360008301526120e8816120ac565b9050919050565b7f4e487b7100000000000000000000000000000000000000000000000000000000600052603260045260246000fd5b7f4552524f523a20796f75722072616e6b20697320746f6f206c6f770000000000600082015250565b6000612154601b83611dd4565b915061215f8261211e565b602082019050919050565b6000602082019050818103600083015261218381612147565b9050919050565b7f4552524f523a20796f75207265616368656420746865206d6178416374696f6e60008201527f7320666f72207468697320696400000000000000000000000000000000000000602082015250565b60006121e6602d83611dd4565b91506121f18261218a565b604082019050919050565b60006020820190508181036000830152612215816121d9565b9050919050565b7f4e487b7100000000000000000000000000000000000000000000000000000000600052601160045260246000fd5b60006122568261132d565b91507fffffffffffffffffffffffffffffffffffffffffffffffffffffffffffffffff82036122885761228761221c565b5b600182019050919050565b61229c81611547565b82525050565b60006060820190506122b76000830186611b50565b6122c46020830185611bf4565b6122d16040830184612293565b949350505050565b7f4552524f523a2063616e2774206265206c6f776572207468616e203100000000600082015250565b600061230f601c83611dd4565b915061231a826122d9565b602082019050919050565b6000602082019050818103600083015261233e81612302565b9050919050565b7f4f776e61626c653a206e6577206f776e657220697320746865207a65726f206160008201527f6464726573730000000000000000000000000000000000000000000000000000602082015250565b60006123a1602683611dd4565b91506123ac82612345565b604082019050919050565b600060208201905081810360008301526123d081612394565b9050919050565b7f4f776e61626c653a2063616c6c6572206973206e6f7420746865206f776e6572600082015250565b600061240d602083611dd4565b9150612418826123d7565b602082019050919050565b6000602082019050818103600083015261243c81612400565b9050919050565b60006040820190506124586000830185611d7d565b6124656020830184611b50565b9392505050565b600080fd5b600080fd5b6005811061248357600080fd5b50565b60008151905061249581612476565b92915050565b6124a481611614565b81146124af57600080fd5b50565b6000815190506124c18161249b565b92915050565b6000815190506124d681611337565b92915050565b60006124ef6124ea84611497565b61147c565b90508281526020810184848401111561250b5761250a611406565b5b612516848285611747565b509392505050565b600082601f83011261253357612532611401565b5b81516125438482602086016124dc565b91505092915050565b600060e082840312156125625761256161246c565b5b61256c60e061147c565b9050600061257c84828501612486565b6000830152506020612590848285016124b2565b60208301525060406125a4848285016124b2565b60408301525060606125b8848285016124c7565b60608301525060806125cc84828501611eb7565b60808301525060a06125e084828501611eb7565b60a08301525060c082015167ffffffffffffffff81111561260457612603612471565b5b6126108482850161251e565b60c08301525092915050565b60006020828403121561263257612631611323565b5b600082015167ffffffffffffffff8111156126505761264f611328565b5b61265c8482850161254c565b91505092915050565b600082825260208201905092915050565b60006126818261172b565b61268b8185612665565b935061269b818560208601611747565b6126a48161140b565b840191505092915050565b600060208201905081810360008301526126c98184612676565b905092915050565b6000606082840312156126e7576126e661246c565b5b6126f1606061147c565b9050600082015167ffffffffffffffff81111561271157612710612471565b5b61271d8482850161251e565b600083015250602061273184828501611eb7565b602083015250604082015167ffffffffffffffff81111561275557612754612471565b5b6127618482850161251e565b60408301525092915050565b60006020828403121561278357612782611323565b5b600082015167ffffffffffffffff8111156127a1576127a0611328565b5b6127ad848285016126d1565b91505092915050565b6000815190506127c581611551565b92915050565b600067ffffffffffffffff8211156127e6576127e561141c565b5b602082029050602081019050919050565b600080fd5b600067ffffffffffffffff8211156128175761281661141c565b5b602082029050602081019050919050565b6006811061283557600080fd5b50565b60008151905061284781612828565b92915050565b600060a082840312156128635761286261246c565b5b61286d60a061147c565b9050600061287d84828501612838565b600083015250602061289184828501611eb7565b60208301525060406128a584828501611eb7565b60408301525060606128b9848285016124c7565b606083015250608082015167ffffffffffffffff8111156128dd576128dc612471565b5b6128e98482850161251e565b60808301525092915050565b6000612908612903846127fc565b61147c565b9050808382526020820190506020840283018581111561292b5761292a6127f7565b5b835b8181101561297257805167ffffffffffffffff8111156129505761294f611401565b5b80860161295d898261284d565b8552602085019450505060208101905061292d565b5050509392505050565b600082601f83011261299157612990611401565b5b81516129a18482602086016128f5565b91505092915050565b600067ffffffffffffffff8211156129c5576129c461141c565b5b602082029050602081019050919050565b600060c082840312156129ec576129eb61246c565b5b6129f660c061147c565b90506000612a0684828501612486565b6000830152506020612a1a848285016124b2565b6020830152506040612a2e848285016124b2565b6040830152506060612a4284828501611eb7565b6060830152506080612a56848285016124c7565b60808301525060a082015167ffffffffffffffff811115612a7a57612a79612471565b5b612a868482850161251e565b60a08301525092915050565b6000612aa5612aa0846129aa565b61147c565b90508083825260208201905060208402830185811115612ac857612ac76127f7565b5b835b81811015612b0f57805167ffffffffffffffff811115612aed57612aec611401565b5b808601612afa89826129d6565b85526020850194505050602081019050612aca565b5050509392505050565b600082601f830112612b2e57612b2d611401565b5b8151612b3e848260208601612a92565b91505092915050565b600060a08284031215612b5d57612b5c61246c565b5b612b6760a061147c565b9050600082015167ffffffffffffffff811115612b8757612b86612471565b5b612b938482850161297c565b600083015250602082015167ffffffffffffffff811115612bb757612bb6612471565b5b612bc384828501612b19565b6020830152506040612bd7848285016127b6565b604083015250606082015167ffffffffffffffff811115612bfb57612bfa612471565b5b612c078482850161251e565b606083015250608082015167ffffffffffffffff811115612c2b57612c2a612471565b5b612c378482850161251e565b60808301525092915050565b6000612c56612c51846127cb565b61147c565b90508083825260208201905060208402830185811115612c7957612c786127f7565b5b835b81811015612cc057805167ffffffffffffffff811115612c9e57612c9d611401565b5b808601612cab8982612b47565b85526020850194505050602081019050612c7b565b5050509392505050565b600082601f830112612cdf57612cde611401565b5b8151612cef848260208601612c43565b91505092915050565b600060a08284031215612d0e57612d0d61246c565b5b612d1860a061147c565b90506000612d28848285016124b2565b6000830152506020612d3c848285016124b2565b6020830152506040612d50848285016127b6565b604083015250606082015167ffffffffffffffff811115612d7457612d73612471565b5b612d808482850161251e565b606083015250608082015167ffffffffffffffff811115612da457612da3612471565b5b612db084828501612cca565b60808301525092915050565b600060208284031215612dd257612dd1611323565b5b600082015167ffffffffffffffff811115612df057612def611328565b5b612dfc84828501612cf8565b91505092915050565b600081519050919050565b600082825260208201905092915050565b6000819050602082019050919050565b600081519050919050565b600082825260208201905092915050565b6000819050602082019050919050565b600060a083016000830151612e7560008601826116f2565b506020830151612e88602086018261170d565b506040830151612e9b604086018261170d565b506060830151612eae606086018261171c565b5060808301518482036080860152612ec68282611771565b9150508091505092915050565b6000612edf8383612e5d565b905092915050565b6000602082019050919050565b6000612eff82612e31565b612f098185612e3c565b935083602082028501612f1b85612e4d565b8060005b85811015612f575784840389528151612f388582612ed3565b9450612f4383612ee7565b925060208a01995050600181019050612f1f565b50829750879550505050505092915050565b600081519050919050565b600082825260208201905092915050565b6000819050602082019050919050565b600060c083016000830151612fad6000860182611922565b506020830151612fc06020860182611640565b506040830151612fd36040860182611640565b506060830151612fe6606086018261170d565b506080830151612ff9608086018261171c565b5060a083015184820360a08601526130118282611771565b9150508091505092915050565b600061302a8383612f95565b905092915050565b6000602082019050919050565b600061304a82612f69565b6130548185612f74565b93508360208202850161306685612f85565b8060005b858110156130a25784840389528151613083858261301e565b945061308e83613032565b925060208a0199505060018101905061306a565b50829750879550505050505092915050565b600060a08301600083015184820360008601526130d18282612ef4565b915050602083015184820360208601526130eb828261303f565b9150506040830151613100604086018261164f565b50606083015184820360608601526131188282611771565b915050608083015184820360808601526131328282611771565b9150508091505092915050565b600061314b83836130b4565b905092915050565b6000602082019050919050565b600061316b82612e05565b6131758185612e10565b93508360208202850161318785612e21565b8060005b858110156131c357848403895281516131a4858261313f565b94506131af83613153565b925060208a0199505060018101905061318b565b50829750879550505050505092915050565b600060a0830160008301516131ed6000860182611640565b5060208301516132006020860182611640565b506040830151613213604086018261164f565b506060830151848203606086015261322b8282611771565b915050608083015184820360808601526132458282613160565b9150508091505092915050565b600081519050919050565b600082825260208201905092915050565b6000819050602082019050919050565b600060c08301600083015161329660008601826116f2565b5060208301516132a9602086018261171c565b5060408301516132bc604086018261170d565b5060608301516132cf606086018261170d565b5060808301516132e2608086018261170d565b5060a083015184820360a08601526132fa8282611771565b9150508091505092915050565b6000613313838361327e565b905092915050565b6000602082019050919050565b600061333382613252565b61333d818561325d565b93508360208202850161334f8561326e565b8060005b8581101561338b578484038952815161336c8582613307565b94506133778361331b565b925060208a01995050600181019050613353565b50829750879550505050505092915050565b600081519050919050565b600082825260208201905092915050565b6000819050602082019050919050565b600060e0830160008301516133e16000860182611922565b5060208301516133f46020860182611640565b5060408301516134076040860182611640565b50606083015161341a606086018261171c565b50608083015161342d608086018261170d565b5060a083015161344060a086018261170d565b5060c083015184820360c08601526134588282611771565b9150508091505092915050565b600061347183836133c9565b905092915050565b6000602082019050919050565b60006134918261339d565b61349b81856133a8565b9350836020820285016134ad856133b9565b8060005b858110156134e957848403895281516134ca8582613465565b94506134d583613479565b925060208a019950506001810190506134b1565b50829750879550505050505092915050565b600060608301600083015184820360008601526135188282611771565b915050602083015161352d602086018261170d565b50604083015184820360408601526135458282611771565b9150508091505092915050565b600060808301600083015161356a6000860182611640565b50602083015184820360208601526135828282613328565b9150506040830151848203604086015261359c8282613486565b915050606083015184820360608601526135b682826134fb565b9150508091505092915050565b600060808201905081810360008301526135dd81866131d5565b905081810360208301526135f18185613552565b90506136006040830184611cc9565b949350505050565b600067ffffffffffffffff8211156136235761362261141c565b5b602082029050602081019050919050565b600060a0828403121561364a5761364961246c565b5b61365460a061147c565b9050600061366484828501612838565b600083015250602061367884828501611eb7565b602083015250604061368c848285016124c7565b604083015250606082015167ffffffffffffffff8111156136b0576136af612471565b5b6136bc8482850161251e565b606083015250608082015167ffffffffffffffff8111156136e0576136df612471565b5b6136ec8482850161251e565b60808301525092915050565b600061370b61370684613608565b61147c565b9050808382526020820190506020840283018581111561372e5761372d6127f7565b5b835b8181101561377557805167ffffffffffffffff81111561375357613752611401565b5b8086016137608982613634565b85526020850194505050602081019050613730565b5050509392505050565b600082601f83011261379457613793611401565b5b81516137a48482602086016136f8565b91505092915050565b600067ffffffffffffffff8211156137c8576137c761141c565b5b602082029050602081019050919050565b600060e082840312156137ef576137ee61246c565b5b6137f960e061147c565b9050600061380984828501612486565b600083015250602061381d848285016124b2565b6020830152506040613831848285016124b2565b6040830152506060613845848285016124c7565b606083015250608082015167ffffffffffffffff81111561386957613868612471565b5b6138758482850161251e565b60808301525060a0613889848285016124c7565b60a08301525060c082015167ffffffffffffffff8111156138ad576138ac612471565b5b6138b98482850161251e565b60c08301525092915050565b60006138d86138d3846137ad565b61147c565b905080838252602082019050602084028301858111156138fb576138fa6127f7565b5b835b8181101561394257805167ffffffffffffffff8111156139205761391f611401565b5b80860161392d89826137d9565b855260208501945050506020810190506138fd565b5050509392505050565b600082601f83011261396157613960611401565b5b81516139718482602086016138c5565b91505092915050565b600060c082840312156139905761398f61246c565b5b61399a60c061147c565b905060006139aa848285016124b2565b60008301525060206139be848285016124b2565b60208301525060406139d2848285016127b6565b604083015250606082015167ffffffffffffffff8111156139f6576139f5612471565b5b613a028482850161377f565b606083015250608082015167ffffffffffffffff811115613a2657613a25612471565b5b613a328482850161394c565b60808301525060a082015167ffffffffffffffff811115613a5657613a55612471565b5b613a628482850161251e565b60a08301525092915050565b600060208284031215613a8457613a83611323565b5b600082015167ffffffffffffffff811115613aa257613aa1611328565b5b613aae8482850161397a565b91505092915050565b600060e083016000830151613acf6000860182611922565b506020830151613ae26020860182611640565b506040830151613af56040860182611640565b506060830151613b08606086018261171c565b506080830151613b1b608086018261170d565b5060a0830151613b2e60a086018261170d565b5060c083015184820360c0860152613b468282611771565b9150508091505092915050565b60006060830160008301518482036000860152613b708282611771565b9150506020830151613b85602086018261170d565b5060408301518482036040860152613b9d8282611771565b9150508091505092915050565b60006040820190508181036000830152613bc48185613ab7565b90508181036020830152613bd88184613b53565b90509392505050565b600067ffffffffffffffff821115613bfc57613bfb61141c565b5b602082029050602081019050919050565b600060c08284031215613c2357613c2261246c565b5b613c2d60c061147c565b90506000613c3d84828501612838565b6000830152506020613c51848285016124c7565b6020830152506040613c6584828501611eb7565b6040830152506060613c7984828501611eb7565b6060830152506080613c8d84828501611eb7565b60808301525060a082015167ffffffffffffffff811115613cb157613cb0612471565b5b613cbd8482850161251e565b60a08301525092915050565b6000613cdc613cd784613be1565b61147c565b90508083825260208201905060208402830185811115613cff57613cfe6127f7565b5b835b81811015613d4657805167ffffffffffffffff811115613d2457613d23611401565b5b808601613d318982613c0d565b85526020850194505050602081019050613d01565b5050509392505050565b600082601f830112613d6557613d64611401565b5b8151613d75848260208601613cc9565b91505092915050565b600067ffffffffffffffff821115613d9957613d9861141c565b5b602082029050602081019050919050565b6000613dbd613db884613d7e565b61147c565b90508083825260208201905060208402830185811115613de057613ddf6127f7565b5b835b81811015613e2757805167ffffffffffffffff811115613e0557613e04611401565b5b808601613e12898261254c565b85526020850194505050602081019050613de2565b5050509392505050565b600082601f830112613e4657613e45611401565b5b8151613e56848260208601613daa565b91505092915050565b600060808284031215613e7557613e7461246c565b5b613e7f608061147c565b90506000613e8f848285016124b2565b600083015250602082015167ffffffffffffffff811115613eb357613eb2612471565b5b613ebf84828501613d50565b602083015250604082015167ffffffffffffffff811115613ee357613ee2612471565b5b613eef84828501613e31565b604083015250606082015167ffffffffffffffff811115613f1357613f12612471565b5b613f1f848285016126d1565b60608301525092915050565b600060208284031215613f4157613f40611323565b5b600082015167ffffffffffffffff811115613f5f57613f5e611328565b5b613f6b84828501613e5f565b9150509291505056fea2646970667358221220c7c455563616b2d05939af5b2d44f9c4488b03ebdf7875a364f91fcd21b8d69864736f6c63430008120033",
  "linkReferences": {},
  "deployedLinkReferences": {}
}