{
  "_format": "hh-sol-artifact-1",
  "contractName": "Melon",
  "sourceName": "contracts/Melon.sol",
  "abi": [
    {
      "inputs": [],
      "stateMutability": "nonpayable",
      "type": "constructor"
    },
    {
      "inputs": [],
      "name": "ADDRESSES_PROVIDER_V2",
      "outputs": [
        {
          "internalType": "contract IAddressesProvider",
          "name": "",
          "type": "address"
        }
      ],
      "stateMutability": "view",
      "type": "function"
    },
    {
      "inputs": [],
      "name": "APP_ID",
      "outputs": [
        {
          "internalType": "bytes16",
          "name": "",
          "type": "bytes16"
        }
      ],
      "stateMutability": "view",
      "type": "function"
    },
    {
      "inputs": [],
      "name": "IS_IMPERSONATION_MODE",
      "outputs": [
        {
          "internalType": "bool",
          "name": "",
          "type": "bool"
        }
      ],
      "stateMutability": "view",
      "type": "function"
    },
    {
      "inputs": [],
      "name": "SISMO_CONNECT_LIB_VERSION",
      "outputs": [
        {
          "internalType": "uint256",
          "name": "",
          "type": "uint256"
        }
      ],
      "stateMutability": "view",
      "type": "function"
    },
    {
      "inputs": [
        {
          "internalType": "bytes",
          "name": "response",
          "type": "bytes"
        },
        {
          "internalType": "bytes16",
          "name": "_groupId",
          "type": "bytes16"
        },
        {
          "internalType": "address",
          "name": "_wallet",
          "type": "address"
        }
      ],
      "name": "action",
      "outputs": [
        {
          "components": [
            {
              "internalType": "bytes16",
              "name": "appId",
              "type": "bytes16"
            },
            {
              "internalType": "bytes16",
              "name": "namespace",
              "type": "bytes16"
            },
            {
              "internalType": "bytes32",
              "name": "version",
              "type": "bytes32"
            },
            {
              "components": [
                {
                  "internalType": "enum AuthType",
                  "name": "authType",
                  "type": "uint8"
                },
                {
                  "internalType": "bool",
                  "name": "isAnon",
                  "type": "bool"
                },
                {
                  "internalType": "uint256",
                  "name": "userId",
                  "type": "uint256"
                },
                {
                  "internalType": "bytes",
                  "name": "extraData",
                  "type": "bytes"
                },
                {
                  "internalType": "bytes",
                  "name": "proofData",
                  "type": "bytes"
                }
              ],
              "internalType": "struct VerifiedAuth[]",
              "name": "auths",
              "type": "tuple[]"
            },
            {
              "components": [
                {
                  "internalType": "enum ClaimType",
                  "name": "claimType",
                  "type": "uint8"
                },
                {
                  "internalType": "bytes16",
                  "name": "groupId",
                  "type": "bytes16"
                },
                {
                  "internalType": "bytes16",
                  "name": "groupTimestamp",
                  "type": "bytes16"
                },
                {
                  "internalType": "uint256",
                  "name": "value",
                  "type": "uint256"
                },
                {
                  "internalType": "bytes",
                  "name": "extraData",
                  "type": "bytes"
                },
                {
                  "internalType": "uint256",
                  "name": "proofId",
                  "type": "uint256"
                },
                {
                  "internalType": "bytes",
                  "name": "proofData",
                  "type": "bytes"
                }
              ],
              "internalType": "struct VerifiedClaim[]",
              "name": "claims",
              "type": "tuple[]"
            },
            {
              "internalType": "bytes",
              "name": "signedMessage",
              "type": "bytes"
            }
          ],
          "internalType": "struct SismoConnectVerifiedResult",
          "name": "result",
          "type": "tuple"
        }
      ],
      "stateMutability": "nonpayable",
      "type": "function"
    },
    {
      "inputs": [],
      "name": "config",
      "outputs": [
        {
          "components": [
            {
              "internalType": "bytes16",
              "name": "appId",
              "type": "bytes16"
            },
            {
              "components": [
                {
                  "internalType": "bool",
                  "name": "isImpersonationMode",
                  "type": "bool"
                }
              ],
              "internalType": "struct VaultConfig",
              "name": "vault",
              "type": "tuple"
            }
          ],
          "internalType": "struct SismoConnectConfig",
          "name": "",
          "type": "tuple"
        }
      ],
      "stateMutability": "view",
      "type": "function"
    }
  ],
  "bytecode": "0x6101606040523480156200001257600080fd5b50620000376f4b23209e82c689fad20b91d2331e666860801b6200056e60201b60201c565b80600001516fffffffffffffffffffffffffffffffff1916610120816fffffffffffffffffffffffffffffffff191681525050806020015160000151151561014081151581525050733cd5334eb64ebbd4003b72022cc25465f1bfcee673ffffffffffffffffffffffffffffffffffffffff1663693ec85e6040518060400160405280601981526020017f7369736d6f436f6e6e65637456657269666965722d76312e32000000000000008152506040518263ffffffff1660e01b8152600401620001039190620006bb565b602060405180830381865afa15801562000121573d6000803e3d6000fd5b505050506040513d601f19601f8201168201806040525081019062000147919062000749565b73ffffffffffffffffffffffffffffffffffffffff1660808173ffffffffffffffffffffffffffffffffffffffff1681525050733cd5334eb64ebbd4003b72022cc25465f1bfcee673ffffffffffffffffffffffffffffffffffffffff1663693ec85e6040518060400160405280601781526020017f61757468526571756573744275696c6465722d76312e310000000000000000008152506040518263ffffffff1660e01b8152600401620001fe9190620006bb565b602060405180830381865afa1580156200021c573d6000803e3d6000fd5b505050506040513d601f19601f8201168201806040525081019062000242919062000749565b73ffffffffffffffffffffffffffffffffffffffff1660a08173ffffffffffffffffffffffffffffffffffffffff1681525050733cd5334eb64ebbd4003b72022cc25465f1bfcee673ffffffffffffffffffffffffffffffffffffffff1663693ec85e6040518060400160405280601881526020017f636c61696d526571756573744275696c6465722d76312e3100000000000000008152506040518263ffffffff1660e01b8152600401620002f99190620006bb565b602060405180830381865afa15801562000317573d6000803e3d6000fd5b505050506040513d601f19601f820116820180604052508101906200033d919062000749565b73ffffffffffffffffffffffffffffffffffffffff1660c08173ffffffffffffffffffffffffffffffffffffffff1681525050733cd5334eb64ebbd4003b72022cc25465f1bfcee673ffffffffffffffffffffffffffffffffffffffff1663693ec85e6040518060400160405280601581526020017f7369676e61747572654275696c6465722d76312e3100000000000000000000008152506040518263ffffffff1660e01b8152600401620003f49190620006bb565b602060405180830381865afa15801562000412573d6000803e3d6000fd5b505050506040513d601f19601f8201168201806040525081019062000438919062000749565b73ffffffffffffffffffffffffffffffffffffffff1660e08173ffffffffffffffffffffffffffffffffffffffff1681525050733cd5334eb64ebbd4003b72022cc25465f1bfcee673ffffffffffffffffffffffffffffffffffffffff1663693ec85e6040518060400160405280601381526020017f726571756573744275696c6465722d76312e31000000000000000000000000008152506040518263ffffffff1660e01b8152600401620004ef9190620006bb565b602060405180830381865afa1580156200050d573d6000803e3d6000fd5b505050506040513d601f19601f8201168201806040525081019062000533919062000749565b73ffffffffffffffffffffffffffffffffffffffff166101008173ffffffffffffffffffffffffffffffffffffffff1681525050506200077b565b62000578620005d7565b6040518060400160405280836fffffffffffffffffffffffffffffffff19168152602001620005ac620005b660201b60201c565b8152509050919050565b620005c06200060c565b604051806020016040528060001515815250905090565b604051806040016040528060006fffffffffffffffffffffffffffffffff19168152602001620006066200060c565b81525090565b60405180602001604052806000151581525090565b600081519050919050565b600082825260208201905092915050565b60005b838110156200065d57808201518184015260208101905062000640565b60008484015250505050565b6000601f19601f8301169050919050565b6000620006878262000621565b6200069381856200062c565b9350620006a58185602086016200063d565b620006b08162000669565b840191505092915050565b60006020820190508181036000830152620006d781846200067a565b905092915050565b600080fd5b600073ffffffffffffffffffffffffffffffffffffffff82169050919050565b60006200071182620006e4565b9050919050565b620007238162000704565b81146200072f57600080fd5b50565b600081519050620007438162000718565b92915050565b600060208284031215620007625762000761620006df565b5b6000620007728482850162000732565b91505092915050565b60805160a05160c05160e051610100516101205161014051612b89620007e1600039600081816101be01526101e901526000818161019d015261020d015260006104bf015260006102ec0152600061023e01526000505060006103c00152612b896000f3fe608060405234801561001057600080fd5b50600436106100625760003560e01c80630fff463014610067578063469163011461009757806379502c55146100b5578063a183dc27146100d3578063c187bbc1146100f1578063c9512d991461010f575b600080fd5b610081600480360381019061007c919061091a565b61012d565b60405161008e9190610e5e565b60405180910390f35b61009f610178565b6040516100ac9190610edf565b60405180910390f35b6100bd610190565b6040516100ca9190610f45565b60405180910390f35b6100db6101e7565b6040516100e89190610f6f565b60405180910390f35b6100f961020b565b6040516101069190610f99565b60405180910390f35b61011761022f565b6040516101249190610fc3565b60405180910390f35b610135610586565b61016f8461014285610234565b61016a856040516020016101569190610fed565b6040516020818303038152906040526102e2565b610390565b90509392505050565b733cd5334eb64ebbd4003b72022cc25465f1bfcee681565b6101986105e5565b6101e27f00000000000000000000000000000000000000000000000000000000000000007f0000000000000000000000000000000000000000000000000000000000000000610475565b905090565b7f000000000000000000000000000000000000000000000000000000000000000081565b7f000000000000000000000000000000000000000000000000000000000000000081565b600281565b61023c610618565b7f000000000000000000000000000000000000000000000000000000000000000073ffffffffffffffffffffffffffffffffffffffff1663e379821c836040518263ffffffff1660e01b81526004016102959190610f99565b600060405180830381865afa1580156102b2573d6000803e3d6000fd5b505050506040513d6000823e3d601f19601f820116820180604052508101906102db91906111e4565b9050919050565b6102ea610691565b7f000000000000000000000000000000000000000000000000000000000000000073ffffffffffffffffffffffffffffffffffffffff16636835f32c836040518263ffffffff1660e01b81526004016103439190611277565b600060405180830381865afa158015610360573d6000803e3d6000fd5b505050506040513d6000823e3d601f19601f820116820180604052508101906103899190611335565b9050919050565b610398610586565b6000848060200190518101906103ae919061199b565b905060006103bc85856104b5565b90507f000000000000000000000000000000000000000000000000000000000000000073ffffffffffffffffffffffffffffffffffffffff166312b037ff8383610404610190565b6040518463ffffffff1660e01b8152600401610422939291906121a2565b6000604051808303816000875af1158015610441573d6000803e3d6000fd5b505050506040513d6000823e3d601f19601f8201168201806040525081019061046a919061264d565b925050509392505050565b61047d6105e5565b6040518060400160405280846fffffffffffffffffffffffffffffffff191681526020016104aa84610566565b815250905092915050565b6104bd6106b4565b7f000000000000000000000000000000000000000000000000000000000000000073ffffffffffffffffffffffffffffffffffffffff1663c9f97f5384846040518363ffffffff1660e01b8152600401610518929190612789565b600060405180830381865afa158015610535573d6000803e3d6000fd5b505050506040513d6000823e3d601f19601f8201168201806040525081019061055e9190612b0a565b905092915050565b61056e6106f5565b60405180602001604052808315158152509050919050565b6040518060c0016040528060006fffffffffffffffffffffffffffffffff1916815260200160006fffffffffffffffffffffffffffffffff19168152602001600080191681526020016060815260200160608152602001606081525090565b604051806040016040528060006fffffffffffffffffffffffffffffffff191681526020016106126106f5565b81525090565b6040518060e0016040528060006004811115610637576106366109dd565b5b815260200160006fffffffffffffffffffffffffffffffff1916815260200160006fffffffffffffffffffffffffffffffff1916815260200160008152602001600015158152602001600015158152602001606081525090565b604051806060016040528060608152602001600015158152602001606081525090565b604051806080016040528060006fffffffffffffffffffffffffffffffff1916815260200160608152602001606081526020016106ef610691565b81525090565b60405180602001604052806000151581525090565b6000604051905090565b600080fd5b600080fd5b600080fd5b600080fd5b6000601f19601f8301169050919050565b7f4e487b7100000000000000000000000000000000000000000000000000000000600052604160045260246000fd5b61077182610728565b810181811067ffffffffffffffff821117156107905761078f610739565b5b80604052505050565b60006107a361070a565b90506107af8282610768565b919050565b600067ffffffffffffffff8211156107cf576107ce610739565b5b6107d882610728565b9050602081019050919050565b82818337600083830152505050565b6000610807610802846107b4565b610799565b90508281526020810184848401111561082357610822610723565b5b61082e8482856107e5565b509392505050565b600082601f83011261084b5761084a61071e565b5b813561085b8482602086016107f4565b91505092915050565b60007fffffffffffffffffffffffffffffffff0000000000000000000000000000000082169050919050565b61089981610864565b81146108a457600080fd5b50565b6000813590506108b681610890565b92915050565b600073ffffffffffffffffffffffffffffffffffffffff82169050919050565b60006108e7826108bc565b9050919050565b6108f7816108dc565b811461090257600080fd5b50565b600081359050610914816108ee565b92915050565b60008060006060848603121561093357610932610714565b5b600084013567ffffffffffffffff81111561095157610950610719565b5b61095d86828701610836565b935050602061096e868287016108a7565b925050604061097f86828701610905565b9150509250925092565b61099281610864565b82525050565b6000819050919050565b6109ab81610998565b82525050565b600081519050919050565b600082825260208201905092915050565b6000819050602082019050919050565b7f4e487b7100000000000000000000000000000000000000000000000000000000600052602160045260246000fd5b60068110610a1d57610a1c6109dd565b5b50565b6000819050610a2e82610a0c565b919050565b6000610a3e82610a20565b9050919050565b610a4e81610a33565b82525050565b60008115159050919050565b610a6981610a54565b82525050565b6000819050919050565b610a8281610a6f565b82525050565b600081519050919050565b600082825260208201905092915050565b60005b83811015610ac2578082015181840152602081019050610aa7565b60008484015250505050565b6000610ad982610a88565b610ae38185610a93565b9350610af3818560208601610aa4565b610afc81610728565b840191505092915050565b600060a083016000830151610b1f6000860182610a45565b506020830151610b326020860182610a60565b506040830151610b456040860182610a79565b5060608301518482036060860152610b5d8282610ace565b91505060808301518482036080860152610b778282610ace565b9150508091505092915050565b6000610b908383610b07565b905092915050565b6000602082019050919050565b6000610bb0826109b1565b610bba81856109bc565b935083602082028501610bcc856109cd565b8060005b85811015610c085784840389528151610be98582610b84565b9450610bf483610b98565b925060208a01995050600181019050610bd0565b50829750879550505050505092915050565b600081519050919050565b600082825260208201905092915050565b6000819050602082019050919050565b60058110610c5757610c566109dd565b5b50565b6000819050610c6882610c46565b919050565b6000610c7882610c5a565b9050919050565b610c8881610c6d565b82525050565b600060e083016000830151610ca66000860182610c7f565b506020830151610cb96020860182610989565b506040830151610ccc6040860182610989565b506060830151610cdf6060860182610a79565b5060808301518482036080860152610cf78282610ace565b91505060a0830151610d0c60a0860182610a79565b5060c083015184820360c0860152610d248282610ace565b9150508091505092915050565b6000610d3d8383610c8e565b905092915050565b6000602082019050919050565b6000610d5d82610c1a565b610d678185610c25565b935083602082028501610d7985610c36565b8060005b85811015610db55784840389528151610d968582610d31565b9450610da183610d45565b925060208a01995050600181019050610d7d565b50829750879550505050505092915050565b600060c083016000830151610ddf6000860182610989565b506020830151610df26020860182610989565b506040830151610e0560408601826109a2565b5060608301518482036060860152610e1d8282610ba5565b91505060808301518482036080860152610e378282610d52565b91505060a083015184820360a0860152610e518282610ace565b9150508091505092915050565b60006020820190508181036000830152610e788184610dc7565b905092915050565b6000819050919050565b6000610ea5610ea0610e9b846108bc565b610e80565b6108bc565b9050919050565b6000610eb782610e8a565b9050919050565b6000610ec982610eac565b9050919050565b610ed981610ebe565b82525050565b6000602082019050610ef46000830184610ed0565b92915050565b602082016000820151610f106000850182610a60565b50505050565b604082016000820151610f2c6000850182610989565b506020820151610f3f6020850182610efa565b50505050565b6000604082019050610f5a6000830184610f16565b92915050565b610f6981610a54565b82525050565b6000602082019050610f846000830184610f60565b92915050565b610f9381610864565b82525050565b6000602082019050610fae6000830184610f8a565b92915050565b610fbd81610a6f565b82525050565b6000602082019050610fd86000830184610fb4565b92915050565b610fe7816108dc565b82525050565b60006020820190506110026000830184610fde565b92915050565b600080fd5b600080fd5b6005811061101f57600080fd5b50565b60008151905061103181611012565b92915050565b60008151905061104681610890565b92915050565b61105581610a6f565b811461106057600080fd5b50565b6000815190506110728161104c565b92915050565b61108181610a54565b811461108c57600080fd5b50565b60008151905061109e81611078565b92915050565b60006110b76110b2846107b4565b610799565b9050828152602081018484840111156110d3576110d2610723565b5b6110de848285610aa4565b509392505050565b600082601f8301126110fb576110fa61071e565b5b815161110b8482602086016110a4565b91505092915050565b600060e0828403121561112a57611129611008565b5b61113460e0610799565b9050600061114484828501611022565b600083015250602061115884828501611037565b602083015250604061116c84828501611037565b604083015250606061118084828501611063565b60608301525060806111948482850161108f565b60808301525060a06111a88482850161108f565b60a08301525060c082015167ffffffffffffffff8111156111cc576111cb61100d565b5b6111d8848285016110e6565b60c08301525092915050565b6000602082840312156111fa576111f9610714565b5b600082015167ffffffffffffffff81111561121857611217610719565b5b61122484828501611114565b91505092915050565b600082825260208201905092915050565b600061124982610a88565b611253818561122d565b9350611263818560208601610aa4565b61126c81610728565b840191505092915050565b60006020820190508181036000830152611291818461123e565b905092915050565b6000606082840312156112af576112ae611008565b5b6112b96060610799565b9050600082015167ffffffffffffffff8111156112d9576112d861100d565b5b6112e5848285016110e6565b60008301525060206112f98482850161108f565b602083015250604082015167ffffffffffffffff81111561131d5761131c61100d565b5b611329848285016110e6565b60408301525092915050565b60006020828403121561134b5761134a610714565b5b600082015167ffffffffffffffff81111561136957611368610719565b5b61137584828501611299565b91505092915050565b61138781610998565b811461139257600080fd5b50565b6000815190506113a48161137e565b92915050565b600067ffffffffffffffff8211156113c5576113c4610739565b5b602082029050602081019050919050565b600080fd5b600067ffffffffffffffff8211156113f6576113f5610739565b5b602082029050602081019050919050565b6006811061141457600080fd5b50565b60008151905061142681611407565b92915050565b600060a0828403121561144257611441611008565b5b61144c60a0610799565b9050600061145c84828501611417565b60008301525060206114708482850161108f565b60208301525060406114848482850161108f565b604083015250606061149884828501611063565b606083015250608082015167ffffffffffffffff8111156114bc576114bb61100d565b5b6114c8848285016110e6565b60808301525092915050565b60006114e76114e2846113db565b610799565b9050808382526020820190506020840283018581111561150a576115096113d6565b5b835b8181101561155157805167ffffffffffffffff81111561152f5761152e61071e565b5b80860161153c898261142c565b8552602085019450505060208101905061150c565b5050509392505050565b600082601f8301126115705761156f61071e565b5b81516115808482602086016114d4565b91505092915050565b600067ffffffffffffffff8211156115a4576115a3610739565b5b602082029050602081019050919050565b600060c082840312156115cb576115ca611008565b5b6115d560c0610799565b905060006115e584828501611022565b60008301525060206115f984828501611037565b602083015250604061160d84828501611037565b60408301525060606116218482850161108f565b606083015250608061163584828501611063565b60808301525060a082015167ffffffffffffffff8111156116595761165861100d565b5b611665848285016110e6565b60a08301525092915050565b600061168461167f84611589565b610799565b905080838252602082019050602084028301858111156116a7576116a66113d6565b5b835b818110156116ee57805167ffffffffffffffff8111156116cc576116cb61071e565b5b8086016116d989826115b5565b855260208501945050506020810190506116a9565b5050509392505050565b600082601f83011261170d5761170c61071e565b5b815161171d848260208601611671565b91505092915050565b600060a0828403121561173c5761173b611008565b5b61174660a0610799565b9050600082015167ffffffffffffffff8111156117665761176561100d565b5b6117728482850161155b565b600083015250602082015167ffffffffffffffff8111156117965761179561100d565b5b6117a2848285016116f8565b60208301525060406117b684828501611395565b604083015250606082015167ffffffffffffffff8111156117da576117d961100d565b5b6117e6848285016110e6565b606083015250608082015167ffffffffffffffff81111561180a5761180961100d565b5b611816848285016110e6565b60808301525092915050565b6000611835611830846113aa565b610799565b90508083825260208201905060208402830185811115611858576118576113d6565b5b835b8181101561189f57805167ffffffffffffffff81111561187d5761187c61071e565b5b80860161188a8982611726565b8552602085019450505060208101905061185a565b5050509392505050565b600082601f8301126118be576118bd61071e565b5b81516118ce848260208601611822565b91505092915050565b600060a082840312156118ed576118ec611008565b5b6118f760a0610799565b9050600061190784828501611037565b600083015250602061191b84828501611037565b602083015250604061192f84828501611395565b604083015250606082015167ffffffffffffffff8111156119535761195261100d565b5b61195f848285016110e6565b606083015250608082015167ffffffffffffffff8111156119835761198261100d565b5b61198f848285016118a9565b60808301525092915050565b6000602082840312156119b1576119b0610714565b5b600082015167ffffffffffffffff8111156119cf576119ce610719565b5b6119db848285016118d7565b91505092915050565b600081519050919050565b600082825260208201905092915050565b6000819050602082019050919050565b600081519050919050565b600082825260208201905092915050565b6000819050602082019050919050565b600060a083016000830151611a546000860182610a45565b506020830151611a676020860182610a60565b506040830151611a7a6040860182610a60565b506060830151611a8d6060860182610a79565b5060808301518482036080860152611aa58282610ace565b9150508091505092915050565b6000611abe8383611a3c565b905092915050565b6000602082019050919050565b6000611ade82611a10565b611ae88185611a1b565b935083602082028501611afa85611a2c565b8060005b85811015611b365784840389528151611b178582611ab2565b9450611b2283611ac6565b925060208a01995050600181019050611afe565b50829750879550505050505092915050565b600081519050919050565b600082825260208201905092915050565b6000819050602082019050919050565b600060c083016000830151611b8c6000860182610c7f565b506020830151611b9f6020860182610989565b506040830151611bb26040860182610989565b506060830151611bc56060860182610a60565b506080830151611bd86080860182610a79565b5060a083015184820360a0860152611bf08282610ace565b9150508091505092915050565b6000611c098383611b74565b905092915050565b6000602082019050919050565b6000611c2982611b48565b611c338185611b53565b935083602082028501611c4585611b64565b8060005b85811015611c815784840389528151611c628582611bfd565b9450611c6d83611c11565b925060208a01995050600181019050611c49565b50829750879550505050505092915050565b600060a0830160008301518482036000860152611cb08282611ad3565b91505060208301518482036020860152611cca8282611c1e565b9150506040830151611cdf60408601826109a2565b5060608301518482036060860152611cf78282610ace565b91505060808301518482036080860152611d118282610ace565b9150508091505092915050565b6000611d2a8383611c93565b905092915050565b6000602082019050919050565b6000611d4a826119e4565b611d5481856119ef565b935083602082028501611d6685611a00565b8060005b85811015611da25784840389528151611d838582611d1e565b9450611d8e83611d32565b925060208a01995050600181019050611d6a565b50829750879550505050505092915050565b600060a083016000830151611dcc6000860182610989565b506020830151611ddf6020860182610989565b506040830151611df260408601826109a2565b5060608301518482036060860152611e0a8282610ace565b91505060808301518482036080860152611e248282611d3f565b9150508091505092915050565b600081519050919050565b600082825260208201905092915050565b6000819050602082019050919050565b600060c083016000830151611e756000860182610a45565b506020830151611e886020860182610a79565b506040830151611e9b6040860182610a60565b506060830151611eae6060860182610a60565b506080830151611ec16080860182610a60565b5060a083015184820360a0860152611ed98282610ace565b9150508091505092915050565b6000611ef28383611e5d565b905092915050565b6000602082019050919050565b6000611f1282611e31565b611f1c8185611e3c565b935083602082028501611f2e85611e4d565b8060005b85811015611f6a5784840389528151611f4b8582611ee6565b9450611f5683611efa565b925060208a01995050600181019050611f32565b50829750879550505050505092915050565b600081519050919050565b600082825260208201905092915050565b6000819050602082019050919050565b600060e083016000830151611fc06000860182610c7f565b506020830151611fd36020860182610989565b506040830151611fe66040860182610989565b506060830151611ff96060860182610a79565b50608083015161200c6080860182610a60565b5060a083015161201f60a0860182610a60565b5060c083015184820360c08601526120378282610ace565b9150508091505092915050565b60006120508383611fa8565b905092915050565b6000602082019050919050565b600061207082611f7c565b61207a8185611f87565b93508360208202850161208c85611f98565b8060005b858110156120c857848403895281516120a98582612044565b94506120b483612058565b925060208a01995050600181019050612090565b50829750879550505050505092915050565b600060608301600083015184820360008601526120f78282610ace565b915050602083015161210c6020860182610a60565b50604083015184820360408601526121248282610ace565b9150508091505092915050565b60006080830160008301516121496000860182610989565b50602083015184820360208601526121618282611f07565b9150506040830151848203604086015261217b8282612065565b9150506060830151848203606086015261219582826120da565b9150508091505092915050565b600060808201905081810360008301526121bc8186611db4565b905081810360208301526121d08185612131565b90506121df6040830184610f16565b949350505050565b600067ffffffffffffffff82111561220257612201610739565b5b602082029050602081019050919050565b600060a0828403121561222957612228611008565b5b61223360a0610799565b9050600061224384828501611417565b60008301525060206122578482850161108f565b602083015250604061226b84828501611063565b604083015250606082015167ffffffffffffffff81111561228f5761228e61100d565b5b61229b848285016110e6565b606083015250608082015167ffffffffffffffff8111156122bf576122be61100d565b5b6122cb848285016110e6565b60808301525092915050565b60006122ea6122e5846121e7565b610799565b9050808382526020820190506020840283018581111561230d5761230c6113d6565b5b835b8181101561235457805167ffffffffffffffff8111156123325761233161071e565b5b80860161233f8982612213565b8552602085019450505060208101905061230f565b5050509392505050565b600082601f8301126123735761237261071e565b5b81516123838482602086016122d7565b91505092915050565b600067ffffffffffffffff8211156123a7576123a6610739565b5b602082029050602081019050919050565b600060e082840312156123ce576123cd611008565b5b6123d860e0610799565b905060006123e884828501611022565b60008301525060206123fc84828501611037565b602083015250604061241084828501611037565b604083015250606061242484828501611063565b606083015250608082015167ffffffffffffffff8111156124485761244761100d565b5b612454848285016110e6565b60808301525060a061246884828501611063565b60a08301525060c082015167ffffffffffffffff81111561248c5761248b61100d565b5b612498848285016110e6565b60c08301525092915050565b60006124b76124b28461238c565b610799565b905080838252602082019050602084028301858111156124da576124d96113d6565b5b835b8181101561252157805167ffffffffffffffff8111156124ff576124fe61071e565b5b80860161250c89826123b8565b855260208501945050506020810190506124dc565b5050509392505050565b600082601f8301126125405761253f61071e565b5b81516125508482602086016124a4565b91505092915050565b600060c0828403121561256f5761256e611008565b5b61257960c0610799565b9050600061258984828501611037565b600083015250602061259d84828501611037565b60208301525060406125b184828501611395565b604083015250606082015167ffffffffffffffff8111156125d5576125d461100d565b5b6125e18482850161235e565b606083015250608082015167ffffffffffffffff8111156126055761260461100d565b5b6126118482850161252b565b60808301525060a082015167ffffffffffffffff8111156126355761263461100d565b5b612641848285016110e6565b60a08301525092915050565b60006020828403121561266357612662610714565b5b600082015167ffffffffffffffff81111561268157612680610719565b5b61268d84828501612559565b91505092915050565b600060e0830160008301516126ae6000860182610c7f565b5060208301516126c16020860182610989565b5060408301516126d46040860182610989565b5060608301516126e76060860182610a79565b5060808301516126fa6080860182610a60565b5060a083015161270d60a0860182610a60565b5060c083015184820360c08601526127258282610ace565b9150508091505092915050565b6000606083016000830151848203600086015261274f8282610ace565b91505060208301516127646020860182610a60565b506040830151848203604086015261277c8282610ace565b9150508091505092915050565b600060408201905081810360008301526127a38185612696565b905081810360208301526127b78184612732565b90509392505050565b600067ffffffffffffffff8211156127db576127da610739565b5b602082029050602081019050919050565b600060c0828403121561280257612801611008565b5b61280c60c0610799565b9050600061281c84828501611417565b600083015250602061283084828501611063565b60208301525060406128448482850161108f565b60408301525060606128588482850161108f565b606083015250608061286c8482850161108f565b60808301525060a082015167ffffffffffffffff8111156128905761288f61100d565b5b61289c848285016110e6565b60a08301525092915050565b60006128bb6128b6846127c0565b610799565b905080838252602082019050602084028301858111156128de576128dd6113d6565b5b835b8181101561292557805167ffffffffffffffff8111156129035761290261071e565b5b80860161291089826127ec565b855260208501945050506020810190506128e0565b5050509392505050565b600082601f8301126129445761294361071e565b5b81516129548482602086016128a8565b91505092915050565b600067ffffffffffffffff82111561297857612977610739565b5b602082029050602081019050919050565b600061299c6129978461295d565b610799565b905080838252602082019050602084028301858111156129bf576129be6113d6565b5b835b81811015612a0657805167ffffffffffffffff8111156129e4576129e361071e565b5b8086016129f18982611114565b855260208501945050506020810190506129c1565b5050509392505050565b600082601f830112612a2557612a2461071e565b5b8151612a35848260208601612989565b91505092915050565b600060808284031215612a5457612a53611008565b5b612a5e6080610799565b90506000612a6e84828501611037565b600083015250602082015167ffffffffffffffff811115612a9257612a9161100d565b5b612a9e8482850161292f565b602083015250604082015167ffffffffffffffff811115612ac257612ac161100d565b5b612ace84828501612a10565b604083015250606082015167ffffffffffffffff811115612af257612af161100d565b5b612afe84828501611299565b60608301525092915050565b600060208284031215612b2057612b1f610714565b5b600082015167ffffffffffffffff811115612b3e57612b3d610719565b5b612b4a84828501612a3e565b9150509291505056fea264697066735822122061119408100bc59ef9f7663bfc7a29295a15e820c3d612bb75e96d9f448aa8fb64736f6c63430008120033",
  "linkReferences": {},
  "deployedLinkReferences": {}
}