{"lib/sismo-connect-solidity/src/utils/AuthRequestBuilder.sol":{"AuthRequestBuilder":{"abi":[{"inputs":[],"name":"InvalidUserIdAndAuthType","type":"error"},{"inputs":[],"name":"InvalidUserIdAndIsSelectableByUserAuthType","type":"error"},{"inputs":[],"name":"DEFAULT_AUTH_REQUEST_EXTRA_DATA","outputs":[{"internalType":"bytes","name":"","type":"bytes"}],"stateMutability":"view","type":"function"},{"inputs":[],"name":"DEFAULT_AUTH_REQUEST_IS_ANON","outputs":[{"internalType":"bool","name":"","type":"bool"}],"stateMutability":"view","type":"function"},{"inputs":[],"name":"DEFAULT_AUTH_REQUEST_IS_OPTIONAL","outputs":[{"internalType":"bool","name":"","type":"bool"}],"stateMutability":"view","type":"function"},{"inputs":[],"name":"DEFAULT_AUTH_REQUEST_USER_ID","outputs":[{"internalType":"uint256","name":"","type":"uint256"}],"stateMutability":"view","type":"function"},{"inputs":[{"internalType":"enum AuthType","name":"authType","type":"uint8"},{"internalType":"bool","name":"isAnon","type":"bool"},{"internalType":"bytes","name":"extraData","type":"bytes"}],"name":"build","outputs":[{"components":[{"internalType":"enum AuthType","name":"authType","type":"uint8"},{"internalType":"uint256","name":"userId","type":"uint256"},{"internalType":"bool","name":"isAnon","type":"bool"},{"internalType":"bool","name":"isOptional","type":"bool"},{"internalType":"bool","name":"isSelectableByUser","type":"bool"},{"internalType":"bytes","name":"extraData","type":"bytes"}],"internalType":"struct AuthRequest","name":"","type":"tuple"}],"stateMutability":"pure","type":"function"},{"inputs":[{"internalType":"enum AuthType","name":"authType","type":"uint8"},{"internalType":"bool","name":"isAnon","type":"bool"}],"name":"build","outputs":[{"components":[{"internalType":"enum AuthType","name":"authType","type":"uint8"},{"internalType":"uint256","name":"userId","type":"uint256"},{"internalType":"bool","name":"isAnon","type":"bool"},{"internalType":"bool","name":"isOptional","type":"bool"},{"internalType":"bool","name":"isSelectableByUser","type":"bool"},{"internalType":"bytes","name":"extraData","type":"bytes"}],"internalType":"struct AuthRequest","name":"","type":"tuple"}],"stateMutability":"pure","type":"function"},{"inputs":[{"internalType":"enum AuthType","name":"authType","type":"uint8"},{"internalType":"bool","name":"isAnon","type":"bool"},{"internalType":"bool","name":"isOptional","type":"bool"},{"internalType":"bool","name":"isSelectableByUser","type":"bool"}],"name":"build","outputs":[{"components":[{"internalType":"enum AuthType","name":"authType","type":"uint8"},{"internalType":"uint256","name":"userId","type":"uint256"},{"internalType":"bool","name":"isAnon","type":"bool"},{"internalType":"bool","name":"isOptional","type":"bool"},{"internalType":"bool","name":"isSelectableByUser","type":"bool"},{"internalType":"bytes","name":"extraData","type":"bytes"}],"internalType":"struct AuthRequest","name":"","type":"tuple"}],"stateMutability":"pure","type":"function"},{"inputs":[{"internalType":"enum AuthType","name":"authType","type":"uint8"},{"internalType":"bool","name":"isOptional","type":"bool"},{"internalType":"bool","name":"isSelectableByUser","type":"bool"},{"internalType":"uint256","name":"userId","type":"uint256"}],"name":"build","outputs":[{"components":[{"internalType":"enum AuthType","name":"authType","type":"uint8"},{"internalType":"uint256","name":"userId","type":"uint256"},{"internalType":"bool","name":"isAnon","type":"bool"},{"internalType":"bool","name":"isOptional","type":"bool"},{"internalType":"bool","name":"isSelectableByUser","type":"bool"},{"internalType":"bytes","name":"extraData","type":"bytes"}],"internalType":"struct AuthRequest","name":"","type":"tuple"}],"stateMutability":"pure","type":"function"},{"inputs":[{"internalType":"enum AuthType","name":"authType","type":"uint8"}],"name":"build","outputs":[{"components":[{"internalType":"enum AuthType","name":"authType","type":"uint8"},{"internalType":"uint256","name":"userId","type":"uint256"},{"internalType":"bool","name":"isAnon","type":"bool"},{"internalType":"bool","name":"isOptional","type":"bool"},{"internalType":"bool","name":"isSelectableByUser","type":"bool"},{"internalType":"bytes","name":"extraData","type":"bytes"}],"internalType":"struct AuthRequest","name":"","type":"tuple"}],"stateMutability":"pure","type":"function"},{"inputs":[{"internalType":"enum AuthType","name":"authType","type":"uint8"},{"internalType":"uint256","name":"userId","type":"uint256"},{"internalType":"bool","name":"isOptional","type":"bool"}],"name":"build","outputs":[{"components":[{"internalType":"enum AuthType","name":"authType","type":"uint8"},{"internalType":"uint256","name":"userId","type":"uint256"},{"internalType":"bool","name":"isAnon","type":"bool"},{"internalType":"bool","name":"isOptional","type":"bool"},{"internalType":"bool","name":"isSelectableByUser","type":"bool"},{"internalType":"bytes","name":"extraData","type":"bytes"}],"internalType":"struct AuthRequest","name":"","type":"tuple"}],"stateMutability":"pure","type":"function"},{"inputs":[{"internalType":"enum AuthType","name":"authType","type":"uint8"},{"internalType":"uint256","name":"userId","type":"uint256"}],"name":"build","outputs":[{"components":[{"internalType":"enum AuthType","name":"authType","type":"uint8"},{"internalType":"uint256","name":"userId","type":"uint256"},{"internalType":"bool","name":"isAnon","type":"bool"},{"internalType":"bool","name":"isOptional","type":"bool"},{"internalType":"bool","name":"isSelectableByUser","type":"bool"},{"internalType":"bytes","name":"extraData","type":"bytes"}],"internalType":"struct AuthRequest","name":"","type":"tuple"}],"stateMutability":"pure","type":"function"},{"inputs":[{"internalType":"enum AuthType","name":"authType","type":"uint8"},{"internalType":"bytes","name":"extraData","type":"bytes"}],"name":"build","outputs":[{"components":[{"internalType":"enum AuthType","name":"authType","type":"uint8"},{"internalType":"uint256","name":"userId","type":"uint256"},{"internalType":"bool","name":"isAnon","type":"bool"},{"internalType":"bool","name":"isOptional","type":"bool"},{"internalType":"bool","name":"isSelectableByUser","type":"bool"},{"internalType":"bytes","name":"extraData","type":"bytes"}],"internalType":"struct AuthRequest","name":"","type":"tuple"}],"stateMutability":"pure","type":"function"},{"inputs":[{"internalType":"enum AuthType","name":"authType","type":"uint8"},{"internalType":"bool","name":"isAnon","type":"bool"},{"internalType":"uint256","name":"userId","type":"uint256"}],"name":"build","outputs":[{"components":[{"internalType":"enum AuthType","name":"authType","type":"uint8"},{"internalType":"uint256","name":"userId","type":"uint256"},{"internalType":"bool","name":"isAnon","type":"bool"},{"internalType":"bool","name":"isOptional","type":"bool"},{"internalType":"bool","name":"isSelectableByUser","type":"bool"},{"internalType":"bytes","name":"extraData","type":"bytes"}],"internalType":"struct AuthRequest","name":"","type":"tuple"}],"stateMutability":"pure","type":"function"},{"inputs":[{"internalType":"enum AuthType","name":"authType","type":"uint8"},{"internalType":"bool","name":"isAnon","type":"bool"},{"internalType":"uint256","name":"userId","type":"uint256"},{"internalType":"bool","name":"isOptional","type":"bool"}],"name":"build","outputs":[{"components":[{"internalType":"enum AuthType","name":"authType","type":"uint8"},{"internalType":"uint256","name":"userId","type":"uint256"},{"internalType":"bool","name":"isAnon","type":"bool"},{"internalType":"bool","name":"isOptional","type":"bool"},{"internalType":"bool","name":"isSelectableByUser","type":"bool"},{"internalType":"bytes","name":"extraData","type":"bytes"}],"internalType":"struct AuthRequest","name":"","type":"tuple"}],"stateMutability":"pure","type":"function"},{"inputs":[{"internalType":"enum AuthType","name":"authType","type":"uint8"},{"internalType":"bool","name":"isAnon","type":"bool"},{"internalType":"uint256","name":"userId","type":"uint256"},{"internalType":"bool","name":"isOptional","type":"bool"},{"internalType":"bool","name":"isSelectableByUser","type":"bool"},{"internalType":"bytes","name":"extraData","type":"bytes"}],"name":"build","outputs":[{"components":[{"internalType":"enum AuthType","name":"authType","type":"uint8"},{"internalType":"uint256","name":"userId","type":"uint256"},{"internalType":"bool","name":"isAnon","type":"bool"},{"internalType":"bool","name":"isOptional","type":"bool"},{"internalType":"bool","name":"isSelectableByUser","type":"bool"},{"internalType":"bytes","name":"extraData","type":"bytes"}],"internalType":"struct AuthRequest","name":"","type":"tuple"}],"stateMutability":"pure","type":"function"},{"inputs":[{"internalType":"enum AuthType","name":"authType","type":"uint8"},{"internalType":"uint256","name":"userId","type":"uint256"},{"internalType":"bytes","name":"extraData","type":"bytes"}],"name":"build","outputs":[{"components":[{"internalType":"enum AuthType","name":"authType","type":"uint8"},{"internalType":"uint256","name":"userId","type":"uint256"},{"internalType":"bool","name":"isAnon","type":"bool"},{"internalType":"bool","name":"isOptional","type":"bool"},{"internalType":"bool","name":"isSelectableByUser","type":"bool"},{"internalType":"bytes","name":"extraData","type":"bytes"}],"internalType":"struct AuthRequest","name":"","type":"tuple"}],"stateMutability":"pure","type":"function"},{"inputs":[{"internalType":"enum AuthType","name":"authType","type":"uint8"},{"internalType":"bool","name":"isAnon","type":"bool"},{"internalType":"uint256","name":"userId","type":"uint256"},{"internalType":"bytes","name":"extraData","type":"bytes"}],"name":"build","outputs":[{"components":[{"internalType":"enum AuthType","name":"authType","type":"uint8"},{"internalType":"uint256","name":"userId","type":"uint256"},{"internalType":"bool","name":"isAnon","type":"bool"},{"internalType":"bool","name":"isOptional","type":"bool"},{"internalType":"bool","name":"isSelectableByUser","type":"bool"},{"internalType":"bytes","name":"extraData","type":"bytes"}],"internalType":"struct AuthRequest","name":"","type":"tuple"}],"stateMutability":"pure","type":"function"},{"inputs":[{"internalType":"enum AuthType","name":"authType","type":"uint8"},{"internalType":"bool","name":"isOptional","type":"bool"},{"internalType":"bool","name":"isSelectableByUser","type":"bool"}],"name":"build","outputs":[{"components":[{"internalType":"enum AuthType","name":"authType","type":"uint8"},{"internalType":"uint256","name":"userId","type":"uint256"},{"internalType":"bool","name":"isAnon","type":"bool"},{"internalType":"bool","name":"isOptional","type":"bool"},{"internalType":"bool","name":"isSelectableByUser","type":"bool"},{"internalType":"bytes","name":"extraData","type":"bytes"}],"internalType":"struct AuthRequest","name":"","type":"tuple"}],"stateMutability":"pure","type":"function"}],"evm":{"bytecode":{"linkReferences":{},"object":"608060405234801561001057600080fd5b50611294806100206000396000f3fe608060405234801561001057600080fd5b50600436106101165760003560e01c8063498a992e116100a2578063916d93c711610071578063916d93c7146103435780639aa01be114610373578063af4f6396146103a3578063c355a32c146103d3578063c3bcacd01461040357610116565b8063498a992e1461029557806351559190146102b35780636746dd2c146102e35780638b9dba711461031357610116565b80633049e4f1116100e95780633049e4f1146101c95780633a0ba6ff146101f95780633ca1531a14610229578063448324ea1461025957806345c130831461027757610116565b80631967e5101461011b5780631a88fb281461013957806320c9019914610169578063291884ae14610199575b600080fd5b610123610433565b60405161013091906108cc565b60405180910390f35b610153600480360381019061014e9190610a92565b610438565b6040516101609190610ca8565b60405180910390f35b610183600480360381019061017e9190610cca565b610457565b6040516101909190610ca8565b60405180910390f35b6101b360048036038101906101ae9190610d0a565b610484565b6040516101c09190610ca8565b60405180910390f35b6101e360048036038101906101de9190610d9d565b6104b4565b6040516101f09190610ca8565b60405180910390f35b610213600480360381019061020e9190610e04565b6104e4565b6040516102209190610ca8565b60405180910390f35b610243600480360381019061023e9190610e31565b610511565b6040516102509190610ca8565b60405180910390f35b61026161053f565b60405161026e9190610e93565b60405180910390f35b61027f610544565b60405161028c9190610ef8565b60405180910390f35b61029d610557565b6040516102aa91906108cc565b60405180910390f35b6102cd60048036038101906102c89190610f1a565b61055c565b6040516102da9190610ca8565b60405180910390f35b6102fd60048036038101906102f89190610f5a565b61058a565b60405161030a9190610ca8565b60405180910390f35b61032d60048036038101906103289190610fb6565b6105a9565b60405161033a9190610ca8565b60405180910390f35b61035d60048036038101906103589190611009565b6105d7565b60405161036a9190610ca8565b60405180910390f35b61038d60048036038101906103889190611070565b610605565b60405161039a9190610ca8565b60405180910390f35b6103bd60048036038101906103b89190611119565b610627565b6040516103ca9190610ca8565b60405180910390f35b6103ed60048036038101906103e89190611188565b610647565b6040516103fa9190610ca8565b60405180910390f35b61041d6004803603810190610418919061120b565b610667565b60405161042a9190610ca8565b60405180910390f35b600081565b610440610863565b61044e848460008086610696565b90509392505050565b61045f610863565b61047c838360008060405180602001604052806000815250610696565b905092915050565b61048c610863565b6104aa858560008686604051806020016040528060008152506106c0565b9050949350505050565b6104bc610863565b6104da856000848787604051806020016040528060008152506106c0565b9050949350505050565b6104ec610863565b61050a82600080600060405180602001604052806000815250610696565b9050919050565b610519610863565b610536846000858560405180602001604052806000815250610696565b90509392505050565b600081565b6040518060200160405280600081525081565b600081565b610564610863565b61058283600084600060405180602001604052806000815250610696565b905092915050565b610592610863565b6105a183600080600086610696565b905092915050565b6105b1610863565b6105ce848484600060405180602001604052806000815250610696565b90509392505050565b6105df610863565b6105fb8585858560405180602001604052806000815250610696565b9050949350505050565b61060d610863565b61061b8787878787876106c0565b90509695505050505050565b61062f610863565b61063e84600085600086610696565b90509392505050565b61064f610863565b61065d858585600086610696565b9050949350505050565b61066f610863565b61068d846000808686604051806020016040528060008152506106c0565b90509392505050565b61069e610863565b6106b5868686866106af8b8a610811565b876106c0565b905095945050505050565b6106c8610863565b600060058111156106dc576106db610b01565b5b8760058111156106ef576106ee610b01565b5b141580156106fd5750600085145b801561070d575060001515831515145b15610744576040517f032e5d9a00000000000000000000000000000000000000000000000000000000815260040160405180910390fd5b6000600581111561075857610757610b01565b5b87600581111561076b5761076a610b01565b5b148015610779575060008514155b8015610789575060001515831515145b156107c0576040517f7fb1693d00000000000000000000000000000000000000000000000000000000815260040160405180910390fd5b6040518060c001604052808860058111156107de576107dd610b01565b5b81526020018681526020018715158152602001851515815260200184151581526020018381525090509695505050505050565b600080600581111561082657610825610b01565b5b83600581111561083957610838610b01565b5b03610847576000905061085d565b60008203610858576001905061085d565b600090505b92915050565b6040518060c001604052806000600581111561088257610881610b01565b5b815260200160008152602001600015158152602001600015158152602001600015158152602001606081525090565b60008115159050919050565b6108c6816108b1565b82525050565b60006020820190506108e160008301846108bd565b92915050565b6000604051905090565b600080fd5b600080fd5b6006811061090857600080fd5b50565b60008135905061091a816108fb565b92915050565b610929816108b1565b811461093457600080fd5b50565b60008135905061094681610920565b92915050565b600080fd5b600080fd5b6000601f19601f8301169050919050565b7f4e487b7100000000000000000000000000000000000000000000000000000000600052604160045260246000fd5b61099f82610956565b810181811067ffffffffffffffff821117156109be576109bd610967565b5b80604052505050565b60006109d16108e7565b90506109dd8282610996565b919050565b600067ffffffffffffffff8211156109fd576109fc610967565b5b610a0682610956565b9050602081019050919050565b82818337600083830152505050565b6000610a35610a30846109e2565b6109c7565b905082815260208101848484011115610a5157610a50610951565b5b610a5c848285610a13565b509392505050565b600082601f830112610a7957610a7861094c565b5b8135610a89848260208601610a22565b91505092915050565b600080600060608486031215610aab57610aaa6108f1565b5b6000610ab98682870161090b565b9350506020610aca86828701610937565b925050604084013567ffffffffffffffff811115610aeb57610aea6108f6565b5b610af786828701610a64565b9150509250925092565b7f4e487b7100000000000000000000000000000000000000000000000000000000600052602160045260246000fd5b60068110610b4157610b40610b01565b5b50565b6000819050610b5282610b30565b919050565b6000610b6282610b44565b9050919050565b610b7281610b57565b82525050565b6000819050919050565b610b8b81610b78565b82525050565b610b9a816108b1565b82525050565b600081519050919050565b600082825260208201905092915050565b60005b83811015610bda578082015181840152602081019050610bbf565b60008484015250505050565b6000610bf182610ba0565b610bfb8185610bab565b9350610c0b818560208601610bbc565b610c1481610956565b840191505092915050565b600060c083016000830151610c376000860182610b69565b506020830151610c4a6020860182610b82565b506040830151610c5d6040860182610b91565b506060830151610c706060860182610b91565b506080830151610c836080860182610b91565b5060a083015184820360a0860152610c9b8282610be6565b9150508091505092915050565b60006020820190508181036000830152610cc28184610c1f565b905092915050565b60008060408385031215610ce157610ce06108f1565b5b6000610cef8582860161090b565b9250506020610d0085828601610937565b9150509250929050565b60008060008060808587031215610d2457610d236108f1565b5b6000610d328782880161090b565b9450506020610d4387828801610937565b9350506040610d5487828801610937565b9250506060610d6587828801610937565b91505092959194509250565b610d7a81610b78565b8114610d8557600080fd5b50565b600081359050610d9781610d71565b92915050565b60008060008060808587031215610db757610db66108f1565b5b6000610dc58782880161090b565b9450506020610dd687828801610937565b9350506040610de787828801610937565b9250506060610df887828801610d88565b91505092959194509250565b600060208284031215610e1a57610e196108f1565b5b6000610e288482850161090b565b91505092915050565b600080600060608486031215610e4a57610e496108f1565b5b6000610e588682870161090b565b9350506020610e6986828701610d88565b9250506040610e7a86828701610937565b9150509250925092565b610e8d81610b78565b82525050565b6000602082019050610ea86000830184610e84565b92915050565b600082825260208201905092915050565b6000610eca82610ba0565b610ed48185610eae565b9350610ee4818560208601610bbc565b610eed81610956565b840191505092915050565b60006020820190508181036000830152610f128184610ebf565b905092915050565b60008060408385031215610f3157610f306108f1565b5b6000610f3f8582860161090b565b9250506020610f5085828601610d88565b9150509250929050565b60008060408385031215610f7157610f706108f1565b5b6000610f7f8582860161090b565b925050602083013567ffffffffffffffff811115610fa057610f9f6108f6565b5b610fac85828601610a64565b9150509250929050565b600080600060608486031215610fcf57610fce6108f1565b5b6000610fdd8682870161090b565b9350506020610fee86828701610937565b9250506040610fff86828701610d88565b9150509250925092565b60008060008060808587031215611023576110226108f1565b5b60006110318782880161090b565b945050602061104287828801610937565b935050604061105387828801610d88565b925050606061106487828801610937565b91505092959194509250565b60008060008060008060c0878903121561108d5761108c6108f1565b5b600061109b89828a0161090b565b96505060206110ac89828a01610937565b95505060406110bd89828a01610d88565b94505060606110ce89828a01610937565b93505060806110df89828a01610937565b92505060a087013567ffffffffffffffff811115611100576110ff6108f6565b5b61110c89828a01610a64565b9150509295509295509295565b600080600060608486031215611132576111316108f1565b5b60006111408682870161090b565b935050602061115186828701610d88565b925050604084013567ffffffffffffffff811115611172576111716108f6565b5b61117e86828701610a64565b9150509250925092565b600080600080608085870312156111a2576111a16108f1565b5b60006111b08782880161090b565b94505060206111c187828801610937565b93505060406111d287828801610d88565b925050606085013567ffffffffffffffff8111156111f3576111f26108f6565b5b6111ff87828801610a64565b91505092959194509250565b600080600060608486031215611224576112236108f1565b5b60006112328682870161090b565b935050602061124386828701610937565b925050604061125486828701610937565b915050925092509256fea26469706673582212209f20884a14c79f9f16495afe697e44230b30fb472f0aae28cd17c43d11de089964736f6c63430008120033","opcodes":"PUSH1 0x80 PUSH1 0x40 MSTORE CALLVALUE DUP1 ISZERO PUSH2 0x10 JUMPI PUSH1 0x0 DUP1 REVERT JUMPDEST POP PUSH2 0x1294 DUP1 PUSH2 0x20 PUSH1 0x0 CODECOPY PUSH1 0x0 RETURN INVALID PUSH1 0x80 PUSH1 0x40 MSTORE CALLVALUE DUP1 ISZERO PUSH2 0x10 JUMPI PUSH1 0x0 DUP1 REVERT JUMPDEST POP PUSH1 0x4 CALLDATASIZE LT PUSH2 0x116 JUMPI PUSH1 0x0 CALLDATALOAD PUSH1 0xE0 SHR DUP1 PUSH4 0x498A992E GT PUSH2 0xA2 JUMPI DUP1 PUSH4 0x916D93C7 GT PUSH2 0x71 JUMPI DUP1 PUSH4 0x916D93C7 EQ PUSH2 0x343 JUMPI DUP1 PUSH4 0x9AA01BE1 EQ PUSH2 0x373 JUMPI DUP1 PUSH4 0xAF4F6396 EQ PUSH2 0x3A3 JUMPI DUP1 PUSH4 0xC355A32C EQ PUSH2 0x3D3 JUMPI DUP1 PUSH4 0xC3BCACD0 EQ PUSH2 0x403 JUMPI PUSH2 0x116 JUMP JUMPDEST DUP1 PUSH4 0x498A992E EQ PUSH2 0x295 JUMPI DUP1 PUSH4 0x51559190 EQ PUSH2 0x2B3 JUMPI DUP1 PUSH4 0x6746DD2C EQ PUSH2 0x2E3 JUMPI DUP1 PUSH4 0x8B9DBA71 EQ PUSH2 0x313 JUMPI PUSH2 0x116 JUMP JUMPDEST DUP1 PUSH4 0x3049E4F1 GT PUSH2 0xE9 JUMPI DUP1 PUSH4 0x3049E4F1 EQ PUSH2 0x1C9 JUMPI DUP1 PUSH4 0x3A0BA6FF EQ PUSH2 0x1F9 JUMPI DUP1 PUSH4 0x3CA1531A EQ PUSH2 0x229 JUMPI DUP1 PUSH4 0x448324EA EQ PUSH2 0x259 JUMPI DUP1 PUSH4 0x45C13083 EQ PUSH2 0x277 JUMPI PUSH2 0x116 JUMP JUMPDEST DUP1 PUSH4 0x1967E510 EQ PUSH2 0x11B JUMPI DUP1 PUSH4 0x1A88FB28 EQ PUSH2 0x139 JUMPI DUP1 PUSH4 0x20C90199 EQ PUSH2 0x169 JUMPI DUP1 PUSH4 0x291884AE EQ PUSH2 0x199 JUMPI JUMPDEST PUSH1 0x0 DUP1 REVERT JUMPDEST PUSH2 0x123 PUSH2 0x433 JUMP JUMPDEST PUSH1 0x40 MLOAD PUSH2 0x130 SWAP2 SWAP1 PUSH2 0x8CC JUMP JUMPDEST PUSH1 0x40 MLOAD DUP1 SWAP2 SUB SWAP1 RETURN JUMPDEST PUSH2 0x153 PUSH1 0x4 DUP1 CALLDATASIZE SUB DUP2 ADD SWAP1 PUSH2 0x14E SWAP2 SWAP1 PUSH2 0xA92 JUMP JUMPDEST PUSH2 0x438 JUMP JUMPDEST PUSH1 0x40 MLOAD PUSH2 0x160 SWAP2 SWAP1 PUSH2 0xCA8 JUMP JUMPDEST PUSH1 0x40 MLOAD DUP1 SWAP2 SUB SWAP1 RETURN JUMPDEST PUSH2 0x183 PUSH1 0x4 DUP1 CALLDATASIZE SUB DUP2 ADD SWAP1 PUSH2 0x17E SWAP2 SWAP1 PUSH2 0xCCA JUMP JUMPDEST PUSH2 0x457 JUMP JUMPDEST PUSH1 0x40 MLOAD PUSH2 0x190 SWAP2 SWAP1 PUSH2 0xCA8 JUMP JUMPDEST PUSH1 0x40 MLOAD DUP1 SWAP2 SUB SWAP1 RETURN JUMPDEST PUSH2 0x1B3 PUSH1 0x4 DUP1 CALLDATASIZE SUB DUP2 ADD SWAP1 PUSH2 0x1AE SWAP2 SWAP1 PUSH2 0xD0A JUMP JUMPDEST PUSH2 0x484 JUMP JUMPDEST PUSH1 0x40 MLOAD PUSH2 0x1C0 SWAP2 SWAP1 PUSH2 0xCA8 JUMP JUMPDEST PUSH1 0x40 MLOAD DUP1 SWAP2 SUB SWAP1 RETURN JUMPDEST PUSH2 0x1E3 PUSH1 0x4 DUP1 CALLDATASIZE SUB DUP2 ADD SWAP1 PUSH2 0x1DE SWAP2 SWAP1 PUSH2 0xD9D JUMP JUMPDEST PUSH2 0x4B4 JUMP JUMPDEST PUSH1 0x40 MLOAD PUSH2 0x1F0 SWAP2 SWAP1 PUSH2 0xCA8 JUMP JUMPDEST PUSH1 0x40 MLOAD DUP1 SWAP2 SUB SWAP1 RETURN JUMPDEST PUSH2 0x213 PUSH1 0x4 DUP1 CALLDATASIZE SUB DUP2 ADD SWAP1 PUSH2 0x20E SWAP2 SWAP1 PUSH2 0xE04 JUMP JUMPDEST PUSH2 0x4E4 JUMP JUMPDEST PUSH1 0x40 MLOAD PUSH2 0x220 SWAP2 SWAP1 PUSH2 0xCA8 JUMP JUMPDEST PUSH1 0x40 MLOAD DUP1 SWAP2 SUB SWAP1 RETURN JUMPDEST PUSH2 0x243 PUSH1 0x4 DUP1 CALLDATASIZE SUB DUP2 ADD SWAP1 PUSH2 0x23E SWAP2 SWAP1 PUSH2 0xE31 JUMP JUMPDEST PUSH2 0x511 JUMP JUMPDEST PUSH1 0x40 MLOAD PUSH2 0x250 SWAP2 SWAP1 PUSH2 0xCA8 JUMP JUMPDEST PUSH1 0x40 MLOAD DUP1 SWAP2 SUB SWAP1 RETURN JUMPDEST PUSH2 0x261 PUSH2 0x53F JUMP JUMPDEST PUSH1 0x40 MLOAD PUSH2 0x26E SWAP2 SWAP1 PUSH2 0xE93 JUMP JUMPDEST PUSH1 0x40 MLOAD DUP1 SWAP2 SUB SWAP1 RETURN JUMPDEST PUSH2 0x27F PUSH2 0x544 JUMP JUMPDEST PUSH1 0x40 MLOAD PUSH2 0x28C SWAP2 SWAP1 PUSH2 0xEF8 JUMP JUMPDEST PUSH1 0x40 MLOAD DUP1 SWAP2 SUB SWAP1 RETURN JUMPDEST PUSH2 0x29D PUSH2 0x557 JUMP JUMPDEST PUSH1 0x40 MLOAD PUSH2 0x2AA SWAP2 SWAP1 PUSH2 0x8CC JUMP JUMPDEST PUSH1 0x40 MLOAD DUP1 SWAP2 SUB SWAP1 RETURN JUMPDEST PUSH2 0x2CD PUSH1 0x4 DUP1 CALLDATASIZE SUB DUP2 ADD SWAP1 PUSH2 0x2C8 SWAP2 SWAP1 PUSH2 0xF1A JUMP JUMPDEST PUSH2 0x55C JUMP JUMPDEST PUSH1 0x40 MLOAD PUSH2 0x2DA SWAP2 SWAP1 PUSH2 0xCA8 JUMP JUMPDEST PUSH1 0x40 MLOAD DUP1 SWAP2 SUB SWAP1 RETURN JUMPDEST PUSH2 0x2FD PUSH1 0x4 DUP1 CALLDATASIZE SUB DUP2 ADD SWAP1 PUSH2 0x2F8 SWAP2 SWAP1 PUSH2 0xF5A JUMP JUMPDEST PUSH2 0x58A JUMP JUMPDEST PUSH1 0x40 MLOAD PUSH2 0x30A SWAP2 SWAP1 PUSH2 0xCA8 JUMP JUMPDEST PUSH1 0x40 MLOAD DUP1 SWAP2 SUB SWAP1 RETURN JUMPDEST PUSH2 0x32D PUSH1 0x4 DUP1 CALLDATASIZE SUB DUP2 ADD SWAP1 PUSH2 0x328 SWAP2 SWAP1 PUSH2 0xFB6 JUMP JUMPDEST PUSH2 0x5A9 JUMP JUMPDEST PUSH1 0x40 MLOAD PUSH2 0x33A SWAP2 SWAP1 PUSH2 0xCA8 JUMP JUMPDEST PUSH1 0x40 MLOAD DUP1 SWAP2 SUB SWAP1 RETURN JUMPDEST PUSH2 0x35D PUSH1 0x4 DUP1 CALLDATASIZE SUB DUP2 ADD SWAP1 PUSH2 0x358 SWAP2 SWAP1 PUSH2 0x1009 JUMP JUMPDEST PUSH2 0x5D7 JUMP JUMPDEST PUSH1 0x40 MLOAD PUSH2 0x36A SWAP2 SWAP1 PUSH2 0xCA8 JUMP JUMPDEST PUSH1 0x40 MLOAD DUP1 SWAP2 SUB SWAP1 RETURN JUMPDEST PUSH2 0x38D PUSH1 0x4 DUP1 CALLDATASIZE SUB DUP2 ADD SWAP1 PUSH2 0x388 SWAP2 SWAP1 PUSH2 0x1070 JUMP JUMPDEST PUSH2 0x605 JUMP JUMPDEST PUSH1 0x40 MLOAD PUSH2 0x39A SWAP2 SWAP1 PUSH2 0xCA8 JUMP JUMPDEST PUSH1 0x40 MLOAD DUP1 SWAP2 SUB SWAP1 RETURN JUMPDEST PUSH2 0x3BD PUSH1 0x4 DUP1 CALLDATASIZE SUB DUP2 ADD SWAP1 PUSH2 0x3B8 SWAP2 SWAP1 PUSH2 0x1119 JUMP JUMPDEST PUSH2 0x627 JUMP JUMPDEST PUSH1 0x40 MLOAD PUSH2 0x3CA SWAP2 SWAP1 PUSH2 0xCA8 JUMP JUMPDEST PUSH1 0x40 MLOAD DUP1 SWAP2 SUB SWAP1 RETURN JUMPDEST PUSH2 0x3ED PUSH1 0x4 DUP1 CALLDATASIZE SUB DUP2 ADD SWAP1 PUSH2 0x3E8 SWAP2 SWAP1 PUSH2 0x1188 JUMP JUMPDEST PUSH2 0x647 JUMP JUMPDEST PUSH1 0x40 MLOAD PUSH2 0x3FA SWAP2 SWAP1 PUSH2 0xCA8 JUMP JUMPDEST PUSH1 0x40 MLOAD DUP1 SWAP2 SUB SWAP1 RETURN JUMPDEST PUSH2 0x41D PUSH1 0x4 DUP1 CALLDATASIZE SUB DUP2 ADD SWAP1 PUSH2 0x418 SWAP2 SWAP1 PUSH2 0x120B JUMP JUMPDEST PUSH2 0x667 JUMP JUMPDEST PUSH1 0x40 MLOAD PUSH2 0x42A SWAP2 SWAP1 PUSH2 0xCA8 JUMP JUMPDEST PUSH1 0x40 MLOAD DUP1 SWAP2 SUB SWAP1 RETURN JUMPDEST PUSH1 0x0 DUP2 JUMP JUMPDEST PUSH2 0x440 PUSH2 0x863 JUMP JUMPDEST PUSH2 0x44E DUP5 DUP5 PUSH1 0x0 DUP1 DUP7 PUSH2 0x696 JUMP JUMPDEST SWAP1 POP SWAP4 SWAP3 POP POP POP JUMP JUMPDEST PUSH2 0x45F PUSH2 0x863 JUMP JUMPDEST PUSH2 0x47C DUP4 DUP4 PUSH1 0x0 DUP1 PUSH1 0x40 MLOAD DUP1 PUSH1 0x20 ADD PUSH1 0x40 MSTORE DUP1 PUSH1 0x0 DUP2 MSTORE POP PUSH2 0x696 JUMP JUMPDEST SWAP1 POP SWAP3 SWAP2 POP POP JUMP JUMPDEST PUSH2 0x48C PUSH2 0x863 JUMP JUMPDEST PUSH2 0x4AA DUP6 DUP6 PUSH1 0x0 DUP7 DUP7 PUSH1 0x40 MLOAD DUP1 PUSH1 0x20 ADD PUSH1 0x40 MSTORE DUP1 PUSH1 0x0 DUP2 MSTORE POP PUSH2 0x6C0 JUMP JUMPDEST SWAP1 POP SWAP5 SWAP4 POP POP POP POP JUMP JUMPDEST PUSH2 0x4BC PUSH2 0x863 JUMP JUMPDEST PUSH2 0x4DA DUP6 PUSH1 0x0 DUP5 DUP8 DUP8 PUSH1 0x40 MLOAD DUP1 PUSH1 0x20 ADD PUSH1 0x40 MSTORE DUP1 PUSH1 0x0 DUP2 MSTORE POP PUSH2 0x6C0 JUMP JUMPDEST SWAP1 POP SWAP5 SWAP4 POP POP POP POP JUMP JUMPDEST PUSH2 0x4EC PUSH2 0x863 JUMP JUMPDEST PUSH2 0x50A DUP3 PUSH1 0x0 DUP1 PUSH1 0x0 PUSH1 0x40 MLOAD DUP1 PUSH1 0x20 ADD PUSH1 0x40 MSTORE DUP1 PUSH1 0x0 DUP2 MSTORE POP PUSH2 0x696 JUMP JUMPDEST SWAP1 POP SWAP2 SWAP1 POP JUMP JUMPDEST PUSH2 0x519 PUSH2 0x863 JUMP JUMPDEST PUSH2 0x536 DUP5 PUSH1 0x0 DUP6 DUP6 PUSH1 0x40 MLOAD DUP1 PUSH1 0x20 ADD PUSH1 0x40 MSTORE DUP1 PUSH1 0x0 DUP2 MSTORE POP PUSH2 0x696 JUMP JUMPDEST SWAP1 POP SWAP4 SWAP3 POP POP POP JUMP JUMPDEST PUSH1 0x0 DUP2 JUMP JUMPDEST PUSH1 0x40 MLOAD DUP1 PUSH1 0x20 ADD PUSH1 0x40 MSTORE DUP1 PUSH1 0x0 DUP2 MSTORE POP DUP2 JUMP JUMPDEST PUSH1 0x0 DUP2 JUMP JUMPDEST PUSH2 0x564 PUSH2 0x863 JUMP JUMPDEST PUSH2 0x582 DUP4 PUSH1 0x0 DUP5 PUSH1 0x0 PUSH1 0x40 MLOAD DUP1 PUSH1 0x20 ADD PUSH1 0x40 MSTORE DUP1 PUSH1 0x0 DUP2 MSTORE POP PUSH2 0x696 JUMP JUMPDEST SWAP1 POP SWAP3 SWAP2 POP POP JUMP JUMPDEST PUSH2 0x592 PUSH2 0x863 JUMP JUMPDEST PUSH2 0x5A1 DUP4 PUSH1 0x0 DUP1 PUSH1 0x0 DUP7 PUSH2 0x696 JUMP JUMPDEST SWAP1 POP SWAP3 SWAP2 POP POP JUMP JUMPDEST PUSH2 0x5B1 PUSH2 0x863 JUMP JUMPDEST PUSH2 0x5CE DUP5 DUP5 DUP5 PUSH1 0x0 PUSH1 0x40 MLOAD DUP1 PUSH1 0x20 ADD PUSH1 0x40 MSTORE DUP1 PUSH1 0x0 DUP2 MSTORE POP PUSH2 0x696 JUMP JUMPDEST SWAP1 POP SWAP4 SWAP3 POP POP POP JUMP JUMPDEST PUSH2 0x5DF PUSH2 0x863 JUMP JUMPDEST PUSH2 0x5FB DUP6 DUP6 DUP6 DUP6 PUSH1 0x40 MLOAD DUP1 PUSH1 0x20 ADD PUSH1 0x40 MSTORE DUP1 PUSH1 0x0 DUP2 MSTORE POP PUSH2 0x696 JUMP JUMPDEST SWAP1 POP SWAP5 SWAP4 POP POP POP POP JUMP JUMPDEST PUSH2 0x60D PUSH2 0x863 JUMP JUMPDEST PUSH2 0x61B DUP8 DUP8 DUP8 DUP8 DUP8 DUP8 PUSH2 0x6C0 JUMP JUMPDEST SWAP1 POP SWAP7 SWAP6 POP POP POP POP POP POP JUMP JUMPDEST PUSH2 0x62F PUSH2 0x863 JUMP JUMPDEST PUSH2 0x63E DUP5 PUSH1 0x0 DUP6 PUSH1 0x0 DUP7 PUSH2 0x696 JUMP JUMPDEST SWAP1 POP SWAP4 SWAP3 POP POP POP JUMP JUMPDEST PUSH2 0x64F PUSH2 0x863 JUMP JUMPDEST PUSH2 0x65D DUP6 DUP6 DUP6 PUSH1 0x0 DUP7 PUSH2 0x696 JUMP JUMPDEST SWAP1 POP SWAP5 SWAP4 POP POP POP POP JUMP JUMPDEST PUSH2 0x66F PUSH2 0x863 JUMP JUMPDEST PUSH2 0x68D DUP5 PUSH1 0x0 DUP1 DUP7 DUP7 PUSH1 0x40 MLOAD DUP1 PUSH1 0x20 ADD PUSH1 0x40 MSTORE DUP1 PUSH1 0x0 DUP2 MSTORE POP PUSH2 0x6C0 JUMP JUMPDEST SWAP1 POP SWAP4 SWAP3 POP POP POP JUMP JUMPDEST PUSH2 0x69E PUSH2 0x863 JUMP JUMPDEST PUSH2 0x6B5 DUP7 DUP7 DUP7 DUP7 PUSH2 0x6AF DUP12 DUP11 PUSH2 0x811 JUMP JUMPDEST DUP8 PUSH2 0x6C0 JUMP JUMPDEST SWAP1 POP SWAP6 SWAP5 POP POP POP POP POP JUMP JUMPDEST PUSH2 0x6C8 PUSH2 0x863 JUMP JUMPDEST PUSH1 0x0 PUSH1 0x5 DUP2 GT ISZERO PUSH2 0x6DC JUMPI PUSH2 0x6DB PUSH2 0xB01 JUMP JUMPDEST JUMPDEST DUP8 PUSH1 0x5 DUP2 GT ISZERO PUSH2 0x6EF JUMPI PUSH2 0x6EE PUSH2 0xB01 JUMP JUMPDEST JUMPDEST EQ ISZERO DUP1 ISZERO PUSH2 0x6FD JUMPI POP PUSH1 0x0 DUP6 EQ JUMPDEST DUP1 ISZERO PUSH2 0x70D JUMPI POP PUSH1 0x0 ISZERO ISZERO DUP4 ISZERO ISZERO EQ JUMPDEST ISZERO PUSH2 0x744 JUMPI PUSH1 0x40 MLOAD PUSH32 0x32E5D9A00000000000000000000000000000000000000000000000000000000 DUP2 MSTORE PUSH1 0x4 ADD PUSH1 0x40 MLOAD DUP1 SWAP2 SUB SWAP1 REVERT JUMPDEST PUSH1 0x0 PUSH1 0x5 DUP2 GT ISZERO PUSH2 0x758 JUMPI PUSH2 0x757 PUSH2 0xB01 JUMP JUMPDEST JUMPDEST DUP8 PUSH1 0x5 DUP2 GT ISZERO PUSH2 0x76B JUMPI PUSH2 0x76A PUSH2 0xB01 JUMP JUMPDEST JUMPDEST EQ DUP1 ISZERO PUSH2 0x779 JUMPI POP PUSH1 0x0 DUP6 EQ ISZERO JUMPDEST DUP1 ISZERO PUSH2 0x789 JUMPI POP PUSH1 0x0 ISZERO ISZERO DUP4 ISZERO ISZERO EQ JUMPDEST ISZERO PUSH2 0x7C0 JUMPI PUSH1 0x40 MLOAD PUSH32 0x7FB1693D00000000000000000000000000000000000000000000000000000000 DUP2 MSTORE PUSH1 0x4 ADD PUSH1 0x40 MLOAD DUP1 SWAP2 SUB SWAP1 REVERT JUMPDEST PUSH1 0x40 MLOAD DUP1 PUSH1 0xC0 ADD PUSH1 0x40 MSTORE DUP1 DUP9 PUSH1 0x5 DUP2 GT ISZERO PUSH2 0x7DE JUMPI PUSH2 0x7DD PUSH2 0xB01 JUMP JUMPDEST JUMPDEST DUP2 MSTORE PUSH1 0x20 ADD DUP7 DUP2 MSTORE PUSH1 0x20 ADD DUP8 ISZERO ISZERO DUP2 MSTORE PUSH1 0x20 ADD DUP6 ISZERO ISZERO DUP2 MSTORE PUSH1 0x20 ADD DUP5 ISZERO ISZERO DUP2 MSTORE PUSH1 0x20 ADD DUP4 DUP2 MSTORE POP SWAP1 POP SWAP7 SWAP6 POP POP POP POP POP POP JUMP JUMPDEST PUSH1 0x0 DUP1 PUSH1 0x5 DUP2 GT ISZERO PUSH2 0x826 JUMPI PUSH2 0x825 PUSH2 0xB01 JUMP JUMPDEST JUMPDEST DUP4 PUSH1 0x5 DUP2 GT ISZERO PUSH2 0x839 JUMPI PUSH2 0x838 PUSH2 0xB01 JUMP JUMPDEST JUMPDEST SUB PUSH2 0x847 JUMPI PUSH1 0x0 SWAP1 POP PUSH2 0x85D JUMP JUMPDEST PUSH1 0x0 DUP3 SUB PUSH2 0x858 JUMPI PUSH1 0x1 SWAP1 POP PUSH2 0x85D JUMP JUMPDEST PUSH1 0x0 SWAP1 POP JUMPDEST SWAP3 SWAP2 POP POP JUMP JUMPDEST PUSH1 0x40 MLOAD DUP1 PUSH1 0xC0 ADD PUSH1 0x40 MSTORE DUP1 PUSH1 0x0 PUSH1 0x5 DUP2 GT ISZERO PUSH2 0x882 JUMPI PUSH2 0x881 PUSH2 0xB01 JUMP JUMPDEST JUMPDEST DUP2 MSTORE PUSH1 0x20 ADD PUSH1 0x0 DUP2 MSTORE PUSH1 0x20 ADD PUSH1 0x0 ISZERO ISZERO DUP2 MSTORE PUSH1 0x20 ADD PUSH1 0x0 ISZERO ISZERO DUP2 MSTORE PUSH1 0x20 ADD PUSH1 0x0 ISZERO ISZERO DUP2 MSTORE PUSH1 0x20 ADD PUSH1 0x60 DUP2 MSTORE POP SWAP1 JUMP JUMPDEST PUSH1 0x0 DUP2 ISZERO ISZERO SWAP1 POP SWAP2 SWAP1 POP JUMP JUMPDEST PUSH2 0x8C6 DUP2 PUSH2 0x8B1 JUMP JUMPDEST DUP3 MSTORE POP POP JUMP JUMPDEST PUSH1 0x0 PUSH1 0x20 DUP3 ADD SWAP1 POP PUSH2 0x8E1 PUSH1 0x0 DUP4 ADD DUP5 PUSH2 0x8BD JUMP JUMPDEST SWAP3 SWAP2 POP POP JUMP JUMPDEST PUSH1 0x0 PUSH1 0x40 MLOAD SWAP1 POP SWAP1 JUMP JUMPDEST PUSH1 0x0 DUP1 REVERT JUMPDEST PUSH1 0x0 DUP1 REVERT JUMPDEST PUSH1 0x6 DUP2 LT PUSH2 0x908 JUMPI PUSH1 0x0 DUP1 REVERT JUMPDEST POP JUMP JUMPDEST PUSH1 0x0 DUP2 CALLDATALOAD SWAP1 POP PUSH2 0x91A DUP2 PUSH2 0x8FB JUMP JUMPDEST SWAP3 SWAP2 POP POP JUMP JUMPDEST PUSH2 0x929 DUP2 PUSH2 0x8B1 JUMP JUMPDEST DUP2 EQ PUSH2 0x934 JUMPI PUSH1 0x0 DUP1 REVERT JUMPDEST POP JUMP JUMPDEST PUSH1 0x0 DUP2 CALLDATALOAD SWAP1 POP PUSH2 0x946 DUP2 PUSH2 0x920 JUMP JUMPDEST SWAP3 SWAP2 POP POP JUMP JUMPDEST PUSH1 0x0 DUP1 REVERT JUMPDEST PUSH1 0x0 DUP1 REVERT JUMPDEST PUSH1 0x0 PUSH1 0x1F NOT PUSH1 0x1F DUP4 ADD AND SWAP1 POP SWAP2 SWAP1 POP JUMP JUMPDEST PUSH32 0x4E487B7100000000000000000000000000000000000000000000000000000000 PUSH1 0x0 MSTORE PUSH1 0x41 PUSH1 0x4 MSTORE PUSH1 0x24 PUSH1 0x0 REVERT JUMPDEST PUSH2 0x99F DUP3 PUSH2 0x956 JUMP JUMPDEST DUP2 ADD DUP2 DUP2 LT PUSH8 0xFFFFFFFFFFFFFFFF DUP3 GT OR ISZERO PUSH2 0x9BE JUMPI PUSH2 0x9BD PUSH2 0x967 JUMP JUMPDEST JUMPDEST DUP1 PUSH1 0x40 MSTORE POP POP POP JUMP JUMPDEST PUSH1 0x0 PUSH2 0x9D1 PUSH2 0x8E7 JUMP JUMPDEST SWAP1 POP PUSH2 0x9DD DUP3 DUP3 PUSH2 0x996 JUMP JUMPDEST SWAP2 SWAP1 POP JUMP JUMPDEST PUSH1 0x0 PUSH8 0xFFFFFFFFFFFFFFFF DUP3 GT ISZERO PUSH2 0x9FD JUMPI PUSH2 0x9FC PUSH2 0x967 JUMP JUMPDEST JUMPDEST PUSH2 0xA06 DUP3 PUSH2 0x956 JUMP JUMPDEST SWAP1 POP PUSH1 0x20 DUP2 ADD SWAP1 POP SWAP2 SWAP1 POP JUMP JUMPDEST DUP3 DUP2 DUP4 CALLDATACOPY PUSH1 0x0 DUP4 DUP4 ADD MSTORE POP POP POP JUMP JUMPDEST PUSH1 0x0 PUSH2 0xA35 PUSH2 0xA30 DUP5 PUSH2 0x9E2 JUMP JUMPDEST PUSH2 0x9C7 JUMP JUMPDEST SWAP1 POP DUP3 DUP2 MSTORE PUSH1 0x20 DUP2 ADD DUP5 DUP5 DUP5 ADD GT ISZERO PUSH2 0xA51 JUMPI PUSH2 0xA50 PUSH2 0x951 JUMP JUMPDEST JUMPDEST PUSH2 0xA5C DUP5 DUP3 DUP6 PUSH2 0xA13 JUMP JUMPDEST POP SWAP4 SWAP3 POP POP POP JUMP JUMPDEST PUSH1 0x0 DUP3 PUSH1 0x1F DUP4 ADD SLT PUSH2 0xA79 JUMPI PUSH2 0xA78 PUSH2 0x94C JUMP JUMPDEST JUMPDEST DUP2 CALLDATALOAD PUSH2 0xA89 DUP5 DUP3 PUSH1 0x20 DUP7 ADD PUSH2 0xA22 JUMP JUMPDEST SWAP2 POP POP SWAP3 SWAP2 POP POP JUMP JUMPDEST PUSH1 0x0 DUP1 PUSH1 0x0 PUSH1 0x60 DUP5 DUP7 SUB SLT ISZERO PUSH2 0xAAB JUMPI PUSH2 0xAAA PUSH2 0x8F1 JUMP JUMPDEST JUMPDEST PUSH1 0x0 PUSH2 0xAB9 DUP7 DUP3 DUP8 ADD PUSH2 0x90B JUMP JUMPDEST SWAP4 POP POP PUSH1 0x20 PUSH2 0xACA DUP7 DUP3 DUP8 ADD PUSH2 0x937 JUMP JUMPDEST SWAP3 POP POP PUSH1 0x40 DUP5 ADD CALLDATALOAD PUSH8 0xFFFFFFFFFFFFFFFF DUP2 GT ISZERO PUSH2 0xAEB JUMPI PUSH2 0xAEA PUSH2 0x8F6 JUMP JUMPDEST JUMPDEST PUSH2 0xAF7 DUP7 DUP3 DUP8 ADD PUSH2 0xA64 JUMP JUMPDEST SWAP2 POP POP SWAP3 POP SWAP3 POP SWAP3 JUMP JUMPDEST PUSH32 0x4E487B7100000000000000000000000000000000000000000000000000000000 PUSH1 0x0 MSTORE PUSH1 0x21 PUSH1 0x4 MSTORE PUSH1 0x24 PUSH1 0x0 REVERT JUMPDEST PUSH1 0x6 DUP2 LT PUSH2 0xB41 JUMPI PUSH2 0xB40 PUSH2 0xB01 JUMP JUMPDEST JUMPDEST POP JUMP JUMPDEST PUSH1 0x0 DUP2 SWAP1 POP PUSH2 0xB52 DUP3 PUSH2 0xB30 JUMP JUMPDEST SWAP2 SWAP1 POP JUMP JUMPDEST PUSH1 0x0 PUSH2 0xB62 DUP3 PUSH2 0xB44 JUMP JUMPDEST SWAP1 POP SWAP2 SWAP1 POP JUMP JUMPDEST PUSH2 0xB72 DUP2 PUSH2 0xB57 JUMP JUMPDEST DUP3 MSTORE POP POP JUMP JUMPDEST PUSH1 0x0 DUP2 SWAP1 POP SWAP2 SWAP1 POP JUMP JUMPDEST PUSH2 0xB8B DUP2 PUSH2 0xB78 JUMP JUMPDEST DUP3 MSTORE POP POP JUMP JUMPDEST PUSH2 0xB9A DUP2 PUSH2 0x8B1 JUMP JUMPDEST DUP3 MSTORE POP POP JUMP JUMPDEST PUSH1 0x0 DUP2 MLOAD SWAP1 POP SWAP2 SWAP1 POP JUMP JUMPDEST PUSH1 0x0 DUP3 DUP3 MSTORE PUSH1 0x20 DUP3 ADD SWAP1 POP SWAP3 SWAP2 POP POP JUMP JUMPDEST PUSH1 0x0 JUMPDEST DUP4 DUP2 LT ISZERO PUSH2 0xBDA JUMPI DUP1 DUP3 ADD MLOAD DUP2 DUP5 ADD MSTORE PUSH1 0x20 DUP2 ADD SWAP1 POP PUSH2 0xBBF JUMP JUMPDEST PUSH1 0x0 DUP5 DUP5 ADD MSTORE POP POP POP POP JUMP JUMPDEST PUSH1 0x0 PUSH2 0xBF1 DUP3 PUSH2 0xBA0 JUMP JUMPDEST PUSH2 0xBFB DUP2 DUP6 PUSH2 0xBAB JUMP JUMPDEST SWAP4 POP PUSH2 0xC0B DUP2 DUP6 PUSH1 0x20 DUP7 ADD PUSH2 0xBBC JUMP JUMPDEST PUSH2 0xC14 DUP2 PUSH2 0x956 JUMP JUMPDEST DUP5 ADD SWAP2 POP POP SWAP3 SWAP2 POP POP JUMP JUMPDEST PUSH1 0x0 PUSH1 0xC0 DUP4 ADD PUSH1 0x0 DUP4 ADD MLOAD PUSH2 0xC37 PUSH1 0x0 DUP7 ADD DUP3 PUSH2 0xB69 JUMP JUMPDEST POP PUSH1 0x20 DUP4 ADD MLOAD PUSH2 0xC4A PUSH1 0x20 DUP7 ADD DUP3 PUSH2 0xB82 JUMP JUMPDEST POP PUSH1 0x40 DUP4 ADD MLOAD PUSH2 0xC5D PUSH1 0x40 DUP7 ADD DUP3 PUSH2 0xB91 JUMP JUMPDEST POP PUSH1 0x60 DUP4 ADD MLOAD PUSH2 0xC70 PUSH1 0x60 DUP7 ADD DUP3 PUSH2 0xB91 JUMP JUMPDEST POP PUSH1 0x80 DUP4 ADD MLOAD PUSH2 0xC83 PUSH1 0x80 DUP7 ADD DUP3 PUSH2 0xB91 JUMP JUMPDEST POP PUSH1 0xA0 DUP4 ADD MLOAD DUP5 DUP3 SUB PUSH1 0xA0 DUP7 ADD MSTORE PUSH2 0xC9B DUP3 DUP3 PUSH2 0xBE6 JUMP JUMPDEST SWAP2 POP POP DUP1 SWAP2 POP POP SWAP3 SWAP2 POP POP JUMP JUMPDEST PUSH1 0x0 PUSH1 0x20 DUP3 ADD SWAP1 POP DUP2 DUP2 SUB PUSH1 0x0 DUP4 ADD MSTORE PUSH2 0xCC2 DUP2 DUP5 PUSH2 0xC1F JUMP JUMPDEST SWAP1 POP SWAP3 SWAP2 POP POP JUMP JUMPDEST PUSH1 0x0 DUP1 PUSH1 0x40 DUP4 DUP6 SUB SLT ISZERO PUSH2 0xCE1 JUMPI PUSH2 0xCE0 PUSH2 0x8F1 JUMP JUMPDEST JUMPDEST PUSH1 0x0 PUSH2 0xCEF DUP6 DUP3 DUP7 ADD PUSH2 0x90B JUMP JUMPDEST SWAP3 POP POP PUSH1 0x20 PUSH2 0xD00 DUP6 DUP3 DUP7 ADD PUSH2 0x937 JUMP JUMPDEST SWAP2 POP POP SWAP3 POP SWAP3 SWAP1 POP JUMP JUMPDEST PUSH1 0x0 DUP1 PUSH1 0x0 DUP1 PUSH1 0x80 DUP6 DUP8 SUB SLT ISZERO PUSH2 0xD24 JUMPI PUSH2 0xD23 PUSH2 0x8F1 JUMP JUMPDEST JUMPDEST PUSH1 0x0 PUSH2 0xD32 DUP8 DUP3 DUP9 ADD PUSH2 0x90B JUMP JUMPDEST SWAP5 POP POP PUSH1 0x20 PUSH2 0xD43 DUP8 DUP3 DUP9 ADD PUSH2 0x937 JUMP JUMPDEST SWAP4 POP POP PUSH1 0x40 PUSH2 0xD54 DUP8 DUP3 DUP9 ADD PUSH2 0x937 JUMP JUMPDEST SWAP3 POP POP PUSH1 0x60 PUSH2 0xD65 DUP8 DUP3 DUP9 ADD PUSH2 0x937 JUMP JUMPDEST SWAP2 POP POP SWAP3 SWAP6 SWAP2 SWAP5 POP SWAP3 POP JUMP JUMPDEST PUSH2 0xD7A DUP2 PUSH2 0xB78 JUMP JUMPDEST DUP2 EQ PUSH2 0xD85 JUMPI PUSH1 0x0 DUP1 REVERT JUMPDEST POP JUMP JUMPDEST PUSH1 0x0 DUP2 CALLDATALOAD SWAP1 POP PUSH2 0xD97 DUP2 PUSH2 0xD71 JUMP JUMPDEST SWAP3 SWAP2 POP POP JUMP JUMPDEST PUSH1 0x0 DUP1 PUSH1 0x0 DUP1 PUSH1 0x80 DUP6 DUP8 SUB SLT ISZERO PUSH2 0xDB7 JUMPI PUSH2 0xDB6 PUSH2 0x8F1 JUMP JUMPDEST JUMPDEST PUSH1 0x0 PUSH2 0xDC5 DUP8 DUP3 DUP9 ADD PUSH2 0x90B JUMP JUMPDEST SWAP5 POP POP PUSH1 0x20 PUSH2 0xDD6 DUP8 DUP3 DUP9 ADD PUSH2 0x937 JUMP JUMPDEST SWAP4 POP POP PUSH1 0x40 PUSH2 0xDE7 DUP8 DUP3 DUP9 ADD PUSH2 0x937 JUMP JUMPDEST SWAP3 POP POP PUSH1 0x60 PUSH2 0xDF8 DUP8 DUP3 DUP9 ADD PUSH2 0xD88 JUMP JUMPDEST SWAP2 POP POP SWAP3 SWAP6 SWAP2 SWAP5 POP SWAP3 POP JUMP JUMPDEST PUSH1 0x0 PUSH1 0x20 DUP3 DUP5 SUB SLT ISZERO PUSH2 0xE1A JUMPI PUSH2 0xE19 PUSH2 0x8F1 JUMP JUMPDEST JUMPDEST PUSH1 0x0 PUSH2 0xE28 DUP5 DUP3 DUP6 ADD PUSH2 0x90B JUMP JUMPDEST SWAP2 POP POP SWAP3 SWAP2 POP POP JUMP JUMPDEST PUSH1 0x0 DUP1 PUSH1 0x0 PUSH1 0x60 DUP5 DUP7 SUB SLT ISZERO PUSH2 0xE4A JUMPI PUSH2 0xE49 PUSH2 0x8F1 JUMP JUMPDEST JUMPDEST PUSH1 0x0 PUSH2 0xE58 DUP7 DUP3 DUP8 ADD PUSH2 0x90B JUMP JUMPDEST SWAP4 POP POP PUSH1 0x20 PUSH2 0xE69 DUP7 DUP3 DUP8 ADD PUSH2 0xD88 JUMP JUMPDEST SWAP3 POP POP PUSH1 0x40 PUSH2 0xE7A DUP7 DUP3 DUP8 ADD PUSH2 0x937 JUMP JUMPDEST SWAP2 POP POP SWAP3 POP SWAP3 POP SWAP3 JUMP JUMPDEST PUSH2 0xE8D DUP2 PUSH2 0xB78 JUMP JUMPDEST DUP3 MSTORE POP POP JUMP JUMPDEST PUSH1 0x0 PUSH1 0x20 DUP3 ADD SWAP1 POP PUSH2 0xEA8 PUSH1 0x0 DUP4 ADD DUP5 PUSH2 0xE84 JUMP JUMPDEST SWAP3 SWAP2 POP POP JUMP JUMPDEST PUSH1 0x0 DUP3 DUP3 MSTORE PUSH1 0x20 DUP3 ADD SWAP1 POP SWAP3 SWAP2 POP POP JUMP JUMPDEST PUSH1 0x0 PUSH2 0xECA DUP3 PUSH2 0xBA0 JUMP JUMPDEST PUSH2 0xED4 DUP2 DUP6 PUSH2 0xEAE JUMP JUMPDEST SWAP4 POP PUSH2 0xEE4 DUP2 DUP6 PUSH1 0x20 DUP7 ADD PUSH2 0xBBC JUMP JUMPDEST PUSH2 0xEED DUP2 PUSH2 0x956 JUMP JUMPDEST DUP5 ADD SWAP2 POP POP SWAP3 SWAP2 POP POP JUMP JUMPDEST PUSH1 0x0 PUSH1 0x20 DUP3 ADD SWAP1 POP DUP2 DUP2 SUB PUSH1 0x0 DUP4 ADD MSTORE PUSH2 0xF12 DUP2 DUP5 PUSH2 0xEBF JUMP JUMPDEST SWAP1 POP SWAP3 SWAP2 POP POP JUMP JUMPDEST PUSH1 0x0 DUP1 PUSH1 0x40 DUP4 DUP6 SUB SLT ISZERO PUSH2 0xF31 JUMPI PUSH2 0xF30 PUSH2 0x8F1 JUMP JUMPDEST JUMPDEST PUSH1 0x0 PUSH2 0xF3F DUP6 DUP3 DUP7 ADD PUSH2 0x90B JUMP JUMPDEST SWAP3 POP POP PUSH1 0x20 PUSH2 0xF50 DUP6 DUP3 DUP7 ADD PUSH2 0xD88 JUMP JUMPDEST SWAP2 POP POP SWAP3 POP SWAP3 SWAP1 POP JUMP JUMPDEST PUSH1 0x0 DUP1 PUSH1 0x40 DUP4 DUP6 SUB SLT ISZERO PUSH2 0xF71 JUMPI PUSH2 0xF70 PUSH2 0x8F1 JUMP JUMPDEST JUMPDEST PUSH1 0x0 PUSH2 0xF7F DUP6 DUP3 DUP7 ADD PUSH2 0x90B JUMP JUMPDEST SWAP3 POP POP PUSH1 0x20 DUP4 ADD CALLDATALOAD PUSH8 0xFFFFFFFFFFFFFFFF DUP2 GT ISZERO PUSH2 0xFA0 JUMPI PUSH2 0xF9F PUSH2 0x8F6 JUMP JUMPDEST JUMPDEST PUSH2 0xFAC DUP6 DUP3 DUP7 ADD PUSH2 0xA64 JUMP JUMPDEST SWAP2 POP POP SWAP3 POP SWAP3 SWAP1 POP JUMP JUMPDEST PUSH1 0x0 DUP1 PUSH1 0x0 PUSH1 0x60 DUP5 DUP7 SUB SLT ISZERO PUSH2 0xFCF JUMPI PUSH2 0xFCE PUSH2 0x8F1 JUMP JUMPDEST JUMPDEST PUSH1 0x0 PUSH2 0xFDD DUP7 DUP3 DUP8 ADD PUSH2 0x90B JUMP JUMPDEST SWAP4 POP POP PUSH1 0x20 PUSH2 0xFEE DUP7 DUP3 DUP8 ADD PUSH2 0x937 JUMP JUMPDEST SWAP3 POP POP PUSH1 0x40 PUSH2 0xFFF DUP7 DUP3 DUP8 ADD PUSH2 0xD88 JUMP JUMPDEST SWAP2 POP POP SWAP3 POP SWAP3 POP SWAP3 JUMP JUMPDEST PUSH1 0x0 DUP1 PUSH1 0x0 DUP1 PUSH1 0x80 DUP6 DUP8 SUB SLT ISZERO PUSH2 0x1023 JUMPI PUSH2 0x1022 PUSH2 0x8F1 JUMP JUMPDEST JUMPDEST PUSH1 0x0 PUSH2 0x1031 DUP8 DUP3 DUP9 ADD PUSH2 0x90B JUMP JUMPDEST SWAP5 POP POP PUSH1 0x20 PUSH2 0x1042 DUP8 DUP3 DUP9 ADD PUSH2 0x937 JUMP JUMPDEST SWAP4 POP POP PUSH1 0x40 PUSH2 0x1053 DUP8 DUP3 DUP9 ADD PUSH2 0xD88 JUMP JUMPDEST SWAP3 POP POP PUSH1 0x60 PUSH2 0x1064 DUP8 DUP3 DUP9 ADD PUSH2 0x937 JUMP JUMPDEST SWAP2 POP POP SWAP3 SWAP6 SWAP2 SWAP5 POP SWAP3 POP JUMP JUMPDEST PUSH1 0x0 DUP1 PUSH1 0x0 DUP1 PUSH1 0x0 DUP1 PUSH1 0xC0 DUP8 DUP10 SUB SLT ISZERO PUSH2 0x108D JUMPI PUSH2 0x108C PUSH2 0x8F1 JUMP JUMPDEST JUMPDEST PUSH1 0x0 PUSH2 0x109B DUP10 DUP3 DUP11 ADD PUSH2 0x90B JUMP JUMPDEST SWAP7 POP POP PUSH1 0x20 PUSH2 0x10AC DUP10 DUP3 DUP11 ADD PUSH2 0x937 JUMP JUMPDEST SWAP6 POP POP PUSH1 0x40 PUSH2 0x10BD DUP10 DUP3 DUP11 ADD PUSH2 0xD88 JUMP JUMPDEST SWAP5 POP POP PUSH1 0x60 PUSH2 0x10CE DUP10 DUP3 DUP11 ADD PUSH2 0x937 JUMP JUMPDEST SWAP4 POP POP PUSH1 0x80 PUSH2 0x10DF DUP10 DUP3 DUP11 ADD PUSH2 0x937 JUMP JUMPDEST SWAP3 POP POP PUSH1 0xA0 DUP8 ADD CALLDATALOAD PUSH8 0xFFFFFFFFFFFFFFFF DUP2 GT ISZERO PUSH2 0x1100 JUMPI PUSH2 0x10FF PUSH2 0x8F6 JUMP JUMPDEST JUMPDEST PUSH2 0x110C DUP10 DUP3 DUP11 ADD PUSH2 0xA64 JUMP JUMPDEST SWAP2 POP POP SWAP3 SWAP6 POP SWAP3 SWAP6 POP SWAP3 SWAP6 JUMP JUMPDEST PUSH1 0x0 DUP1 PUSH1 0x0 PUSH1 0x60 DUP5 DUP7 SUB SLT ISZERO PUSH2 0x1132 JUMPI PUSH2 0x1131 PUSH2 0x8F1 JUMP JUMPDEST JUMPDEST PUSH1 0x0 PUSH2 0x1140 DUP7 DUP3 DUP8 ADD PUSH2 0x90B JUMP JUMPDEST SWAP4 POP POP PUSH1 0x20 PUSH2 0x1151 DUP7 DUP3 DUP8 ADD PUSH2 0xD88 JUMP JUMPDEST SWAP3 POP POP PUSH1 0x40 DUP5 ADD CALLDATALOAD PUSH8 0xFFFFFFFFFFFFFFFF DUP2 GT ISZERO PUSH2 0x1172 JUMPI PUSH2 0x1171 PUSH2 0x8F6 JUMP JUMPDEST JUMPDEST PUSH2 0x117E DUP7 DUP3 DUP8 ADD PUSH2 0xA64 JUMP JUMPDEST SWAP2 POP POP SWAP3 POP SWAP3 POP SWAP3 JUMP JUMPDEST PUSH1 0x0 DUP1 PUSH1 0x0 DUP1 PUSH1 0x80 DUP6 DUP8 SUB SLT ISZERO PUSH2 0x11A2 JUMPI PUSH2 0x11A1 PUSH2 0x8F1 JUMP JUMPDEST JUMPDEST PUSH1 0x0 PUSH2 0x11B0 DUP8 DUP3 DUP9 ADD PUSH2 0x90B JUMP JUMPDEST SWAP5 POP POP PUSH1 0x20 PUSH2 0x11C1 DUP8 DUP3 DUP9 ADD PUSH2 0x937 JUMP JUMPDEST SWAP4 POP POP PUSH1 0x40 PUSH2 0x11D2 DUP8 DUP3 DUP9 ADD PUSH2 0xD88 JUMP JUMPDEST SWAP3 POP POP PUSH1 0x60 DUP6 ADD CALLDATALOAD PUSH8 0xFFFFFFFFFFFFFFFF DUP2 GT ISZERO PUSH2 0x11F3 JUMPI PUSH2 0x11F2 PUSH2 0x8F6 JUMP JUMPDEST JUMPDEST PUSH2 0x11FF DUP8 DUP3 DUP9 ADD PUSH2 0xA64 JUMP JUMPDEST SWAP2 POP POP SWAP3 SWAP6 SWAP2 SWAP5 POP SWAP3 POP JUMP JUMPDEST PUSH1 0x0 DUP1 PUSH1 0x0 PUSH1 0x60 DUP5 DUP7 SUB SLT ISZERO PUSH2 0x1224 JUMPI PUSH2 0x1223 PUSH2 0x8F1 JUMP JUMPDEST JUMPDEST PUSH1 0x0 PUSH2 0x1232 DUP7 DUP3 DUP8 ADD PUSH2 0x90B JUMP JUMPDEST SWAP4 POP POP PUSH1 0x20 PUSH2 0x1243 DUP7 DUP3 DUP8 ADD PUSH2 0x937 JUMP JUMPDEST SWAP3 POP POP PUSH1 0x40 PUSH2 0x1254 DUP7 DUP3 DUP8 ADD PUSH2 0x937 JUMP JUMPDEST SWAP2 POP POP SWAP3 POP SWAP3 POP SWAP3 JUMP INVALID LOG2 PUSH5 0x6970667358 0x22 SLT KECCAK256 SWAP16 KECCAK256 DUP9 0x4A EQ 0xC7 SWAP16 SWAP16 AND 0x49 GAS INVALID PUSH10 0x7E44230B30FB472F0AAE 0x28 0xCD OR 0xC4 RETURNDATASIZE GT 0xDE ADDMOD SWAP10 PUSH5 0x736F6C6343 STOP ADDMOD SLT STOP CALLER "},"methodIdentifiers":{"DEFAULT_AUTH_REQUEST_EXTRA_DATA()":"45c13083","DEFAULT_AUTH_REQUEST_IS_ANON()":"1967e510","DEFAULT_AUTH_REQUEST_IS_OPTIONAL()":"498a992e","DEFAULT_AUTH_REQUEST_USER_ID()":"448324ea","build(uint8)":"3a0ba6ff","build(uint8,bool)":"20c90199","build(uint8,bool,bool)":"c3bcacd0","build(uint8,bool,bool,bool)":"291884ae","build(uint8,bool,bool,uint256)":"3049e4f1","build(uint8,bool,bytes)":"1a88fb28","build(uint8,bool,uint256)":"8b9dba71","build(uint8,bool,uint256,bool)":"916d93c7","build(uint8,bool,uint256,bool,bool,bytes)":"9aa01be1","build(uint8,bool,uint256,bytes)":"c355a32c","build(uint8,bytes)":"6746dd2c","build(uint8,uint256)":"51559190","build(uint8,uint256,bool)":"3ca1531a","build(uint8,uint256,bytes)":"af4f6396"}}}}}