{"lib/sismo-connect-solidity/src/utils/RequestBuilder.sol":{"RequestBuilder":{"abi":[{"inputs":[],"name":"DEFAULT_NAMESPACE","outputs":[{"internalType":"bytes16","name":"","type":"bytes16"}],"stateMutability":"view","type":"function"},{"inputs":[{"components":[{"internalType":"enum ClaimType","name":"claimType","type":"uint8"},{"internalType":"bytes16","name":"groupId","type":"bytes16"},{"internalType":"bytes16","name":"groupTimestamp","type":"bytes16"},{"internalType":"uint256","name":"value","type":"uint256"},{"internalType":"bool","name":"isOptional","type":"bool"},{"internalType":"bool","name":"isSelectableByUser","type":"bool"},{"internalType":"bytes","name":"extraData","type":"bytes"}],"internalType":"struct ClaimRequest","name":"claim","type":"tuple"},{"internalType":"bytes16","name":"namespace","type":"bytes16"}],"name":"build","outputs":[{"components":[{"internalType":"bytes16","name":"namespace","type":"bytes16"},{"components":[{"internalType":"enum AuthType","name":"authType","type":"uint8"},{"internalType":"uint256","name":"userId","type":"uint256"},{"internalType":"bool","name":"isAnon","type":"bool"},{"internalType":"bool","name":"isOptional","type":"bool"},{"internalType":"bool","name":"isSelectableByUser","type":"bool"},{"internalType":"bytes","name":"extraData","type":"bytes"}],"internalType":"struct AuthRequest[]","name":"auths","type":"tuple[]"},{"components":[{"internalType":"enum ClaimType","name":"claimType","type":"uint8"},{"internalType":"bytes16","name":"groupId","type":"bytes16"},{"internalType":"bytes16","name":"groupTimestamp","type":"bytes16"},{"internalType":"uint256","name":"value","type":"uint256"},{"internalType":"bool","name":"isOptional","type":"bool"},{"internalType":"bool","name":"isSelectableByUser","type":"bool"},{"internalType":"bytes","name":"extraData","type":"bytes"}],"internalType":"struct ClaimRequest[]","name":"claims","type":"tuple[]"},{"components":[{"internalType":"bytes","name":"message","type":"bytes"},{"internalType":"bool","name":"isSelectableByUser","type":"bool"},{"internalType":"bytes","name":"extraData","type":"bytes"}],"internalType":"struct SignatureRequest","name":"signature","type":"tuple"}],"internalType":"struct SismoConnectRequest","name":"","type":"tuple"}],"stateMutability":"view","type":"function"},{"inputs":[{"components":[{"internalType":"enum ClaimType","name":"claimType","type":"uint8"},{"internalType":"bytes16","name":"groupId","type":"bytes16"},{"internalType":"bytes16","name":"groupTimestamp","type":"bytes16"},{"internalType":"uint256","name":"value","type":"uint256"},{"internalType":"bool","name":"isOptional","type":"bool"},{"internalType":"bool","name":"isSelectableByUser","type":"bool"},{"internalType":"bytes","name":"extraData","type":"bytes"}],"internalType":"struct ClaimRequest","name":"claim","type":"tuple"}],"name":"build","outputs":[{"components":[{"internalType":"bytes16","name":"namespace","type":"bytes16"},{"components":[{"internalType":"enum AuthType","name":"authType","type":"uint8"},{"internalType":"uint256","name":"userId","type":"uint256"},{"internalType":"bool","name":"isAnon","type":"bool"},{"internalType":"bool","name":"isOptional","type":"bool"},{"internalType":"bool","name":"isSelectableByUser","type":"bool"},{"internalType":"bytes","name":"extraData","type":"bytes"}],"internalType":"struct AuthRequest[]","name":"auths","type":"tuple[]"},{"components":[{"internalType":"enum ClaimType","name":"claimType","type":"uint8"},{"internalType":"bytes16","name":"groupId","type":"bytes16"},{"internalType":"bytes16","name":"groupTimestamp","type":"bytes16"},{"internalType":"uint256","name":"value","type":"uint256"},{"internalType":"bool","name":"isOptional","type":"bool"},{"internalType":"bool","name":"isSelectableByUser","type":"bool"},{"internalType":"bytes","name":"extraData","type":"bytes"}],"internalType":"struct ClaimRequest[]","name":"claims","type":"tuple[]"},{"components":[{"internalType":"bytes","name":"message","type":"bytes"},{"internalType":"bool","name":"isSelectableByUser","type":"bool"},{"internalType":"bytes","name":"extraData","type":"bytes"}],"internalType":"struct SignatureRequest","name":"signature","type":"tuple"}],"internalType":"struct SismoConnectRequest","name":"","type":"tuple"}],"stateMutability":"view","type":"function"},{"inputs":[{"components":[{"internalType":"enum AuthType","name":"authType","type":"uint8"},{"internalType":"uint256","name":"userId","type":"uint256"},{"internalType":"bool","name":"isAnon","type":"bool"},{"internalType":"bool","name":"isOptional","type":"bool"},{"internalType":"bool","name":"isSelectableByUser","type":"bool"},{"internalType":"bytes","name":"extraData","type":"bytes"}],"internalType":"struct AuthRequest","name":"auth","type":"tuple"},{"components":[{"internalType":"bytes","name":"message","type":"bytes"},{"internalType":"bool","name":"isSelectableByUser","type":"bool"},{"internalType":"bytes","name":"extraData","type":"bytes"}],"internalType":"struct SignatureRequest","name":"signature","type":"tuple"},{"internalType":"bytes16","name":"namespace","type":"bytes16"}],"name":"build","outputs":[{"components":[{"internalType":"bytes16","name":"namespace","type":"bytes16"},{"components":[{"internalType":"enum AuthType","name":"authType","type":"uint8"},{"internalType":"uint256","name":"userId","type":"uint256"},{"internalType":"bool","name":"isAnon","type":"bool"},{"internalType":"bool","name":"isOptional","type":"bool"},{"internalType":"bool","name":"isSelectableByUser","type":"bool"},{"internalType":"bytes","name":"extraData","type":"bytes"}],"internalType":"struct AuthRequest[]","name":"auths","type":"tuple[]"},{"components":[{"internalType":"enum ClaimType","name":"claimType","type":"uint8"},{"internalType":"bytes16","name":"groupId","type":"bytes16"},{"internalType":"bytes16","name":"groupTimestamp","type":"bytes16"},{"internalType":"uint256","name":"value","type":"uint256"},{"internalType":"bool","name":"isOptional","type":"bool"},{"internalType":"bool","name":"isSelectableByUser","type":"bool"},{"internalType":"bytes","name":"extraData","type":"bytes"}],"internalType":"struct ClaimRequest[]","name":"claims","type":"tuple[]"},{"components":[{"internalType":"bytes","name":"message","type":"bytes"},{"internalType":"bool","name":"isSelectableByUser","type":"bool"},{"internalType":"bytes","name":"extraData","type":"bytes"}],"internalType":"struct SignatureRequest","name":"signature","type":"tuple"}],"internalType":"struct SismoConnectRequest","name":"","type":"tuple"}],"stateMutability":"pure","type":"function"},{"inputs":[{"components":[{"internalType":"enum AuthType","name":"authType","type":"uint8"},{"internalType":"uint256","name":"userId","type":"uint256"},{"internalType":"bool","name":"isAnon","type":"bool"},{"internalType":"bool","name":"isOptional","type":"bool"},{"internalType":"bool","name":"isSelectableByUser","type":"bool"},{"internalType":"bytes","name":"extraData","type":"bytes"}],"internalType":"struct AuthRequest[]","name":"auths","type":"tuple[]"}],"name":"build","outputs":[{"components":[{"internalType":"bytes16","name":"namespace","type":"bytes16"},{"components":[{"internalType":"enum AuthType","name":"authType","type":"uint8"},{"internalType":"uint256","name":"userId","type":"uint256"},{"internalType":"bool","name":"isAnon","type":"bool"},{"internalType":"bool","name":"isOptional","type":"bool"},{"internalType":"bool","name":"isSelectableByUser","type":"bool"},{"internalType":"bytes","name":"extraData","type":"bytes"}],"internalType":"struct AuthRequest[]","name":"auths","type":"tuple[]"},{"components":[{"internalType":"enum ClaimType","name":"claimType","type":"uint8"},{"internalType":"bytes16","name":"groupId","type":"bytes16"},{"internalType":"bytes16","name":"groupTimestamp","type":"bytes16"},{"internalType":"uint256","name":"value","type":"uint256"},{"internalType":"bool","name":"isOptional","type":"bool"},{"internalType":"bool","name":"isSelectableByUser","type":"bool"},{"internalType":"bytes","name":"extraData","type":"bytes"}],"internalType":"struct ClaimRequest[]","name":"claims","type":"tuple[]"},{"components":[{"internalType":"bytes","name":"message","type":"bytes"},{"internalType":"bool","name":"isSelectableByUser","type":"bool"},{"internalType":"bytes","name":"extraData","type":"bytes"}],"internalType":"struct SignatureRequest","name":"signature","type":"tuple"}],"internalType":"struct SismoConnectRequest","name":"","type":"tuple"}],"stateMutability":"view","type":"function"},{"inputs":[{"components":[{"internalType":"enum ClaimType","name":"claimType","type":"uint8"},{"internalType":"bytes16","name":"groupId","type":"bytes16"},{"internalType":"bytes16","name":"groupTimestamp","type":"bytes16"},{"internalType":"uint256","name":"value","type":"uint256"},{"internalType":"bool","name":"isOptional","type":"bool"},{"internalType":"bool","name":"isSelectableByUser","type":"bool"},{"internalType":"bytes","name":"extraData","type":"bytes"}],"internalType":"struct ClaimRequest[]","name":"claims","type":"tuple[]"},{"components":[{"internalType":"bytes","name":"message","type":"bytes"},{"internalType":"bool","name":"isSelectableByUser","type":"bool"},{"internalType":"bytes","name":"extraData","type":"bytes"}],"internalType":"struct SignatureRequest","name":"signature","type":"tuple"},{"internalType":"bytes16","name":"namespace","type":"bytes16"}],"name":"build","outputs":[{"components":[{"internalType":"bytes16","name":"namespace","type":"bytes16"},{"components":[{"internalType":"enum AuthType","name":"authType","type":"uint8"},{"internalType":"uint256","name":"userId","type":"uint256"},{"internalType":"bool","name":"isAnon","type":"bool"},{"internalType":"bool","name":"isOptional","type":"bool"},{"internalType":"bool","name":"isSelectableByUser","type":"bool"},{"internalType":"bytes","name":"extraData","type":"bytes"}],"internalType":"struct AuthRequest[]","name":"auths","type":"tuple[]"},{"components":[{"internalType":"enum ClaimType","name":"claimType","type":"uint8"},{"internalType":"bytes16","name":"groupId","type":"bytes16"},{"internalType":"bytes16","name":"groupTimestamp","type":"bytes16"},{"internalType":"uint256","name":"value","type":"uint256"},{"internalType":"bool","name":"isOptional","type":"bool"},{"internalType":"bool","name":"isSelectableByUser","type":"bool"},{"internalType":"bytes","name":"extraData","type":"bytes"}],"internalType":"struct ClaimRequest[]","name":"claims","type":"tuple[]"},{"components":[{"internalType":"bytes","name":"message","type":"bytes"},{"internalType":"bool","name":"isSelectableByUser","type":"bool"},{"internalType":"bytes","name":"extraData","type":"bytes"}],"internalType":"struct SignatureRequest","name":"signature","type":"tuple"}],"internalType":"struct SismoConnectRequest","name":"","type":"tuple"}],"stateMutability":"pure","type":"function"},{"inputs":[{"components":[{"internalType":"enum AuthType","name":"authType","type":"uint8"},{"internalType":"uint256","name":"userId","type":"uint256"},{"internalType":"bool","name":"isAnon","type":"bool"},{"internalType":"bool","name":"isOptional","type":"bool"},{"internalType":"bool","name":"isSelectableByUser","type":"bool"},{"internalType":"bytes","name":"extraData","type":"bytes"}],"internalType":"struct AuthRequest[]","name":"auths","type":"tuple[]"},{"internalType":"bytes16","name":"namespace","type":"bytes16"}],"name":"build","outputs":[{"components":[{"internalType":"bytes16","name":"namespace","type":"bytes16"},{"components":[{"internalType":"enum AuthType","name":"authType","type":"uint8"},{"internalType":"uint256","name":"userId","type":"uint256"},{"internalType":"bool","name":"isAnon","type":"bool"},{"internalType":"bool","name":"isOptional","type":"bool"},{"internalType":"bool","name":"isSelectableByUser","type":"bool"},{"internalType":"bytes","name":"extraData","type":"bytes"}],"internalType":"struct AuthRequest[]","name":"auths","type":"tuple[]"},{"components":[{"internalType":"enum ClaimType","name":"claimType","type":"uint8"},{"internalType":"bytes16","name":"groupId","type":"bytes16"},{"internalType":"bytes16","name":"groupTimestamp","type":"bytes16"},{"internalType":"uint256","name":"value","type":"uint256"},{"internalType":"bool","name":"isOptional","type":"bool"},{"internalType":"bool","name":"isSelectableByUser","type":"bool"},{"internalType":"bytes","name":"extraData","type":"bytes"}],"internalType":"struct ClaimRequest[]","name":"claims","type":"tuple[]"},{"components":[{"internalType":"bytes","name":"message","type":"bytes"},{"internalType":"bool","name":"isSelectableByUser","type":"bool"},{"internalType":"bytes","name":"extraData","type":"bytes"}],"internalType":"struct SignatureRequest","name":"signature","type":"tuple"}],"internalType":"struct SismoConnectRequest","name":"","type":"tuple"}],"stateMutability":"view","type":"function"},{"inputs":[{"components":[{"internalType":"enum AuthType","name":"authType","type":"uint8"},{"internalType":"uint256","name":"userId","type":"uint256"},{"internalType":"bool","name":"isAnon","type":"bool"},{"internalType":"bool","name":"isOptional","type":"bool"},{"internalType":"bool","name":"isSelectableByUser","type":"bool"},{"internalType":"bytes","name":"extraData","type":"bytes"}],"internalType":"struct AuthRequest[]","name":"auths","type":"tuple[]"},{"components":[{"internalType":"bytes","name":"message","type":"bytes"},{"internalType":"bool","name":"isSelectableByUser","type":"bool"},{"internalType":"bytes","name":"extraData","type":"bytes"}],"internalType":"struct SignatureRequest","name":"signature","type":"tuple"}],"name":"build","outputs":[{"components":[{"internalType":"bytes16","name":"namespace","type":"bytes16"},{"components":[{"internalType":"enum AuthType","name":"authType","type":"uint8"},{"internalType":"uint256","name":"userId","type":"uint256"},{"internalType":"bool","name":"isAnon","type":"bool"},{"internalType":"bool","name":"isOptional","type":"bool"},{"internalType":"bool","name":"isSelectableByUser","type":"bool"},{"internalType":"bytes","name":"extraData","type":"bytes"}],"internalType":"struct AuthRequest[]","name":"auths","type":"tuple[]"},{"components":[{"internalType":"enum ClaimType","name":"claimType","type":"uint8"},{"internalType":"bytes16","name":"groupId","type":"bytes16"},{"internalType":"bytes16","name":"groupTimestamp","type":"bytes16"},{"internalType":"uint256","name":"value","type":"uint256"},{"internalType":"bool","name":"isOptional","type":"bool"},{"internalType":"bool","name":"isSelectableByUser","type":"bool"},{"internalType":"bytes","name":"extraData","type":"bytes"}],"internalType":"struct ClaimRequest[]","name":"claims","type":"tuple[]"},{"components":[{"internalType":"bytes","name":"message","type":"bytes"},{"internalType":"bool","name":"isSelectableByUser","type":"bool"},{"internalType":"bytes","name":"extraData","type":"bytes"}],"internalType":"struct SignatureRequest","name":"signature","type":"tuple"}],"internalType":"struct SismoConnectRequest","name":"","type":"tuple"}],"stateMutability":"pure","type":"function"},{"inputs":[{"components":[{"internalType":"enum AuthType","name":"authType","type":"uint8"},{"internalType":"uint256","name":"userId","type":"uint256"},{"internalType":"bool","name":"isAnon","type":"bool"},{"internalType":"bool","name":"isOptional","type":"bool"},{"internalType":"bool","name":"isSelectableByUser","type":"bool"},{"internalType":"bytes","name":"extraData","type":"bytes"}],"internalType":"struct AuthRequest","name":"auth","type":"tuple"},{"components":[{"internalType":"enum ClaimType","name":"claimType","type":"uint8"},{"internalType":"bytes16","name":"groupId","type":"bytes16"},{"internalType":"bytes16","name":"groupTimestamp","type":"bytes16"},{"internalType":"uint256","name":"value","type":"uint256"},{"internalType":"bool","name":"isOptional","type":"bool"},{"internalType":"bool","name":"isSelectableByUser","type":"bool"},{"internalType":"bytes","name":"extraData","type":"bytes"}],"internalType":"struct ClaimRequest","name":"claim","type":"tuple"},{"internalType":"bytes16","name":"namespace","type":"bytes16"}],"name":"build","outputs":[{"components":[{"internalType":"bytes16","name":"namespace","type":"bytes16"},{"components":[{"internalType":"enum AuthType","name":"authType","type":"uint8"},{"internalType":"uint256","name":"userId","type":"uint256"},{"internalType":"bool","name":"isAnon","type":"bool"},{"internalType":"bool","name":"isOptional","type":"bool"},{"internalType":"bool","name":"isSelectableByUser","type":"bool"},{"internalType":"bytes","name":"extraData","type":"bytes"}],"internalType":"struct AuthRequest[]","name":"auths","type":"tuple[]"},{"components":[{"internalType":"enum ClaimType","name":"claimType","type":"uint8"},{"internalType":"bytes16","name":"groupId","type":"bytes16"},{"internalType":"bytes16","name":"groupTimestamp","type":"bytes16"},{"internalType":"uint256","name":"value","type":"uint256"},{"internalType":"bool","name":"isOptional","type":"bool"},{"internalType":"bool","name":"isSelectableByUser","type":"bool"},{"internalType":"bytes","name":"extraData","type":"bytes"}],"internalType":"struct ClaimRequest[]","name":"claims","type":"tuple[]"},{"components":[{"internalType":"bytes","name":"message","type":"bytes"},{"internalType":"bool","name":"isSelectableByUser","type":"bool"},{"internalType":"bytes","name":"extraData","type":"bytes"}],"internalType":"struct SignatureRequest","name":"signature","type":"tuple"}],"internalType":"struct SismoConnectRequest","name":"","type":"tuple"}],"stateMutability":"view","type":"function"},{"inputs":[{"components":[{"internalType":"enum AuthType","name":"authType","type":"uint8"},{"internalType":"uint256","name":"userId","type":"uint256"},{"internalType":"bool","name":"isAnon","type":"bool"},{"internalType":"bool","name":"isOptional","type":"bool"},{"internalType":"bool","name":"isSelectableByUser","type":"bool"},{"internalType":"bytes","name":"extraData","type":"bytes"}],"internalType":"struct AuthRequest","name":"auth","type":"tuple"},{"components":[{"internalType":"bytes","name":"message","type":"bytes"},{"internalType":"bool","name":"isSelectableByUser","type":"bool"},{"internalType":"bytes","name":"extraData","type":"bytes"}],"internalType":"struct SignatureRequest","name":"signature","type":"tuple"}],"name":"build","outputs":[{"components":[{"internalType":"bytes16","name":"namespace","type":"bytes16"},{"components":[{"internalType":"enum AuthType","name":"authType","type":"uint8"},{"internalType":"uint256","name":"userId","type":"uint256"},{"internalType":"bool","name":"isAnon","type":"bool"},{"internalType":"bool","name":"isOptional","type":"bool"},{"internalType":"bool","name":"isSelectableByUser","type":"bool"},{"internalType":"bytes","name":"extraData","type":"bytes"}],"internalType":"struct AuthRequest[]","name":"auths","type":"tuple[]"},{"components":[{"internalType":"enum ClaimType","name":"claimType","type":"uint8"},{"internalType":"bytes16","name":"groupId","type":"bytes16"},{"internalType":"bytes16","name":"groupTimestamp","type":"bytes16"},{"internalType":"uint256","name":"value","type":"uint256"},{"internalType":"bool","name":"isOptional","type":"bool"},{"internalType":"bool","name":"isSelectableByUser","type":"bool"},{"internalType":"bytes","name":"extraData","type":"bytes"}],"internalType":"struct ClaimRequest[]","name":"claims","type":"tuple[]"},{"components":[{"internalType":"bytes","name":"message","type":"bytes"},{"internalType":"bool","name":"isSelectableByUser","type":"bool"},{"internalType":"bytes","name":"extraData","type":"bytes"}],"internalType":"struct SignatureRequest","name":"signature","type":"tuple"}],"internalType":"struct SismoConnectRequest","name":"","type":"tuple"}],"stateMutability":"pure","type":"function"},{"inputs":[{"components":[{"internalType":"enum ClaimType","name":"claimType","type":"uint8"},{"internalType":"bytes16","name":"groupId","type":"bytes16"},{"internalType":"bytes16","name":"groupTimestamp","type":"bytes16"},{"internalType":"uint256","name":"value","type":"uint256"},{"internalType":"bool","name":"isOptional","type":"bool"},{"internalType":"bool","name":"isSelectableByUser","type":"bool"},{"internalType":"bytes","name":"extraData","type":"bytes"}],"internalType":"struct ClaimRequest","name":"claim","type":"tuple"},{"components":[{"internalType":"bytes","name":"message","type":"bytes"},{"internalType":"bool","name":"isSelectableByUser","type":"bool"},{"internalType":"bytes","name":"extraData","type":"bytes"}],"internalType":"struct SignatureRequest","name":"signature","type":"tuple"},{"internalType":"bytes16","name":"namespace","type":"bytes16"}],"name":"build","outputs":[{"components":[{"internalType":"bytes16","name":"namespace","type":"bytes16"},{"components":[{"internalType":"enum AuthType","name":"authType","type":"uint8"},{"internalType":"uint256","name":"userId","type":"uint256"},{"internalType":"bool","name":"isAnon","type":"bool"},{"internalType":"bool","name":"isOptional","type":"bool"},{"internalType":"bool","name":"isSelectableByUser","type":"bool"},{"internalType":"bytes","name":"extraData","type":"bytes"}],"internalType":"struct AuthRequest[]","name":"auths","type":"tuple[]"},{"components":[{"internalType":"enum ClaimType","name":"claimType","type":"uint8"},{"internalType":"bytes16","name":"groupId","type":"bytes16"},{"internalType":"bytes16","name":"groupTimestamp","type":"bytes16"},{"internalType":"uint256","name":"value","type":"uint256"},{"internalType":"bool","name":"isOptional","type":"bool"},{"internalType":"bool","name":"isSelectableByUser","type":"bool"},{"internalType":"bytes","name":"extraData","type":"bytes"}],"internalType":"struct ClaimRequest[]","name":"claims","type":"tuple[]"},{"components":[{"internalType":"bytes","name":"message","type":"bytes"},{"internalType":"bool","name":"isSelectableByUser","type":"bool"},{"internalType":"bytes","name":"extraData","type":"bytes"}],"internalType":"struct SignatureRequest","name":"signature","type":"tuple"}],"internalType":"struct SismoConnectRequest","name":"","type":"tuple"}],"stateMutability":"pure","type":"function"},{"inputs":[{"components":[{"internalType":"enum AuthType","name":"authType","type":"uint8"},{"internalType":"uint256","name":"userId","type":"uint256"},{"internalType":"bool","name":"isAnon","type":"bool"},{"internalType":"bool","name":"isOptional","type":"bool"},{"internalType":"bool","name":"isSelectableByUser","type":"bool"},{"internalType":"bytes","name":"extraData","type":"bytes"}],"internalType":"struct AuthRequest","name":"auth","type":"tuple"},{"internalType":"bytes16","name":"namespace","type":"bytes16"}],"name":"build","outputs":[{"components":[{"internalType":"bytes16","name":"namespace","type":"bytes16"},{"components":[{"internalType":"enum AuthType","name":"authType","type":"uint8"},{"internalType":"uint256","name":"userId","type":"uint256"},{"internalType":"bool","name":"isAnon","type":"bool"},{"internalType":"bool","name":"isOptional","type":"bool"},{"internalType":"bool","name":"isSelectableByUser","type":"bool"},{"internalType":"bytes","name":"extraData","type":"bytes"}],"internalType":"struct AuthRequest[]","name":"auths","type":"tuple[]"},{"components":[{"internalType":"enum ClaimType","name":"claimType","type":"uint8"},{"internalType":"bytes16","name":"groupId","type":"bytes16"},{"internalType":"bytes16","name":"groupTimestamp","type":"bytes16"},{"internalType":"uint256","name":"value","type":"uint256"},{"internalType":"bool","name":"isOptional","type":"bool"},{"internalType":"bool","name":"isSelectableByUser","type":"bool"},{"internalType":"bytes","name":"extraData","type":"bytes"}],"internalType":"struct ClaimRequest[]","name":"claims","type":"tuple[]"},{"components":[{"internalType":"bytes","name":"message","type":"bytes"},{"internalType":"bool","name":"isSelectableByUser","type":"bool"},{"internalType":"bytes","name":"extraData","type":"bytes"}],"internalType":"struct SignatureRequest","name":"signature","type":"tuple"}],"internalType":"struct SismoConnectRequest","name":"","type":"tuple"}],"stateMutability":"view","type":"function"},{"inputs":[{"components":[{"internalType":"enum AuthType","name":"authType","type":"uint8"},{"internalType":"uint256","name":"userId","type":"uint256"},{"internalType":"bool","name":"isAnon","type":"bool"},{"internalType":"bool","name":"isOptional","type":"bool"},{"internalType":"bool","name":"isSelectableByUser","type":"bool"},{"internalType":"bytes","name":"extraData","type":"bytes"}],"internalType":"struct AuthRequest[]","name":"auths","type":"tuple[]"},{"components":[{"internalType":"enum ClaimType","name":"claimType","type":"uint8"},{"internalType":"bytes16","name":"groupId","type":"bytes16"},{"internalType":"bytes16","name":"groupTimestamp","type":"bytes16"},{"internalType":"uint256","name":"value","type":"uint256"},{"internalType":"bool","name":"isOptional","type":"bool"},{"internalType":"bool","name":"isSelectableByUser","type":"bool"},{"internalType":"bytes","name":"extraData","type":"bytes"}],"internalType":"struct ClaimRequest[]","name":"claims","type":"tuple[]"},{"internalType":"bytes16","name":"namespace","type":"bytes16"}],"name":"build","outputs":[{"components":[{"internalType":"bytes16","name":"namespace","type":"bytes16"},{"components":[{"internalType":"enum AuthType","name":"authType","type":"uint8"},{"internalType":"uint256","name":"userId","type":"uint256"},{"internalType":"bool","name":"isAnon","type":"bool"},{"internalType":"bool","name":"isOptional","type":"bool"},{"internalType":"bool","name":"isSelectableByUser","type":"bool"},{"internalType":"bytes","name":"extraData","type":"bytes"}],"internalType":"struct AuthRequest[]","name":"auths","type":"tuple[]"},{"components":[{"internalType":"enum ClaimType","name":"claimType","type":"uint8"},{"internalType":"bytes16","name":"groupId","type":"bytes16"},{"internalType":"bytes16","name":"groupTimestamp","type":"bytes16"},{"internalType":"uint256","name":"value","type":"uint256"},{"internalType":"bool","name":"isOptional","type":"bool"},{"internalType":"bool","name":"isSelectableByUser","type":"bool"},{"internalType":"bytes","name":"extraData","type":"bytes"}],"internalType":"struct ClaimRequest[]","name":"claims","type":"tuple[]"},{"components":[{"internalType":"bytes","name":"message","type":"bytes"},{"internalType":"bool","name":"isSelectableByUser","type":"bool"},{"internalType":"bytes","name":"extraData","type":"bytes"}],"internalType":"struct SignatureRequest","name":"signature","type":"tuple"}],"internalType":"struct SismoConnectRequest","name":"","type":"tuple"}],"stateMutability":"view","type":"function"},{"inputs":[{"components":[{"internalType":"enum AuthType","name":"authType","type":"uint8"},{"internalType":"uint256","name":"userId","type":"uint256"},{"internalType":"bool","name":"isAnon","type":"bool"},{"internalType":"bool","name":"isOptional","type":"bool"},{"internalType":"bool","name":"isSelectableByUser","type":"bool"},{"internalType":"bytes","name":"extraData","type":"bytes"}],"internalType":"struct AuthRequest[]","name":"auths","type":"tuple[]"},{"components":[{"internalType":"enum ClaimType","name":"claimType","type":"uint8"},{"internalType":"bytes16","name":"groupId","type":"bytes16"},{"internalType":"bytes16","name":"groupTimestamp","type":"bytes16"},{"internalType":"uint256","name":"value","type":"uint256"},{"internalType":"bool","name":"isOptional","type":"bool"},{"internalType":"bool","name":"isSelectableByUser","type":"bool"},{"internalType":"bytes","name":"extraData","type":"bytes"}],"internalType":"struct ClaimRequest[]","name":"claims","type":"tuple[]"},{"components":[{"internalType":"bytes","name":"message","type":"bytes"},{"internalType":"bool","name":"isSelectableByUser","type":"bool"},{"internalType":"bytes","name":"extraData","type":"bytes"}],"internalType":"struct SignatureRequest","name":"signature","type":"tuple"}],"name":"build","outputs":[{"components":[{"internalType":"bytes16","name":"namespace","type":"bytes16"},{"components":[{"internalType":"enum AuthType","name":"authType","type":"uint8"},{"internalType":"uint256","name":"userId","type":"uint256"},{"internalType":"bool","name":"isAnon","type":"bool"},{"internalType":"bool","name":"isOptional","type":"bool"},{"internalType":"bool","name":"isSelectableByUser","type":"bool"},{"internalType":"bytes","name":"extraData","type":"bytes"}],"internalType":"struct AuthRequest[]","name":"auths","type":"tuple[]"},{"components":[{"internalType":"enum ClaimType","name":"claimType","type":"uint8"},{"internalType":"bytes16","name":"groupId","type":"bytes16"},{"internalType":"bytes16","name":"groupTimestamp","type":"bytes16"},{"internalType":"uint256","name":"value","type":"uint256"},{"internalType":"bool","name":"isOptional","type":"bool"},{"internalType":"bool","name":"isSelectableByUser","type":"bool"},{"internalType":"bytes","name":"extraData","type":"bytes"}],"internalType":"struct ClaimRequest[]","name":"claims","type":"tuple[]"},{"components":[{"internalType":"bytes","name":"message","type":"bytes"},{"internalType":"bool","name":"isSelectableByUser","type":"bool"},{"internalType":"bytes","name":"extraData","type":"bytes"}],"internalType":"struct SignatureRequest","name":"signature","type":"tuple"}],"internalType":"struct SismoConnectRequest","name":"","type":"tuple"}],"stateMutability":"pure","type":"function"},{"inputs":[{"components":[{"internalType":"enum AuthType","name":"authType","type":"uint8"},{"internalType":"uint256","name":"userId","type":"uint256"},{"internalType":"bool","name":"isAnon","type":"bool"},{"internalType":"bool","name":"isOptional","type":"bool"},{"internalType":"bool","name":"isSelectableByUser","type":"bool"},{"internalType":"bytes","name":"extraData","type":"bytes"}],"internalType":"struct AuthRequest[]","name":"auths","type":"tuple[]"},{"components":[{"internalType":"enum ClaimType","name":"claimType","type":"uint8"},{"internalType":"bytes16","name":"groupId","type":"bytes16"},{"internalType":"bytes16","name":"groupTimestamp","type":"bytes16"},{"internalType":"uint256","name":"value","type":"uint256"},{"internalType":"bool","name":"isOptional","type":"bool"},{"internalType":"bool","name":"isSelectableByUser","type":"bool"},{"internalType":"bytes","name":"extraData","type":"bytes"}],"internalType":"struct ClaimRequest[]","name":"claims","type":"tuple[]"}],"name":"build","outputs":[{"components":[{"internalType":"bytes16","name":"namespace","type":"bytes16"},{"components":[{"internalType":"enum AuthType","name":"authType","type":"uint8"},{"internalType":"uint256","name":"userId","type":"uint256"},{"internalType":"bool","name":"isAnon","type":"bool"},{"internalType":"bool","name":"isOptional","type":"bool"},{"internalType":"bool","name":"isSelectableByUser","type":"bool"},{"internalType":"bytes","name":"extraData","type":"bytes"}],"internalType":"struct AuthRequest[]","name":"auths","type":"tuple[]"},{"components":[{"internalType":"enum ClaimType","name":"claimType","type":"uint8"},{"internalType":"bytes16","name":"groupId","type":"bytes16"},{"internalType":"bytes16","name":"groupTimestamp","type":"bytes16"},{"internalType":"uint256","name":"value","type":"uint256"},{"internalType":"bool","name":"isOptional","type":"bool"},{"internalType":"bool","name":"isSelectableByUser","type":"bool"},{"internalType":"bytes","name":"extraData","type":"bytes"}],"internalType":"struct ClaimRequest[]","name":"claims","type":"tuple[]"},{"components":[{"internalType":"bytes","name":"message","type":"bytes"},{"internalType":"bool","name":"isSelectableByUser","type":"bool"},{"internalType":"bytes","name":"extraData","type":"bytes"}],"internalType":"struct SignatureRequest","name":"signature","type":"tuple"}],"internalType":"struct SismoConnectRequest","name":"","type":"tuple"}],"stateMutability":"view","type":"function"},{"inputs":[{"components":[{"internalType":"enum ClaimType","name":"claimType","type":"uint8"},{"internalType":"bytes16","name":"groupId","type":"bytes16"},{"internalType":"bytes16","name":"groupTimestamp","type":"bytes16"},{"internalType":"uint256","name":"value","type":"uint256"},{"internalType":"bool","name":"isOptional","type":"bool"},{"internalType":"bool","name":"isSelectableByUser","type":"bool"},{"internalType":"bytes","name":"extraData","type":"bytes"}],"internalType":"struct ClaimRequest[]","name":"claims","type":"tuple[]"}],"name":"build","outputs":[{"components":[{"internalType":"bytes16","name":"namespace","type":"bytes16"},{"components":[{"internalType":"enum AuthType","name":"authType","type":"uint8"},{"internalType":"uint256","name":"userId","type":"uint256"},{"internalType":"bool","name":"isAnon","type":"bool"},{"internalType":"bool","name":"isOptional","type":"bool"},{"internalType":"bool","name":"isSelectableByUser","type":"bool"},{"internalType":"bytes","name":"extraData","type":"bytes"}],"internalType":"struct AuthRequest[]","name":"auths","type":"tuple[]"},{"components":[{"internalType":"enum ClaimType","name":"claimType","type":"uint8"},{"internalType":"bytes16","name":"groupId","type":"bytes16"},{"internalType":"bytes16","name":"groupTimestamp","type":"bytes16"},{"internalType":"uint256","name":"value","type":"uint256"},{"internalType":"bool","name":"isOptional","type":"bool"},{"internalType":"bool","name":"isSelectableByUser","type":"bool"},{"internalType":"bytes","name":"extraData","type":"bytes"}],"internalType":"struct ClaimRequest[]","name":"claims","type":"tuple[]"},{"components":[{"internalType":"bytes","name":"message","type":"bytes"},{"internalType":"bool","name":"isSelectableByUser","type":"bool"},{"internalType":"bytes","name":"extraData","type":"bytes"}],"internalType":"struct SignatureRequest","name":"signature","type":"tuple"}],"internalType":"struct SismoConnectRequest","name":"","type":"tuple"}],"stateMutability":"view","type":"function"},{"inputs":[{"components":[{"internalType":"enum ClaimType","name":"claimType","type":"uint8"},{"internalType":"bytes16","name":"groupId","type":"bytes16"},{"internalType":"bytes16","name":"groupTimestamp","type":"bytes16"},{"internalType":"uint256","name":"value","type":"uint256"},{"internalType":"bool","name":"isOptional","type":"bool"},{"internalType":"bool","name":"isSelectableByUser","type":"bool"},{"internalType":"bytes","name":"extraData","type":"bytes"}],"internalType":"struct ClaimRequest[]","name":"claims","type":"tuple[]"},{"components":[{"internalType":"bytes","name":"message","type":"bytes"},{"internalType":"bool","name":"isSelectableByUser","type":"bool"},{"internalType":"bytes","name":"extraData","type":"bytes"}],"internalType":"struct SignatureRequest","name":"signature","type":"tuple"}],"name":"build","outputs":[{"components":[{"internalType":"bytes16","name":"namespace","type":"bytes16"},{"components":[{"internalType":"enum AuthType","name":"authType","type":"uint8"},{"internalType":"uint256","name":"userId","type":"uint256"},{"internalType":"bool","name":"isAnon","type":"bool"},{"internalType":"bool","name":"isOptional","type":"bool"},{"internalType":"bool","name":"isSelectableByUser","type":"bool"},{"internalType":"bytes","name":"extraData","type":"bytes"}],"internalType":"struct AuthRequest[]","name":"auths","type":"tuple[]"},{"components":[{"internalType":"enum ClaimType","name":"claimType","type":"uint8"},{"internalType":"bytes16","name":"groupId","type":"bytes16"},{"internalType":"bytes16","name":"groupTimestamp","type":"bytes16"},{"internalType":"uint256","name":"value","type":"uint256"},{"internalType":"bool","name":"isOptional","type":"bool"},{"internalType":"bool","name":"isSelectableByUser","type":"bool"},{"internalType":"bytes","name":"extraData","type":"bytes"}],"internalType":"struct ClaimRequest[]","name":"claims","type":"tuple[]"},{"components":[{"internalType":"bytes","name":"message","type":"bytes"},{"internalType":"bool","name":"isSelectableByUser","type":"bool"},{"internalType":"bytes","name":"extraData","type":"bytes"}],"internalType":"struct SignatureRequest","name":"signature","type":"tuple"}],"internalType":"struct SismoConnectRequest","name":"","type":"tuple"}],"stateMutability":"pure","type":"function"},{"inputs":[{"components":[{"internalType":"enum ClaimType","name":"claimType","type":"uint8"},{"internalType":"bytes16","name":"groupId","type":"bytes16"},{"internalType":"bytes16","name":"groupTimestamp","type":"bytes16"},{"internalType":"uint256","name":"value","type":"uint256"},{"internalType":"bool","name":"isOptional","type":"bool"},{"internalType":"bool","name":"isSelectableByUser","type":"bool"},{"internalType":"bytes","name":"extraData","type":"bytes"}],"internalType":"struct ClaimRequest","name":"claim","type":"tuple"},{"components":[{"internalType":"bytes","name":"message","type":"bytes"},{"internalType":"bool","name":"isSelectableByUser","type":"bool"},{"internalType":"bytes","name":"extraData","type":"bytes"}],"internalType":"struct SignatureRequest","name":"signature","type":"tuple"}],"name":"build","outputs":[{"components":[{"internalType":"bytes16","name":"namespace","type":"bytes16"},{"components":[{"internalType":"enum AuthType","name":"authType","type":"uint8"},{"internalType":"uint256","name":"userId","type":"uint256"},{"internalType":"bool","name":"isAnon","type":"bool"},{"internalType":"bool","name":"isOptional","type":"bool"},{"internalType":"bool","name":"isSelectableByUser","type":"bool"},{"internalType":"bytes","name":"extraData","type":"bytes"}],"internalType":"struct AuthRequest[]","name":"auths","type":"tuple[]"},{"components":[{"internalType":"enum ClaimType","name":"claimType","type":"uint8"},{"internalType":"bytes16","name":"groupId","type":"bytes16"},{"internalType":"bytes16","name":"groupTimestamp","type":"bytes16"},{"internalType":"uint256","name":"value","type":"uint256"},{"internalType":"bool","name":"isOptional","type":"bool"},{"internalType":"bool","name":"isSelectableByUser","type":"bool"},{"internalType":"bytes","name":"extraData","type":"bytes"}],"internalType":"struct ClaimRequest[]","name":"claims","type":"tuple[]"},{"components":[{"internalType":"bytes","name":"message","type":"bytes"},{"internalType":"bool","name":"isSelectableByUser","type":"bool"},{"internalType":"bytes","name":"extraData","type":"bytes"}],"internalType":"struct SignatureRequest","name":"signature","type":"tuple"}],"internalType":"struct SismoConnectRequest","name":"","type":"tuple"}],"stateMutability":"pure","type":"function"},{"inputs":[{"components":[{"internalType":"enum AuthType","name":"authType","type":"uint8"},{"internalType":"uint256","name":"userId","type":"uint256"},{"internalType":"bool","name":"isAnon","type":"bool"},{"internalType":"bool","name":"isOptional","type":"bool"},{"internalType":"bool","name":"isSelectableByUser","type":"bool"},{"internalType":"bytes","name":"extraData","type":"bytes"}],"internalType":"struct AuthRequest","name":"auth","type":"tuple"}],"name":"build","outputs":[{"components":[{"internalType":"bytes16","name":"namespace","type":"bytes16"},{"components":[{"internalType":"enum AuthType","name":"authType","type":"uint8"},{"internalType":"uint256","name":"userId","type":"uint256"},{"internalType":"bool","name":"isAnon","type":"bool"},{"internalType":"bool","name":"isOptional","type":"bool"},{"internalType":"bool","name":"isSelectableByUser","type":"bool"},{"internalType":"bytes","name":"extraData","type":"bytes"}],"internalType":"struct AuthRequest[]","name":"auths","type":"tuple[]"},{"components":[{"internalType":"enum ClaimType","name":"claimType","type":"uint8"},{"internalType":"bytes16","name":"groupId","type":"bytes16"},{"internalType":"bytes16","name":"groupTimestamp","type":"bytes16"},{"internalType":"uint256","name":"value","type":"uint256"},{"internalType":"bool","name":"isOptional","type":"bool"},{"internalType":"bool","name":"isSelectableByUser","type":"bool"},{"internalType":"bytes","name":"extraData","type":"bytes"}],"internalType":"struct ClaimRequest[]","name":"claims","type":"tuple[]"},{"components":[{"internalType":"bytes","name":"message","type":"bytes"},{"internalType":"bool","name":"isSelectableByUser","type":"bool"},{"internalType":"bytes","name":"extraData","type":"bytes"}],"internalType":"struct SignatureRequest","name":"signature","type":"tuple"}],"internalType":"struct SismoConnectRequest","name":"","type":"tuple"}],"stateMutability":"view","type":"function"},{"inputs":[{"components":[{"internalType":"enum AuthType","name":"authType","type":"uint8"},{"internalType":"uint256","name":"userId","type":"uint256"},{"internalType":"bool","name":"isAnon","type":"bool"},{"internalType":"bool","name":"isOptional","type":"bool"},{"internalType":"bool","name":"isSelectableByUser","type":"bool"},{"internalType":"bytes","name":"extraData","type":"bytes"}],"internalType":"struct AuthRequest[]","name":"auths","type":"tuple[]"},{"components":[{"internalType":"bytes","name":"message","type":"bytes"},{"internalType":"bool","name":"isSelectableByUser","type":"bool"},{"internalType":"bytes","name":"extraData","type":"bytes"}],"internalType":"struct SignatureRequest","name":"signature","type":"tuple"},{"internalType":"bytes16","name":"namespace","type":"bytes16"}],"name":"build","outputs":[{"components":[{"internalType":"bytes16","name":"namespace","type":"bytes16"},{"components":[{"internalType":"enum AuthType","name":"authType","type":"uint8"},{"internalType":"uint256","name":"userId","type":"uint256"},{"internalType":"bool","name":"isAnon","type":"bool"},{"internalType":"bool","name":"isOptional","type":"bool"},{"internalType":"bool","name":"isSelectableByUser","type":"bool"},{"internalType":"bytes","name":"extraData","type":"bytes"}],"internalType":"struct AuthRequest[]","name":"auths","type":"tuple[]"},{"components":[{"internalType":"enum ClaimType","name":"claimType","type":"uint8"},{"internalType":"bytes16","name":"groupId","type":"bytes16"},{"internalType":"bytes16","name":"groupTimestamp","type":"bytes16"},{"internalType":"uint256","name":"value","type":"uint256"},{"internalType":"bool","name":"isOptional","type":"bool"},{"internalType":"bool","name":"isSelectableByUser","type":"bool"},{"internalType":"bytes","name":"extraData","type":"bytes"}],"internalType":"struct ClaimRequest[]","name":"claims","type":"tuple[]"},{"components":[{"internalType":"bytes","name":"message","type":"bytes"},{"internalType":"bool","name":"isSelectableByUser","type":"bool"},{"internalType":"bytes","name":"extraData","type":"bytes"}],"internalType":"struct SignatureRequest","name":"signature","type":"tuple"}],"internalType":"struct SismoConnectRequest","name":"","type":"tuple"}],"stateMutability":"pure","type":"function"},{"inputs":[{"components":[{"internalType":"enum AuthType","name":"authType","type":"uint8"},{"internalType":"uint256","name":"userId","type":"uint256"},{"internalType":"bool","name":"isAnon","type":"bool"},{"internalType":"bool","name":"isOptional","type":"bool"},{"internalType":"bool","name":"isSelectableByUser","type":"bool"},{"internalType":"bytes","name":"extraData","type":"bytes"}],"internalType":"struct AuthRequest","name":"auth","type":"tuple"},{"components":[{"internalType":"enum ClaimType","name":"claimType","type":"uint8"},{"internalType":"bytes16","name":"groupId","type":"bytes16"},{"internalType":"bytes16","name":"groupTimestamp","type":"bytes16"},{"internalType":"uint256","name":"value","type":"uint256"},{"internalType":"bool","name":"isOptional","type":"bool"},{"internalType":"bool","name":"isSelectableByUser","type":"bool"},{"internalType":"bytes","name":"extraData","type":"bytes"}],"internalType":"struct ClaimRequest","name":"claim","type":"tuple"}],"name":"build","outputs":[{"components":[{"internalType":"bytes16","name":"namespace","type":"bytes16"},{"components":[{"internalType":"enum AuthType","name":"authType","type":"uint8"},{"internalType":"uint256","name":"userId","type":"uint256"},{"internalType":"bool","name":"isAnon","type":"bool"},{"internalType":"bool","name":"isOptional","type":"bool"},{"internalType":"bool","name":"isSelectableByUser","type":"bool"},{"internalType":"bytes","name":"extraData","type":"bytes"}],"internalType":"struct AuthRequest[]","name":"auths","type":"tuple[]"},{"components":[{"internalType":"enum ClaimType","name":"claimType","type":"uint8"},{"internalType":"bytes16","name":"groupId","type":"bytes16"},{"internalType":"bytes16","name":"groupTimestamp","type":"bytes16"},{"internalType":"uint256","name":"value","type":"uint256"},{"internalType":"bool","name":"isOptional","type":"bool"},{"internalType":"bool","name":"isSelectableByUser","type":"bool"},{"internalType":"bytes","name":"extraData","type":"bytes"}],"internalType":"struct ClaimRequest[]","name":"claims","type":"tuple[]"},{"components":[{"internalType":"bytes","name":"message","type":"bytes"},{"internalType":"bool","name":"isSelectableByUser","type":"bool"},{"internalType":"bytes","name":"extraData","type":"bytes"}],"internalType":"struct SignatureRequest","name":"signature","type":"tuple"}],"internalType":"struct SismoConnectRequest","name":"","type":"tuple"}],"stateMutability":"view","type":"function"},{"inputs":[{"components":[{"internalType":"enum AuthType","name":"authType","type":"uint8"},{"internalType":"uint256","name":"userId","type":"uint256"},{"internalType":"bool","name":"isAnon","type":"bool"},{"internalType":"bool","name":"isOptional","type":"bool"},{"internalType":"bool","name":"isSelectableByUser","type":"bool"},{"internalType":"bytes","name":"extraData","type":"bytes"}],"internalType":"struct AuthRequest[]","name":"auths","type":"tuple[]"},{"components":[{"internalType":"enum ClaimType","name":"claimType","type":"uint8"},{"internalType":"bytes16","name":"groupId","type":"bytes16"},{"internalType":"bytes16","name":"groupTimestamp","type":"bytes16"},{"internalType":"uint256","name":"value","type":"uint256"},{"internalType":"bool","name":"isOptional","type":"bool"},{"internalType":"bool","name":"isSelectableByUser","type":"bool"},{"internalType":"bytes","name":"extraData","type":"bytes"}],"internalType":"struct ClaimRequest[]","name":"claims","type":"tuple[]"},{"components":[{"internalType":"bytes","name":"message","type":"bytes"},{"internalType":"bool","name":"isSelectableByUser","type":"bool"},{"internalType":"bytes","name":"extraData","type":"bytes"}],"internalType":"struct SignatureRequest","name":"signature","type":"tuple"},{"internalType":"bytes16","name":"namespace","type":"bytes16"}],"name":"build","outputs":[{"components":[{"internalType":"bytes16","name":"namespace","type":"bytes16"},{"components":[{"internalType":"enum AuthType","name":"authType","type":"uint8"},{"internalType":"uint256","name":"userId","type":"uint256"},{"internalType":"bool","name":"isAnon","type":"bool"},{"internalType":"bool","name":"isOptional","type":"bool"},{"internalType":"bool","name":"isSelectableByUser","type":"bool"},{"internalType":"bytes","name":"extraData","type":"bytes"}],"internalType":"struct AuthRequest[]","name":"auths","type":"tuple[]"},{"components":[{"internalType":"enum ClaimType","name":"claimType","type":"uint8"},{"internalType":"bytes16","name":"groupId","type":"bytes16"},{"internalType":"bytes16","name":"groupTimestamp","type":"bytes16"},{"internalType":"uint256","name":"value","type":"uint256"},{"internalType":"bool","name":"isOptional","type":"bool"},{"internalType":"bool","name":"isSelectableByUser","type":"bool"},{"internalType":"bytes","name":"extraData","type":"bytes"}],"internalType":"struct ClaimRequest[]","name":"claims","type":"tuple[]"},{"components":[{"internalType":"bytes","name":"message","type":"bytes"},{"internalType":"bool","name":"isSelectableByUser","type":"bool"},{"internalType":"bytes","name":"extraData","type":"bytes"}],"internalType":"struct SignatureRequest","name":"signature","type":"tuple"}],"internalType":"struct SismoConnectRequest","name":"","type":"tuple"}],"stateMutability":"pure","type":"function"},{"inputs":[{"components":[{"internalType":"enum AuthType","name":"authType","type":"uint8"},{"internalType":"uint256","name":"userId","type":"uint256"},{"internalType":"bool","name":"isAnon","type":"bool"},{"internalType":"bool","name":"isOptional","type":"bool"},{"internalType":"bool","name":"isSelectableByUser","type":"bool"},{"internalType":"bytes","name":"extraData","type":"bytes"}],"internalType":"struct AuthRequest","name":"auth","type":"tuple"},{"components":[{"internalType":"enum ClaimType","name":"claimType","type":"uint8"},{"internalType":"bytes16","name":"groupId","type":"bytes16"},{"internalType":"bytes16","name":"groupTimestamp","type":"bytes16"},{"internalType":"uint256","name":"value","type":"uint256"},{"internalType":"bool","name":"isOptional","type":"bool"},{"internalType":"bool","name":"isSelectableByUser","type":"bool"},{"internalType":"bytes","name":"extraData","type":"bytes"}],"internalType":"struct ClaimRequest","name":"claim","type":"tuple"},{"components":[{"internalType":"bytes","name":"message","type":"bytes"},{"internalType":"bool","name":"isSelectableByUser","type":"bool"},{"internalType":"bytes","name":"extraData","type":"bytes"}],"internalType":"struct SignatureRequest","name":"signature","type":"tuple"},{"internalType":"bytes16","name":"namespace","type":"bytes16"}],"name":"build","outputs":[{"components":[{"internalType":"bytes16","name":"namespace","type":"bytes16"},{"components":[{"internalType":"enum AuthType","name":"authType","type":"uint8"},{"internalType":"uint256","name":"userId","type":"uint256"},{"internalType":"bool","name":"isAnon","type":"bool"},{"internalType":"bool","name":"isOptional","type":"bool"},{"internalType":"bool","name":"isSelectableByUser","type":"bool"},{"internalType":"bytes","name":"extraData","type":"bytes"}],"internalType":"struct AuthRequest[]","name":"auths","type":"tuple[]"},{"components":[{"internalType":"enum ClaimType","name":"claimType","type":"uint8"},{"internalType":"bytes16","name":"groupId","type":"bytes16"},{"internalType":"bytes16","name":"groupTimestamp","type":"bytes16"},{"internalType":"uint256","name":"value","type":"uint256"},{"internalType":"bool","name":"isOptional","type":"bool"},{"internalType":"bool","name":"isSelectableByUser","type":"bool"},{"internalType":"bytes","name":"extraData","type":"bytes"}],"internalType":"struct ClaimRequest[]","name":"claims","type":"tuple[]"},{"components":[{"internalType":"bytes","name":"message","type":"bytes"},{"internalType":"bool","name":"isSelectableByUser","type":"bool"},{"internalType":"bytes","name":"extraData","type":"bytes"}],"internalType":"struct SignatureRequest","name":"signature","type":"tuple"}],"internalType":"struct SismoConnectRequest","name":"","type":"tuple"}],"stateMutability":"pure","type":"function"},{"inputs":[{"components":[{"internalType":"enum ClaimType","name":"claimType","type":"uint8"},{"internalType":"bytes16","name":"groupId","type":"bytes16"},{"internalType":"bytes16","name":"groupTimestamp","type":"bytes16"},{"internalType":"uint256","name":"value","type":"uint256"},{"internalType":"bool","name":"isOptional","type":"bool"},{"internalType":"bool","name":"isSelectableByUser","type":"bool"},{"internalType":"bytes","name":"extraData","type":"bytes"}],"internalType":"struct ClaimRequest[]","name":"claims","type":"tuple[]"},{"internalType":"bytes16","name":"namespace","type":"bytes16"}],"name":"build","outputs":[{"components":[{"internalType":"bytes16","name":"namespace","type":"bytes16"},{"components":[{"internalType":"enum AuthType","name":"authType","type":"uint8"},{"internalType":"uint256","name":"userId","type":"uint256"},{"internalType":"bool","name":"isAnon","type":"bool"},{"internalType":"bool","name":"isOptional","type":"bool"},{"internalType":"bool","name":"isSelectableByUser","type":"bool"},{"internalType":"bytes","name":"extraData","type":"bytes"}],"internalType":"struct AuthRequest[]","name":"auths","type":"tuple[]"},{"components":[{"internalType":"enum ClaimType","name":"claimType","type":"uint8"},{"internalType":"bytes16","name":"groupId","type":"bytes16"},{"internalType":"bytes16","name":"groupTimestamp","type":"bytes16"},{"internalType":"uint256","name":"value","type":"uint256"},{"internalType":"bool","name":"isOptional","type":"bool"},{"internalType":"bool","name":"isSelectableByUser","type":"bool"},{"internalType":"bytes","name":"extraData","type":"bytes"}],"internalType":"struct ClaimRequest[]","name":"claims","type":"tuple[]"},{"components":[{"internalType":"bytes","name":"message","type":"bytes"},{"internalType":"bool","name":"isSelectableByUser","type":"bool"},{"internalType":"bytes","name":"extraData","type":"bytes"}],"internalType":"struct SignatureRequest","name":"signature","type":"tuple"}],"internalType":"struct SismoConnectRequest","name":"","type":"tuple"}],"stateMutability":"view","type":"function"},{"inputs":[{"components":[{"internalType":"enum AuthType","name":"authType","type":"uint8"},{"internalType":"uint256","name":"userId","type":"uint256"},{"internalType":"bool","name":"isAnon","type":"bool"},{"internalType":"bool","name":"isOptional","type":"bool"},{"internalType":"bool","name":"isSelectableByUser","type":"bool"},{"internalType":"bytes","name":"extraData","type":"bytes"}],"internalType":"struct AuthRequest","name":"auth","type":"tuple"},{"components":[{"internalType":"enum ClaimType","name":"claimType","type":"uint8"},{"internalType":"bytes16","name":"groupId","type":"bytes16"},{"internalType":"bytes16","name":"groupTimestamp","type":"bytes16"},{"internalType":"uint256","name":"value","type":"uint256"},{"internalType":"bool","name":"isOptional","type":"bool"},{"internalType":"bool","name":"isSelectableByUser","type":"bool"},{"internalType":"bytes","name":"extraData","type":"bytes"}],"internalType":"struct ClaimRequest","name":"claim","type":"tuple"},{"components":[{"internalType":"bytes","name":"message","type":"bytes"},{"internalType":"bool","name":"isSelectableByUser","type":"bool"},{"internalType":"bytes","name":"extraData","type":"bytes"}],"internalType":"struct SignatureRequest","name":"signature","type":"tuple"}],"name":"build","outputs":[{"components":[{"internalType":"bytes16","name":"namespace","type":"bytes16"},{"components":[{"internalType":"enum AuthType","name":"authType","type":"uint8"},{"internalType":"uint256","name":"userId","type":"uint256"},{"internalType":"bool","name":"isAnon","type":"bool"},{"internalType":"bool","name":"isOptional","type":"bool"},{"internalType":"bool","name":"isSelectableByUser","type":"bool"},{"internalType":"bytes","name":"extraData","type":"bytes"}],"internalType":"struct AuthRequest[]","name":"auths","type":"tuple[]"},{"components":[{"internalType":"enum ClaimType","name":"claimType","type":"uint8"},{"internalType":"bytes16","name":"groupId","type":"bytes16"},{"internalType":"bytes16","name":"groupTimestamp","type":"bytes16"},{"internalType":"uint256","name":"value","type":"uint256"},{"internalType":"bool","name":"isOptional","type":"bool"},{"internalType":"bool","name":"isSelectableByUser","type":"bool"},{"internalType":"bytes","name":"extraData","type":"bytes"}],"internalType":"struct ClaimRequest[]","name":"claims","type":"tuple[]"},{"components":[{"internalType":"bytes","name":"message","type":"bytes"},{"internalType":"bool","name":"isSelectableByUser","type":"bool"},{"internalType":"bytes","name":"extraData","type":"bytes"}],"internalType":"struct SignatureRequest","name":"signature","type":"tuple"}],"internalType":"struct SismoConnectRequest","name":"","type":"tuple"}],"stateMutability":"pure","type":"function"}],"evm":{"bytecode":{"linkReferences":{},"object":"608060405260405180606001604052806040518060400160405280601881526020017f4d4553534147455f53454c45435445445f42595f5553455200000000000000008152508152602001600015158152602001604051806020016040528060008152508152506000808201518160000190816200007e919062000347565b5060208201518160010160006101000a81548160ff0219169083151502179055506040820151816002019081620000b6919062000347565b505050348015620000c657600080fd5b506200042e565b600081519050919050565b7f4e487b7100000000000000000000000000000000000000000000000000000000600052604160045260246000fd5b7f4e487b7100000000000000000000000000000000000000000000000000000000600052602260045260246000fd5b600060028204905060018216806200014f57607f821691505b60208210810362000165576200016462000107565b5b50919050565b60008190508160005260206000209050919050565b60006020601f8301049050919050565b600082821b905092915050565b600060088302620001cf7fffffffffffffffffffffffffffffffffffffffffffffffffffffffffffffffff8262000190565b620001db868362000190565b95508019841693508086168417925050509392505050565b6000819050919050565b6000819050919050565b600062000228620002226200021c84620001f3565b620001fd565b620001f3565b9050919050565b6000819050919050565b620002448362000207565b6200025c62000253826200022f565b8484546200019d565b825550505050565b600090565b6200027362000264565b6200028081848462000239565b505050565b5b81811015620002a8576200029c60008262000269565b60018101905062000286565b5050565b601f821115620002f757620002c1816200016b565b620002cc8462000180565b81016020851015620002dc578190505b620002f4620002eb8562000180565b83018262000285565b50505b505050565b600082821c905092915050565b60006200031c60001984600802620002fc565b1980831691505092915050565b600062000337838362000309565b9150826002028217905092915050565b6200035282620000cd565b67ffffffffffffffff8111156200036e576200036d620000d8565b5b6200037a825462000136565b62000387828285620002ac565b600060209050601f831160018114620003bf5760008415620003aa578287015190505b620003b6858262000329565b86555062000426565b601f198416620003cf866200016b565b60005b82811015620003f957848901518255600182019150602085019450602081019050620003d2565b8683101562000419578489015162000415601f89168262000309565b8355505b6001600288020188555050505b505050505050565b6143bb806200043e6000396000f3fe608060405234801561001057600080fd5b50600436106101735760003560e01c80639266f47c116100de578063d7ccd8da11610097578063e48cd72111610071578063e48cd72114610556578063e93f38b814610586578063f1c1e209146105b6578063f2d3f1f6146105e657610173565b8063d7ccd8da146104c6578063dd108267146104f6578063dde11c7c1461052657610173565b80639266f47c146103a657806399240336146103d6578063a156e2d814610406578063b33cd32314610436578063b5ae258714610466578063c9f97f531461049657610173565b806327b5b7c31161013057806327b5b7c3146102865780632ceb1e8d146102b657806331560e75146102e657806348fd24cc14610316578063548525771461034657806391ba07f31461037657610173565b8063080b53f8146101785780630e58be05146101a857806310c5d31b146101d857806311f83e201461020857806314ddafa3146102385780631b399c9914610268575b600080fd5b610192600480360381019061018d9190612f20565b610616565b60405161019f9190613458565b60405180910390f35b6101c260048036038101906101bd919061347a565b610878565b6040516101cf9190613458565b60405180910390f35b6101f260048036038101906101ed9190613640565b610af9565b6040516101ff9190613458565b60405180910390f35b610222600480360381019061021d91906137b1565b610c11565b60405161022f9190613458565b60405180910390f35b610252600480360381019061024d91906138db565b610e18565b60405161025f9190613458565b60405180910390f35b610270610eb6565b60405161027d9190613975565b60405180910390f35b6102a0600480360381019061029b9190613990565b610eda565b6040516102ad9190613458565b60405180910390f35b6102d060048036038101906102cb91906139ec565b6110c2565b6040516102dd9190613458565b60405180910390f35b61030060048036038101906102fb9190613a64565b61117f565b60405161030d9190613458565b60405180910390f35b610330600480360381019061032b9190613aef565b611403565b60405161033d9190613458565b60405180910390f35b610360600480360381019061035b9190613b67565b61153a565b60405161036d9190613458565b60405180910390f35b610390600480360381019061038b9190613bf2565b611652565b60405161039d9190613458565b60405180910390f35b6103c060048036038101906103bb9190613c4e565b6118b4565b6040516103cd9190613458565b60405180910390f35b6103f060048036038101906103eb9190613cd9565b611a44565b6040516103fd9190613458565b60405180910390f35b610420600480360381019061041b9190613d80565b611aa9565b60405161042d9190613458565b60405180910390f35b610450600480360381019061044b9190613df8565b611c58565b60405161045d9190613458565b60405180910390f35b610480600480360381019061047b9190613e41565b611e5f565b60405161048d9190613458565b60405180910390f35b6104b060048036038101906104ab9190613eb9565b611f1c565b6040516104bd9190613458565b60405180910390f35b6104e060048036038101906104db9190613f31565b612053565b6040516104ed9190613458565b60405180910390f35b610510600480360381019061050b9190613f7a565b6122d4565b60405161051d9190613458565b60405180910390f35b610540600480360381019061053b9190614005565b612372565b60405161054d9190613458565b60405180910390f35b610570600480360381019061056b919061407d565b612615565b60405161057d9190613458565b60405180910390f35b6105a0600480360381019061059b9190614138565b61265b565b6040516105ad9190613458565b60405180910390f35b6105d060048036038101906105cb91906141f3565b612795565b6040516105dd9190613458565b60405180910390f35b61060060048036038101906105fb919061424f565b61297d565b60405161060d9190613458565b60405180910390f35b61061e612ad6565b60008067ffffffffffffffff81111561063a57610639612c2b565b5b60405190808252806020026020018201604052801561067357816020015b610660612b17565b8152602001906001900390816106585790505b5090506000600167ffffffffffffffff81111561069357610692612c2b565b5b6040519080825280602002602001820160405280156106cc57816020015b6106b9612b65565b8152602001906001900390816106b15790505b50905084816000815181106106e4576106e36142f6565b5b60200260200101819052506040518060800160405280856fffffffffffffffffffffffffffffffff19168152602001838152602001828152602001600060405180606001604052908160008201805461073c90614354565b80601f016020809104026020016040519081016040528092919081815260200182805461076890614354565b80156107b55780601f1061078a576101008083540402835291602001916107b5565b820191906000526020600020905b81548152906001019060200180831161079857829003601f168201915b505050505081526020016001820160009054906101000a900460ff161515151581526020016002820180546107e990614354565b80601f016020809104026020016040519081016040528092919081815260200182805461081590614354565b80156108625780601f1061083757610100808354040283529160200191610862565b820191906000526020600020905b81548152906001019060200180831161084557829003601f168201915b5050505050815250508152509250505092915050565b610880612ad6565b60008067ffffffffffffffff81111561089c5761089b612c2b565b5b6040519080825280602002602001820160405280156108d557816020015b6108c2612b17565b8152602001906001900390816108ba5790505b5090506000600167ffffffffffffffff8111156108f5576108f4612c2b565b5b60405190808252806020026020018201604052801561092e57816020015b61091b612b65565b8152602001906001900390816109135790505b5090508381600081518110610946576109456142f6565b5b602002602001018190525060405180608001604052807fb8e2054f8a912367e38a22ce773328ff8aabf8082c4120bad9ef085e1dbf29a76fffffffffffffffffffffffffffffffff1916815260200183815260200182815260200160006040518060600160405290816000820180546109be90614354565b80601f01602080910402602001604051908101604052809291908181526020018280546109ea90614354565b8015610a375780601f10610a0c57610100808354040283529160200191610a37565b820191906000526020600020905b815481529060010190602001808311610a1a57829003601f168201915b505050505081526020016001820160009054906101000a900460ff16151515158152602001600282018054610a6b90614354565b80601f0160208091040260200160405190810160405280929190818152602001828054610a9790614354565b8015610ae45780601f10610ab957610100808354040283529160200191610ae4565b820191906000526020600020905b815481529060010190602001808311610ac757829003601f168201915b50505050508152505081525092505050919050565b610b01612ad6565b6000600167ffffffffffffffff811115610b1e57610b1d612c2b565b5b604051908082528060200260200182016040528015610b5757816020015b610b44612b17565b815260200190600190039081610b3c5790505b5090508481600081518110610b6f57610b6e6142f6565b5b602002602001018190525060008067ffffffffffffffff811115610b9657610b95612c2b565b5b604051908082528060200260200182016040528015610bcf57816020015b610bbc612b65565b815260200190600190039081610bb45790505b5090506040518060800160405280856fffffffffffffffffffffffffffffffff1916815260200183815260200182815260200186815250925050509392505050565b610c19612ad6565b60008067ffffffffffffffff811115610c3557610c34612c2b565b5b604051908082528060200260200182016040528015610c6e57816020015b610c5b612b65565b815260200190600190039081610c535790505b50905060405180608001604052807fb8e2054f8a912367e38a22ce773328ff8aabf8082c4120bad9ef085e1dbf29a76fffffffffffffffffffffffffffffffff191681526020018481526020018281526020016000604051806060016040529081600082018054610cde90614354565b80601f0160208091040260200160405190810160405280929190818152602001828054610d0a90614354565b8015610d575780601f10610d2c57610100808354040283529160200191610d57565b820191906000526020600020905b815481529060010190602001808311610d3a57829003601f168201915b505050505081526020016001820160009054906101000a900460ff16151515158152602001600282018054610d8b90614354565b80601f0160208091040260200160405190810160405280929190818152602001828054610db790614354565b8015610e045780601f10610dd957610100808354040283529160200191610e04565b820191906000526020600020905b815481529060010190602001808311610de757829003601f168201915b505050505081525050815250915050919050565b610e20612ad6565b60008067ffffffffffffffff811115610e3c57610e3b612c2b565b5b604051908082528060200260200182016040528015610e7557816020015b610e62612b17565b815260200190600190039081610e5a5790505b5090506040518060800160405280846fffffffffffffffffffffffffffffffff19168152602001828152602001868152602001858152509150509392505050565b7fb8e2054f8a912367e38a22ce773328ff8aabf8082c4120bad9ef085e1dbf29a781565b610ee2612ad6565b60008067ffffffffffffffff811115610efe57610efd612c2b565b5b604051908082528060200260200182016040528015610f3757816020015b610f24612b65565b815260200190600190039081610f1c5790505b5090506040518060800160405280846fffffffffffffffffffffffffffffffff191681526020018581526020018281526020016000604051806060016040529081600082018054610f8790614354565b80601f0160208091040260200160405190810160405280929190818152602001828054610fb390614354565b80156110005780601f10610fd557610100808354040283529160200191611000565b820191906000526020600020905b815481529060010190602001808311610fe357829003601f168201915b505050505081526020016001820160009054906101000a900460ff1615151515815260200160028201805461103490614354565b80601f016020809104026020016040519081016040528092919081815260200182805461106090614354565b80156110ad5780601f10611082576101008083540402835291602001916110ad565b820191906000526020600020905b81548152906001019060200180831161109057829003601f168201915b50505050508152505081525091505092915050565b6110ca612ad6565b60008067ffffffffffffffff8111156110e6576110e5612c2b565b5b60405190808252806020026020018201604052801561111f57816020015b61110c612b65565b8152602001906001900390816111045790505b50905060405180608001604052807fb8e2054f8a912367e38a22ce773328ff8aabf8082c4120bad9ef085e1dbf29a76fffffffffffffffffffffffffffffffff191681526020018581526020018281526020018481525091505092915050565b611187612ad6565b6000600167ffffffffffffffff8111156111a4576111a3612c2b565b5b6040519080825280602002602001820160405280156111dd57816020015b6111ca612b17565b8152602001906001900390816111c25790505b50905084816000815181106111f5576111f46142f6565b5b60200260200101819052506000600167ffffffffffffffff81111561121d5761121c612c2b565b5b60405190808252806020026020018201604052801561125657816020015b611243612b65565b81526020019060019003908161123b5790505b509050848160008151811061126e5761126d6142f6565b5b60200260200101819052506040518060800160405280856fffffffffffffffffffffffffffffffff1916815260200183815260200182815260200160006040518060600160405290816000820180546112c690614354565b80601f01602080910402602001604051908101604052809291908181526020018280546112f290614354565b801561133f5780601f106113145761010080835404028352916020019161133f565b820191906000526020600020905b81548152906001019060200180831161132257829003601f168201915b505050505081526020016001820160009054906101000a900460ff1615151515815260200160028201805461137390614354565b80601f016020809104026020016040519081016040528092919081815260200182805461139f90614354565b80156113ec5780601f106113c1576101008083540402835291602001916113ec565b820191906000526020600020905b8154815290600101906020018083116113cf57829003601f168201915b505050505081525050815250925050509392505050565b61140b612ad6565b6000600167ffffffffffffffff81111561142857611427612c2b565b5b60405190808252806020026020018201604052801561146157816020015b61144e612b17565b8152602001906001900390816114465790505b5090508381600081518110611479576114786142f6565b5b602002602001018190525060008067ffffffffffffffff8111156114a05761149f612c2b565b5b6040519080825280602002602001820160405280156114d957816020015b6114c6612b65565b8152602001906001900390816114be5790505b50905060405180608001604052807fb8e2054f8a912367e38a22ce773328ff8aabf8082c4120bad9ef085e1dbf29a76fffffffffffffffffffffffffffffffff19168152602001838152602001828152602001858152509250505092915050565b611542612ad6565b60008067ffffffffffffffff81111561155e5761155d612c2b565b5b60405190808252806020026020018201604052801561159757816020015b611584612b17565b81526020019060019003908161157c5790505b5090506000600167ffffffffffffffff8111156115b7576115b6612c2b565b5b6040519080825280602002602001820160405280156115f057816020015b6115dd612b65565b8152602001906001900390816115d55790505b5090508581600081518110611608576116076142f6565b5b60200260200101819052506040518060800160405280856fffffffffffffffffffffffffffffffff1916815260200183815260200182815260200186815250925050509392505050565b61165a612ad6565b6000600167ffffffffffffffff81111561167757611676612c2b565b5b6040519080825280602002602001820160405280156116b057816020015b61169d612b17565b8152602001906001900390816116955790505b50905083816000815181106116c8576116c76142f6565b5b602002602001018190525060008067ffffffffffffffff8111156116ef576116ee612c2b565b5b60405190808252806020026020018201604052801561172857816020015b611715612b65565b81526020019060019003908161170d5790505b5090506040518060800160405280856fffffffffffffffffffffffffffffffff19168152602001838152602001828152602001600060405180606001604052908160008201805461177890614354565b80601f01602080910402602001604051908101604052809291908181526020018280546117a490614354565b80156117f15780601f106117c6576101008083540402835291602001916117f1565b820191906000526020600020905b8154815290600101906020018083116117d457829003601f168201915b505050505081526020016001820160009054906101000a900460ff1615151515815260200160028201805461182590614354565b80601f016020809104026020016040519081016040528092919081815260200182805461185190614354565b801561189e5780601f106118735761010080835404028352916020019161189e565b820191906000526020600020905b81548152906001019060200180831161188157829003601f168201915b5050505050815250508152509250505092915050565b6118bc612ad6565b6040518060800160405280836fffffffffffffffffffffffffffffffff19168152602001858152602001848152602001600060405180606001604052908160008201805461190990614354565b80601f016020809104026020016040519081016040528092919081815260200182805461193590614354565b80156119825780601f1061195757610100808354040283529160200191611982565b820191906000526020600020905b81548152906001019060200180831161196557829003601f168201915b505050505081526020016001820160009054906101000a900460ff161515151581526020016002820180546119b690614354565b80601f01602080910402602001604051908101604052809291908181526020018280546119e290614354565b8015611a2f5780601f10611a0457610100808354040283529160200191611a2f565b820191906000526020600020905b815481529060010190602001808311611a1257829003601f168201915b50505050508152505081525090509392505050565b611a4c612ad6565b60405180608001604052807fb8e2054f8a912367e38a22ce773328ff8aabf8082c4120bad9ef085e1dbf29a76fffffffffffffffffffffffffffffffff191681526020018581526020018481526020018381525090509392505050565b611ab1612ad6565b60405180608001604052807fb8e2054f8a912367e38a22ce773328ff8aabf8082c4120bad9ef085e1dbf29a76fffffffffffffffffffffffffffffffff191681526020018481526020018381526020016000604051806060016040529081600082018054611b1e90614354565b80601f0160208091040260200160405190810160405280929190818152602001828054611b4a90614354565b8015611b975780601f10611b6c57610100808354040283529160200191611b97565b820191906000526020600020905b815481529060010190602001808311611b7a57829003601f168201915b505050505081526020016001820160009054906101000a900460ff16151515158152602001600282018054611bcb90614354565b80601f0160208091040260200160405190810160405280929190818152602001828054611bf790614354565b8015611c445780601f10611c1957610100808354040283529160200191611c44565b820191906000526020600020905b815481529060010190602001808311611c2757829003601f168201915b505050505081525050815250905092915050565b611c60612ad6565b60008067ffffffffffffffff811115611c7c57611c7b612c2b565b5b604051908082528060200260200182016040528015611cb557816020015b611ca2612b17565b815260200190600190039081611c9a5790505b50905060405180608001604052807fb8e2054f8a912367e38a22ce773328ff8aabf8082c4120bad9ef085e1dbf29a76fffffffffffffffffffffffffffffffff191681526020018281526020018481526020016000604051806060016040529081600082018054611d2590614354565b80601f0160208091040260200160405190810160405280929190818152602001828054611d5190614354565b8015611d9e5780601f10611d7357610100808354040283529160200191611d9e565b820191906000526020600020905b815481529060010190602001808311611d8157829003601f168201915b505050505081526020016001820160009054906101000a900460ff16151515158152602001600282018054611dd290614354565b80601f0160208091040260200160405190810160405280929190818152602001828054611dfe90614354565b8015611e4b5780601f10611e2057610100808354040283529160200191611e4b565b820191906000526020600020905b815481529060010190602001808311611e2e57829003601f168201915b505050505081525050815250915050919050565b611e67612ad6565b60008067ffffffffffffffff811115611e8357611e82612c2b565b5b604051908082528060200260200182016040528015611ebc57816020015b611ea9612b17565b815260200190600190039081611ea15790505b50905060405180608001604052807fb8e2054f8a912367e38a22ce773328ff8aabf8082c4120bad9ef085e1dbf29a76fffffffffffffffffffffffffffffffff191681526020018281526020018581526020018481525091505092915050565b611f24612ad6565b60008067ffffffffffffffff811115611f4057611f3f612c2b565b5b604051908082528060200260200182016040528015611f7957816020015b611f66612b17565b815260200190600190039081611f5e5790505b5090506000600167ffffffffffffffff811115611f9957611f98612c2b565b5b604051908082528060200260200182016040528015611fd257816020015b611fbf612b65565b815260200190600190039081611fb75790505b5090508481600081518110611fea57611fe96142f6565b5b602002602001018190525060405180608001604052807fb8e2054f8a912367e38a22ce773328ff8aabf8082c4120bad9ef085e1dbf29a76fffffffffffffffffffffffffffffffff19168152602001838152602001828152602001858152509250505092915050565b61205b612ad6565b6000600167ffffffffffffffff81111561207857612077612c2b565b5b6040519080825280602002602001820160405280156120b157816020015b61209e612b17565b8152602001906001900390816120965790505b50905082816000815181106120c9576120c86142f6565b5b602002602001018190525060008067ffffffffffffffff8111156120f0576120ef612c2b565b5b60405190808252806020026020018201604052801561212957816020015b612116612b65565b81526020019060019003908161210e5790505b50905060405180608001604052807fb8e2054f8a912367e38a22ce773328ff8aabf8082c4120bad9ef085e1dbf29a76fffffffffffffffffffffffffffffffff19168152602001838152602001828152602001600060405180606001604052908160008201805461219990614354565b80601f01602080910402602001604051908101604052809291908181526020018280546121c590614354565b80156122125780601f106121e757610100808354040283529160200191612212565b820191906000526020600020905b8154815290600101906020018083116121f557829003601f168201915b505050505081526020016001820160009054906101000a900460ff1615151515815260200160028201805461224690614354565b80601f016020809104026020016040519081016040528092919081815260200182805461227290614354565b80156122bf5780601f10612294576101008083540402835291602001916122bf565b820191906000526020600020905b8154815290600101906020018083116122a257829003601f168201915b50505050508152505081525092505050919050565b6122dc612ad6565b60008067ffffffffffffffff8111156122f8576122f7612c2b565b5b60405190808252806020026020018201604052801561233157816020015b61231e612b65565b8152602001906001900390816123165790505b5090506040518060800160405280846fffffffffffffffffffffffffffffffff19168152602001868152602001828152602001858152509150509392505050565b61237a612ad6565b6000600167ffffffffffffffff81111561239757612396612c2b565b5b6040519080825280602002602001820160405280156123d057816020015b6123bd612b17565b8152602001906001900390816123b55790505b50905083816000815181106123e8576123e76142f6565b5b60200260200101819052506000600167ffffffffffffffff8111156124105761240f612c2b565b5b60405190808252806020026020018201604052801561244957816020015b612436612b65565b81526020019060019003908161242e5790505b5090508381600081518110612461576124606142f6565b5b602002602001018190525060405180608001604052807fb8e2054f8a912367e38a22ce773328ff8aabf8082c4120bad9ef085e1dbf29a76fffffffffffffffffffffffffffffffff1916815260200183815260200182815260200160006040518060600160405290816000820180546124d990614354565b80601f016020809104026020016040519081016040528092919081815260200182805461250590614354565b80156125525780601f1061252757610100808354040283529160200191612552565b820191906000526020600020905b81548152906001019060200180831161253557829003601f168201915b505050505081526020016001820160009054906101000a900460ff1615151515815260200160028201805461258690614354565b80601f01602080910402602001604051908101604052809291908181526020018280546125b290614354565b80156125ff5780601f106125d4576101008083540402835291602001916125ff565b820191906000526020600020905b8154815290600101906020018083116125e257829003601f168201915b5050505050815250508152509250505092915050565b61261d612ad6565b6040518060800160405280836fffffffffffffffffffffffffffffffff19168152602001868152602001858152602001848152509050949350505050565b612663612ad6565b6000600167ffffffffffffffff8111156126805761267f612c2b565b5b6040519080825280602002602001820160405280156126b957816020015b6126a6612b17565b81526020019060019003908161269e5790505b50905085816000815181106126d1576126d06142f6565b5b60200260200101819052506000600167ffffffffffffffff8111156126f9576126f8612c2b565b5b60405190808252806020026020018201604052801561273257816020015b61271f612b65565b8152602001906001900390816127175790505b509050858160008151811061274a576127496142f6565b5b60200260200101819052506040518060800160405280856fffffffffffffffffffffffffffffffff191681526020018381526020018281526020018681525092505050949350505050565b61279d612ad6565b60008067ffffffffffffffff8111156127b9576127b8612c2b565b5b6040519080825280602002602001820160405280156127f257816020015b6127df612b17565b8152602001906001900390816127d75790505b5090506040518060800160405280846fffffffffffffffffffffffffffffffff19168152602001828152602001858152602001600060405180606001604052908160008201805461284290614354565b80601f016020809104026020016040519081016040528092919081815260200182805461286e90614354565b80156128bb5780601f10612890576101008083540402835291602001916128bb565b820191906000526020600020905b81548152906001019060200180831161289e57829003601f168201915b505050505081526020016001820160009054906101000a900460ff161515151581526020016002820180546128ef90614354565b80601f016020809104026020016040519081016040528092919081815260200182805461291b90614354565b80156129685780601f1061293d57610100808354040283529160200191612968565b820191906000526020600020905b81548152906001019060200180831161294b57829003601f168201915b50505050508152505081525091505092915050565b612985612ad6565b6000600167ffffffffffffffff8111156129a2576129a1612c2b565b5b6040519080825280602002602001820160405280156129db57816020015b6129c8612b17565b8152602001906001900390816129c05790505b50905084816000815181106129f3576129f26142f6565b5b60200260200101819052506000600167ffffffffffffffff811115612a1b57612a1a612c2b565b5b604051908082528060200260200182016040528015612a5457816020015b612a41612b65565b815260200190600190039081612a395790505b5090508481600081518110612a6c57612a6b6142f6565b5b602002602001018190525060405180608001604052807fb8e2054f8a912367e38a22ce773328ff8aabf8082c4120bad9ef085e1dbf29a76fffffffffffffffffffffffffffffffff1916815260200183815260200182815260200185815250925050509392505050565b604051806080016040528060006fffffffffffffffffffffffffffffffff191681526020016060815260200160608152602001612b11612bde565b81525090565b6040518060c0016040528060006005811115612b3657612b35612fb7565b5b815260200160008152602001600015158152602001600015158152602001600015158152602001606081525090565b6040518060e0016040528060006004811115612b8457612b83612fb7565b5b815260200160006fffffffffffffffffffffffffffffffff1916815260200160006fffffffffffffffffffffffffffffffff1916815260200160008152602001600015158152602001600015158152602001606081525090565b604051806060016040528060608152602001600015158152602001606081525090565b6000604051905090565b600080fd5b600080fd5b600080fd5b6000601f19601f8301169050919050565b7f4e487b7100000000000000000000000000000000000000000000000000000000600052604160045260246000fd5b612c6382612c1a565b810181811067ffffffffffffffff82111715612c8257612c81612c2b565b5b80604052505050565b6000612c95612c01565b9050612ca18282612c5a565b919050565b600080fd5b60058110612cb857600080fd5b50565b600081359050612cca81612cab565b92915050565b60007fffffffffffffffffffffffffffffffff0000000000000000000000000000000082169050919050565b612d0581612cd0565b8114612d1057600080fd5b50565b600081359050612d2281612cfc565b92915050565b6000819050919050565b612d3b81612d28565b8114612d4657600080fd5b50565b600081359050612d5881612d32565b92915050565b60008115159050919050565b612d7381612d5e565b8114612d7e57600080fd5b50565b600081359050612d9081612d6a565b92915050565b600080fd5b600080fd5b600067ffffffffffffffff821115612dbb57612dba612c2b565b5b612dc482612c1a565b9050602081019050919050565b82818337600083830152505050565b6000612df3612dee84612da0565b612c8b565b905082815260208101848484011115612e0f57612e0e612d9b565b5b612e1a848285612dd1565b509392505050565b600082601f830112612e3757612e36612d96565b5b8135612e47848260208601612de0565b91505092915050565b600060e08284031215612e6657612e65612c15565b5b612e7060e0612c8b565b90506000612e8084828501612cbb565b6000830152506020612e9484828501612d13565b6020830152506040612ea884828501612d13565b6040830152506060612ebc84828501612d49565b6060830152506080612ed084828501612d81565b60808301525060a0612ee484828501612d81565b60a08301525060c082013567ffffffffffffffff811115612f0857612f07612ca6565b5b612f1484828501612e22565b60c08301525092915050565b60008060408385031215612f3757612f36612c0b565b5b600083013567ffffffffffffffff811115612f5557612f54612c10565b5b612f6185828601612e50565b9250506020612f7285828601612d13565b9150509250929050565b612f8581612cd0565b82525050565b600081519050919050565b600082825260208201905092915050565b6000819050602082019050919050565b7f4e487b7100000000000000000000000000000000000000000000000000000000600052602160045260246000fd5b60068110612ff757612ff6612fb7565b5b50565b600081905061300882612fe6565b919050565b600061301882612ffa565b9050919050565b6130288161300d565b82525050565b61303781612d28565b82525050565b61304681612d5e565b82525050565b600081519050919050565b600082825260208201905092915050565b60005b8381101561308657808201518184015260208101905061306b565b60008484015250505050565b600061309d8261304c565b6130a78185613057565b93506130b7818560208601613068565b6130c081612c1a565b840191505092915050565b600060c0830160008301516130e3600086018261301f565b5060208301516130f6602086018261302e565b506040830151613109604086018261303d565b50606083015161311c606086018261303d565b50608083015161312f608086018261303d565b5060a083015184820360a08601526131478282613092565b9150508091505092915050565b600061316083836130cb565b905092915050565b6000602082019050919050565b600061318082612f8b565b61318a8185612f96565b93508360208202850161319c85612fa7565b8060005b858110156131d857848403895281516131b98582613154565b94506131c483613168565b925060208a019950506001810190506131a0565b50829750879550505050505092915050565b600081519050919050565b600082825260208201905092915050565b6000819050602082019050919050565b6005811061322757613226612fb7565b5b50565b600081905061323882613216565b919050565b60006132488261322a565b9050919050565b6132588161323d565b82525050565b600060e083016000830151613276600086018261324f565b5060208301516132896020860182612f7c565b50604083015161329c6040860182612f7c565b5060608301516132af606086018261302e565b5060808301516132c2608086018261303d565b5060a08301516132d560a086018261303d565b5060c083015184820360c08601526132ed8282613092565b9150508091505092915050565b6000613306838361325e565b905092915050565b6000602082019050919050565b6000613326826131ea565b61333081856131f5565b93508360208202850161334285613206565b8060005b8581101561337e578484038952815161335f85826132fa565b945061336a8361330e565b925060208a01995050600181019050613346565b50829750879550505050505092915050565b600060608301600083015184820360008601526133ad8282613092565b91505060208301516133c2602086018261303d565b50604083015184820360408601526133da8282613092565b9150508091505092915050565b60006080830160008301516133ff6000860182612f7c565b50602083015184820360208601526134178282613175565b91505060408301518482036040860152613431828261331b565b9150506060830151848203606086015261344b8282613390565b9150508091505092915050565b6000602082019050818103600083015261347281846133e7565b905092915050565b6000602082840312156134905761348f612c0b565b5b600082013567ffffffffffffffff8111156134ae576134ad612c10565b5b6134ba84828501612e50565b91505092915050565b600681106134d057600080fd5b50565b6000813590506134e2816134c3565b92915050565b600060c082840312156134fe576134fd612c15565b5b61350860c0612c8b565b90506000613518848285016134d3565b600083015250602061352c84828501612d49565b602083015250604061354084828501612d81565b604083015250606061355484828501612d81565b606083015250608061356884828501612d81565b60808301525060a082013567ffffffffffffffff81111561358c5761358b612ca6565b5b61359884828501612e22565b60a08301525092915050565b6000606082840312156135ba576135b9612c15565b5b6135c46060612c8b565b9050600082013567ffffffffffffffff8111156135e4576135e3612ca6565b5b6135f084828501612e22565b600083015250602061360484828501612d81565b602083015250604082013567ffffffffffffffff81111561362857613627612ca6565b5b61363484828501612e22565b60408301525092915050565b60008060006060848603121561365957613658612c0b565b5b600084013567ffffffffffffffff81111561367757613676612c10565b5b613683868287016134e8565b935050602084013567ffffffffffffffff8111156136a4576136a3612c10565b5b6136b0868287016135a4565b92505060406136c186828701612d13565b9150509250925092565b600067ffffffffffffffff8211156136e6576136e5612c2b565b5b602082029050602081019050919050565b600080fd5b600061370f61370a846136cb565b612c8b565b90508083825260208201905060208402830185811115613732576137316136f7565b5b835b8181101561377957803567ffffffffffffffff81111561375757613756612d96565b5b80860161376489826134e8565b85526020850194505050602081019050613734565b5050509392505050565b600082601f83011261379857613797612d96565b5b81356137a88482602086016136fc565b91505092915050565b6000602082840312156137c7576137c6612c0b565b5b600082013567ffffffffffffffff8111156137e5576137e4612c10565b5b6137f184828501613783565b91505092915050565b600067ffffffffffffffff82111561381557613814612c2b565b5b602082029050602081019050919050565b6000613839613834846137fa565b612c8b565b9050808382526020820190506020840283018581111561385c5761385b6136f7565b5b835b818110156138a357803567ffffffffffffffff81111561388157613880612d96565b5b80860161388e8982612e50565b8552602085019450505060208101905061385e565b5050509392505050565b600082601f8301126138c2576138c1612d96565b5b81356138d2848260208601613826565b91505092915050565b6000806000606084860312156138f4576138f3612c0b565b5b600084013567ffffffffffffffff81111561391257613911612c10565b5b61391e868287016138ad565b935050602084013567ffffffffffffffff81111561393f5761393e612c10565b5b61394b868287016135a4565b925050604061395c86828701612d13565b9150509250925092565b61396f81612cd0565b82525050565b600060208201905061398a6000830184613966565b92915050565b600080604083850312156139a7576139a6612c0b565b5b600083013567ffffffffffffffff8111156139c5576139c4612c10565b5b6139d185828601613783565b92505060206139e285828601612d13565b9150509250929050565b60008060408385031215613a0357613a02612c0b565b5b600083013567ffffffffffffffff811115613a2157613a20612c10565b5b613a2d85828601613783565b925050602083013567ffffffffffffffff811115613a4e57613a4d612c10565b5b613a5a858286016135a4565b9150509250929050565b600080600060608486031215613a7d57613a7c612c0b565b5b600084013567ffffffffffffffff811115613a9b57613a9a612c10565b5b613aa7868287016134e8565b935050602084013567ffffffffffffffff811115613ac857613ac7612c10565b5b613ad486828701612e50565b9250506040613ae586828701612d13565b9150509250925092565b60008060408385031215613b0657613b05612c0b565b5b600083013567ffffffffffffffff811115613b2457613b23612c10565b5b613b30858286016134e8565b925050602083013567ffffffffffffffff811115613b5157613b50612c10565b5b613b5d858286016135a4565b9150509250929050565b600080600060608486031215613b8057613b7f612c0b565b5b600084013567ffffffffffffffff811115613b9e57613b9d612c10565b5b613baa86828701612e50565b935050602084013567ffffffffffffffff811115613bcb57613bca612c10565b5b613bd7868287016135a4565b9250506040613be886828701612d13565b9150509250925092565b60008060408385031215613c0957613c08612c0b565b5b600083013567ffffffffffffffff811115613c2757613c26612c10565b5b613c33858286016134e8565b9250506020613c4485828601612d13565b9150509250929050565b600080600060608486031215613c6757613c66612c0b565b5b600084013567ffffffffffffffff811115613c8557613c84612c10565b5b613c9186828701613783565b935050602084013567ffffffffffffffff811115613cb257613cb1612c10565b5b613cbe868287016138ad565b9250506040613ccf86828701612d13565b9150509250925092565b600080600060608486031215613cf257613cf1612c0b565b5b600084013567ffffffffffffffff811115613d1057613d0f612c10565b5b613d1c86828701613783565b935050602084013567ffffffffffffffff811115613d3d57613d3c612c10565b5b613d49868287016138ad565b925050604084013567ffffffffffffffff811115613d6a57613d69612c10565b5b613d76868287016135a4565b9150509250925092565b60008060408385031215613d9757613d96612c0b565b5b600083013567ffffffffffffffff811115613db557613db4612c10565b5b613dc185828601613783565b925050602083013567ffffffffffffffff811115613de257613de1612c10565b5b613dee858286016138ad565b9150509250929050565b600060208284031215613e0e57613e0d612c0b565b5b600082013567ffffffffffffffff811115613e2c57613e2b612c10565b5b613e38848285016138ad565b91505092915050565b60008060408385031215613e5857613e57612c0b565b5b600083013567ffffffffffffffff811115613e7657613e75612c10565b5b613e82858286016138ad565b925050602083013567ffffffffffffffff811115613ea357613ea2612c10565b5b613eaf858286016135a4565b9150509250929050565b60008060408385031215613ed057613ecf612c0b565b5b600083013567ffffffffffffffff811115613eee57613eed612c10565b5b613efa85828601612e50565b925050602083013567ffffffffffffffff811115613f1b57613f1a612c10565b5b613f27858286016135a4565b9150509250929050565b600060208284031215613f4757613f46612c0b565b5b600082013567ffffffffffffffff811115613f6557613f64612c10565b5b613f71848285016134e8565b91505092915050565b600080600060608486031215613f9357613f92612c0b565b5b600084013567ffffffffffffffff811115613fb157613fb0612c10565b5b613fbd86828701613783565b935050602084013567ffffffffffffffff811115613fde57613fdd612c10565b5b613fea868287016135a4565b9250506040613ffb86828701612d13565b9150509250925092565b6000806040838503121561401c5761401b612c0b565b5b600083013567ffffffffffffffff81111561403a57614039612c10565b5b614046858286016134e8565b925050602083013567ffffffffffffffff81111561406757614066612c10565b5b61407385828601612e50565b9150509250929050565b6000806000806080858703121561409757614096612c0b565b5b600085013567ffffffffffffffff8111156140b5576140b4612c10565b5b6140c187828801613783565b945050602085013567ffffffffffffffff8111156140e2576140e1612c10565b5b6140ee878288016138ad565b935050604085013567ffffffffffffffff81111561410f5761410e612c10565b5b61411b878288016135a4565b925050606061412c87828801612d13565b91505092959194509250565b6000806000806080858703121561415257614151612c0b565b5b600085013567ffffffffffffffff8111156141705761416f612c10565b5b61417c878288016134e8565b945050602085013567ffffffffffffffff81111561419d5761419c612c10565b5b6141a987828801612e50565b935050604085013567ffffffffffffffff8111156141ca576141c9612c10565b5b6141d6878288016135a4565b92505060606141e787828801612d13565b91505092959194509250565b6000806040838503121561420a57614209612c0b565b5b600083013567ffffffffffffffff81111561422857614227612c10565b5b614234858286016138ad565b925050602061424585828601612d13565b9150509250929050565b60008060006060848603121561426857614267612c0b565b5b600084013567ffffffffffffffff81111561428657614285612c10565b5b614292868287016134e8565b935050602084013567ffffffffffffffff8111156142b3576142b2612c10565b5b6142bf86828701612e50565b925050604084013567ffffffffffffffff8111156142e0576142df612c10565b5b6142ec868287016135a4565b9150509250925092565b7f4e487b7100000000000000000000000000000000000000000000000000000000600052603260045260246000fd5b7f4e487b7100000000000000000000000000000000000000000000000000000000600052602260045260246000fd5b6000600282049050600182168061436c57607f821691505b60208210810361437f5761437e614325565b5b5091905056fea2646970667358221220e8006a5326b5645b970d091e618b5f8c2f45f399561709d905efc64605f411b764736f6c63430008120033","opcodes":"PUSH1 0x80 PUSH1 0x40 MSTORE PUSH1 0x40 MLOAD DUP1 PUSH1 0x60 ADD PUSH1 0x40 MSTORE DUP1 PUSH1 0x40 MLOAD DUP1 PUSH1 0x40 ADD PUSH1 0x40 MSTORE DUP1 PUSH1 0x18 DUP2 MSTORE PUSH1 0x20 ADD PUSH32 0x4D4553534147455F53454C45435445445F42595F555345520000000000000000 DUP2 MSTORE POP DUP2 MSTORE PUSH1 0x20 ADD PUSH1 0x0 ISZERO ISZERO DUP2 MSTORE PUSH1 0x20 ADD PUSH1 0x40 MLOAD DUP1 PUSH1 0x20 ADD PUSH1 0x40 MSTORE DUP1 PUSH1 0x0 DUP2 MSTORE POP DUP2 MSTORE POP PUSH1 0x0 DUP1 DUP3 ADD MLOAD DUP2 PUSH1 0x0 ADD SWAP1 DUP2 PUSH3 0x7E SWAP2 SWAP1 PUSH3 0x347 JUMP JUMPDEST POP PUSH1 0x20 DUP3 ADD MLOAD DUP2 PUSH1 0x1 ADD PUSH1 0x0 PUSH2 0x100 EXP DUP2 SLOAD DUP2 PUSH1 0xFF MUL NOT AND SWAP1 DUP4 ISZERO ISZERO MUL OR SWAP1 SSTORE POP PUSH1 0x40 DUP3 ADD MLOAD DUP2 PUSH1 0x2 ADD SWAP1 DUP2 PUSH3 0xB6 SWAP2 SWAP1 PUSH3 0x347 JUMP JUMPDEST POP POP POP CALLVALUE DUP1 ISZERO PUSH3 0xC6 JUMPI PUSH1 0x0 DUP1 REVERT JUMPDEST POP PUSH3 0x42E JUMP JUMPDEST PUSH1 0x0 DUP2 MLOAD SWAP1 POP SWAP2 SWAP1 POP JUMP JUMPDEST PUSH32 0x4E487B7100000000000000000000000000000000000000000000000000000000 PUSH1 0x0 MSTORE PUSH1 0x41 PUSH1 0x4 MSTORE PUSH1 0x24 PUSH1 0x0 REVERT JUMPDEST PUSH32 0x4E487B7100000000000000000000000000000000000000000000000000000000 PUSH1 0x0 MSTORE PUSH1 0x22 PUSH1 0x4 MSTORE PUSH1 0x24 PUSH1 0x0 REVERT JUMPDEST PUSH1 0x0 PUSH1 0x2 DUP3 DIV SWAP1 POP PUSH1 0x1 DUP3 AND DUP1 PUSH3 0x14F JUMPI PUSH1 0x7F DUP3 AND SWAP2 POP JUMPDEST PUSH1 0x20 DUP3 LT DUP2 SUB PUSH3 0x165 JUMPI PUSH3 0x164 PUSH3 0x107 JUMP JUMPDEST JUMPDEST POP SWAP2 SWAP1 POP JUMP JUMPDEST PUSH1 0x0 DUP2 SWAP1 POP DUP2 PUSH1 0x0 MSTORE PUSH1 0x20 PUSH1 0x0 KECCAK256 SWAP1 POP SWAP2 SWAP1 POP JUMP JUMPDEST PUSH1 0x0 PUSH1 0x20 PUSH1 0x1F DUP4 ADD DIV SWAP1 POP SWAP2 SWAP1 POP JUMP JUMPDEST PUSH1 0x0 DUP3 DUP3 SHL SWAP1 POP SWAP3 SWAP2 POP POP JUMP JUMPDEST PUSH1 0x0 PUSH1 0x8 DUP4 MUL PUSH3 0x1CF PUSH32 0xFFFFFFFFFFFFFFFFFFFFFFFFFFFFFFFFFFFFFFFFFFFFFFFFFFFFFFFFFFFFFFFF DUP3 PUSH3 0x190 JUMP JUMPDEST PUSH3 0x1DB DUP7 DUP4 PUSH3 0x190 JUMP JUMPDEST SWAP6 POP DUP1 NOT DUP5 AND SWAP4 POP DUP1 DUP7 AND DUP5 OR SWAP3 POP POP POP SWAP4 SWAP3 POP POP POP JUMP JUMPDEST PUSH1 0x0 DUP2 SWAP1 POP SWAP2 SWAP1 POP JUMP JUMPDEST PUSH1 0x0 DUP2 SWAP1 POP SWAP2 SWAP1 POP JUMP JUMPDEST PUSH1 0x0 PUSH3 0x228 PUSH3 0x222 PUSH3 0x21C DUP5 PUSH3 0x1F3 JUMP JUMPDEST PUSH3 0x1FD JUMP JUMPDEST PUSH3 0x1F3 JUMP JUMPDEST SWAP1 POP SWAP2 SWAP1 POP JUMP JUMPDEST PUSH1 0x0 DUP2 SWAP1 POP SWAP2 SWAP1 POP JUMP JUMPDEST PUSH3 0x244 DUP4 PUSH3 0x207 JUMP JUMPDEST PUSH3 0x25C PUSH3 0x253 DUP3 PUSH3 0x22F JUMP JUMPDEST DUP5 DUP5 SLOAD PUSH3 0x19D JUMP JUMPDEST DUP3 SSTORE POP POP POP POP JUMP JUMPDEST PUSH1 0x0 SWAP1 JUMP JUMPDEST PUSH3 0x273 PUSH3 0x264 JUMP JUMPDEST PUSH3 0x280 DUP2 DUP5 DUP5 PUSH3 0x239 JUMP JUMPDEST POP POP POP JUMP JUMPDEST JUMPDEST DUP2 DUP2 LT ISZERO PUSH3 0x2A8 JUMPI PUSH3 0x29C PUSH1 0x0 DUP3 PUSH3 0x269 JUMP JUMPDEST PUSH1 0x1 DUP2 ADD SWAP1 POP PUSH3 0x286 JUMP JUMPDEST POP POP JUMP JUMPDEST PUSH1 0x1F DUP3 GT ISZERO PUSH3 0x2F7 JUMPI PUSH3 0x2C1 DUP2 PUSH3 0x16B JUMP JUMPDEST PUSH3 0x2CC DUP5 PUSH3 0x180 JUMP JUMPDEST DUP2 ADD PUSH1 0x20 DUP6 LT ISZERO PUSH3 0x2DC JUMPI DUP2 SWAP1 POP JUMPDEST PUSH3 0x2F4 PUSH3 0x2EB DUP6 PUSH3 0x180 JUMP JUMPDEST DUP4 ADD DUP3 PUSH3 0x285 JUMP JUMPDEST POP POP JUMPDEST POP POP POP JUMP JUMPDEST PUSH1 0x0 DUP3 DUP3 SHR SWAP1 POP SWAP3 SWAP2 POP POP JUMP JUMPDEST PUSH1 0x0 PUSH3 0x31C PUSH1 0x0 NOT DUP5 PUSH1 0x8 MUL PUSH3 0x2FC JUMP JUMPDEST NOT DUP1 DUP4 AND SWAP2 POP POP SWAP3 SWAP2 POP POP JUMP JUMPDEST PUSH1 0x0 PUSH3 0x337 DUP4 DUP4 PUSH3 0x309 JUMP JUMPDEST SWAP2 POP DUP3 PUSH1 0x2 MUL DUP3 OR SWAP1 POP SWAP3 SWAP2 POP POP JUMP JUMPDEST PUSH3 0x352 DUP3 PUSH3 0xCD JUMP JUMPDEST PUSH8 0xFFFFFFFFFFFFFFFF DUP2 GT ISZERO PUSH3 0x36E JUMPI PUSH3 0x36D PUSH3 0xD8 JUMP JUMPDEST JUMPDEST PUSH3 0x37A DUP3 SLOAD PUSH3 0x136 JUMP JUMPDEST PUSH3 0x387 DUP3 DUP3 DUP6 PUSH3 0x2AC JUMP JUMPDEST PUSH1 0x0 PUSH1 0x20 SWAP1 POP PUSH1 0x1F DUP4 GT PUSH1 0x1 DUP2 EQ PUSH3 0x3BF JUMPI PUSH1 0x0 DUP5 ISZERO PUSH3 0x3AA JUMPI DUP3 DUP8 ADD MLOAD SWAP1 POP JUMPDEST PUSH3 0x3B6 DUP6 DUP3 PUSH3 0x329 JUMP JUMPDEST DUP7 SSTORE POP PUSH3 0x426 JUMP JUMPDEST PUSH1 0x1F NOT DUP5 AND PUSH3 0x3CF DUP7 PUSH3 0x16B JUMP JUMPDEST PUSH1 0x0 JUMPDEST DUP3 DUP2 LT ISZERO PUSH3 0x3F9 JUMPI DUP5 DUP10 ADD MLOAD DUP3 SSTORE PUSH1 0x1 DUP3 ADD SWAP2 POP PUSH1 0x20 DUP6 ADD SWAP5 POP PUSH1 0x20 DUP2 ADD SWAP1 POP PUSH3 0x3D2 JUMP JUMPDEST DUP7 DUP4 LT ISZERO PUSH3 0x419 JUMPI DUP5 DUP10 ADD MLOAD PUSH3 0x415 PUSH1 0x1F DUP10 AND DUP3 PUSH3 0x309 JUMP JUMPDEST DUP4 SSTORE POP JUMPDEST PUSH1 0x1 PUSH1 0x2 DUP9 MUL ADD DUP9 SSTORE POP POP POP JUMPDEST POP POP POP POP POP POP JUMP JUMPDEST PUSH2 0x43BB DUP1 PUSH3 0x43E PUSH1 0x0 CODECOPY PUSH1 0x0 RETURN INVALID PUSH1 0x80 PUSH1 0x40 MSTORE CALLVALUE DUP1 ISZERO PUSH2 0x10 JUMPI PUSH1 0x0 DUP1 REVERT JUMPDEST POP PUSH1 0x4 CALLDATASIZE LT PUSH2 0x173 JUMPI PUSH1 0x0 CALLDATALOAD PUSH1 0xE0 SHR DUP1 PUSH4 0x9266F47C GT PUSH2 0xDE JUMPI DUP1 PUSH4 0xD7CCD8DA GT PUSH2 0x97 JUMPI DUP1 PUSH4 0xE48CD721 GT PUSH2 0x71 JUMPI DUP1 PUSH4 0xE48CD721 EQ PUSH2 0x556 JUMPI DUP1 PUSH4 0xE93F38B8 EQ PUSH2 0x586 JUMPI DUP1 PUSH4 0xF1C1E209 EQ PUSH2 0x5B6 JUMPI DUP1 PUSH4 0xF2D3F1F6 EQ PUSH2 0x5E6 JUMPI PUSH2 0x173 JUMP JUMPDEST DUP1 PUSH4 0xD7CCD8DA EQ PUSH2 0x4C6 JUMPI DUP1 PUSH4 0xDD108267 EQ PUSH2 0x4F6 JUMPI DUP1 PUSH4 0xDDE11C7C EQ PUSH2 0x526 JUMPI PUSH2 0x173 JUMP JUMPDEST DUP1 PUSH4 0x9266F47C EQ PUSH2 0x3A6 JUMPI DUP1 PUSH4 0x99240336 EQ PUSH2 0x3D6 JUMPI DUP1 PUSH4 0xA156E2D8 EQ PUSH2 0x406 JUMPI DUP1 PUSH4 0xB33CD323 EQ PUSH2 0x436 JUMPI DUP1 PUSH4 0xB5AE2587 EQ PUSH2 0x466 JUMPI DUP1 PUSH4 0xC9F97F53 EQ PUSH2 0x496 JUMPI PUSH2 0x173 JUMP JUMPDEST DUP1 PUSH4 0x27B5B7C3 GT PUSH2 0x130 JUMPI DUP1 PUSH4 0x27B5B7C3 EQ PUSH2 0x286 JUMPI DUP1 PUSH4 0x2CEB1E8D EQ PUSH2 0x2B6 JUMPI DUP1 PUSH4 0x31560E75 EQ PUSH2 0x2E6 JUMPI DUP1 PUSH4 0x48FD24CC EQ PUSH2 0x316 JUMPI DUP1 PUSH4 0x54852577 EQ PUSH2 0x346 JUMPI DUP1 PUSH4 0x91BA07F3 EQ PUSH2 0x376 JUMPI PUSH2 0x173 JUMP JUMPDEST DUP1 PUSH4 0x80B53F8 EQ PUSH2 0x178 JUMPI DUP1 PUSH4 0xE58BE05 EQ PUSH2 0x1A8 JUMPI DUP1 PUSH4 0x10C5D31B EQ PUSH2 0x1D8 JUMPI DUP1 PUSH4 0x11F83E20 EQ PUSH2 0x208 JUMPI DUP1 PUSH4 0x14DDAFA3 EQ PUSH2 0x238 JUMPI DUP1 PUSH4 0x1B399C99 EQ PUSH2 0x268 JUMPI JUMPDEST PUSH1 0x0 DUP1 REVERT JUMPDEST PUSH2 0x192 PUSH1 0x4 DUP1 CALLDATASIZE SUB DUP2 ADD SWAP1 PUSH2 0x18D SWAP2 SWAP1 PUSH2 0x2F20 JUMP JUMPDEST PUSH2 0x616 JUMP JUMPDEST PUSH1 0x40 MLOAD PUSH2 0x19F SWAP2 SWAP1 PUSH2 0x3458 JUMP JUMPDEST PUSH1 0x40 MLOAD DUP1 SWAP2 SUB SWAP1 RETURN JUMPDEST PUSH2 0x1C2 PUSH1 0x4 DUP1 CALLDATASIZE SUB DUP2 ADD SWAP1 PUSH2 0x1BD SWAP2 SWAP1 PUSH2 0x347A JUMP JUMPDEST PUSH2 0x878 JUMP JUMPDEST PUSH1 0x40 MLOAD PUSH2 0x1CF SWAP2 SWAP1 PUSH2 0x3458 JUMP JUMPDEST PUSH1 0x40 MLOAD DUP1 SWAP2 SUB SWAP1 RETURN JUMPDEST PUSH2 0x1F2 PUSH1 0x4 DUP1 CALLDATASIZE SUB DUP2 ADD SWAP1 PUSH2 0x1ED SWAP2 SWAP1 PUSH2 0x3640 JUMP JUMPDEST PUSH2 0xAF9 JUMP JUMPDEST PUSH1 0x40 MLOAD PUSH2 0x1FF SWAP2 SWAP1 PUSH2 0x3458 JUMP JUMPDEST PUSH1 0x40 MLOAD DUP1 SWAP2 SUB SWAP1 RETURN JUMPDEST PUSH2 0x222 PUSH1 0x4 DUP1 CALLDATASIZE SUB DUP2 ADD SWAP1 PUSH2 0x21D SWAP2 SWAP1 PUSH2 0x37B1 JUMP JUMPDEST PUSH2 0xC11 JUMP JUMPDEST PUSH1 0x40 MLOAD PUSH2 0x22F SWAP2 SWAP1 PUSH2 0x3458 JUMP JUMPDEST PUSH1 0x40 MLOAD DUP1 SWAP2 SUB SWAP1 RETURN JUMPDEST PUSH2 0x252 PUSH1 0x4 DUP1 CALLDATASIZE SUB DUP2 ADD SWAP1 PUSH2 0x24D SWAP2 SWAP1 PUSH2 0x38DB JUMP JUMPDEST PUSH2 0xE18 JUMP JUMPDEST PUSH1 0x40 MLOAD PUSH2 0x25F SWAP2 SWAP1 PUSH2 0x3458 JUMP JUMPDEST PUSH1 0x40 MLOAD DUP1 SWAP2 SUB SWAP1 RETURN JUMPDEST PUSH2 0x270 PUSH2 0xEB6 JUMP JUMPDEST PUSH1 0x40 MLOAD PUSH2 0x27D SWAP2 SWAP1 PUSH2 0x3975 JUMP JUMPDEST PUSH1 0x40 MLOAD DUP1 SWAP2 SUB SWAP1 RETURN JUMPDEST PUSH2 0x2A0 PUSH1 0x4 DUP1 CALLDATASIZE SUB DUP2 ADD SWAP1 PUSH2 0x29B SWAP2 SWAP1 PUSH2 0x3990 JUMP JUMPDEST PUSH2 0xEDA JUMP JUMPDEST PUSH1 0x40 MLOAD PUSH2 0x2AD SWAP2 SWAP1 PUSH2 0x3458 JUMP JUMPDEST PUSH1 0x40 MLOAD DUP1 SWAP2 SUB SWAP1 RETURN JUMPDEST PUSH2 0x2D0 PUSH1 0x4 DUP1 CALLDATASIZE SUB DUP2 ADD SWAP1 PUSH2 0x2CB SWAP2 SWAP1 PUSH2 0x39EC JUMP JUMPDEST PUSH2 0x10C2 JUMP JUMPDEST PUSH1 0x40 MLOAD PUSH2 0x2DD SWAP2 SWAP1 PUSH2 0x3458 JUMP JUMPDEST PUSH1 0x40 MLOAD DUP1 SWAP2 SUB SWAP1 RETURN JUMPDEST PUSH2 0x300 PUSH1 0x4 DUP1 CALLDATASIZE SUB DUP2 ADD SWAP1 PUSH2 0x2FB SWAP2 SWAP1 PUSH2 0x3A64 JUMP JUMPDEST PUSH2 0x117F JUMP JUMPDEST PUSH1 0x40 MLOAD PUSH2 0x30D SWAP2 SWAP1 PUSH2 0x3458 JUMP JUMPDEST PUSH1 0x40 MLOAD DUP1 SWAP2 SUB SWAP1 RETURN JUMPDEST PUSH2 0x330 PUSH1 0x4 DUP1 CALLDATASIZE SUB DUP2 ADD SWAP1 PUSH2 0x32B SWAP2 SWAP1 PUSH2 0x3AEF JUMP JUMPDEST PUSH2 0x1403 JUMP JUMPDEST PUSH1 0x40 MLOAD PUSH2 0x33D SWAP2 SWAP1 PUSH2 0x3458 JUMP JUMPDEST PUSH1 0x40 MLOAD DUP1 SWAP2 SUB SWAP1 RETURN JUMPDEST PUSH2 0x360 PUSH1 0x4 DUP1 CALLDATASIZE SUB DUP2 ADD SWAP1 PUSH2 0x35B SWAP2 SWAP1 PUSH2 0x3B67 JUMP JUMPDEST PUSH2 0x153A JUMP JUMPDEST PUSH1 0x40 MLOAD PUSH2 0x36D SWAP2 SWAP1 PUSH2 0x3458 JUMP JUMPDEST PUSH1 0x40 MLOAD DUP1 SWAP2 SUB SWAP1 RETURN JUMPDEST PUSH2 0x390 PUSH1 0x4 DUP1 CALLDATASIZE SUB DUP2 ADD SWAP1 PUSH2 0x38B SWAP2 SWAP1 PUSH2 0x3BF2 JUMP JUMPDEST PUSH2 0x1652 JUMP JUMPDEST PUSH1 0x40 MLOAD PUSH2 0x39D SWAP2 SWAP1 PUSH2 0x3458 JUMP JUMPDEST PUSH1 0x40 MLOAD DUP1 SWAP2 SUB SWAP1 RETURN JUMPDEST PUSH2 0x3C0 PUSH1 0x4 DUP1 CALLDATASIZE SUB DUP2 ADD SWAP1 PUSH2 0x3BB SWAP2 SWAP1 PUSH2 0x3C4E JUMP JUMPDEST PUSH2 0x18B4 JUMP JUMPDEST PUSH1 0x40 MLOAD PUSH2 0x3CD SWAP2 SWAP1 PUSH2 0x3458 JUMP JUMPDEST PUSH1 0x40 MLOAD DUP1 SWAP2 SUB SWAP1 RETURN JUMPDEST PUSH2 0x3F0 PUSH1 0x4 DUP1 CALLDATASIZE SUB DUP2 ADD SWAP1 PUSH2 0x3EB SWAP2 SWAP1 PUSH2 0x3CD9 JUMP JUMPDEST PUSH2 0x1A44 JUMP JUMPDEST PUSH1 0x40 MLOAD PUSH2 0x3FD SWAP2 SWAP1 PUSH2 0x3458 JUMP JUMPDEST PUSH1 0x40 MLOAD DUP1 SWAP2 SUB SWAP1 RETURN JUMPDEST PUSH2 0x420 PUSH1 0x4 DUP1 CALLDATASIZE SUB DUP2 ADD SWAP1 PUSH2 0x41B SWAP2 SWAP1 PUSH2 0x3D80 JUMP JUMPDEST PUSH2 0x1AA9 JUMP JUMPDEST PUSH1 0x40 MLOAD PUSH2 0x42D SWAP2 SWAP1 PUSH2 0x3458 JUMP JUMPDEST PUSH1 0x40 MLOAD DUP1 SWAP2 SUB SWAP1 RETURN JUMPDEST PUSH2 0x450 PUSH1 0x4 DUP1 CALLDATASIZE SUB DUP2 ADD SWAP1 PUSH2 0x44B SWAP2 SWAP1 PUSH2 0x3DF8 JUMP JUMPDEST PUSH2 0x1C58 JUMP JUMPDEST PUSH1 0x40 MLOAD PUSH2 0x45D SWAP2 SWAP1 PUSH2 0x3458 JUMP JUMPDEST PUSH1 0x40 MLOAD DUP1 SWAP2 SUB SWAP1 RETURN JUMPDEST PUSH2 0x480 PUSH1 0x4 DUP1 CALLDATASIZE SUB DUP2 ADD SWAP1 PUSH2 0x47B SWAP2 SWAP1 PUSH2 0x3E41 JUMP JUMPDEST PUSH2 0x1E5F JUMP JUMPDEST PUSH1 0x40 MLOAD PUSH2 0x48D SWAP2 SWAP1 PUSH2 0x3458 JUMP JUMPDEST PUSH1 0x40 MLOAD DUP1 SWAP2 SUB SWAP1 RETURN JUMPDEST PUSH2 0x4B0 PUSH1 0x4 DUP1 CALLDATASIZE SUB DUP2 ADD SWAP1 PUSH2 0x4AB SWAP2 SWAP1 PUSH2 0x3EB9 JUMP JUMPDEST PUSH2 0x1F1C JUMP JUMPDEST PUSH1 0x40 MLOAD PUSH2 0x4BD SWAP2 SWAP1 PUSH2 0x3458 JUMP JUMPDEST PUSH1 0x40 MLOAD DUP1 SWAP2 SUB SWAP1 RETURN JUMPDEST PUSH2 0x4E0 PUSH1 0x4 DUP1 CALLDATASIZE SUB DUP2 ADD SWAP1 PUSH2 0x4DB SWAP2 SWAP1 PUSH2 0x3F31 JUMP JUMPDEST PUSH2 0x2053 JUMP JUMPDEST PUSH1 0x40 MLOAD PUSH2 0x4ED SWAP2 SWAP1 PUSH2 0x3458 JUMP JUMPDEST PUSH1 0x40 MLOAD DUP1 SWAP2 SUB SWAP1 RETURN JUMPDEST PUSH2 0x510 PUSH1 0x4 DUP1 CALLDATASIZE SUB DUP2 ADD SWAP1 PUSH2 0x50B SWAP2 SWAP1 PUSH2 0x3F7A JUMP JUMPDEST PUSH2 0x22D4 JUMP JUMPDEST PUSH1 0x40 MLOAD PUSH2 0x51D SWAP2 SWAP1 PUSH2 0x3458 JUMP JUMPDEST PUSH1 0x40 MLOAD DUP1 SWAP2 SUB SWAP1 RETURN JUMPDEST PUSH2 0x540 PUSH1 0x4 DUP1 CALLDATASIZE SUB DUP2 ADD SWAP1 PUSH2 0x53B SWAP2 SWAP1 PUSH2 0x4005 JUMP JUMPDEST PUSH2 0x2372 JUMP JUMPDEST PUSH1 0x40 MLOAD PUSH2 0x54D SWAP2 SWAP1 PUSH2 0x3458 JUMP JUMPDEST PUSH1 0x40 MLOAD DUP1 SWAP2 SUB SWAP1 RETURN JUMPDEST PUSH2 0x570 PUSH1 0x4 DUP1 CALLDATASIZE SUB DUP2 ADD SWAP1 PUSH2 0x56B SWAP2 SWAP1 PUSH2 0x407D JUMP JUMPDEST PUSH2 0x2615 JUMP JUMPDEST PUSH1 0x40 MLOAD PUSH2 0x57D SWAP2 SWAP1 PUSH2 0x3458 JUMP JUMPDEST PUSH1 0x40 MLOAD DUP1 SWAP2 SUB SWAP1 RETURN JUMPDEST PUSH2 0x5A0 PUSH1 0x4 DUP1 CALLDATASIZE SUB DUP2 ADD SWAP1 PUSH2 0x59B SWAP2 SWAP1 PUSH2 0x4138 JUMP JUMPDEST PUSH2 0x265B JUMP JUMPDEST PUSH1 0x40 MLOAD PUSH2 0x5AD SWAP2 SWAP1 PUSH2 0x3458 JUMP JUMPDEST PUSH1 0x40 MLOAD DUP1 SWAP2 SUB SWAP1 RETURN JUMPDEST PUSH2 0x5D0 PUSH1 0x4 DUP1 CALLDATASIZE SUB DUP2 ADD SWAP1 PUSH2 0x5CB SWAP2 SWAP1 PUSH2 0x41F3 JUMP JUMPDEST PUSH2 0x2795 JUMP JUMPDEST PUSH1 0x40 MLOAD PUSH2 0x5DD SWAP2 SWAP1 PUSH2 0x3458 JUMP JUMPDEST PUSH1 0x40 MLOAD DUP1 SWAP2 SUB SWAP1 RETURN JUMPDEST PUSH2 0x600 PUSH1 0x4 DUP1 CALLDATASIZE SUB DUP2 ADD SWAP1 PUSH2 0x5FB SWAP2 SWAP1 PUSH2 0x424F JUMP JUMPDEST PUSH2 0x297D JUMP JUMPDEST PUSH1 0x40 MLOAD PUSH2 0x60D SWAP2 SWAP1 PUSH2 0x3458 JUMP JUMPDEST PUSH1 0x40 MLOAD DUP1 SWAP2 SUB SWAP1 RETURN JUMPDEST PUSH2 0x61E PUSH2 0x2AD6 JUMP JUMPDEST PUSH1 0x0 DUP1 PUSH8 0xFFFFFFFFFFFFFFFF DUP2 GT ISZERO PUSH2 0x63A JUMPI PUSH2 0x639 PUSH2 0x2C2B JUMP JUMPDEST JUMPDEST PUSH1 0x40 MLOAD SWAP1 DUP1 DUP3 MSTORE DUP1 PUSH1 0x20 MUL PUSH1 0x20 ADD DUP3 ADD PUSH1 0x40 MSTORE DUP1 ISZERO PUSH2 0x673 JUMPI DUP2 PUSH1 0x20 ADD JUMPDEST PUSH2 0x660 PUSH2 0x2B17 JUMP JUMPDEST DUP2 MSTORE PUSH1 0x20 ADD SWAP1 PUSH1 0x1 SWAP1 SUB SWAP1 DUP2 PUSH2 0x658 JUMPI SWAP1 POP JUMPDEST POP SWAP1 POP PUSH1 0x0 PUSH1 0x1 PUSH8 0xFFFFFFFFFFFFFFFF DUP2 GT ISZERO PUSH2 0x693 JUMPI PUSH2 0x692 PUSH2 0x2C2B JUMP JUMPDEST JUMPDEST PUSH1 0x40 MLOAD SWAP1 DUP1 DUP3 MSTORE DUP1 PUSH1 0x20 MUL PUSH1 0x20 ADD DUP3 ADD PUSH1 0x40 MSTORE DUP1 ISZERO PUSH2 0x6CC JUMPI DUP2 PUSH1 0x20 ADD JUMPDEST PUSH2 0x6B9 PUSH2 0x2B65 JUMP JUMPDEST DUP2 MSTORE PUSH1 0x20 ADD SWAP1 PUSH1 0x1 SWAP1 SUB SWAP1 DUP2 PUSH2 0x6B1 JUMPI SWAP1 POP JUMPDEST POP SWAP1 POP DUP5 DUP2 PUSH1 0x0 DUP2 MLOAD DUP2 LT PUSH2 0x6E4 JUMPI PUSH2 0x6E3 PUSH2 0x42F6 JUMP JUMPDEST JUMPDEST PUSH1 0x20 MUL PUSH1 0x20 ADD ADD DUP2 SWAP1 MSTORE POP PUSH1 0x40 MLOAD DUP1 PUSH1 0x80 ADD PUSH1 0x40 MSTORE DUP1 DUP6 PUSH16 0xFFFFFFFFFFFFFFFFFFFFFFFFFFFFFFFF NOT AND DUP2 MSTORE PUSH1 0x20 ADD DUP4 DUP2 MSTORE PUSH1 0x20 ADD DUP3 DUP2 MSTORE PUSH1 0x20 ADD PUSH1 0x0 PUSH1 0x40 MLOAD DUP1 PUSH1 0x60 ADD PUSH1 0x40 MSTORE SWAP1 DUP2 PUSH1 0x0 DUP3 ADD DUP1 SLOAD PUSH2 0x73C SWAP1 PUSH2 0x4354 JUMP JUMPDEST DUP1 PUSH1 0x1F ADD PUSH1 0x20 DUP1 SWAP2 DIV MUL PUSH1 0x20 ADD PUSH1 0x40 MLOAD SWAP1 DUP2 ADD PUSH1 0x40 MSTORE DUP1 SWAP3 SWAP2 SWAP1 DUP2 DUP2 MSTORE PUSH1 0x20 ADD DUP3 DUP1 SLOAD PUSH2 0x768 SWAP1 PUSH2 0x4354 JUMP JUMPDEST DUP1 ISZERO PUSH2 0x7B5 JUMPI DUP1 PUSH1 0x1F LT PUSH2 0x78A JUMPI PUSH2 0x100 DUP1 DUP4 SLOAD DIV MUL DUP4 MSTORE SWAP2 PUSH1 0x20 ADD SWAP2 PUSH2 0x7B5 JUMP JUMPDEST DUP3 ADD SWAP2 SWAP1 PUSH1 0x0 MSTORE PUSH1 0x20 PUSH1 0x0 KECCAK256 SWAP1 JUMPDEST DUP2 SLOAD DUP2 MSTORE SWAP1 PUSH1 0x1 ADD SWAP1 PUSH1 0x20 ADD DUP1 DUP4 GT PUSH2 0x798 JUMPI DUP3 SWAP1 SUB PUSH1 0x1F AND DUP3 ADD SWAP2 JUMPDEST POP POP POP POP POP DUP2 MSTORE PUSH1 0x20 ADD PUSH1 0x1 DUP3 ADD PUSH1 0x0 SWAP1 SLOAD SWAP1 PUSH2 0x100 EXP SWAP1 DIV PUSH1 0xFF AND ISZERO ISZERO ISZERO ISZERO DUP2 MSTORE PUSH1 0x20 ADD PUSH1 0x2 DUP3 ADD DUP1 SLOAD PUSH2 0x7E9 SWAP1 PUSH2 0x4354 JUMP JUMPDEST DUP1 PUSH1 0x1F ADD PUSH1 0x20 DUP1 SWAP2 DIV MUL PUSH1 0x20 ADD PUSH1 0x40 MLOAD SWAP1 DUP2 ADD PUSH1 0x40 MSTORE DUP1 SWAP3 SWAP2 SWAP1 DUP2 DUP2 MSTORE PUSH1 0x20 ADD DUP3 DUP1 SLOAD PUSH2 0x815 SWAP1 PUSH2 0x4354 JUMP JUMPDEST DUP1 ISZERO PUSH2 0x862 JUMPI DUP1 PUSH1 0x1F LT PUSH2 0x837 JUMPI PUSH2 0x100 DUP1 DUP4 SLOAD DIV MUL DUP4 MSTORE SWAP2 PUSH1 0x20 ADD SWAP2 PUSH2 0x862 JUMP JUMPDEST DUP3 ADD SWAP2 SWAP1 PUSH1 0x0 MSTORE PUSH1 0x20 PUSH1 0x0 KECCAK256 SWAP1 JUMPDEST DUP2 SLOAD DUP2 MSTORE SWAP1 PUSH1 0x1 ADD SWAP1 PUSH1 0x20 ADD DUP1 DUP4 GT PUSH2 0x845 JUMPI DUP3 SWAP1 SUB PUSH1 0x1F AND DUP3 ADD SWAP2 JUMPDEST POP POP POP POP POP DUP2 MSTORE POP POP DUP2 MSTORE POP SWAP3 POP POP POP SWAP3 SWAP2 POP POP JUMP JUMPDEST PUSH2 0x880 PUSH2 0x2AD6 JUMP JUMPDEST PUSH1 0x0 DUP1 PUSH8 0xFFFFFFFFFFFFFFFF DUP2 GT ISZERO PUSH2 0x89C JUMPI PUSH2 0x89B PUSH2 0x2C2B JUMP JUMPDEST JUMPDEST PUSH1 0x40 MLOAD SWAP1 DUP1 DUP3 MSTORE DUP1 PUSH1 0x20 MUL PUSH1 0x20 ADD DUP3 ADD PUSH1 0x40 MSTORE DUP1 ISZERO PUSH2 0x8D5 JUMPI DUP2 PUSH1 0x20 ADD JUMPDEST PUSH2 0x8C2 PUSH2 0x2B17 JUMP JUMPDEST DUP2 MSTORE PUSH1 0x20 ADD SWAP1 PUSH1 0x1 SWAP1 SUB SWAP1 DUP2 PUSH2 0x8BA JUMPI SWAP1 POP JUMPDEST POP SWAP1 POP PUSH1 0x0 PUSH1 0x1 PUSH8 0xFFFFFFFFFFFFFFFF DUP2 GT ISZERO PUSH2 0x8F5 JUMPI PUSH2 0x8F4 PUSH2 0x2C2B JUMP JUMPDEST JUMPDEST PUSH1 0x40 MLOAD SWAP1 DUP1 DUP3 MSTORE DUP1 PUSH1 0x20 MUL PUSH1 0x20 ADD DUP3 ADD PUSH1 0x40 MSTORE DUP1 ISZERO PUSH2 0x92E JUMPI DUP2 PUSH1 0x20 ADD JUMPDEST PUSH2 0x91B PUSH2 0x2B65 JUMP JUMPDEST DUP2 MSTORE PUSH1 0x20 ADD SWAP1 PUSH1 0x1 SWAP1 SUB SWAP1 DUP2 PUSH2 0x913 JUMPI SWAP1 POP JUMPDEST POP SWAP1 POP DUP4 DUP2 PUSH1 0x0 DUP2 MLOAD DUP2 LT PUSH2 0x946 JUMPI PUSH2 0x945 PUSH2 0x42F6 JUMP JUMPDEST JUMPDEST PUSH1 0x20 MUL PUSH1 0x20 ADD ADD DUP2 SWAP1 MSTORE POP PUSH1 0x40 MLOAD DUP1 PUSH1 0x80 ADD PUSH1 0x40 MSTORE DUP1 PUSH32 0xB8E2054F8A912367E38A22CE773328FF8AABF8082C4120BAD9EF085E1DBF29A7 PUSH16 0xFFFFFFFFFFFFFFFFFFFFFFFFFFFFFFFF NOT AND DUP2 MSTORE PUSH1 0x20 ADD DUP4 DUP2 MSTORE PUSH1 0x20 ADD DUP3 DUP2 MSTORE PUSH1 0x20 ADD PUSH1 0x0 PUSH1 0x40 MLOAD DUP1 PUSH1 0x60 ADD PUSH1 0x40 MSTORE SWAP1 DUP2 PUSH1 0x0 DUP3 ADD DUP1 SLOAD PUSH2 0x9BE SWAP1 PUSH2 0x4354 JUMP JUMPDEST DUP1 PUSH1 0x1F ADD PUSH1 0x20 DUP1 SWAP2 DIV MUL PUSH1 0x20 ADD PUSH1 0x40 MLOAD SWAP1 DUP2 ADD PUSH1 0x40 MSTORE DUP1 SWAP3 SWAP2 SWAP1 DUP2 DUP2 MSTORE PUSH1 0x20 ADD DUP3 DUP1 SLOAD PUSH2 0x9EA SWAP1 PUSH2 0x4354 JUMP JUMPDEST DUP1 ISZERO PUSH2 0xA37 JUMPI DUP1 PUSH1 0x1F LT PUSH2 0xA0C JUMPI PUSH2 0x100 DUP1 DUP4 SLOAD DIV MUL DUP4 MSTORE SWAP2 PUSH1 0x20 ADD SWAP2 PUSH2 0xA37 JUMP JUMPDEST DUP3 ADD SWAP2 SWAP1 PUSH1 0x0 MSTORE PUSH1 0x20 PUSH1 0x0 KECCAK256 SWAP1 JUMPDEST DUP2 SLOAD DUP2 MSTORE SWAP1 PUSH1 0x1 ADD SWAP1 PUSH1 0x20 ADD DUP1 DUP4 GT PUSH2 0xA1A JUMPI DUP3 SWAP1 SUB PUSH1 0x1F AND DUP3 ADD SWAP2 JUMPDEST POP POP POP POP POP DUP2 MSTORE PUSH1 0x20 ADD PUSH1 0x1 DUP3 ADD PUSH1 0x0 SWAP1 SLOAD SWAP1 PUSH2 0x100 EXP SWAP1 DIV PUSH1 0xFF AND ISZERO ISZERO ISZERO ISZERO DUP2 MSTORE PUSH1 0x20 ADD PUSH1 0x2 DUP3 ADD DUP1 SLOAD PUSH2 0xA6B SWAP1 PUSH2 0x4354 JUMP JUMPDEST DUP1 PUSH1 0x1F ADD PUSH1 0x20 DUP1 SWAP2 DIV MUL PUSH1 0x20 ADD PUSH1 0x40 MLOAD SWAP1 DUP2 ADD PUSH1 0x40 MSTORE DUP1 SWAP3 SWAP2 SWAP1 DUP2 DUP2 MSTORE PUSH1 0x20 ADD DUP3 DUP1 SLOAD PUSH2 0xA97 SWAP1 PUSH2 0x4354 JUMP JUMPDEST DUP1 ISZERO PUSH2 0xAE4 JUMPI DUP1 PUSH1 0x1F LT PUSH2 0xAB9 JUMPI PUSH2 0x100 DUP1 DUP4 SLOAD DIV MUL DUP4 MSTORE SWAP2 PUSH1 0x20 ADD SWAP2 PUSH2 0xAE4 JUMP JUMPDEST DUP3 ADD SWAP2 SWAP1 PUSH1 0x0 MSTORE PUSH1 0x20 PUSH1 0x0 KECCAK256 SWAP1 JUMPDEST DUP2 SLOAD DUP2 MSTORE SWAP1 PUSH1 0x1 ADD SWAP1 PUSH1 0x20 ADD DUP1 DUP4 GT PUSH2 0xAC7 JUMPI DUP3 SWAP1 SUB PUSH1 0x1F AND DUP3 ADD SWAP2 JUMPDEST POP POP POP POP POP DUP2 MSTORE POP POP DUP2 MSTORE POP SWAP3 POP POP POP SWAP2 SWAP1 POP JUMP JUMPDEST PUSH2 0xB01 PUSH2 0x2AD6 JUMP JUMPDEST PUSH1 0x0 PUSH1 0x1 PUSH8 0xFFFFFFFFFFFFFFFF DUP2 GT ISZERO PUSH2 0xB1E JUMPI PUSH2 0xB1D PUSH2 0x2C2B JUMP JUMPDEST JUMPDEST PUSH1 0x40 MLOAD SWAP1 DUP1 DUP3 MSTORE DUP1 PUSH1 0x20 MUL PUSH1 0x20 ADD DUP3 ADD PUSH1 0x40 MSTORE DUP1 ISZERO PUSH2 0xB57 JUMPI DUP2 PUSH1 0x20 ADD JUMPDEST PUSH2 0xB44 PUSH2 0x2B17 JUMP JUMPDEST DUP2 MSTORE PUSH1 0x20 ADD SWAP1 PUSH1 0x1 SWAP1 SUB SWAP1 DUP2 PUSH2 0xB3C JUMPI SWAP1 POP JUMPDEST POP SWAP1 POP DUP5 DUP2 PUSH1 0x0 DUP2 MLOAD DUP2 LT PUSH2 0xB6F JUMPI PUSH2 0xB6E PUSH2 0x42F6 JUMP JUMPDEST JUMPDEST PUSH1 0x20 MUL PUSH1 0x20 ADD ADD DUP2 SWAP1 MSTORE POP PUSH1 0x0 DUP1 PUSH8 0xFFFFFFFFFFFFFFFF DUP2 GT ISZERO PUSH2 0xB96 JUMPI PUSH2 0xB95 PUSH2 0x2C2B JUMP JUMPDEST JUMPDEST PUSH1 0x40 MLOAD SWAP1 DUP1 DUP3 MSTORE DUP1 PUSH1 0x20 MUL PUSH1 0x20 ADD DUP3 ADD PUSH1 0x40 MSTORE DUP1 ISZERO PUSH2 0xBCF JUMPI DUP2 PUSH1 0x20 ADD JUMPDEST PUSH2 0xBBC PUSH2 0x2B65 JUMP JUMPDEST DUP2 MSTORE PUSH1 0x20 ADD SWAP1 PUSH1 0x1 SWAP1 SUB SWAP1 DUP2 PUSH2 0xBB4 JUMPI SWAP1 POP JUMPDEST POP SWAP1 POP PUSH1 0x40 MLOAD DUP1 PUSH1 0x80 ADD PUSH1 0x40 MSTORE DUP1 DUP6 PUSH16 0xFFFFFFFFFFFFFFFFFFFFFFFFFFFFFFFF NOT AND DUP2 MSTORE PUSH1 0x20 ADD DUP4 DUP2 MSTORE PUSH1 0x20 ADD DUP3 DUP2 MSTORE PUSH1 0x20 ADD DUP7 DUP2 MSTORE POP SWAP3 POP POP POP SWAP4 SWAP3 POP POP POP JUMP JUMPDEST PUSH2 0xC19 PUSH2 0x2AD6 JUMP JUMPDEST PUSH1 0x0 DUP1 PUSH8 0xFFFFFFFFFFFFFFFF DUP2 GT ISZERO PUSH2 0xC35 JUMPI PUSH2 0xC34 PUSH2 0x2C2B JUMP JUMPDEST JUMPDEST PUSH1 0x40 MLOAD SWAP1 DUP1 DUP3 MSTORE DUP1 PUSH1 0x20 MUL PUSH1 0x20 ADD DUP3 ADD PUSH1 0x40 MSTORE DUP1 ISZERO PUSH2 0xC6E JUMPI DUP2 PUSH1 0x20 ADD JUMPDEST PUSH2 0xC5B PUSH2 0x2B65 JUMP JUMPDEST DUP2 MSTORE PUSH1 0x20 ADD SWAP1 PUSH1 0x1 SWAP1 SUB SWAP1 DUP2 PUSH2 0xC53 JUMPI SWAP1 POP JUMPDEST POP SWAP1 POP PUSH1 0x40 MLOAD DUP1 PUSH1 0x80 ADD PUSH1 0x40 MSTORE DUP1 PUSH32 0xB8E2054F8A912367E38A22CE773328FF8AABF8082C4120BAD9EF085E1DBF29A7 PUSH16 0xFFFFFFFFFFFFFFFFFFFFFFFFFFFFFFFF NOT AND DUP2 MSTORE PUSH1 0x20 ADD DUP5 DUP2 MSTORE PUSH1 0x20 ADD DUP3 DUP2 MSTORE PUSH1 0x20 ADD PUSH1 0x0 PUSH1 0x40 MLOAD DUP1 PUSH1 0x60 ADD PUSH1 0x40 MSTORE SWAP1 DUP2 PUSH1 0x0 DUP3 ADD DUP1 SLOAD PUSH2 0xCDE SWAP1 PUSH2 0x4354 JUMP JUMPDEST DUP1 PUSH1 0x1F ADD PUSH1 0x20 DUP1 SWAP2 DIV MUL PUSH1 0x20 ADD PUSH1 0x40 MLOAD SWAP1 DUP2 ADD PUSH1 0x40 MSTORE DUP1 SWAP3 SWAP2 SWAP1 DUP2 DUP2 MSTORE PUSH1 0x20 ADD DUP3 DUP1 SLOAD PUSH2 0xD0A SWAP1 PUSH2 0x4354 JUMP JUMPDEST DUP1 ISZERO PUSH2 0xD57 JUMPI DUP1 PUSH1 0x1F LT PUSH2 0xD2C JUMPI PUSH2 0x100 DUP1 DUP4 SLOAD DIV MUL DUP4 MSTORE SWAP2 PUSH1 0x20 ADD SWAP2 PUSH2 0xD57 JUMP JUMPDEST DUP3 ADD SWAP2 SWAP1 PUSH1 0x0 MSTORE PUSH1 0x20 PUSH1 0x0 KECCAK256 SWAP1 JUMPDEST DUP2 SLOAD DUP2 MSTORE SWAP1 PUSH1 0x1 ADD SWAP1 PUSH1 0x20 ADD DUP1 DUP4 GT PUSH2 0xD3A JUMPI DUP3 SWAP1 SUB PUSH1 0x1F AND DUP3 ADD SWAP2 JUMPDEST POP POP POP POP POP DUP2 MSTORE PUSH1 0x20 ADD PUSH1 0x1 DUP3 ADD PUSH1 0x0 SWAP1 SLOAD SWAP1 PUSH2 0x100 EXP SWAP1 DIV PUSH1 0xFF AND ISZERO ISZERO ISZERO ISZERO DUP2 MSTORE PUSH1 0x20 ADD PUSH1 0x2 DUP3 ADD DUP1 SLOAD PUSH2 0xD8B SWAP1 PUSH2 0x4354 JUMP JUMPDEST DUP1 PUSH1 0x1F ADD PUSH1 0x20 DUP1 SWAP2 DIV MUL PUSH1 0x20 ADD PUSH1 0x40 MLOAD SWAP1 DUP2 ADD PUSH1 0x40 MSTORE DUP1 SWAP3 SWAP2 SWAP1 DUP2 DUP2 MSTORE PUSH1 0x20 ADD DUP3 DUP1 SLOAD PUSH2 0xDB7 SWAP1 PUSH2 0x4354 JUMP JUMPDEST DUP1 ISZERO PUSH2 0xE04 JUMPI DUP1 PUSH1 0x1F LT PUSH2 0xDD9 JUMPI PUSH2 0x100 DUP1 DUP4 SLOAD DIV MUL DUP4 MSTORE SWAP2 PUSH1 0x20 ADD SWAP2 PUSH2 0xE04 JUMP JUMPDEST DUP3 ADD SWAP2 SWAP1 PUSH1 0x0 MSTORE PUSH1 0x20 PUSH1 0x0 KECCAK256 SWAP1 JUMPDEST DUP2 SLOAD DUP2 MSTORE SWAP1 PUSH1 0x1 ADD SWAP1 PUSH1 0x20 ADD DUP1 DUP4 GT PUSH2 0xDE7 JUMPI DUP3 SWAP1 SUB PUSH1 0x1F AND DUP3 ADD SWAP2 JUMPDEST POP POP POP POP POP DUP2 MSTORE POP POP DUP2 MSTORE POP SWAP2 POP POP SWAP2 SWAP1 POP JUMP JUMPDEST PUSH2 0xE20 PUSH2 0x2AD6 JUMP JUMPDEST PUSH1 0x0 DUP1 PUSH8 0xFFFFFFFFFFFFFFFF DUP2 GT ISZERO PUSH2 0xE3C JUMPI PUSH2 0xE3B PUSH2 0x2C2B JUMP JUMPDEST JUMPDEST PUSH1 0x40 MLOAD SWAP1 DUP1 DUP3 MSTORE DUP1 PUSH1 0x20 MUL PUSH1 0x20 ADD DUP3 ADD PUSH1 0x40 MSTORE DUP1 ISZERO PUSH2 0xE75 JUMPI DUP2 PUSH1 0x20 ADD JUMPDEST PUSH2 0xE62 PUSH2 0x2B17 JUMP JUMPDEST DUP2 MSTORE PUSH1 0x20 ADD SWAP1 PUSH1 0x1 SWAP1 SUB SWAP1 DUP2 PUSH2 0xE5A JUMPI SWAP1 POP JUMPDEST POP SWAP1 POP PUSH1 0x40 MLOAD DUP1 PUSH1 0x80 ADD PUSH1 0x40 MSTORE DUP1 DUP5 PUSH16 0xFFFFFFFFFFFFFFFFFFFFFFFFFFFFFFFF NOT AND DUP2 MSTORE PUSH1 0x20 ADD DUP3 DUP2 MSTORE PUSH1 0x20 ADD DUP7 DUP2 MSTORE PUSH1 0x20 ADD DUP6 DUP2 MSTORE POP SWAP2 POP POP SWAP4 SWAP3 POP POP POP JUMP JUMPDEST PUSH32 0xB8E2054F8A912367E38A22CE773328FF8AABF8082C4120BAD9EF085E1DBF29A7 DUP2 JUMP JUMPDEST PUSH2 0xEE2 PUSH2 0x2AD6 JUMP JUMPDEST PUSH1 0x0 DUP1 PUSH8 0xFFFFFFFFFFFFFFFF DUP2 GT ISZERO PUSH2 0xEFE JUMPI PUSH2 0xEFD PUSH2 0x2C2B JUMP JUMPDEST JUMPDEST PUSH1 0x40 MLOAD SWAP1 DUP1 DUP3 MSTORE DUP1 PUSH1 0x20 MUL PUSH1 0x20 ADD DUP3 ADD PUSH1 0x40 MSTORE DUP1 ISZERO PUSH2 0xF37 JUMPI DUP2 PUSH1 0x20 ADD JUMPDEST PUSH2 0xF24 PUSH2 0x2B65 JUMP JUMPDEST DUP2 MSTORE PUSH1 0x20 ADD SWAP1 PUSH1 0x1 SWAP1 SUB SWAP1 DUP2 PUSH2 0xF1C JUMPI SWAP1 POP JUMPDEST POP SWAP1 POP PUSH1 0x40 MLOAD DUP1 PUSH1 0x80 ADD PUSH1 0x40 MSTORE DUP1 DUP5 PUSH16 0xFFFFFFFFFFFFFFFFFFFFFFFFFFFFFFFF NOT AND DUP2 MSTORE PUSH1 0x20 ADD DUP6 DUP2 MSTORE PUSH1 0x20 ADD DUP3 DUP2 MSTORE PUSH1 0x20 ADD PUSH1 0x0 PUSH1 0x40 MLOAD DUP1 PUSH1 0x60 ADD PUSH1 0x40 MSTORE SWAP1 DUP2 PUSH1 0x0 DUP3 ADD DUP1 SLOAD PUSH2 0xF87 SWAP1 PUSH2 0x4354 JUMP JUMPDEST DUP1 PUSH1 0x1F ADD PUSH1 0x20 DUP1 SWAP2 DIV MUL PUSH1 0x20 ADD PUSH1 0x40 MLOAD SWAP1 DUP2 ADD PUSH1 0x40 MSTORE DUP1 SWAP3 SWAP2 SWAP1 DUP2 DUP2 MSTORE PUSH1 0x20 ADD DUP3 DUP1 SLOAD PUSH2 0xFB3 SWAP1 PUSH2 0x4354 JUMP JUMPDEST DUP1 ISZERO PUSH2 0x1000 JUMPI DUP1 PUSH1 0x1F LT PUSH2 0xFD5 JUMPI PUSH2 0x100 DUP1 DUP4 SLOAD DIV MUL DUP4 MSTORE SWAP2 PUSH1 0x20 ADD SWAP2 PUSH2 0x1000 JUMP JUMPDEST DUP3 ADD SWAP2 SWAP1 PUSH1 0x0 MSTORE PUSH1 0x20 PUSH1 0x0 KECCAK256 SWAP1 JUMPDEST DUP2 SLOAD DUP2 MSTORE SWAP1 PUSH1 0x1 ADD SWAP1 PUSH1 0x20 ADD DUP1 DUP4 GT PUSH2 0xFE3 JUMPI DUP3 SWAP1 SUB PUSH1 0x1F AND DUP3 ADD SWAP2 JUMPDEST POP POP POP POP POP DUP2 MSTORE PUSH1 0x20 ADD PUSH1 0x1 DUP3 ADD PUSH1 0x0 SWAP1 SLOAD SWAP1 PUSH2 0x100 EXP SWAP1 DIV PUSH1 0xFF AND ISZERO ISZERO ISZERO ISZERO DUP2 MSTORE PUSH1 0x20 ADD PUSH1 0x2 DUP3 ADD DUP1 SLOAD PUSH2 0x1034 SWAP1 PUSH2 0x4354 JUMP JUMPDEST DUP1 PUSH1 0x1F ADD PUSH1 0x20 DUP1 SWAP2 DIV MUL PUSH1 0x20 ADD PUSH1 0x40 MLOAD SWAP1 DUP2 ADD PUSH1 0x40 MSTORE DUP1 SWAP3 SWAP2 SWAP1 DUP2 DUP2 MSTORE PUSH1 0x20 ADD DUP3 DUP1 SLOAD PUSH2 0x1060 SWAP1 PUSH2 0x4354 JUMP JUMPDEST DUP1 ISZERO PUSH2 0x10AD JUMPI DUP1 PUSH1 0x1F LT PUSH2 0x1082 JUMPI PUSH2 0x100 DUP1 DUP4 SLOAD DIV MUL DUP4 MSTORE SWAP2 PUSH1 0x20 ADD SWAP2 PUSH2 0x10AD JUMP JUMPDEST DUP3 ADD SWAP2 SWAP1 PUSH1 0x0 MSTORE PUSH1 0x20 PUSH1 0x0 KECCAK256 SWAP1 JUMPDEST DUP2 SLOAD DUP2 MSTORE SWAP1 PUSH1 0x1 ADD SWAP1 PUSH1 0x20 ADD DUP1 DUP4 GT PUSH2 0x1090 JUMPI DUP3 SWAP1 SUB PUSH1 0x1F AND DUP3 ADD SWAP2 JUMPDEST POP POP POP POP POP DUP2 MSTORE POP POP DUP2 MSTORE POP SWAP2 POP POP SWAP3 SWAP2 POP POP JUMP JUMPDEST PUSH2 0x10CA PUSH2 0x2AD6 JUMP JUMPDEST PUSH1 0x0 DUP1 PUSH8 0xFFFFFFFFFFFFFFFF DUP2 GT ISZERO PUSH2 0x10E6 JUMPI PUSH2 0x10E5 PUSH2 0x2C2B JUMP JUMPDEST JUMPDEST PUSH1 0x40 MLOAD SWAP1 DUP1 DUP3 MSTORE DUP1 PUSH1 0x20 MUL PUSH1 0x20 ADD DUP3 ADD PUSH1 0x40 MSTORE DUP1 ISZERO PUSH2 0x111F JUMPI DUP2 PUSH1 0x20 ADD JUMPDEST PUSH2 0x110C PUSH2 0x2B65 JUMP JUMPDEST DUP2 MSTORE PUSH1 0x20 ADD SWAP1 PUSH1 0x1 SWAP1 SUB SWAP1 DUP2 PUSH2 0x1104 JUMPI SWAP1 POP JUMPDEST POP SWAP1 POP PUSH1 0x40 MLOAD DUP1 PUSH1 0x80 ADD PUSH1 0x40 MSTORE DUP1 PUSH32 0xB8E2054F8A912367E38A22CE773328FF8AABF8082C4120BAD9EF085E1DBF29A7 PUSH16 0xFFFFFFFFFFFFFFFFFFFFFFFFFFFFFFFF NOT AND DUP2 MSTORE PUSH1 0x20 ADD DUP6 DUP2 MSTORE PUSH1 0x20 ADD DUP3 DUP2 MSTORE PUSH1 0x20 ADD DUP5 DUP2 MSTORE POP SWAP2 POP POP SWAP3 SWAP2 POP POP JUMP JUMPDEST PUSH2 0x1187 PUSH2 0x2AD6 JUMP JUMPDEST PUSH1 0x0 PUSH1 0x1 PUSH8 0xFFFFFFFFFFFFFFFF DUP2 GT ISZERO PUSH2 0x11A4 JUMPI PUSH2 0x11A3 PUSH2 0x2C2B JUMP JUMPDEST JUMPDEST PUSH1 0x40 MLOAD SWAP1 DUP1 DUP3 MSTORE DUP1 PUSH1 0x20 MUL PUSH1 0x20 ADD DUP3 ADD PUSH1 0x40 MSTORE DUP1 ISZERO PUSH2 0x11DD JUMPI DUP2 PUSH1 0x20 ADD JUMPDEST PUSH2 0x11CA PUSH2 0x2B17 JUMP JUMPDEST DUP2 MSTORE PUSH1 0x20 ADD SWAP1 PUSH1 0x1 SWAP1 SUB SWAP1 DUP2 PUSH2 0x11C2 JUMPI SWAP1 POP JUMPDEST POP SWAP1 POP DUP5 DUP2 PUSH1 0x0 DUP2 MLOAD DUP2 LT PUSH2 0x11F5 JUMPI PUSH2 0x11F4 PUSH2 0x42F6 JUMP JUMPDEST JUMPDEST PUSH1 0x20 MUL PUSH1 0x20 ADD ADD DUP2 SWAP1 MSTORE POP PUSH1 0x0 PUSH1 0x1 PUSH8 0xFFFFFFFFFFFFFFFF DUP2 GT ISZERO PUSH2 0x121D JUMPI PUSH2 0x121C PUSH2 0x2C2B JUMP JUMPDEST JUMPDEST PUSH1 0x40 MLOAD SWAP1 DUP1 DUP3 MSTORE DUP1 PUSH1 0x20 MUL PUSH1 0x20 ADD DUP3 ADD PUSH1 0x40 MSTORE DUP1 ISZERO PUSH2 0x1256 JUMPI DUP2 PUSH1 0x20 ADD JUMPDEST PUSH2 0x1243 PUSH2 0x2B65 JUMP JUMPDEST DUP2 MSTORE PUSH1 0x20 ADD SWAP1 PUSH1 0x1 SWAP1 SUB SWAP1 DUP2 PUSH2 0x123B JUMPI SWAP1 POP JUMPDEST POP SWAP1 POP DUP5 DUP2 PUSH1 0x0 DUP2 MLOAD DUP2 LT PUSH2 0x126E JUMPI PUSH2 0x126D PUSH2 0x42F6 JUMP JUMPDEST JUMPDEST PUSH1 0x20 MUL PUSH1 0x20 ADD ADD DUP2 SWAP1 MSTORE POP PUSH1 0x40 MLOAD DUP1 PUSH1 0x80 ADD PUSH1 0x40 MSTORE DUP1 DUP6 PUSH16 0xFFFFFFFFFFFFFFFFFFFFFFFFFFFFFFFF NOT AND DUP2 MSTORE PUSH1 0x20 ADD DUP4 DUP2 MSTORE PUSH1 0x20 ADD DUP3 DUP2 MSTORE PUSH1 0x20 ADD PUSH1 0x0 PUSH1 0x40 MLOAD DUP1 PUSH1 0x60 ADD PUSH1 0x40 MSTORE SWAP1 DUP2 PUSH1 0x0 DUP3 ADD DUP1 SLOAD PUSH2 0x12C6 SWAP1 PUSH2 0x4354 JUMP JUMPDEST DUP1 PUSH1 0x1F ADD PUSH1 0x20 DUP1 SWAP2 DIV MUL PUSH1 0x20 ADD PUSH1 0x40 MLOAD SWAP1 DUP2 ADD PUSH1 0x40 MSTORE DUP1 SWAP3 SWAP2 SWAP1 DUP2 DUP2 MSTORE PUSH1 0x20 ADD DUP3 DUP1 SLOAD PUSH2 0x12F2 SWAP1 PUSH2 0x4354 JUMP JUMPDEST DUP1 ISZERO PUSH2 0x133F JUMPI DUP1 PUSH1 0x1F LT PUSH2 0x1314 JUMPI PUSH2 0x100 DUP1 DUP4 SLOAD DIV MUL DUP4 MSTORE SWAP2 PUSH1 0x20 ADD SWAP2 PUSH2 0x133F JUMP JUMPDEST DUP3 ADD SWAP2 SWAP1 PUSH1 0x0 MSTORE PUSH1 0x20 PUSH1 0x0 KECCAK256 SWAP1 JUMPDEST DUP2 SLOAD DUP2 MSTORE SWAP1 PUSH1 0x1 ADD SWAP1 PUSH1 0x20 ADD DUP1 DUP4 GT PUSH2 0x1322 JUMPI DUP3 SWAP1 SUB PUSH1 0x1F AND DUP3 ADD SWAP2 JUMPDEST POP POP POP POP POP DUP2 MSTORE PUSH1 0x20 ADD PUSH1 0x1 DUP3 ADD PUSH1 0x0 SWAP1 SLOAD SWAP1 PUSH2 0x100 EXP SWAP1 DIV PUSH1 0xFF AND ISZERO ISZERO ISZERO ISZERO DUP2 MSTORE PUSH1 0x20 ADD PUSH1 0x2 DUP3 ADD DUP1 SLOAD PUSH2 0x1373 SWAP1 PUSH2 0x4354 JUMP JUMPDEST DUP1 PUSH1 0x1F ADD PUSH1 0x20 DUP1 SWAP2 DIV MUL PUSH1 0x20 ADD PUSH1 0x40 MLOAD SWAP1 DUP2 ADD PUSH1 0x40 MSTORE DUP1 SWAP3 SWAP2 SWAP1 DUP2 DUP2 MSTORE PUSH1 0x20 ADD DUP3 DUP1 SLOAD PUSH2 0x139F SWAP1 PUSH2 0x4354 JUMP JUMPDEST DUP1 ISZERO PUSH2 0x13EC JUMPI DUP1 PUSH1 0x1F LT PUSH2 0x13C1 JUMPI PUSH2 0x100 DUP1 DUP4 SLOAD DIV MUL DUP4 MSTORE SWAP2 PUSH1 0x20 ADD SWAP2 PUSH2 0x13EC JUMP JUMPDEST DUP3 ADD SWAP2 SWAP1 PUSH1 0x0 MSTORE PUSH1 0x20 PUSH1 0x0 KECCAK256 SWAP1 JUMPDEST DUP2 SLOAD DUP2 MSTORE SWAP1 PUSH1 0x1 ADD SWAP1 PUSH1 0x20 ADD DUP1 DUP4 GT PUSH2 0x13CF JUMPI DUP3 SWAP1 SUB PUSH1 0x1F AND DUP3 ADD SWAP2 JUMPDEST POP POP POP POP POP DUP2 MSTORE POP POP DUP2 MSTORE POP SWAP3 POP POP POP SWAP4 SWAP3 POP POP POP JUMP JUMPDEST PUSH2 0x140B PUSH2 0x2AD6 JUMP JUMPDEST PUSH1 0x0 PUSH1 0x1 PUSH8 0xFFFFFFFFFFFFFFFF DUP2 GT ISZERO PUSH2 0x1428 JUMPI PUSH2 0x1427 PUSH2 0x2C2B JUMP JUMPDEST JUMPDEST PUSH1 0x40 MLOAD SWAP1 DUP1 DUP3 MSTORE DUP1 PUSH1 0x20 MUL PUSH1 0x20 ADD DUP3 ADD PUSH1 0x40 MSTORE DUP1 ISZERO PUSH2 0x1461 JUMPI DUP2 PUSH1 0x20 ADD JUMPDEST PUSH2 0x144E PUSH2 0x2B17 JUMP JUMPDEST DUP2 MSTORE PUSH1 0x20 ADD SWAP1 PUSH1 0x1 SWAP1 SUB SWAP1 DUP2 PUSH2 0x1446 JUMPI SWAP1 POP JUMPDEST POP SWAP1 POP DUP4 DUP2 PUSH1 0x0 DUP2 MLOAD DUP2 LT PUSH2 0x1479 JUMPI PUSH2 0x1478 PUSH2 0x42F6 JUMP JUMPDEST JUMPDEST PUSH1 0x20 MUL PUSH1 0x20 ADD ADD DUP2 SWAP1 MSTORE POP PUSH1 0x0 DUP1 PUSH8 0xFFFFFFFFFFFFFFFF DUP2 GT ISZERO PUSH2 0x14A0 JUMPI PUSH2 0x149F PUSH2 0x2C2B JUMP JUMPDEST JUMPDEST PUSH1 0x40 MLOAD SWAP1 DUP1 DUP3 MSTORE DUP1 PUSH1 0x20 MUL PUSH1 0x20 ADD DUP3 ADD PUSH1 0x40 MSTORE DUP1 ISZERO PUSH2 0x14D9 JUMPI DUP2 PUSH1 0x20 ADD JUMPDEST PUSH2 0x14C6 PUSH2 0x2B65 JUMP JUMPDEST DUP2 MSTORE PUSH1 0x20 ADD SWAP1 PUSH1 0x1 SWAP1 SUB SWAP1 DUP2 PUSH2 0x14BE JUMPI SWAP1 POP JUMPDEST POP SWAP1 POP PUSH1 0x40 MLOAD DUP1 PUSH1 0x80 ADD PUSH1 0x40 MSTORE DUP1 PUSH32 0xB8E2054F8A912367E38A22CE773328FF8AABF8082C4120BAD9EF085E1DBF29A7 PUSH16 0xFFFFFFFFFFFFFFFFFFFFFFFFFFFFFFFF NOT AND DUP2 MSTORE PUSH1 0x20 ADD DUP4 DUP2 MSTORE PUSH1 0x20 ADD DUP3 DUP2 MSTORE PUSH1 0x20 ADD DUP6 DUP2 MSTORE POP SWAP3 POP POP POP SWAP3 SWAP2 POP POP JUMP JUMPDEST PUSH2 0x1542 PUSH2 0x2AD6 JUMP JUMPDEST PUSH1 0x0 DUP1 PUSH8 0xFFFFFFFFFFFFFFFF DUP2 GT ISZERO PUSH2 0x155E JUMPI PUSH2 0x155D PUSH2 0x2C2B JUMP JUMPDEST JUMPDEST PUSH1 0x40 MLOAD SWAP1 DUP1 DUP3 MSTORE DUP1 PUSH1 0x20 MUL PUSH1 0x20 ADD DUP3 ADD PUSH1 0x40 MSTORE DUP1 ISZERO PUSH2 0x1597 JUMPI DUP2 PUSH1 0x20 ADD JUMPDEST PUSH2 0x1584 PUSH2 0x2B17 JUMP JUMPDEST DUP2 MSTORE PUSH1 0x20 ADD SWAP1 PUSH1 0x1 SWAP1 SUB SWAP1 DUP2 PUSH2 0x157C JUMPI SWAP1 POP JUMPDEST POP SWAP1 POP PUSH1 0x0 PUSH1 0x1 PUSH8 0xFFFFFFFFFFFFFFFF DUP2 GT ISZERO PUSH2 0x15B7 JUMPI PUSH2 0x15B6 PUSH2 0x2C2B JUMP JUMPDEST JUMPDEST PUSH1 0x40 MLOAD SWAP1 DUP1 DUP3 MSTORE DUP1 PUSH1 0x20 MUL PUSH1 0x20 ADD DUP3 ADD PUSH1 0x40 MSTORE DUP1 ISZERO PUSH2 0x15F0 JUMPI DUP2 PUSH1 0x20 ADD JUMPDEST PUSH2 0x15DD PUSH2 0x2B65 JUMP JUMPDEST DUP2 MSTORE PUSH1 0x20 ADD SWAP1 PUSH1 0x1 SWAP1 SUB SWAP1 DUP2 PUSH2 0x15D5 JUMPI SWAP1 POP JUMPDEST POP SWAP1 POP DUP6 DUP2 PUSH1 0x0 DUP2 MLOAD DUP2 LT PUSH2 0x1608 JUMPI PUSH2 0x1607 PUSH2 0x42F6 JUMP JUMPDEST JUMPDEST PUSH1 0x20 MUL PUSH1 0x20 ADD ADD DUP2 SWAP1 MSTORE POP PUSH1 0x40 MLOAD DUP1 PUSH1 0x80 ADD PUSH1 0x40 MSTORE DUP1 DUP6 PUSH16 0xFFFFFFFFFFFFFFFFFFFFFFFFFFFFFFFF NOT AND DUP2 MSTORE PUSH1 0x20 ADD DUP4 DUP2 MSTORE PUSH1 0x20 ADD DUP3 DUP2 MSTORE PUSH1 0x20 ADD DUP7 DUP2 MSTORE POP SWAP3 POP POP POP SWAP4 SWAP3 POP POP POP JUMP JUMPDEST PUSH2 0x165A PUSH2 0x2AD6 JUMP JUMPDEST PUSH1 0x0 PUSH1 0x1 PUSH8 0xFFFFFFFFFFFFFFFF DUP2 GT ISZERO PUSH2 0x1677 JUMPI PUSH2 0x1676 PUSH2 0x2C2B JUMP JUMPDEST JUMPDEST PUSH1 0x40 MLOAD SWAP1 DUP1 DUP3 MSTORE DUP1 PUSH1 0x20 MUL PUSH1 0x20 ADD DUP3 ADD PUSH1 0x40 MSTORE DUP1 ISZERO PUSH2 0x16B0 JUMPI DUP2 PUSH1 0x20 ADD JUMPDEST PUSH2 0x169D PUSH2 0x2B17 JUMP JUMPDEST DUP2 MSTORE PUSH1 0x20 ADD SWAP1 PUSH1 0x1 SWAP1 SUB SWAP1 DUP2 PUSH2 0x1695 JUMPI SWAP1 POP JUMPDEST POP SWAP1 POP DUP4 DUP2 PUSH1 0x0 DUP2 MLOAD DUP2 LT PUSH2 0x16C8 JUMPI PUSH2 0x16C7 PUSH2 0x42F6 JUMP JUMPDEST JUMPDEST PUSH1 0x20 MUL PUSH1 0x20 ADD ADD DUP2 SWAP1 MSTORE POP PUSH1 0x0 DUP1 PUSH8 0xFFFFFFFFFFFFFFFF DUP2 GT ISZERO PUSH2 0x16EF JUMPI PUSH2 0x16EE PUSH2 0x2C2B JUMP JUMPDEST JUMPDEST PUSH1 0x40 MLOAD SWAP1 DUP1 DUP3 MSTORE DUP1 PUSH1 0x20 MUL PUSH1 0x20 ADD DUP3 ADD PUSH1 0x40 MSTORE DUP1 ISZERO PUSH2 0x1728 JUMPI DUP2 PUSH1 0x20 ADD JUMPDEST PUSH2 0x1715 PUSH2 0x2B65 JUMP JUMPDEST DUP2 MSTORE PUSH1 0x20 ADD SWAP1 PUSH1 0x1 SWAP1 SUB SWAP1 DUP2 PUSH2 0x170D JUMPI SWAP1 POP JUMPDEST POP SWAP1 POP PUSH1 0x40 MLOAD DUP1 PUSH1 0x80 ADD PUSH1 0x40 MSTORE DUP1 DUP6 PUSH16 0xFFFFFFFFFFFFFFFFFFFFFFFFFFFFFFFF NOT AND DUP2 MSTORE PUSH1 0x20 ADD DUP4 DUP2 MSTORE PUSH1 0x20 ADD DUP3 DUP2 MSTORE PUSH1 0x20 ADD PUSH1 0x0 PUSH1 0x40 MLOAD DUP1 PUSH1 0x60 ADD PUSH1 0x40 MSTORE SWAP1 DUP2 PUSH1 0x0 DUP3 ADD DUP1 SLOAD PUSH2 0x1778 SWAP1 PUSH2 0x4354 JUMP JUMPDEST DUP1 PUSH1 0x1F ADD PUSH1 0x20 DUP1 SWAP2 DIV MUL PUSH1 0x20 ADD PUSH1 0x40 MLOAD SWAP1 DUP2 ADD PUSH1 0x40 MSTORE DUP1 SWAP3 SWAP2 SWAP1 DUP2 DUP2 MSTORE PUSH1 0x20 ADD DUP3 DUP1 SLOAD PUSH2 0x17A4 SWAP1 PUSH2 0x4354 JUMP JUMPDEST DUP1 ISZERO PUSH2 0x17F1 JUMPI DUP1 PUSH1 0x1F LT PUSH2 0x17C6 JUMPI PUSH2 0x100 DUP1 DUP4 SLOAD DIV MUL DUP4 MSTORE SWAP2 PUSH1 0x20 ADD SWAP2 PUSH2 0x17F1 JUMP JUMPDEST DUP3 ADD SWAP2 SWAP1 PUSH1 0x0 MSTORE PUSH1 0x20 PUSH1 0x0 KECCAK256 SWAP1 JUMPDEST DUP2 SLOAD DUP2 MSTORE SWAP1 PUSH1 0x1 ADD SWAP1 PUSH1 0x20 ADD DUP1 DUP4 GT PUSH2 0x17D4 JUMPI DUP3 SWAP1 SUB PUSH1 0x1F AND DUP3 ADD SWAP2 JUMPDEST POP POP POP POP POP DUP2 MSTORE PUSH1 0x20 ADD PUSH1 0x1 DUP3 ADD PUSH1 0x0 SWAP1 SLOAD SWAP1 PUSH2 0x100 EXP SWAP1 DIV PUSH1 0xFF AND ISZERO ISZERO ISZERO ISZERO DUP2 MSTORE PUSH1 0x20 ADD PUSH1 0x2 DUP3 ADD DUP1 SLOAD PUSH2 0x1825 SWAP1 PUSH2 0x4354 JUMP JUMPDEST DUP1 PUSH1 0x1F ADD PUSH1 0x20 DUP1 SWAP2 DIV MUL PUSH1 0x20 ADD PUSH1 0x40 MLOAD SWAP1 DUP2 ADD PUSH1 0x40 MSTORE DUP1 SWAP3 SWAP2 SWAP1 DUP2 DUP2 MSTORE PUSH1 0x20 ADD DUP3 DUP1 SLOAD PUSH2 0x1851 SWAP1 PUSH2 0x4354 JUMP JUMPDEST DUP1 ISZERO PUSH2 0x189E JUMPI DUP1 PUSH1 0x1F LT PUSH2 0x1873 JUMPI PUSH2 0x100 DUP1 DUP4 SLOAD DIV MUL DUP4 MSTORE SWAP2 PUSH1 0x20 ADD SWAP2 PUSH2 0x189E JUMP JUMPDEST DUP3 ADD SWAP2 SWAP1 PUSH1 0x0 MSTORE PUSH1 0x20 PUSH1 0x0 KECCAK256 SWAP1 JUMPDEST DUP2 SLOAD DUP2 MSTORE SWAP1 PUSH1 0x1 ADD SWAP1 PUSH1 0x20 ADD DUP1 DUP4 GT PUSH2 0x1881 JUMPI DUP3 SWAP1 SUB PUSH1 0x1F AND DUP3 ADD SWAP2 JUMPDEST POP POP POP POP POP DUP2 MSTORE POP POP DUP2 MSTORE POP SWAP3 POP POP POP SWAP3 SWAP2 POP POP JUMP JUMPDEST PUSH2 0x18BC PUSH2 0x2AD6 JUMP JUMPDEST PUSH1 0x40 MLOAD DUP1 PUSH1 0x80 ADD PUSH1 0x40 MSTORE DUP1 DUP4 PUSH16 0xFFFFFFFFFFFFFFFFFFFFFFFFFFFFFFFF NOT AND DUP2 MSTORE PUSH1 0x20 ADD DUP6 DUP2 MSTORE PUSH1 0x20 ADD DUP5 DUP2 MSTORE PUSH1 0x20 ADD PUSH1 0x0 PUSH1 0x40 MLOAD DUP1 PUSH1 0x60 ADD PUSH1 0x40 MSTORE SWAP1 DUP2 PUSH1 0x0 DUP3 ADD DUP1 SLOAD PUSH2 0x1909 SWAP1 PUSH2 0x4354 JUMP JUMPDEST DUP1 PUSH1 0x1F ADD PUSH1 0x20 DUP1 SWAP2 DIV MUL PUSH1 0x20 ADD PUSH1 0x40 MLOAD SWAP1 DUP2 ADD PUSH1 0x40 MSTORE DUP1 SWAP3 SWAP2 SWAP1 DUP2 DUP2 MSTORE PUSH1 0x20 ADD DUP3 DUP1 SLOAD PUSH2 0x1935 SWAP1 PUSH2 0x4354 JUMP JUMPDEST DUP1 ISZERO PUSH2 0x1982 JUMPI DUP1 PUSH1 0x1F LT PUSH2 0x1957 JUMPI PUSH2 0x100 DUP1 DUP4 SLOAD DIV MUL DUP4 MSTORE SWAP2 PUSH1 0x20 ADD SWAP2 PUSH2 0x1982 JUMP JUMPDEST DUP3 ADD SWAP2 SWAP1 PUSH1 0x0 MSTORE PUSH1 0x20 PUSH1 0x0 KECCAK256 SWAP1 JUMPDEST DUP2 SLOAD DUP2 MSTORE SWAP1 PUSH1 0x1 ADD SWAP1 PUSH1 0x20 ADD DUP1 DUP4 GT PUSH2 0x1965 JUMPI DUP3 SWAP1 SUB PUSH1 0x1F AND DUP3 ADD SWAP2 JUMPDEST POP POP POP POP POP DUP2 MSTORE PUSH1 0x20 ADD PUSH1 0x1 DUP3 ADD PUSH1 0x0 SWAP1 SLOAD SWAP1 PUSH2 0x100 EXP SWAP1 DIV PUSH1 0xFF AND ISZERO ISZERO ISZERO ISZERO DUP2 MSTORE PUSH1 0x20 ADD PUSH1 0x2 DUP3 ADD DUP1 SLOAD PUSH2 0x19B6 SWAP1 PUSH2 0x4354 JUMP JUMPDEST DUP1 PUSH1 0x1F ADD PUSH1 0x20 DUP1 SWAP2 DIV MUL PUSH1 0x20 ADD PUSH1 0x40 MLOAD SWAP1 DUP2 ADD PUSH1 0x40 MSTORE DUP1 SWAP3 SWAP2 SWAP1 DUP2 DUP2 MSTORE PUSH1 0x20 ADD DUP3 DUP1 SLOAD PUSH2 0x19E2 SWAP1 PUSH2 0x4354 JUMP JUMPDEST DUP1 ISZERO PUSH2 0x1A2F JUMPI DUP1 PUSH1 0x1F LT PUSH2 0x1A04 JUMPI PUSH2 0x100 DUP1 DUP4 SLOAD DIV MUL DUP4 MSTORE SWAP2 PUSH1 0x20 ADD SWAP2 PUSH2 0x1A2F JUMP JUMPDEST DUP3 ADD SWAP2 SWAP1 PUSH1 0x0 MSTORE PUSH1 0x20 PUSH1 0x0 KECCAK256 SWAP1 JUMPDEST DUP2 SLOAD DUP2 MSTORE SWAP1 PUSH1 0x1 ADD SWAP1 PUSH1 0x20 ADD DUP1 DUP4 GT PUSH2 0x1A12 JUMPI DUP3 SWAP1 SUB PUSH1 0x1F AND DUP3 ADD SWAP2 JUMPDEST POP POP POP POP POP DUP2 MSTORE POP POP DUP2 MSTORE POP SWAP1 POP SWAP4 SWAP3 POP POP POP JUMP JUMPDEST PUSH2 0x1A4C PUSH2 0x2AD6 JUMP JUMPDEST PUSH1 0x40 MLOAD DUP1 PUSH1 0x80 ADD PUSH1 0x40 MSTORE DUP1 PUSH32 0xB8E2054F8A912367E38A22CE773328FF8AABF8082C4120BAD9EF085E1DBF29A7 PUSH16 0xFFFFFFFFFFFFFFFFFFFFFFFFFFFFFFFF NOT AND DUP2 MSTORE PUSH1 0x20 ADD DUP6 DUP2 MSTORE PUSH1 0x20 ADD DUP5 DUP2 MSTORE PUSH1 0x20 ADD DUP4 DUP2 MSTORE POP SWAP1 POP SWAP4 SWAP3 POP POP POP JUMP JUMPDEST PUSH2 0x1AB1 PUSH2 0x2AD6 JUMP JUMPDEST PUSH1 0x40 MLOAD DUP1 PUSH1 0x80 ADD PUSH1 0x40 MSTORE DUP1 PUSH32 0xB8E2054F8A912367E38A22CE773328FF8AABF8082C4120BAD9EF085E1DBF29A7 PUSH16 0xFFFFFFFFFFFFFFFFFFFFFFFFFFFFFFFF NOT AND DUP2 MSTORE PUSH1 0x20 ADD DUP5 DUP2 MSTORE PUSH1 0x20 ADD DUP4 DUP2 MSTORE PUSH1 0x20 ADD PUSH1 0x0 PUSH1 0x40 MLOAD DUP1 PUSH1 0x60 ADD PUSH1 0x40 MSTORE SWAP1 DUP2 PUSH1 0x0 DUP3 ADD DUP1 SLOAD PUSH2 0x1B1E SWAP1 PUSH2 0x4354 JUMP JUMPDEST DUP1 PUSH1 0x1F ADD PUSH1 0x20 DUP1 SWAP2 DIV MUL PUSH1 0x20 ADD PUSH1 0x40 MLOAD SWAP1 DUP2 ADD PUSH1 0x40 MSTORE DUP1 SWAP3 SWAP2 SWAP1 DUP2 DUP2 MSTORE PUSH1 0x20 ADD DUP3 DUP1 SLOAD PUSH2 0x1B4A SWAP1 PUSH2 0x4354 JUMP JUMPDEST DUP1 ISZERO PUSH2 0x1B97 JUMPI DUP1 PUSH1 0x1F LT PUSH2 0x1B6C JUMPI PUSH2 0x100 DUP1 DUP4 SLOAD DIV MUL DUP4 MSTORE SWAP2 PUSH1 0x20 ADD SWAP2 PUSH2 0x1B97 JUMP JUMPDEST DUP3 ADD SWAP2 SWAP1 PUSH1 0x0 MSTORE PUSH1 0x20 PUSH1 0x0 KECCAK256 SWAP1 JUMPDEST DUP2 SLOAD DUP2 MSTORE SWAP1 PUSH1 0x1 ADD SWAP1 PUSH1 0x20 ADD DUP1 DUP4 GT PUSH2 0x1B7A JUMPI DUP3 SWAP1 SUB PUSH1 0x1F AND DUP3 ADD SWAP2 JUMPDEST POP POP POP POP POP DUP2 MSTORE PUSH1 0x20 ADD PUSH1 0x1 DUP3 ADD PUSH1 0x0 SWAP1 SLOAD SWAP1 PUSH2 0x100 EXP SWAP1 DIV PUSH1 0xFF AND ISZERO ISZERO ISZERO ISZERO DUP2 MSTORE PUSH1 0x20 ADD PUSH1 0x2 DUP3 ADD DUP1 SLOAD PUSH2 0x1BCB SWAP1 PUSH2 0x4354 JUMP JUMPDEST DUP1 PUSH1 0x1F ADD PUSH1 0x20 DUP1 SWAP2 DIV MUL PUSH1 0x20 ADD PUSH1 0x40 MLOAD SWAP1 DUP2 ADD PUSH1 0x40 MSTORE DUP1 SWAP3 SWAP2 SWAP1 DUP2 DUP2 MSTORE PUSH1 0x20 ADD DUP3 DUP1 SLOAD PUSH2 0x1BF7 SWAP1 PUSH2 0x4354 JUMP JUMPDEST DUP1 ISZERO PUSH2 0x1C44 JUMPI DUP1 PUSH1 0x1F LT PUSH2 0x1C19 JUMPI PUSH2 0x100 DUP1 DUP4 SLOAD DIV MUL DUP4 MSTORE SWAP2 PUSH1 0x20 ADD SWAP2 PUSH2 0x1C44 JUMP JUMPDEST DUP3 ADD SWAP2 SWAP1 PUSH1 0x0 MSTORE PUSH1 0x20 PUSH1 0x0 KECCAK256 SWAP1 JUMPDEST DUP2 SLOAD DUP2 MSTORE SWAP1 PUSH1 0x1 ADD SWAP1 PUSH1 0x20 ADD DUP1 DUP4 GT PUSH2 0x1C27 JUMPI DUP3 SWAP1 SUB PUSH1 0x1F AND DUP3 ADD SWAP2 JUMPDEST POP POP POP POP POP DUP2 MSTORE POP POP DUP2 MSTORE POP SWAP1 POP SWAP3 SWAP2 POP POP JUMP JUMPDEST PUSH2 0x1C60 PUSH2 0x2AD6 JUMP JUMPDEST PUSH1 0x0 DUP1 PUSH8 0xFFFFFFFFFFFFFFFF DUP2 GT ISZERO PUSH2 0x1C7C JUMPI PUSH2 0x1C7B PUSH2 0x2C2B JUMP JUMPDEST JUMPDEST PUSH1 0x40 MLOAD SWAP1 DUP1 DUP3 MSTORE DUP1 PUSH1 0x20 MUL PUSH1 0x20 ADD DUP3 ADD PUSH1 0x40 MSTORE DUP1 ISZERO PUSH2 0x1CB5 JUMPI DUP2 PUSH1 0x20 ADD JUMPDEST PUSH2 0x1CA2 PUSH2 0x2B17 JUMP JUMPDEST DUP2 MSTORE PUSH1 0x20 ADD SWAP1 PUSH1 0x1 SWAP1 SUB SWAP1 DUP2 PUSH2 0x1C9A JUMPI SWAP1 POP JUMPDEST POP SWAP1 POP PUSH1 0x40 MLOAD DUP1 PUSH1 0x80 ADD PUSH1 0x40 MSTORE DUP1 PUSH32 0xB8E2054F8A912367E38A22CE773328FF8AABF8082C4120BAD9EF085E1DBF29A7 PUSH16 0xFFFFFFFFFFFFFFFFFFFFFFFFFFFFFFFF NOT AND DUP2 MSTORE PUSH1 0x20 ADD DUP3 DUP2 MSTORE PUSH1 0x20 ADD DUP5 DUP2 MSTORE PUSH1 0x20 ADD PUSH1 0x0 PUSH1 0x40 MLOAD DUP1 PUSH1 0x60 ADD PUSH1 0x40 MSTORE SWAP1 DUP2 PUSH1 0x0 DUP3 ADD DUP1 SLOAD PUSH2 0x1D25 SWAP1 PUSH2 0x4354 JUMP JUMPDEST DUP1 PUSH1 0x1F ADD PUSH1 0x20 DUP1 SWAP2 DIV MUL PUSH1 0x20 ADD PUSH1 0x40 MLOAD SWAP1 DUP2 ADD PUSH1 0x40 MSTORE DUP1 SWAP3 SWAP2 SWAP1 DUP2 DUP2 MSTORE PUSH1 0x20 ADD DUP3 DUP1 SLOAD PUSH2 0x1D51 SWAP1 PUSH2 0x4354 JUMP JUMPDEST DUP1 ISZERO PUSH2 0x1D9E JUMPI DUP1 PUSH1 0x1F LT PUSH2 0x1D73 JUMPI PUSH2 0x100 DUP1 DUP4 SLOAD DIV MUL DUP4 MSTORE SWAP2 PUSH1 0x20 ADD SWAP2 PUSH2 0x1D9E JUMP JUMPDEST DUP3 ADD SWAP2 SWAP1 PUSH1 0x0 MSTORE PUSH1 0x20 PUSH1 0x0 KECCAK256 SWAP1 JUMPDEST DUP2 SLOAD DUP2 MSTORE SWAP1 PUSH1 0x1 ADD SWAP1 PUSH1 0x20 ADD DUP1 DUP4 GT PUSH2 0x1D81 JUMPI DUP3 SWAP1 SUB PUSH1 0x1F AND DUP3 ADD SWAP2 JUMPDEST POP POP POP POP POP DUP2 MSTORE PUSH1 0x20 ADD PUSH1 0x1 DUP3 ADD PUSH1 0x0 SWAP1 SLOAD SWAP1 PUSH2 0x100 EXP SWAP1 DIV PUSH1 0xFF AND ISZERO ISZERO ISZERO ISZERO DUP2 MSTORE PUSH1 0x20 ADD PUSH1 0x2 DUP3 ADD DUP1 SLOAD PUSH2 0x1DD2 SWAP1 PUSH2 0x4354 JUMP JUMPDEST DUP1 PUSH1 0x1F ADD PUSH1 0x20 DUP1 SWAP2 DIV MUL PUSH1 0x20 ADD PUSH1 0x40 MLOAD SWAP1 DUP2 ADD PUSH1 0x40 MSTORE DUP1 SWAP3 SWAP2 SWAP1 DUP2 DUP2 MSTORE PUSH1 0x20 ADD DUP3 DUP1 SLOAD PUSH2 0x1DFE SWAP1 PUSH2 0x4354 JUMP JUMPDEST DUP1 ISZERO PUSH2 0x1E4B JUMPI DUP1 PUSH1 0x1F LT PUSH2 0x1E20 JUMPI PUSH2 0x100 DUP1 DUP4 SLOAD DIV MUL DUP4 MSTORE SWAP2 PUSH1 0x20 ADD SWAP2 PUSH2 0x1E4B JUMP JUMPDEST DUP3 ADD SWAP2 SWAP1 PUSH1 0x0 MSTORE PUSH1 0x20 PUSH1 0x0 KECCAK256 SWAP1 JUMPDEST DUP2 SLOAD DUP2 MSTORE SWAP1 PUSH1 0x1 ADD SWAP1 PUSH1 0x20 ADD DUP1 DUP4 GT PUSH2 0x1E2E JUMPI DUP3 SWAP1 SUB PUSH1 0x1F AND DUP3 ADD SWAP2 JUMPDEST POP POP POP POP POP DUP2 MSTORE POP POP DUP2 MSTORE POP SWAP2 POP POP SWAP2 SWAP1 POP JUMP JUMPDEST PUSH2 0x1E67 PUSH2 0x2AD6 JUMP JUMPDEST PUSH1 0x0 DUP1 PUSH8 0xFFFFFFFFFFFFFFFF DUP2 GT ISZERO PUSH2 0x1E83 JUMPI PUSH2 0x1E82 PUSH2 0x2C2B JUMP JUMPDEST JUMPDEST PUSH1 0x40 MLOAD SWAP1 DUP1 DUP3 MSTORE DUP1 PUSH1 0x20 MUL PUSH1 0x20 ADD DUP3 ADD PUSH1 0x40 MSTORE DUP1 ISZERO PUSH2 0x1EBC JUMPI DUP2 PUSH1 0x20 ADD JUMPDEST PUSH2 0x1EA9 PUSH2 0x2B17 JUMP JUMPDEST DUP2 MSTORE PUSH1 0x20 ADD SWAP1 PUSH1 0x1 SWAP1 SUB SWAP1 DUP2 PUSH2 0x1EA1 JUMPI SWAP1 POP JUMPDEST POP SWAP1 POP PUSH1 0x40 MLOAD DUP1 PUSH1 0x80 ADD PUSH1 0x40 MSTORE DUP1 PUSH32 0xB8E2054F8A912367E38A22CE773328FF8AABF8082C4120BAD9EF085E1DBF29A7 PUSH16 0xFFFFFFFFFFFFFFFFFFFFFFFFFFFFFFFF NOT AND DUP2 MSTORE PUSH1 0x20 ADD DUP3 DUP2 MSTORE PUSH1 0x20 ADD DUP6 DUP2 MSTORE PUSH1 0x20 ADD DUP5 DUP2 MSTORE POP SWAP2 POP POP SWAP3 SWAP2 POP POP JUMP JUMPDEST PUSH2 0x1F24 PUSH2 0x2AD6 JUMP JUMPDEST PUSH1 0x0 DUP1 PUSH8 0xFFFFFFFFFFFFFFFF DUP2 GT ISZERO PUSH2 0x1F40 JUMPI PUSH2 0x1F3F PUSH2 0x2C2B JUMP JUMPDEST JUMPDEST PUSH1 0x40 MLOAD SWAP1 DUP1 DUP3 MSTORE DUP1 PUSH1 0x20 MUL PUSH1 0x20 ADD DUP3 ADD PUSH1 0x40 MSTORE DUP1 ISZERO PUSH2 0x1F79 JUMPI DUP2 PUSH1 0x20 ADD JUMPDEST PUSH2 0x1F66 PUSH2 0x2B17 JUMP JUMPDEST DUP2 MSTORE PUSH1 0x20 ADD SWAP1 PUSH1 0x1 SWAP1 SUB SWAP1 DUP2 PUSH2 0x1F5E JUMPI SWAP1 POP JUMPDEST POP SWAP1 POP PUSH1 0x0 PUSH1 0x1 PUSH8 0xFFFFFFFFFFFFFFFF DUP2 GT ISZERO PUSH2 0x1F99 JUMPI PUSH2 0x1F98 PUSH2 0x2C2B JUMP JUMPDEST JUMPDEST PUSH1 0x40 MLOAD SWAP1 DUP1 DUP3 MSTORE DUP1 PUSH1 0x20 MUL PUSH1 0x20 ADD DUP3 ADD PUSH1 0x40 MSTORE DUP1 ISZERO PUSH2 0x1FD2 JUMPI DUP2 PUSH1 0x20 ADD JUMPDEST PUSH2 0x1FBF PUSH2 0x2B65 JUMP JUMPDEST DUP2 MSTORE PUSH1 0x20 ADD SWAP1 PUSH1 0x1 SWAP1 SUB SWAP1 DUP2 PUSH2 0x1FB7 JUMPI SWAP1 POP JUMPDEST POP SWAP1 POP DUP5 DUP2 PUSH1 0x0 DUP2 MLOAD DUP2 LT PUSH2 0x1FEA JUMPI PUSH2 0x1FE9 PUSH2 0x42F6 JUMP JUMPDEST JUMPDEST PUSH1 0x20 MUL PUSH1 0x20 ADD ADD DUP2 SWAP1 MSTORE POP PUSH1 0x40 MLOAD DUP1 PUSH1 0x80 ADD PUSH1 0x40 MSTORE DUP1 PUSH32 0xB8E2054F8A912367E38A22CE773328FF8AABF8082C4120BAD9EF085E1DBF29A7 PUSH16 0xFFFFFFFFFFFFFFFFFFFFFFFFFFFFFFFF NOT AND DUP2 MSTORE PUSH1 0x20 ADD DUP4 DUP2 MSTORE PUSH1 0x20 ADD DUP3 DUP2 MSTORE PUSH1 0x20 ADD DUP6 DUP2 MSTORE POP SWAP3 POP POP POP SWAP3 SWAP2 POP POP JUMP JUMPDEST PUSH2 0x205B PUSH2 0x2AD6 JUMP JUMPDEST PUSH1 0x0 PUSH1 0x1 PUSH8 0xFFFFFFFFFFFFFFFF DUP2 GT ISZERO PUSH2 0x2078 JUMPI PUSH2 0x2077 PUSH2 0x2C2B JUMP JUMPDEST JUMPDEST PUSH1 0x40 MLOAD SWAP1 DUP1 DUP3 MSTORE DUP1 PUSH1 0x20 MUL PUSH1 0x20 ADD DUP3 ADD PUSH1 0x40 MSTORE DUP1 ISZERO PUSH2 0x20B1 JUMPI DUP2 PUSH1 0x20 ADD JUMPDEST PUSH2 0x209E PUSH2 0x2B17 JUMP JUMPDEST DUP2 MSTORE PUSH1 0x20 ADD SWAP1 PUSH1 0x1 SWAP1 SUB SWAP1 DUP2 PUSH2 0x2096 JUMPI SWAP1 POP JUMPDEST POP SWAP1 POP DUP3 DUP2 PUSH1 0x0 DUP2 MLOAD DUP2 LT PUSH2 0x20C9 JUMPI PUSH2 0x20C8 PUSH2 0x42F6 JUMP JUMPDEST JUMPDEST PUSH1 0x20 MUL PUSH1 0x20 ADD ADD DUP2 SWAP1 MSTORE POP PUSH1 0x0 DUP1 PUSH8 0xFFFFFFFFFFFFFFFF DUP2 GT ISZERO PUSH2 0x20F0 JUMPI PUSH2 0x20EF PUSH2 0x2C2B JUMP JUMPDEST JUMPDEST PUSH1 0x40 MLOAD SWAP1 DUP1 DUP3 MSTORE DUP1 PUSH1 0x20 MUL PUSH1 0x20 ADD DUP3 ADD PUSH1 0x40 MSTORE DUP1 ISZERO PUSH2 0x2129 JUMPI DUP2 PUSH1 0x20 ADD JUMPDEST PUSH2 0x2116 PUSH2 0x2B65 JUMP JUMPDEST DUP2 MSTORE PUSH1 0x20 ADD SWAP1 PUSH1 0x1 SWAP1 SUB SWAP1 DUP2 PUSH2 0x210E JUMPI SWAP1 POP JUMPDEST POP SWAP1 POP PUSH1 0x40 MLOAD DUP1 PUSH1 0x80 ADD PUSH1 0x40 MSTORE DUP1 PUSH32 0xB8E2054F8A912367E38A22CE773328FF8AABF8082C4120BAD9EF085E1DBF29A7 PUSH16 0xFFFFFFFFFFFFFFFFFFFFFFFFFFFFFFFF NOT AND DUP2 MSTORE PUSH1 0x20 ADD DUP4 DUP2 MSTORE PUSH1 0x20 ADD DUP3 DUP2 MSTORE PUSH1 0x20 ADD PUSH1 0x0 PUSH1 0x40 MLOAD DUP1 PUSH1 0x60 ADD PUSH1 0x40 MSTORE SWAP1 DUP2 PUSH1 0x0 DUP3 ADD DUP1 SLOAD PUSH2 0x2199 SWAP1 PUSH2 0x4354 JUMP JUMPDEST DUP1 PUSH1 0x1F ADD PUSH1 0x20 DUP1 SWAP2 DIV MUL PUSH1 0x20 ADD PUSH1 0x40 MLOAD SWAP1 DUP2 ADD PUSH1 0x40 MSTORE DUP1 SWAP3 SWAP2 SWAP1 DUP2 DUP2 MSTORE PUSH1 0x20 ADD DUP3 DUP1 SLOAD PUSH2 0x21C5 SWAP1 PUSH2 0x4354 JUMP JUMPDEST DUP1 ISZERO PUSH2 0x2212 JUMPI DUP1 PUSH1 0x1F LT PUSH2 0x21E7 JUMPI PUSH2 0x100 DUP1 DUP4 SLOAD DIV MUL DUP4 MSTORE SWAP2 PUSH1 0x20 ADD SWAP2 PUSH2 0x2212 JUMP JUMPDEST DUP3 ADD SWAP2 SWAP1 PUSH1 0x0 MSTORE PUSH1 0x20 PUSH1 0x0 KECCAK256 SWAP1 JUMPDEST DUP2 SLOAD DUP2 MSTORE SWAP1 PUSH1 0x1 ADD SWAP1 PUSH1 0x20 ADD DUP1 DUP4 GT PUSH2 0x21F5 JUMPI DUP3 SWAP1 SUB PUSH1 0x1F AND DUP3 ADD SWAP2 JUMPDEST POP POP POP POP POP DUP2 MSTORE PUSH1 0x20 ADD PUSH1 0x1 DUP3 ADD PUSH1 0x0 SWAP1 SLOAD SWAP1 PUSH2 0x100 EXP SWAP1 DIV PUSH1 0xFF AND ISZERO ISZERO ISZERO ISZERO DUP2 MSTORE PUSH1 0x20 ADD PUSH1 0x2 DUP3 ADD DUP1 SLOAD PUSH2 0x2246 SWAP1 PUSH2 0x4354 JUMP JUMPDEST DUP1 PUSH1 0x1F ADD PUSH1 0x20 DUP1 SWAP2 DIV MUL PUSH1 0x20 ADD PUSH1 0x40 MLOAD SWAP1 DUP2 ADD PUSH1 0x40 MSTORE DUP1 SWAP3 SWAP2 SWAP1 DUP2 DUP2 MSTORE PUSH1 0x20 ADD DUP3 DUP1 SLOAD PUSH2 0x2272 SWAP1 PUSH2 0x4354 JUMP JUMPDEST DUP1 ISZERO PUSH2 0x22BF JUMPI DUP1 PUSH1 0x1F LT PUSH2 0x2294 JUMPI PUSH2 0x100 DUP1 DUP4 SLOAD DIV MUL DUP4 MSTORE SWAP2 PUSH1 0x20 ADD SWAP2 PUSH2 0x22BF JUMP JUMPDEST DUP3 ADD SWAP2 SWAP1 PUSH1 0x0 MSTORE PUSH1 0x20 PUSH1 0x0 KECCAK256 SWAP1 JUMPDEST DUP2 SLOAD DUP2 MSTORE SWAP1 PUSH1 0x1 ADD SWAP1 PUSH1 0x20 ADD DUP1 DUP4 GT PUSH2 0x22A2 JUMPI DUP3 SWAP1 SUB PUSH1 0x1F AND DUP3 ADD SWAP2 JUMPDEST POP POP POP POP POP DUP2 MSTORE POP POP DUP2 MSTORE POP SWAP3 POP POP POP SWAP2 SWAP1 POP JUMP JUMPDEST PUSH2 0x22DC PUSH2 0x2AD6 JUMP JUMPDEST PUSH1 0x0 DUP1 PUSH8 0xFFFFFFFFFFFFFFFF DUP2 GT ISZERO PUSH2 0x22F8 JUMPI PUSH2 0x22F7 PUSH2 0x2C2B JUMP JUMPDEST JUMPDEST PUSH1 0x40 MLOAD SWAP1 DUP1 DUP3 MSTORE DUP1 PUSH1 0x20 MUL PUSH1 0x20 ADD DUP3 ADD PUSH1 0x40 MSTORE DUP1 ISZERO PUSH2 0x2331 JUMPI DUP2 PUSH1 0x20 ADD JUMPDEST PUSH2 0x231E PUSH2 0x2B65 JUMP JUMPDEST DUP2 MSTORE PUSH1 0x20 ADD SWAP1 PUSH1 0x1 SWAP1 SUB SWAP1 DUP2 PUSH2 0x2316 JUMPI SWAP1 POP JUMPDEST POP SWAP1 POP PUSH1 0x40 MLOAD DUP1 PUSH1 0x80 ADD PUSH1 0x40 MSTORE DUP1 DUP5 PUSH16 0xFFFFFFFFFFFFFFFFFFFFFFFFFFFFFFFF NOT AND DUP2 MSTORE PUSH1 0x20 ADD DUP7 DUP2 MSTORE PUSH1 0x20 ADD DUP3 DUP2 MSTORE PUSH1 0x20 ADD DUP6 DUP2 MSTORE POP SWAP2 POP POP SWAP4 SWAP3 POP POP POP JUMP JUMPDEST PUSH2 0x237A PUSH2 0x2AD6 JUMP JUMPDEST PUSH1 0x0 PUSH1 0x1 PUSH8 0xFFFFFFFFFFFFFFFF DUP2 GT ISZERO PUSH2 0x2397 JUMPI PUSH2 0x2396 PUSH2 0x2C2B JUMP JUMPDEST JUMPDEST PUSH1 0x40 MLOAD SWAP1 DUP1 DUP3 MSTORE DUP1 PUSH1 0x20 MUL PUSH1 0x20 ADD DUP3 ADD PUSH1 0x40 MSTORE DUP1 ISZERO PUSH2 0x23D0 JUMPI DUP2 PUSH1 0x20 ADD JUMPDEST PUSH2 0x23BD PUSH2 0x2B17 JUMP JUMPDEST DUP2 MSTORE PUSH1 0x20 ADD SWAP1 PUSH1 0x1 SWAP1 SUB SWAP1 DUP2 PUSH2 0x23B5 JUMPI SWAP1 POP JUMPDEST POP SWAP1 POP DUP4 DUP2 PUSH1 0x0 DUP2 MLOAD DUP2 LT PUSH2 0x23E8 JUMPI PUSH2 0x23E7 PUSH2 0x42F6 JUMP JUMPDEST JUMPDEST PUSH1 0x20 MUL PUSH1 0x20 ADD ADD DUP2 SWAP1 MSTORE POP PUSH1 0x0 PUSH1 0x1 PUSH8 0xFFFFFFFFFFFFFFFF DUP2 GT ISZERO PUSH2 0x2410 JUMPI PUSH2 0x240F PUSH2 0x2C2B JUMP JUMPDEST JUMPDEST PUSH1 0x40 MLOAD SWAP1 DUP1 DUP3 MSTORE DUP1 PUSH1 0x20 MUL PUSH1 0x20 ADD DUP3 ADD PUSH1 0x40 MSTORE DUP1 ISZERO PUSH2 0x2449 JUMPI DUP2 PUSH1 0x20 ADD JUMPDEST PUSH2 0x2436 PUSH2 0x2B65 JUMP JUMPDEST DUP2 MSTORE PUSH1 0x20 ADD SWAP1 PUSH1 0x1 SWAP1 SUB SWAP1 DUP2 PUSH2 0x242E JUMPI SWAP1 POP JUMPDEST POP SWAP1 POP DUP4 DUP2 PUSH1 0x0 DUP2 MLOAD DUP2 LT PUSH2 0x2461 JUMPI PUSH2 0x2460 PUSH2 0x42F6 JUMP JUMPDEST JUMPDEST PUSH1 0x20 MUL PUSH1 0x20 ADD ADD DUP2 SWAP1 MSTORE POP PUSH1 0x40 MLOAD DUP1 PUSH1 0x80 ADD PUSH1 0x40 MSTORE DUP1 PUSH32 0xB8E2054F8A912367E38A22CE773328FF8AABF8082C4120BAD9EF085E1DBF29A7 PUSH16 0xFFFFFFFFFFFFFFFFFFFFFFFFFFFFFFFF NOT AND DUP2 MSTORE PUSH1 0x20 ADD DUP4 DUP2 MSTORE PUSH1 0x20 ADD DUP3 DUP2 MSTORE PUSH1 0x20 ADD PUSH1 0x0 PUSH1 0x40 MLOAD DUP1 PUSH1 0x60 ADD PUSH1 0x40 MSTORE SWAP1 DUP2 PUSH1 0x0 DUP3 ADD DUP1 SLOAD PUSH2 0x24D9 SWAP1 PUSH2 0x4354 JUMP JUMPDEST DUP1 PUSH1 0x1F ADD PUSH1 0x20 DUP1 SWAP2 DIV MUL PUSH1 0x20 ADD PUSH1 0x40 MLOAD SWAP1 DUP2 ADD PUSH1 0x40 MSTORE DUP1 SWAP3 SWAP2 SWAP1 DUP2 DUP2 MSTORE PUSH1 0x20 ADD DUP3 DUP1 SLOAD PUSH2 0x2505 SWAP1 PUSH2 0x4354 JUMP JUMPDEST DUP1 ISZERO PUSH2 0x2552 JUMPI DUP1 PUSH1 0x1F LT PUSH2 0x2527 JUMPI PUSH2 0x100 DUP1 DUP4 SLOAD DIV MUL DUP4 MSTORE SWAP2 PUSH1 0x20 ADD SWAP2 PUSH2 0x2552 JUMP JUMPDEST DUP3 ADD SWAP2 SWAP1 PUSH1 0x0 MSTORE PUSH1 0x20 PUSH1 0x0 KECCAK256 SWAP1 JUMPDEST DUP2 SLOAD DUP2 MSTORE SWAP1 PUSH1 0x1 ADD SWAP1 PUSH1 0x20 ADD DUP1 DUP4 GT PUSH2 0x2535 JUMPI DUP3 SWAP1 SUB PUSH1 0x1F AND DUP3 ADD SWAP2 JUMPDEST POP POP POP POP POP DUP2 MSTORE PUSH1 0x20 ADD PUSH1 0x1 DUP3 ADD PUSH1 0x0 SWAP1 SLOAD SWAP1 PUSH2 0x100 EXP SWAP1 DIV PUSH1 0xFF AND ISZERO ISZERO ISZERO ISZERO DUP2 MSTORE PUSH1 0x20 ADD PUSH1 0x2 DUP3 ADD DUP1 SLOAD PUSH2 0x2586 SWAP1 PUSH2 0x4354 JUMP JUMPDEST DUP1 PUSH1 0x1F ADD PUSH1 0x20 DUP1 SWAP2 DIV MUL PUSH1 0x20 ADD PUSH1 0x40 MLOAD SWAP1 DUP2 ADD PUSH1 0x40 MSTORE DUP1 SWAP3 SWAP2 SWAP1 DUP2 DUP2 MSTORE PUSH1 0x20 ADD DUP3 DUP1 SLOAD PUSH2 0x25B2 SWAP1 PUSH2 0x4354 JUMP JUMPDEST DUP1 ISZERO PUSH2 0x25FF JUMPI DUP1 PUSH1 0x1F LT PUSH2 0x25D4 JUMPI PUSH2 0x100 DUP1 DUP4 SLOAD DIV MUL DUP4 MSTORE SWAP2 PUSH1 0x20 ADD SWAP2 PUSH2 0x25FF JUMP JUMPDEST DUP3 ADD SWAP2 SWAP1 PUSH1 0x0 MSTORE PUSH1 0x20 PUSH1 0x0 KECCAK256 SWAP1 JUMPDEST DUP2 SLOAD DUP2 MSTORE SWAP1 PUSH1 0x1 ADD SWAP1 PUSH1 0x20 ADD DUP1 DUP4 GT PUSH2 0x25E2 JUMPI DUP3 SWAP1 SUB PUSH1 0x1F AND DUP3 ADD SWAP2 JUMPDEST POP POP POP POP POP DUP2 MSTORE POP POP DUP2 MSTORE POP SWAP3 POP POP POP SWAP3 SWAP2 POP POP JUMP JUMPDEST PUSH2 0x261D PUSH2 0x2AD6 JUMP JUMPDEST PUSH1 0x40 MLOAD DUP1 PUSH1 0x80 ADD PUSH1 0x40 MSTORE DUP1 DUP4 PUSH16 0xFFFFFFFFFFFFFFFFFFFFFFFFFFFFFFFF NOT AND DUP2 MSTORE PUSH1 0x20 ADD DUP7 DUP2 MSTORE PUSH1 0x20 ADD DUP6 DUP2 MSTORE PUSH1 0x20 ADD DUP5 DUP2 MSTORE POP SWAP1 POP SWAP5 SWAP4 POP POP POP POP JUMP JUMPDEST PUSH2 0x2663 PUSH2 0x2AD6 JUMP JUMPDEST PUSH1 0x0 PUSH1 0x1 PUSH8 0xFFFFFFFFFFFFFFFF DUP2 GT ISZERO PUSH2 0x2680 JUMPI PUSH2 0x267F PUSH2 0x2C2B JUMP JUMPDEST JUMPDEST PUSH1 0x40 MLOAD SWAP1 DUP1 DUP3 MSTORE DUP1 PUSH1 0x20 MUL PUSH1 0x20 ADD DUP3 ADD PUSH1 0x40 MSTORE DUP1 ISZERO PUSH2 0x26B9 JUMPI DUP2 PUSH1 0x20 ADD JUMPDEST PUSH2 0x26A6 PUSH2 0x2B17 JUMP JUMPDEST DUP2 MSTORE PUSH1 0x20 ADD SWAP1 PUSH1 0x1 SWAP1 SUB SWAP1 DUP2 PUSH2 0x269E JUMPI SWAP1 POP JUMPDEST POP SWAP1 POP DUP6 DUP2 PUSH1 0x0 DUP2 MLOAD DUP2 LT PUSH2 0x26D1 JUMPI PUSH2 0x26D0 PUSH2 0x42F6 JUMP JUMPDEST JUMPDEST PUSH1 0x20 MUL PUSH1 0x20 ADD ADD DUP2 SWAP1 MSTORE POP PUSH1 0x0 PUSH1 0x1 PUSH8 0xFFFFFFFFFFFFFFFF DUP2 GT ISZERO PUSH2 0x26F9 JUMPI PUSH2 0x26F8 PUSH2 0x2C2B JUMP JUMPDEST JUMPDEST PUSH1 0x40 MLOAD SWAP1 DUP1 DUP3 MSTORE DUP1 PUSH1 0x20 MUL PUSH1 0x20 ADD DUP3 ADD PUSH1 0x40 MSTORE DUP1 ISZERO PUSH2 0x2732 JUMPI DUP2 PUSH1 0x20 ADD JUMPDEST PUSH2 0x271F PUSH2 0x2B65 JUMP JUMPDEST DUP2 MSTORE PUSH1 0x20 ADD SWAP1 PUSH1 0x1 SWAP1 SUB SWAP1 DUP2 PUSH2 0x2717 JUMPI SWAP1 POP JUMPDEST POP SWAP1 POP DUP6 DUP2 PUSH1 0x0 DUP2 MLOAD DUP2 LT PUSH2 0x274A JUMPI PUSH2 0x2749 PUSH2 0x42F6 JUMP JUMPDEST JUMPDEST PUSH1 0x20 MUL PUSH1 0x20 ADD ADD DUP2 SWAP1 MSTORE POP PUSH1 0x40 MLOAD DUP1 PUSH1 0x80 ADD PUSH1 0x40 MSTORE DUP1 DUP6 PUSH16 0xFFFFFFFFFFFFFFFFFFFFFFFFFFFFFFFF NOT AND DUP2 MSTORE PUSH1 0x20 ADD DUP4 DUP2 MSTORE PUSH1 0x20 ADD DUP3 DUP2 MSTORE PUSH1 0x20 ADD DUP7 DUP2 MSTORE POP SWAP3 POP POP POP SWAP5 SWAP4 POP POP POP POP JUMP JUMPDEST PUSH2 0x279D PUSH2 0x2AD6 JUMP JUMPDEST PUSH1 0x0 DUP1 PUSH8 0xFFFFFFFFFFFFFFFF DUP2 GT ISZERO PUSH2 0x27B9 JUMPI PUSH2 0x27B8 PUSH2 0x2C2B JUMP JUMPDEST JUMPDEST PUSH1 0x40 MLOAD SWAP1 DUP1 DUP3 MSTORE DUP1 PUSH1 0x20 MUL PUSH1 0x20 ADD DUP3 ADD PUSH1 0x40 MSTORE DUP1 ISZERO PUSH2 0x27F2 JUMPI DUP2 PUSH1 0x20 ADD JUMPDEST PUSH2 0x27DF PUSH2 0x2B17 JUMP JUMPDEST DUP2 MSTORE PUSH1 0x20 ADD SWAP1 PUSH1 0x1 SWAP1 SUB SWAP1 DUP2 PUSH2 0x27D7 JUMPI SWAP1 POP JUMPDEST POP SWAP1 POP PUSH1 0x40 MLOAD DUP1 PUSH1 0x80 ADD PUSH1 0x40 MSTORE DUP1 DUP5 PUSH16 0xFFFFFFFFFFFFFFFFFFFFFFFFFFFFFFFF NOT AND DUP2 MSTORE PUSH1 0x20 ADD DUP3 DUP2 MSTORE PUSH1 0x20 ADD DUP6 DUP2 MSTORE PUSH1 0x20 ADD PUSH1 0x0 PUSH1 0x40 MLOAD DUP1 PUSH1 0x60 ADD PUSH1 0x40 MSTORE SWAP1 DUP2 PUSH1 0x0 DUP3 ADD DUP1 SLOAD PUSH2 0x2842 SWAP1 PUSH2 0x4354 JUMP JUMPDEST DUP1 PUSH1 0x1F ADD PUSH1 0x20 DUP1 SWAP2 DIV MUL PUSH1 0x20 ADD PUSH1 0x40 MLOAD SWAP1 DUP2 ADD PUSH1 0x40 MSTORE DUP1 SWAP3 SWAP2 SWAP1 DUP2 DUP2 MSTORE PUSH1 0x20 ADD DUP3 DUP1 SLOAD PUSH2 0x286E SWAP1 PUSH2 0x4354 JUMP JUMPDEST DUP1 ISZERO PUSH2 0x28BB JUMPI DUP1 PUSH1 0x1F LT PUSH2 0x2890 JUMPI PUSH2 0x100 DUP1 DUP4 SLOAD DIV MUL DUP4 MSTORE SWAP2 PUSH1 0x20 ADD SWAP2 PUSH2 0x28BB JUMP JUMPDEST DUP3 ADD SWAP2 SWAP1 PUSH1 0x0 MSTORE PUSH1 0x20 PUSH1 0x0 KECCAK256 SWAP1 JUMPDEST DUP2 SLOAD DUP2 MSTORE SWAP1 PUSH1 0x1 ADD SWAP1 PUSH1 0x20 ADD DUP1 DUP4 GT PUSH2 0x289E JUMPI DUP3 SWAP1 SUB PUSH1 0x1F AND DUP3 ADD SWAP2 JUMPDEST POP POP POP POP POP DUP2 MSTORE PUSH1 0x20 ADD PUSH1 0x1 DUP3 ADD PUSH1 0x0 SWAP1 SLOAD SWAP1 PUSH2 0x100 EXP SWAP1 DIV PUSH1 0xFF AND ISZERO ISZERO ISZERO ISZERO DUP2 MSTORE PUSH1 0x20 ADD PUSH1 0x2 DUP3 ADD DUP1 SLOAD PUSH2 0x28EF SWAP1 PUSH2 0x4354 JUMP JUMPDEST DUP1 PUSH1 0x1F ADD PUSH1 0x20 DUP1 SWAP2 DIV MUL PUSH1 0x20 ADD PUSH1 0x40 MLOAD SWAP1 DUP2 ADD PUSH1 0x40 MSTORE DUP1 SWAP3 SWAP2 SWAP1 DUP2 DUP2 MSTORE PUSH1 0x20 ADD DUP3 DUP1 SLOAD PUSH2 0x291B SWAP1 PUSH2 0x4354 JUMP JUMPDEST DUP1 ISZERO PUSH2 0x2968 JUMPI DUP1 PUSH1 0x1F LT PUSH2 0x293D JUMPI PUSH2 0x100 DUP1 DUP4 SLOAD DIV MUL DUP4 MSTORE SWAP2 PUSH1 0x20 ADD SWAP2 PUSH2 0x2968 JUMP JUMPDEST DUP3 ADD SWAP2 SWAP1 PUSH1 0x0 MSTORE PUSH1 0x20 PUSH1 0x0 KECCAK256 SWAP1 JUMPDEST DUP2 SLOAD DUP2 MSTORE SWAP1 PUSH1 0x1 ADD SWAP1 PUSH1 0x20 ADD DUP1 DUP4 GT PUSH2 0x294B JUMPI DUP3 SWAP1 SUB PUSH1 0x1F AND DUP3 ADD SWAP2 JUMPDEST POP POP POP POP POP DUP2 MSTORE POP POP DUP2 MSTORE POP SWAP2 POP POP SWAP3 SWAP2 POP POP JUMP JUMPDEST PUSH2 0x2985 PUSH2 0x2AD6 JUMP JUMPDEST PUSH1 0x0 PUSH1 0x1 PUSH8 0xFFFFFFFFFFFFFFFF DUP2 GT ISZERO PUSH2 0x29A2 JUMPI PUSH2 0x29A1 PUSH2 0x2C2B JUMP JUMPDEST JUMPDEST PUSH1 0x40 MLOAD SWAP1 DUP1 DUP3 MSTORE DUP1 PUSH1 0x20 MUL PUSH1 0x20 ADD DUP3 ADD PUSH1 0x40 MSTORE DUP1 ISZERO PUSH2 0x29DB JUMPI DUP2 PUSH1 0x20 ADD JUMPDEST PUSH2 0x29C8 PUSH2 0x2B17 JUMP JUMPDEST DUP2 MSTORE PUSH1 0x20 ADD SWAP1 PUSH1 0x1 SWAP1 SUB SWAP1 DUP2 PUSH2 0x29C0 JUMPI SWAP1 POP JUMPDEST POP SWAP1 POP DUP5 DUP2 PUSH1 0x0 DUP2 MLOAD DUP2 LT PUSH2 0x29F3 JUMPI PUSH2 0x29F2 PUSH2 0x42F6 JUMP JUMPDEST JUMPDEST PUSH1 0x20 MUL PUSH1 0x20 ADD ADD DUP2 SWAP1 MSTORE POP PUSH1 0x0 PUSH1 0x1 PUSH8 0xFFFFFFFFFFFFFFFF DUP2 GT ISZERO PUSH2 0x2A1B JUMPI PUSH2 0x2A1A PUSH2 0x2C2B JUMP JUMPDEST JUMPDEST PUSH1 0x40 MLOAD SWAP1 DUP1 DUP3 MSTORE DUP1 PUSH1 0x20 MUL PUSH1 0x20 ADD DUP3 ADD PUSH1 0x40 MSTORE DUP1 ISZERO PUSH2 0x2A54 JUMPI DUP2 PUSH1 0x20 ADD JUMPDEST PUSH2 0x2A41 PUSH2 0x2B65 JUMP JUMPDEST DUP2 MSTORE PUSH1 0x20 ADD SWAP1 PUSH1 0x1 SWAP1 SUB SWAP1 DUP2 PUSH2 0x2A39 JUMPI SWAP1 POP JUMPDEST POP SWAP1 POP DUP5 DUP2 PUSH1 0x0 DUP2 MLOAD DUP2 LT PUSH2 0x2A6C JUMPI PUSH2 0x2A6B PUSH2 0x42F6 JUMP JUMPDEST JUMPDEST PUSH1 0x20 MUL PUSH1 0x20 ADD ADD DUP2 SWAP1 MSTORE POP PUSH1 0x40 MLOAD DUP1 PUSH1 0x80 ADD PUSH1 0x40 MSTORE DUP1 PUSH32 0xB8E2054F8A912367E38A22CE773328FF8AABF8082C4120BAD9EF085E1DBF29A7 PUSH16 0xFFFFFFFFFFFFFFFFFFFFFFFFFFFFFFFF NOT AND DUP2 MSTORE PUSH1 0x20 ADD DUP4 DUP2 MSTORE PUSH1 0x20 ADD DUP3 DUP2 MSTORE PUSH1 0x20 ADD DUP6 DUP2 MSTORE POP SWAP3 POP POP POP SWAP4 SWAP3 POP POP POP JUMP JUMPDEST PUSH1 0x40 MLOAD DUP1 PUSH1 0x80 ADD PUSH1 0x40 MSTORE DUP1 PUSH1 0x0 PUSH16 0xFFFFFFFFFFFFFFFFFFFFFFFFFFFFFFFF NOT AND DUP2 MSTORE PUSH1 0x20 ADD PUSH1 0x60 DUP2 MSTORE PUSH1 0x20 ADD PUSH1 0x60 DUP2 MSTORE PUSH1 0x20 ADD PUSH2 0x2B11 PUSH2 0x2BDE JUMP JUMPDEST DUP2 MSTORE POP SWAP1 JUMP JUMPDEST PUSH1 0x40 MLOAD DUP1 PUSH1 0xC0 ADD PUSH1 0x40 MSTORE DUP1 PUSH1 0x0 PUSH1 0x5 DUP2 GT ISZERO PUSH2 0x2B36 JUMPI PUSH2 0x2B35 PUSH2 0x2FB7 JUMP JUMPDEST JUMPDEST DUP2 MSTORE PUSH1 0x20 ADD PUSH1 0x0 DUP2 MSTORE PUSH1 0x20 ADD PUSH1 0x0 ISZERO ISZERO DUP2 MSTORE PUSH1 0x20 ADD PUSH1 0x0 ISZERO ISZERO DUP2 MSTORE PUSH1 0x20 ADD PUSH1 0x0 ISZERO ISZERO DUP2 MSTORE PUSH1 0x20 ADD PUSH1 0x60 DUP2 MSTORE POP SWAP1 JUMP JUMPDEST PUSH1 0x40 MLOAD DUP1 PUSH1 0xE0 ADD PUSH1 0x40 MSTORE DUP1 PUSH1 0x0 PUSH1 0x4 DUP2 GT ISZERO PUSH2 0x2B84 JUMPI PUSH2 0x2B83 PUSH2 0x2FB7 JUMP JUMPDEST JUMPDEST DUP2 MSTORE PUSH1 0x20 ADD PUSH1 0x0 PUSH16 0xFFFFFFFFFFFFFFFFFFFFFFFFFFFFFFFF NOT AND DUP2 MSTORE PUSH1 0x20 ADD PUSH1 0x0 PUSH16 0xFFFFFFFFFFFFFFFFFFFFFFFFFFFFFFFF NOT AND DUP2 MSTORE PUSH1 0x20 ADD PUSH1 0x0 DUP2 MSTORE PUSH1 0x20 ADD PUSH1 0x0 ISZERO ISZERO DUP2 MSTORE PUSH1 0x20 ADD PUSH1 0x0 ISZERO ISZERO DUP2 MSTORE PUSH1 0x20 ADD PUSH1 0x60 DUP2 MSTORE POP SWAP1 JUMP JUMPDEST PUSH1 0x40 MLOAD DUP1 PUSH1 0x60 ADD PUSH1 0x40 MSTORE DUP1 PUSH1 0x60 DUP2 MSTORE PUSH1 0x20 ADD PUSH1 0x0 ISZERO ISZERO DUP2 MSTORE PUSH1 0x20 ADD PUSH1 0x60 DUP2 MSTORE POP SWAP1 JUMP JUMPDEST PUSH1 0x0 PUSH1 0x40 MLOAD SWAP1 POP SWAP1 JUMP JUMPDEST PUSH1 0x0 DUP1 REVERT JUMPDEST PUSH1 0x0 DUP1 REVERT JUMPDEST PUSH1 0x0 DUP1 REVERT JUMPDEST PUSH1 0x0 PUSH1 0x1F NOT PUSH1 0x1F DUP4 ADD AND SWAP1 POP SWAP2 SWAP1 POP JUMP JUMPDEST PUSH32 0x4E487B7100000000000000000000000000000000000000000000000000000000 PUSH1 0x0 MSTORE PUSH1 0x41 PUSH1 0x4 MSTORE PUSH1 0x24 PUSH1 0x0 REVERT JUMPDEST PUSH2 0x2C63 DUP3 PUSH2 0x2C1A JUMP JUMPDEST DUP2 ADD DUP2 DUP2 LT PUSH8 0xFFFFFFFFFFFFFFFF DUP3 GT OR ISZERO PUSH2 0x2C82 JUMPI PUSH2 0x2C81 PUSH2 0x2C2B JUMP JUMPDEST JUMPDEST DUP1 PUSH1 0x40 MSTORE POP POP POP JUMP JUMPDEST PUSH1 0x0 PUSH2 0x2C95 PUSH2 0x2C01 JUMP JUMPDEST SWAP1 POP PUSH2 0x2CA1 DUP3 DUP3 PUSH2 0x2C5A JUMP JUMPDEST SWAP2 SWAP1 POP JUMP JUMPDEST PUSH1 0x0 DUP1 REVERT JUMPDEST PUSH1 0x5 DUP2 LT PUSH2 0x2CB8 JUMPI PUSH1 0x0 DUP1 REVERT JUMPDEST POP JUMP JUMPDEST PUSH1 0x0 DUP2 CALLDATALOAD SWAP1 POP PUSH2 0x2CCA DUP2 PUSH2 0x2CAB JUMP JUMPDEST SWAP3 SWAP2 POP POP JUMP JUMPDEST PUSH1 0x0 PUSH32 0xFFFFFFFFFFFFFFFFFFFFFFFFFFFFFFFF00000000000000000000000000000000 DUP3 AND SWAP1 POP SWAP2 SWAP1 POP JUMP JUMPDEST PUSH2 0x2D05 DUP2 PUSH2 0x2CD0 JUMP JUMPDEST DUP2 EQ PUSH2 0x2D10 JUMPI PUSH1 0x0 DUP1 REVERT JUMPDEST POP JUMP JUMPDEST PUSH1 0x0 DUP2 CALLDATALOAD SWAP1 POP PUSH2 0x2D22 DUP2 PUSH2 0x2CFC JUMP JUMPDEST SWAP3 SWAP2 POP POP JUMP JUMPDEST PUSH1 0x0 DUP2 SWAP1 POP SWAP2 SWAP1 POP JUMP JUMPDEST PUSH2 0x2D3B DUP2 PUSH2 0x2D28 JUMP JUMPDEST DUP2 EQ PUSH2 0x2D46 JUMPI PUSH1 0x0 DUP1 REVERT JUMPDEST POP JUMP JUMPDEST PUSH1 0x0 DUP2 CALLDATALOAD SWAP1 POP PUSH2 0x2D58 DUP2 PUSH2 0x2D32 JUMP JUMPDEST SWAP3 SWAP2 POP POP JUMP JUMPDEST PUSH1 0x0 DUP2 ISZERO ISZERO SWAP1 POP SWAP2 SWAP1 POP JUMP JUMPDEST PUSH2 0x2D73 DUP2 PUSH2 0x2D5E JUMP JUMPDEST DUP2 EQ PUSH2 0x2D7E JUMPI PUSH1 0x0 DUP1 REVERT JUMPDEST POP JUMP JUMPDEST PUSH1 0x0 DUP2 CALLDATALOAD SWAP1 POP PUSH2 0x2D90 DUP2 PUSH2 0x2D6A JUMP JUMPDEST SWAP3 SWAP2 POP POP JUMP JUMPDEST PUSH1 0x0 DUP1 REVERT JUMPDEST PUSH1 0x0 DUP1 REVERT JUMPDEST PUSH1 0x0 PUSH8 0xFFFFFFFFFFFFFFFF DUP3 GT ISZERO PUSH2 0x2DBB JUMPI PUSH2 0x2DBA PUSH2 0x2C2B JUMP JUMPDEST JUMPDEST PUSH2 0x2DC4 DUP3 PUSH2 0x2C1A JUMP JUMPDEST SWAP1 POP PUSH1 0x20 DUP2 ADD SWAP1 POP SWAP2 SWAP1 POP JUMP JUMPDEST DUP3 DUP2 DUP4 CALLDATACOPY PUSH1 0x0 DUP4 DUP4 ADD MSTORE POP POP POP JUMP JUMPDEST PUSH1 0x0 PUSH2 0x2DF3 PUSH2 0x2DEE DUP5 PUSH2 0x2DA0 JUMP JUMPDEST PUSH2 0x2C8B JUMP JUMPDEST SWAP1 POP DUP3 DUP2 MSTORE PUSH1 0x20 DUP2 ADD DUP5 DUP5 DUP5 ADD GT ISZERO PUSH2 0x2E0F JUMPI PUSH2 0x2E0E PUSH2 0x2D9B JUMP JUMPDEST JUMPDEST PUSH2 0x2E1A DUP5 DUP3 DUP6 PUSH2 0x2DD1 JUMP JUMPDEST POP SWAP4 SWAP3 POP POP POP JUMP JUMPDEST PUSH1 0x0 DUP3 PUSH1 0x1F DUP4 ADD SLT PUSH2 0x2E37 JUMPI PUSH2 0x2E36 PUSH2 0x2D96 JUMP JUMPDEST JUMPDEST DUP2 CALLDATALOAD PUSH2 0x2E47 DUP5 DUP3 PUSH1 0x20 DUP7 ADD PUSH2 0x2DE0 JUMP JUMPDEST SWAP2 POP POP SWAP3 SWAP2 POP POP JUMP JUMPDEST PUSH1 0x0 PUSH1 0xE0 DUP3 DUP5 SUB SLT ISZERO PUSH2 0x2E66 JUMPI PUSH2 0x2E65 PUSH2 0x2C15 JUMP JUMPDEST JUMPDEST PUSH2 0x2E70 PUSH1 0xE0 PUSH2 0x2C8B JUMP JUMPDEST SWAP1 POP PUSH1 0x0 PUSH2 0x2E80 DUP5 DUP3 DUP6 ADD PUSH2 0x2CBB JUMP JUMPDEST PUSH1 0x0 DUP4 ADD MSTORE POP PUSH1 0x20 PUSH2 0x2E94 DUP5 DUP3 DUP6 ADD PUSH2 0x2D13 JUMP JUMPDEST PUSH1 0x20 DUP4 ADD MSTORE POP PUSH1 0x40 PUSH2 0x2EA8 DUP5 DUP3 DUP6 ADD PUSH2 0x2D13 JUMP JUMPDEST PUSH1 0x40 DUP4 ADD MSTORE POP PUSH1 0x60 PUSH2 0x2EBC DUP5 DUP3 DUP6 ADD PUSH2 0x2D49 JUMP JUMPDEST PUSH1 0x60 DUP4 ADD MSTORE POP PUSH1 0x80 PUSH2 0x2ED0 DUP5 DUP3 DUP6 ADD PUSH2 0x2D81 JUMP JUMPDEST PUSH1 0x80 DUP4 ADD MSTORE POP PUSH1 0xA0 PUSH2 0x2EE4 DUP5 DUP3 DUP6 ADD PUSH2 0x2D81 JUMP JUMPDEST PUSH1 0xA0 DUP4 ADD MSTORE POP PUSH1 0xC0 DUP3 ADD CALLDATALOAD PUSH8 0xFFFFFFFFFFFFFFFF DUP2 GT ISZERO PUSH2 0x2F08 JUMPI PUSH2 0x2F07 PUSH2 0x2CA6 JUMP JUMPDEST JUMPDEST PUSH2 0x2F14 DUP5 DUP3 DUP6 ADD PUSH2 0x2E22 JUMP JUMPDEST PUSH1 0xC0 DUP4 ADD MSTORE POP SWAP3 SWAP2 POP POP JUMP JUMPDEST PUSH1 0x0 DUP1 PUSH1 0x40 DUP4 DUP6 SUB SLT ISZERO PUSH2 0x2F37 JUMPI PUSH2 0x2F36 PUSH2 0x2C0B JUMP JUMPDEST JUMPDEST PUSH1 0x0 DUP4 ADD CALLDATALOAD PUSH8 0xFFFFFFFFFFFFFFFF DUP2 GT ISZERO PUSH2 0x2F55 JUMPI PUSH2 0x2F54 PUSH2 0x2C10 JUMP JUMPDEST JUMPDEST PUSH2 0x2F61 DUP6 DUP3 DUP7 ADD PUSH2 0x2E50 JUMP JUMPDEST SWAP3 POP POP PUSH1 0x20 PUSH2 0x2F72 DUP6 DUP3 DUP7 ADD PUSH2 0x2D13 JUMP JUMPDEST SWAP2 POP POP SWAP3 POP SWAP3 SWAP1 POP JUMP JUMPDEST PUSH2 0x2F85 DUP2 PUSH2 0x2CD0 JUMP JUMPDEST DUP3 MSTORE POP POP JUMP JUMPDEST PUSH1 0x0 DUP2 MLOAD SWAP1 POP SWAP2 SWAP1 POP JUMP JUMPDEST PUSH1 0x0 DUP3 DUP3 MSTORE PUSH1 0x20 DUP3 ADD SWAP1 POP SWAP3 SWAP2 POP POP JUMP JUMPDEST PUSH1 0x0 DUP2 SWAP1 POP PUSH1 0x20 DUP3 ADD SWAP1 POP SWAP2 SWAP1 POP JUMP JUMPDEST PUSH32 0x4E487B7100000000000000000000000000000000000000000000000000000000 PUSH1 0x0 MSTORE PUSH1 0x21 PUSH1 0x4 MSTORE PUSH1 0x24 PUSH1 0x0 REVERT JUMPDEST PUSH1 0x6 DUP2 LT PUSH2 0x2FF7 JUMPI PUSH2 0x2FF6 PUSH2 0x2FB7 JUMP JUMPDEST JUMPDEST POP JUMP JUMPDEST PUSH1 0x0 DUP2 SWAP1 POP PUSH2 0x3008 DUP3 PUSH2 0x2FE6 JUMP JUMPDEST SWAP2 SWAP1 POP JUMP JUMPDEST PUSH1 0x0 PUSH2 0x3018 DUP3 PUSH2 0x2FFA JUMP JUMPDEST SWAP1 POP SWAP2 SWAP1 POP JUMP JUMPDEST PUSH2 0x3028 DUP2 PUSH2 0x300D JUMP JUMPDEST DUP3 MSTORE POP POP JUMP JUMPDEST PUSH2 0x3037 DUP2 PUSH2 0x2D28 JUMP JUMPDEST DUP3 MSTORE POP POP JUMP JUMPDEST PUSH2 0x3046 DUP2 PUSH2 0x2D5E JUMP JUMPDEST DUP3 MSTORE POP POP JUMP JUMPDEST PUSH1 0x0 DUP2 MLOAD SWAP1 POP SWAP2 SWAP1 POP JUMP JUMPDEST PUSH1 0x0 DUP3 DUP3 MSTORE PUSH1 0x20 DUP3 ADD SWAP1 POP SWAP3 SWAP2 POP POP JUMP JUMPDEST PUSH1 0x0 JUMPDEST DUP4 DUP2 LT ISZERO PUSH2 0x3086 JUMPI DUP1 DUP3 ADD MLOAD DUP2 DUP5 ADD MSTORE PUSH1 0x20 DUP2 ADD SWAP1 POP PUSH2 0x306B JUMP JUMPDEST PUSH1 0x0 DUP5 DUP5 ADD MSTORE POP POP POP POP JUMP JUMPDEST PUSH1 0x0 PUSH2 0x309D DUP3 PUSH2 0x304C JUMP JUMPDEST PUSH2 0x30A7 DUP2 DUP6 PUSH2 0x3057 JUMP JUMPDEST SWAP4 POP PUSH2 0x30B7 DUP2 DUP6 PUSH1 0x20 DUP7 ADD PUSH2 0x3068 JUMP JUMPDEST PUSH2 0x30C0 DUP2 PUSH2 0x2C1A JUMP JUMPDEST DUP5 ADD SWAP2 POP POP SWAP3 SWAP2 POP POP JUMP JUMPDEST PUSH1 0x0 PUSH1 0xC0 DUP4 ADD PUSH1 0x0 DUP4 ADD MLOAD PUSH2 0x30E3 PUSH1 0x0 DUP7 ADD DUP3 PUSH2 0x301F JUMP JUMPDEST POP PUSH1 0x20 DUP4 ADD MLOAD PUSH2 0x30F6 PUSH1 0x20 DUP7 ADD DUP3 PUSH2 0x302E JUMP JUMPDEST POP PUSH1 0x40 DUP4 ADD MLOAD PUSH2 0x3109 PUSH1 0x40 DUP7 ADD DUP3 PUSH2 0x303D JUMP JUMPDEST POP PUSH1 0x60 DUP4 ADD MLOAD PUSH2 0x311C PUSH1 0x60 DUP7 ADD DUP3 PUSH2 0x303D JUMP JUMPDEST POP PUSH1 0x80 DUP4 ADD MLOAD PUSH2 0x312F PUSH1 0x80 DUP7 ADD DUP3 PUSH2 0x303D JUMP JUMPDEST POP PUSH1 0xA0 DUP4 ADD MLOAD DUP5 DUP3 SUB PUSH1 0xA0 DUP7 ADD MSTORE PUSH2 0x3147 DUP3 DUP3 PUSH2 0x3092 JUMP JUMPDEST SWAP2 POP POP DUP1 SWAP2 POP POP SWAP3 SWAP2 POP POP JUMP JUMPDEST PUSH1 0x0 PUSH2 0x3160 DUP4 DUP4 PUSH2 0x30CB JUMP JUMPDEST SWAP1 POP SWAP3 SWAP2 POP POP JUMP JUMPDEST PUSH1 0x0 PUSH1 0x20 DUP3 ADD SWAP1 POP SWAP2 SWAP1 POP JUMP JUMPDEST PUSH1 0x0 PUSH2 0x3180 DUP3 PUSH2 0x2F8B JUMP JUMPDEST PUSH2 0x318A DUP2 DUP6 PUSH2 0x2F96 JUMP JUMPDEST SWAP4 POP DUP4 PUSH1 0x20 DUP3 MUL DUP6 ADD PUSH2 0x319C DUP6 PUSH2 0x2FA7 JUMP JUMPDEST DUP1 PUSH1 0x0 JUMPDEST DUP6 DUP2 LT ISZERO PUSH2 0x31D8 JUMPI DUP5 DUP5 SUB DUP10 MSTORE DUP2 MLOAD PUSH2 0x31B9 DUP6 DUP3 PUSH2 0x3154 JUMP JUMPDEST SWAP5 POP PUSH2 0x31C4 DUP4 PUSH2 0x3168 JUMP JUMPDEST SWAP3 POP PUSH1 0x20 DUP11 ADD SWAP10 POP POP PUSH1 0x1 DUP2 ADD SWAP1 POP PUSH2 0x31A0 JUMP JUMPDEST POP DUP3 SWAP8 POP DUP8 SWAP6 POP POP POP POP POP POP SWAP3 SWAP2 POP POP JUMP JUMPDEST PUSH1 0x0 DUP2 MLOAD SWAP1 POP SWAP2 SWAP1 POP JUMP JUMPDEST PUSH1 0x0 DUP3 DUP3 MSTORE PUSH1 0x20 DUP3 ADD SWAP1 POP SWAP3 SWAP2 POP POP JUMP JUMPDEST PUSH1 0x0 DUP2 SWAP1 POP PUSH1 0x20 DUP3 ADD SWAP1 POP SWAP2 SWAP1 POP JUMP JUMPDEST PUSH1 0x5 DUP2 LT PUSH2 0x3227 JUMPI PUSH2 0x3226 PUSH2 0x2FB7 JUMP JUMPDEST JUMPDEST POP JUMP JUMPDEST PUSH1 0x0 DUP2 SWAP1 POP PUSH2 0x3238 DUP3 PUSH2 0x3216 JUMP JUMPDEST SWAP2 SWAP1 POP JUMP JUMPDEST PUSH1 0x0 PUSH2 0x3248 DUP3 PUSH2 0x322A JUMP JUMPDEST SWAP1 POP SWAP2 SWAP1 POP JUMP JUMPDEST PUSH2 0x3258 DUP2 PUSH2 0x323D JUMP JUMPDEST DUP3 MSTORE POP POP JUMP JUMPDEST PUSH1 0x0 PUSH1 0xE0 DUP4 ADD PUSH1 0x0 DUP4 ADD MLOAD PUSH2 0x3276 PUSH1 0x0 DUP7 ADD DUP3 PUSH2 0x324F JUMP JUMPDEST POP PUSH1 0x20 DUP4 ADD MLOAD PUSH2 0x3289 PUSH1 0x20 DUP7 ADD DUP3 PUSH2 0x2F7C JUMP JUMPDEST POP PUSH1 0x40 DUP4 ADD MLOAD PUSH2 0x329C PUSH1 0x40 DUP7 ADD DUP3 PUSH2 0x2F7C JUMP JUMPDEST POP PUSH1 0x60 DUP4 ADD MLOAD PUSH2 0x32AF PUSH1 0x60 DUP7 ADD DUP3 PUSH2 0x302E JUMP JUMPDEST POP PUSH1 0x80 DUP4 ADD MLOAD PUSH2 0x32C2 PUSH1 0x80 DUP7 ADD DUP3 PUSH2 0x303D JUMP JUMPDEST POP PUSH1 0xA0 DUP4 ADD MLOAD PUSH2 0x32D5 PUSH1 0xA0 DUP7 ADD DUP3 PUSH2 0x303D JUMP JUMPDEST POP PUSH1 0xC0 DUP4 ADD MLOAD DUP5 DUP3 SUB PUSH1 0xC0 DUP7 ADD MSTORE PUSH2 0x32ED DUP3 DUP3 PUSH2 0x3092 JUMP JUMPDEST SWAP2 POP POP DUP1 SWAP2 POP POP SWAP3 SWAP2 POP POP JUMP JUMPDEST PUSH1 0x0 PUSH2 0x3306 DUP4 DUP4 PUSH2 0x325E JUMP JUMPDEST SWAP1 POP SWAP3 SWAP2 POP POP JUMP JUMPDEST PUSH1 0x0 PUSH1 0x20 DUP3 ADD SWAP1 POP SWAP2 SWAP1 POP JUMP JUMPDEST PUSH1 0x0 PUSH2 0x3326 DUP3 PUSH2 0x31EA JUMP JUMPDEST PUSH2 0x3330 DUP2 DUP6 PUSH2 0x31F5 JUMP JUMPDEST SWAP4 POP DUP4 PUSH1 0x20 DUP3 MUL DUP6 ADD PUSH2 0x3342 DUP6 PUSH2 0x3206 JUMP JUMPDEST DUP1 PUSH1 0x0 JUMPDEST DUP6 DUP2 LT ISZERO PUSH2 0x337E JUMPI DUP5 DUP5 SUB DUP10 MSTORE DUP2 MLOAD PUSH2 0x335F DUP6 DUP3 PUSH2 0x32FA JUMP JUMPDEST SWAP5 POP PUSH2 0x336A DUP4 PUSH2 0x330E JUMP JUMPDEST SWAP3 POP PUSH1 0x20 DUP11 ADD SWAP10 POP POP PUSH1 0x1 DUP2 ADD SWAP1 POP PUSH2 0x3346 JUMP JUMPDEST POP DUP3 SWAP8 POP DUP8 SWAP6 POP POP POP POP POP POP SWAP3 SWAP2 POP POP JUMP JUMPDEST PUSH1 0x0 PUSH1 0x60 DUP4 ADD PUSH1 0x0 DUP4 ADD MLOAD DUP5 DUP3 SUB PUSH1 0x0 DUP7 ADD MSTORE PUSH2 0x33AD DUP3 DUP3 PUSH2 0x3092 JUMP JUMPDEST SWAP2 POP POP PUSH1 0x20 DUP4 ADD MLOAD PUSH2 0x33C2 PUSH1 0x20 DUP7 ADD DUP3 PUSH2 0x303D JUMP JUMPDEST POP PUSH1 0x40 DUP4 ADD MLOAD DUP5 DUP3 SUB PUSH1 0x40 DUP7 ADD MSTORE PUSH2 0x33DA DUP3 DUP3 PUSH2 0x3092 JUMP JUMPDEST SWAP2 POP POP DUP1 SWAP2 POP POP SWAP3 SWAP2 POP POP JUMP JUMPDEST PUSH1 0x0 PUSH1 0x80 DUP4 ADD PUSH1 0x0 DUP4 ADD MLOAD PUSH2 0x33FF PUSH1 0x0 DUP7 ADD DUP3 PUSH2 0x2F7C JUMP JUMPDEST POP PUSH1 0x20 DUP4 ADD MLOAD DUP5 DUP3 SUB PUSH1 0x20 DUP7 ADD MSTORE PUSH2 0x3417 DUP3 DUP3 PUSH2 0x3175 JUMP JUMPDEST SWAP2 POP POP PUSH1 0x40 DUP4 ADD MLOAD DUP5 DUP3 SUB PUSH1 0x40 DUP7 ADD MSTORE PUSH2 0x3431 DUP3 DUP3 PUSH2 0x331B JUMP JUMPDEST SWAP2 POP POP PUSH1 0x60 DUP4 ADD MLOAD DUP5 DUP3 SUB PUSH1 0x60 DUP7 ADD MSTORE PUSH2 0x344B DUP3 DUP3 PUSH2 0x3390 JUMP JUMPDEST SWAP2 POP POP DUP1 SWAP2 POP POP SWAP3 SWAP2 POP POP JUMP JUMPDEST PUSH1 0x0 PUSH1 0x20 DUP3 ADD SWAP1 POP DUP2 DUP2 SUB PUSH1 0x0 DUP4 ADD MSTORE PUSH2 0x3472 DUP2 DUP5 PUSH2 0x33E7 JUMP JUMPDEST SWAP1 POP SWAP3 SWAP2 POP POP JUMP JUMPDEST PUSH1 0x0 PUSH1 0x20 DUP3 DUP5 SUB SLT ISZERO PUSH2 0x3490 JUMPI PUSH2 0x348F PUSH2 0x2C0B JUMP JUMPDEST JUMPDEST PUSH1 0x0 DUP3 ADD CALLDATALOAD PUSH8 0xFFFFFFFFFFFFFFFF DUP2 GT ISZERO PUSH2 0x34AE JUMPI PUSH2 0x34AD PUSH2 0x2C10 JUMP JUMPDEST JUMPDEST PUSH2 0x34BA DUP5 DUP3 DUP6 ADD PUSH2 0x2E50 JUMP JUMPDEST SWAP2 POP POP SWAP3 SWAP2 POP POP JUMP JUMPDEST PUSH1 0x6 DUP2 LT PUSH2 0x34D0 JUMPI PUSH1 0x0 DUP1 REVERT JUMPDEST POP JUMP JUMPDEST PUSH1 0x0 DUP2 CALLDATALOAD SWAP1 POP PUSH2 0x34E2 DUP2 PUSH2 0x34C3 JUMP JUMPDEST SWAP3 SWAP2 POP POP JUMP JUMPDEST PUSH1 0x0 PUSH1 0xC0 DUP3 DUP5 SUB SLT ISZERO PUSH2 0x34FE JUMPI PUSH2 0x34FD PUSH2 0x2C15 JUMP JUMPDEST JUMPDEST PUSH2 0x3508 PUSH1 0xC0 PUSH2 0x2C8B JUMP JUMPDEST SWAP1 POP PUSH1 0x0 PUSH2 0x3518 DUP5 DUP3 DUP6 ADD PUSH2 0x34D3 JUMP JUMPDEST PUSH1 0x0 DUP4 ADD MSTORE POP PUSH1 0x20 PUSH2 0x352C DUP5 DUP3 DUP6 ADD PUSH2 0x2D49 JUMP JUMPDEST PUSH1 0x20 DUP4 ADD MSTORE POP PUSH1 0x40 PUSH2 0x3540 DUP5 DUP3 DUP6 ADD PUSH2 0x2D81 JUMP JUMPDEST PUSH1 0x40 DUP4 ADD MSTORE POP PUSH1 0x60 PUSH2 0x3554 DUP5 DUP3 DUP6 ADD PUSH2 0x2D81 JUMP JUMPDEST PUSH1 0x60 DUP4 ADD MSTORE POP PUSH1 0x80 PUSH2 0x3568 DUP5 DUP3 DUP6 ADD PUSH2 0x2D81 JUMP JUMPDEST PUSH1 0x80 DUP4 ADD MSTORE POP PUSH1 0xA0 DUP3 ADD CALLDATALOAD PUSH8 0xFFFFFFFFFFFFFFFF DUP2 GT ISZERO PUSH2 0x358C JUMPI PUSH2 0x358B PUSH2 0x2CA6 JUMP JUMPDEST JUMPDEST PUSH2 0x3598 DUP5 DUP3 DUP6 ADD PUSH2 0x2E22 JUMP JUMPDEST PUSH1 0xA0 DUP4 ADD MSTORE POP SWAP3 SWAP2 POP POP JUMP JUMPDEST PUSH1 0x0 PUSH1 0x60 DUP3 DUP5 SUB SLT ISZERO PUSH2 0x35BA JUMPI PUSH2 0x35B9 PUSH2 0x2C15 JUMP JUMPDEST JUMPDEST PUSH2 0x35C4 PUSH1 0x60 PUSH2 0x2C8B JUMP JUMPDEST SWAP1 POP PUSH1 0x0 DUP3 ADD CALLDATALOAD PUSH8 0xFFFFFFFFFFFFFFFF DUP2 GT ISZERO PUSH2 0x35E4 JUMPI PUSH2 0x35E3 PUSH2 0x2CA6 JUMP JUMPDEST JUMPDEST PUSH2 0x35F0 DUP5 DUP3 DUP6 ADD PUSH2 0x2E22 JUMP JUMPDEST PUSH1 0x0 DUP4 ADD MSTORE POP PUSH1 0x20 PUSH2 0x3604 DUP5 DUP3 DUP6 ADD PUSH2 0x2D81 JUMP JUMPDEST PUSH1 0x20 DUP4 ADD MSTORE POP PUSH1 0x40 DUP3 ADD CALLDATALOAD PUSH8 0xFFFFFFFFFFFFFFFF DUP2 GT ISZERO PUSH2 0x3628 JUMPI PUSH2 0x3627 PUSH2 0x2CA6 JUMP JUMPDEST JUMPDEST PUSH2 0x3634 DUP5 DUP3 DUP6 ADD PUSH2 0x2E22 JUMP JUMPDEST PUSH1 0x40 DUP4 ADD MSTORE POP SWAP3 SWAP2 POP POP JUMP JUMPDEST PUSH1 0x0 DUP1 PUSH1 0x0 PUSH1 0x60 DUP5 DUP7 SUB SLT ISZERO PUSH2 0x3659 JUMPI PUSH2 0x3658 PUSH2 0x2C0B JUMP JUMPDEST JUMPDEST PUSH1 0x0 DUP5 ADD CALLDATALOAD PUSH8 0xFFFFFFFFFFFFFFFF DUP2 GT ISZERO PUSH2 0x3677 JUMPI PUSH2 0x3676 PUSH2 0x2C10 JUMP JUMPDEST JUMPDEST PUSH2 0x3683 DUP7 DUP3 DUP8 ADD PUSH2 0x34E8 JUMP JUMPDEST SWAP4 POP POP PUSH1 0x20 DUP5 ADD CALLDATALOAD PUSH8 0xFFFFFFFFFFFFFFFF DUP2 GT ISZERO PUSH2 0x36A4 JUMPI PUSH2 0x36A3 PUSH2 0x2C10 JUMP JUMPDEST JUMPDEST PUSH2 0x36B0 DUP7 DUP3 DUP8 ADD PUSH2 0x35A4 JUMP JUMPDEST SWAP3 POP POP PUSH1 0x40 PUSH2 0x36C1 DUP7 DUP3 DUP8 ADD PUSH2 0x2D13 JUMP JUMPDEST SWAP2 POP POP SWAP3 POP SWAP3 POP SWAP3 JUMP JUMPDEST PUSH1 0x0 PUSH8 0xFFFFFFFFFFFFFFFF DUP3 GT ISZERO PUSH2 0x36E6 JUMPI PUSH2 0x36E5 PUSH2 0x2C2B JUMP JUMPDEST JUMPDEST PUSH1 0x20 DUP3 MUL SWAP1 POP PUSH1 0x20 DUP2 ADD SWAP1 POP SWAP2 SWAP1 POP JUMP JUMPDEST PUSH1 0x0 DUP1 REVERT JUMPDEST PUSH1 0x0 PUSH2 0x370F PUSH2 0x370A DUP5 PUSH2 0x36CB JUMP JUMPDEST PUSH2 0x2C8B JUMP JUMPDEST SWAP1 POP DUP1 DUP4 DUP3 MSTORE PUSH1 0x20 DUP3 ADD SWAP1 POP PUSH1 0x20 DUP5 MUL DUP4 ADD DUP6 DUP2 GT ISZERO PUSH2 0x3732 JUMPI PUSH2 0x3731 PUSH2 0x36F7 JUMP JUMPDEST JUMPDEST DUP4 JUMPDEST DUP2 DUP2 LT ISZERO PUSH2 0x3779 JUMPI DUP1 CALLDATALOAD PUSH8 0xFFFFFFFFFFFFFFFF DUP2 GT ISZERO PUSH2 0x3757 JUMPI PUSH2 0x3756 PUSH2 0x2D96 JUMP JUMPDEST JUMPDEST DUP1 DUP7 ADD PUSH2 0x3764 DUP10 DUP3 PUSH2 0x34E8 JUMP JUMPDEST DUP6 MSTORE PUSH1 0x20 DUP6 ADD SWAP5 POP POP POP PUSH1 0x20 DUP2 ADD SWAP1 POP PUSH2 0x3734 JUMP JUMPDEST POP POP POP SWAP4 SWAP3 POP POP POP JUMP JUMPDEST PUSH1 0x0 DUP3 PUSH1 0x1F DUP4 ADD SLT PUSH2 0x3798 JUMPI PUSH2 0x3797 PUSH2 0x2D96 JUMP JUMPDEST JUMPDEST DUP2 CALLDATALOAD PUSH2 0x37A8 DUP5 DUP3 PUSH1 0x20 DUP7 ADD PUSH2 0x36FC JUMP JUMPDEST SWAP2 POP POP SWAP3 SWAP2 POP POP JUMP JUMPDEST PUSH1 0x0 PUSH1 0x20 DUP3 DUP5 SUB SLT ISZERO PUSH2 0x37C7 JUMPI PUSH2 0x37C6 PUSH2 0x2C0B JUMP JUMPDEST JUMPDEST PUSH1 0x0 DUP3 ADD CALLDATALOAD PUSH8 0xFFFFFFFFFFFFFFFF DUP2 GT ISZERO PUSH2 0x37E5 JUMPI PUSH2 0x37E4 PUSH2 0x2C10 JUMP JUMPDEST JUMPDEST PUSH2 0x37F1 DUP5 DUP3 DUP6 ADD PUSH2 0x3783 JUMP JUMPDEST SWAP2 POP POP SWAP3 SWAP2 POP POP JUMP JUMPDEST PUSH1 0x0 PUSH8 0xFFFFFFFFFFFFFFFF DUP3 GT ISZERO PUSH2 0x3815 JUMPI PUSH2 0x3814 PUSH2 0x2C2B JUMP JUMPDEST JUMPDEST PUSH1 0x20 DUP3 MUL SWAP1 POP PUSH1 0x20 DUP2 ADD SWAP1 POP SWAP2 SWAP1 POP JUMP JUMPDEST PUSH1 0x0 PUSH2 0x3839 PUSH2 0x3834 DUP5 PUSH2 0x37FA JUMP JUMPDEST PUSH2 0x2C8B JUMP JUMPDEST SWAP1 POP DUP1 DUP4 DUP3 MSTORE PUSH1 0x20 DUP3 ADD SWAP1 POP PUSH1 0x20 DUP5 MUL DUP4 ADD DUP6 DUP2 GT ISZERO PUSH2 0x385C JUMPI PUSH2 0x385B PUSH2 0x36F7 JUMP JUMPDEST JUMPDEST DUP4 JUMPDEST DUP2 DUP2 LT ISZERO PUSH2 0x38A3 JUMPI DUP1 CALLDATALOAD PUSH8 0xFFFFFFFFFFFFFFFF DUP2 GT ISZERO PUSH2 0x3881 JUMPI PUSH2 0x3880 PUSH2 0x2D96 JUMP JUMPDEST JUMPDEST DUP1 DUP7 ADD PUSH2 0x388E DUP10 DUP3 PUSH2 0x2E50 JUMP JUMPDEST DUP6 MSTORE PUSH1 0x20 DUP6 ADD SWAP5 POP POP POP PUSH1 0x20 DUP2 ADD SWAP1 POP PUSH2 0x385E JUMP JUMPDEST POP POP POP SWAP4 SWAP3 POP POP POP JUMP JUMPDEST PUSH1 0x0 DUP3 PUSH1 0x1F DUP4 ADD SLT PUSH2 0x38C2 JUMPI PUSH2 0x38C1 PUSH2 0x2D96 JUMP JUMPDEST JUMPDEST DUP2 CALLDATALOAD PUSH2 0x38D2 DUP5 DUP3 PUSH1 0x20 DUP7 ADD PUSH2 0x3826 JUMP JUMPDEST SWAP2 POP POP SWAP3 SWAP2 POP POP JUMP JUMPDEST PUSH1 0x0 DUP1 PUSH1 0x0 PUSH1 0x60 DUP5 DUP7 SUB SLT ISZERO PUSH2 0x38F4 JUMPI PUSH2 0x38F3 PUSH2 0x2C0B JUMP JUMPDEST JUMPDEST PUSH1 0x0 DUP5 ADD CALLDATALOAD PUSH8 0xFFFFFFFFFFFFFFFF DUP2 GT ISZERO PUSH2 0x3912 JUMPI PUSH2 0x3911 PUSH2 0x2C10 JUMP JUMPDEST JUMPDEST PUSH2 0x391E DUP7 DUP3 DUP8 ADD PUSH2 0x38AD JUMP JUMPDEST SWAP4 POP POP PUSH1 0x20 DUP5 ADD CALLDATALOAD PUSH8 0xFFFFFFFFFFFFFFFF DUP2 GT ISZERO PUSH2 0x393F JUMPI PUSH2 0x393E PUSH2 0x2C10 JUMP JUMPDEST JUMPDEST PUSH2 0x394B DUP7 DUP3 DUP8 ADD PUSH2 0x35A4 JUMP JUMPDEST SWAP3 POP POP PUSH1 0x40 PUSH2 0x395C DUP7 DUP3 DUP8 ADD PUSH2 0x2D13 JUMP JUMPDEST SWAP2 POP POP SWAP3 POP SWAP3 POP SWAP3 JUMP JUMPDEST PUSH2 0x396F DUP2 PUSH2 0x2CD0 JUMP JUMPDEST DUP3 MSTORE POP POP JUMP JUMPDEST PUSH1 0x0 PUSH1 0x20 DUP3 ADD SWAP1 POP PUSH2 0x398A PUSH1 0x0 DUP4 ADD DUP5 PUSH2 0x3966 JUMP JUMPDEST SWAP3 SWAP2 POP POP JUMP JUMPDEST PUSH1 0x0 DUP1 PUSH1 0x40 DUP4 DUP6 SUB SLT ISZERO PUSH2 0x39A7 JUMPI PUSH2 0x39A6 PUSH2 0x2C0B JUMP JUMPDEST JUMPDEST PUSH1 0x0 DUP4 ADD CALLDATALOAD PUSH8 0xFFFFFFFFFFFFFFFF DUP2 GT ISZERO PUSH2 0x39C5 JUMPI PUSH2 0x39C4 PUSH2 0x2C10 JUMP JUMPDEST JUMPDEST PUSH2 0x39D1 DUP6 DUP3 DUP7 ADD PUSH2 0x3783 JUMP JUMPDEST SWAP3 POP POP PUSH1 0x20 PUSH2 0x39E2 DUP6 DUP3 DUP7 ADD PUSH2 0x2D13 JUMP JUMPDEST SWAP2 POP POP SWAP3 POP SWAP3 SWAP1 POP JUMP JUMPDEST PUSH1 0x0 DUP1 PUSH1 0x40 DUP4 DUP6 SUB SLT ISZERO PUSH2 0x3A03 JUMPI PUSH2 0x3A02 PUSH2 0x2C0B JUMP JUMPDEST JUMPDEST PUSH1 0x0 DUP4 ADD CALLDATALOAD PUSH8 0xFFFFFFFFFFFFFFFF DUP2 GT ISZERO PUSH2 0x3A21 JUMPI PUSH2 0x3A20 PUSH2 0x2C10 JUMP JUMPDEST JUMPDEST PUSH2 0x3A2D DUP6 DUP3 DUP7 ADD PUSH2 0x3783 JUMP JUMPDEST SWAP3 POP POP PUSH1 0x20 DUP4 ADD CALLDATALOAD PUSH8 0xFFFFFFFFFFFFFFFF DUP2 GT ISZERO PUSH2 0x3A4E JUMPI PUSH2 0x3A4D PUSH2 0x2C10 JUMP JUMPDEST JUMPDEST PUSH2 0x3A5A DUP6 DUP3 DUP7 ADD PUSH2 0x35A4 JUMP JUMPDEST SWAP2 POP POP SWAP3 POP SWAP3 SWAP1 POP JUMP JUMPDEST PUSH1 0x0 DUP1 PUSH1 0x0 PUSH1 0x60 DUP5 DUP7 SUB SLT ISZERO PUSH2 0x3A7D JUMPI PUSH2 0x3A7C PUSH2 0x2C0B JUMP JUMPDEST JUMPDEST PUSH1 0x0 DUP5 ADD CALLDATALOAD PUSH8 0xFFFFFFFFFFFFFFFF DUP2 GT ISZERO PUSH2 0x3A9B JUMPI PUSH2 0x3A9A PUSH2 0x2C10 JUMP JUMPDEST JUMPDEST PUSH2 0x3AA7 DUP7 DUP3 DUP8 ADD PUSH2 0x34E8 JUMP JUMPDEST SWAP4 POP POP PUSH1 0x20 DUP5 ADD CALLDATALOAD PUSH8 0xFFFFFFFFFFFFFFFF DUP2 GT ISZERO PUSH2 0x3AC8 JUMPI PUSH2 0x3AC7 PUSH2 0x2C10 JUMP JUMPDEST JUMPDEST PUSH2 0x3AD4 DUP7 DUP3 DUP8 ADD PUSH2 0x2E50 JUMP JUMPDEST SWAP3 POP POP PUSH1 0x40 PUSH2 0x3AE5 DUP7 DUP3 DUP8 ADD PUSH2 0x2D13 JUMP JUMPDEST SWAP2 POP POP SWAP3 POP SWAP3 POP SWAP3 JUMP JUMPDEST PUSH1 0x0 DUP1 PUSH1 0x40 DUP4 DUP6 SUB SLT ISZERO PUSH2 0x3B06 JUMPI PUSH2 0x3B05 PUSH2 0x2C0B JUMP JUMPDEST JUMPDEST PUSH1 0x0 DUP4 ADD CALLDATALOAD PUSH8 0xFFFFFFFFFFFFFFFF DUP2 GT ISZERO PUSH2 0x3B24 JUMPI PUSH2 0x3B23 PUSH2 0x2C10 JUMP JUMPDEST JUMPDEST PUSH2 0x3B30 DUP6 DUP3 DUP7 ADD PUSH2 0x34E8 JUMP JUMPDEST SWAP3 POP POP PUSH1 0x20 DUP4 ADD CALLDATALOAD PUSH8 0xFFFFFFFFFFFFFFFF DUP2 GT ISZERO PUSH2 0x3B51 JUMPI PUSH2 0x3B50 PUSH2 0x2C10 JUMP JUMPDEST JUMPDEST PUSH2 0x3B5D DUP6 DUP3 DUP7 ADD PUSH2 0x35A4 JUMP JUMPDEST SWAP2 POP POP SWAP3 POP SWAP3 SWAP1 POP JUMP JUMPDEST PUSH1 0x0 DUP1 PUSH1 0x0 PUSH1 0x60 DUP5 DUP7 SUB SLT ISZERO PUSH2 0x3B80 JUMPI PUSH2 0x3B7F PUSH2 0x2C0B JUMP JUMPDEST JUMPDEST PUSH1 0x0 DUP5 ADD CALLDATALOAD PUSH8 0xFFFFFFFFFFFFFFFF DUP2 GT ISZERO PUSH2 0x3B9E JUMPI PUSH2 0x3B9D PUSH2 0x2C10 JUMP JUMPDEST JUMPDEST PUSH2 0x3BAA DUP7 DUP3 DUP8 ADD PUSH2 0x2E50 JUMP JUMPDEST SWAP4 POP POP PUSH1 0x20 DUP5 ADD CALLDATALOAD PUSH8 0xFFFFFFFFFFFFFFFF DUP2 GT ISZERO PUSH2 0x3BCB JUMPI PUSH2 0x3BCA PUSH2 0x2C10 JUMP JUMPDEST JUMPDEST PUSH2 0x3BD7 DUP7 DUP3 DUP8 ADD PUSH2 0x35A4 JUMP JUMPDEST SWAP3 POP POP PUSH1 0x40 PUSH2 0x3BE8 DUP7 DUP3 DUP8 ADD PUSH2 0x2D13 JUMP JUMPDEST SWAP2 POP POP SWAP3 POP SWAP3 POP SWAP3 JUMP JUMPDEST PUSH1 0x0 DUP1 PUSH1 0x40 DUP4 DUP6 SUB SLT ISZERO PUSH2 0x3C09 JUMPI PUSH2 0x3C08 PUSH2 0x2C0B JUMP JUMPDEST JUMPDEST PUSH1 0x0 DUP4 ADD CALLDATALOAD PUSH8 0xFFFFFFFFFFFFFFFF DUP2 GT ISZERO PUSH2 0x3C27 JUMPI PUSH2 0x3C26 PUSH2 0x2C10 JUMP JUMPDEST JUMPDEST PUSH2 0x3C33 DUP6 DUP3 DUP7 ADD PUSH2 0x34E8 JUMP JUMPDEST SWAP3 POP POP PUSH1 0x20 PUSH2 0x3C44 DUP6 DUP3 DUP7 ADD PUSH2 0x2D13 JUMP JUMPDEST SWAP2 POP POP SWAP3 POP SWAP3 SWAP1 POP JUMP JUMPDEST PUSH1 0x0 DUP1 PUSH1 0x0 PUSH1 0x60 DUP5 DUP7 SUB SLT ISZERO PUSH2 0x3C67 JUMPI PUSH2 0x3C66 PUSH2 0x2C0B JUMP JUMPDEST JUMPDEST PUSH1 0x0 DUP5 ADD CALLDATALOAD PUSH8 0xFFFFFFFFFFFFFFFF DUP2 GT ISZERO PUSH2 0x3C85 JUMPI PUSH2 0x3C84 PUSH2 0x2C10 JUMP JUMPDEST JUMPDEST PUSH2 0x3C91 DUP7 DUP3 DUP8 ADD PUSH2 0x3783 JUMP JUMPDEST SWAP4 POP POP PUSH1 0x20 DUP5 ADD CALLDATALOAD PUSH8 0xFFFFFFFFFFFFFFFF DUP2 GT ISZERO PUSH2 0x3CB2 JUMPI PUSH2 0x3CB1 PUSH2 0x2C10 JUMP JUMPDEST JUMPDEST PUSH2 0x3CBE DUP7 DUP3 DUP8 ADD PUSH2 0x38AD JUMP JUMPDEST SWAP3 POP POP PUSH1 0x40 PUSH2 0x3CCF DUP7 DUP3 DUP8 ADD PUSH2 0x2D13 JUMP JUMPDEST SWAP2 POP POP SWAP3 POP SWAP3 POP SWAP3 JUMP JUMPDEST PUSH1 0x0 DUP1 PUSH1 0x0 PUSH1 0x60 DUP5 DUP7 SUB SLT ISZERO PUSH2 0x3CF2 JUMPI PUSH2 0x3CF1 PUSH2 0x2C0B JUMP JUMPDEST JUMPDEST PUSH1 0x0 DUP5 ADD CALLDATALOAD PUSH8 0xFFFFFFFFFFFFFFFF DUP2 GT ISZERO PUSH2 0x3D10 JUMPI PUSH2 0x3D0F PUSH2 0x2C10 JUMP JUMPDEST JUMPDEST PUSH2 0x3D1C DUP7 DUP3 DUP8 ADD PUSH2 0x3783 JUMP JUMPDEST SWAP4 POP POP PUSH1 0x20 DUP5 ADD CALLDATALOAD PUSH8 0xFFFFFFFFFFFFFFFF DUP2 GT ISZERO PUSH2 0x3D3D JUMPI PUSH2 0x3D3C PUSH2 0x2C10 JUMP JUMPDEST JUMPDEST PUSH2 0x3D49 DUP7 DUP3 DUP8 ADD PUSH2 0x38AD JUMP JUMPDEST SWAP3 POP POP PUSH1 0x40 DUP5 ADD CALLDATALOAD PUSH8 0xFFFFFFFFFFFFFFFF DUP2 GT ISZERO PUSH2 0x3D6A JUMPI PUSH2 0x3D69 PUSH2 0x2C10 JUMP JUMPDEST JUMPDEST PUSH2 0x3D76 DUP7 DUP3 DUP8 ADD PUSH2 0x35A4 JUMP JUMPDEST SWAP2 POP POP SWAP3 POP SWAP3 POP SWAP3 JUMP JUMPDEST PUSH1 0x0 DUP1 PUSH1 0x40 DUP4 DUP6 SUB SLT ISZERO PUSH2 0x3D97 JUMPI PUSH2 0x3D96 PUSH2 0x2C0B JUMP JUMPDEST JUMPDEST PUSH1 0x0 DUP4 ADD CALLDATALOAD PUSH8 0xFFFFFFFFFFFFFFFF DUP2 GT ISZERO PUSH2 0x3DB5 JUMPI PUSH2 0x3DB4 PUSH2 0x2C10 JUMP JUMPDEST JUMPDEST PUSH2 0x3DC1 DUP6 DUP3 DUP7 ADD PUSH2 0x3783 JUMP JUMPDEST SWAP3 POP POP PUSH1 0x20 DUP4 ADD CALLDATALOAD PUSH8 0xFFFFFFFFFFFFFFFF DUP2 GT ISZERO PUSH2 0x3DE2 JUMPI PUSH2 0x3DE1 PUSH2 0x2C10 JUMP JUMPDEST JUMPDEST PUSH2 0x3DEE DUP6 DUP3 DUP7 ADD PUSH2 0x38AD JUMP JUMPDEST SWAP2 POP POP SWAP3 POP SWAP3 SWAP1 POP JUMP JUMPDEST PUSH1 0x0 PUSH1 0x20 DUP3 DUP5 SUB SLT ISZERO PUSH2 0x3E0E JUMPI PUSH2 0x3E0D PUSH2 0x2C0B JUMP JUMPDEST JUMPDEST PUSH1 0x0 DUP3 ADD CALLDATALOAD PUSH8 0xFFFFFFFFFFFFFFFF DUP2 GT ISZERO PUSH2 0x3E2C JUMPI PUSH2 0x3E2B PUSH2 0x2C10 JUMP JUMPDEST JUMPDEST PUSH2 0x3E38 DUP5 DUP3 DUP6 ADD PUSH2 0x38AD JUMP JUMPDEST SWAP2 POP POP SWAP3 SWAP2 POP POP JUMP JUMPDEST PUSH1 0x0 DUP1 PUSH1 0x40 DUP4 DUP6 SUB SLT ISZERO PUSH2 0x3E58 JUMPI PUSH2 0x3E57 PUSH2 0x2C0B JUMP JUMPDEST JUMPDEST PUSH1 0x0 DUP4 ADD CALLDATALOAD PUSH8 0xFFFFFFFFFFFFFFFF DUP2 GT ISZERO PUSH2 0x3E76 JUMPI PUSH2 0x3E75 PUSH2 0x2C10 JUMP JUMPDEST JUMPDEST PUSH2 0x3E82 DUP6 DUP3 DUP7 ADD PUSH2 0x38AD JUMP JUMPDEST SWAP3 POP POP PUSH1 0x20 DUP4 ADD CALLDATALOAD PUSH8 0xFFFFFFFFFFFFFFFF DUP2 GT ISZERO PUSH2 0x3EA3 JUMPI PUSH2 0x3EA2 PUSH2 0x2C10 JUMP JUMPDEST JUMPDEST PUSH2 0x3EAF DUP6 DUP3 DUP7 ADD PUSH2 0x35A4 JUMP JUMPDEST SWAP2 POP POP SWAP3 POP SWAP3 SWAP1 POP JUMP JUMPDEST PUSH1 0x0 DUP1 PUSH1 0x40 DUP4 DUP6 SUB SLT ISZERO PUSH2 0x3ED0 JUMPI PUSH2 0x3ECF PUSH2 0x2C0B JUMP JUMPDEST JUMPDEST PUSH1 0x0 DUP4 ADD CALLDATALOAD PUSH8 0xFFFFFFFFFFFFFFFF DUP2 GT ISZERO PUSH2 0x3EEE JUMPI PUSH2 0x3EED PUSH2 0x2C10 JUMP JUMPDEST JUMPDEST PUSH2 0x3EFA DUP6 DUP3 DUP7 ADD PUSH2 0x2E50 JUMP JUMPDEST SWAP3 POP POP PUSH1 0x20 DUP4 ADD CALLDATALOAD PUSH8 0xFFFFFFFFFFFFFFFF DUP2 GT ISZERO PUSH2 0x3F1B JUMPI PUSH2 0x3F1A PUSH2 0x2C10 JUMP JUMPDEST JUMPDEST PUSH2 0x3F27 DUP6 DUP3 DUP7 ADD PUSH2 0x35A4 JUMP JUMPDEST SWAP2 POP POP SWAP3 POP SWAP3 SWAP1 POP JUMP JUMPDEST PUSH1 0x0 PUSH1 0x20 DUP3 DUP5 SUB SLT ISZERO PUSH2 0x3F47 JUMPI PUSH2 0x3F46 PUSH2 0x2C0B JUMP JUMPDEST JUMPDEST PUSH1 0x0 DUP3 ADD CALLDATALOAD PUSH8 0xFFFFFFFFFFFFFFFF DUP2 GT ISZERO PUSH2 0x3F65 JUMPI PUSH2 0x3F64 PUSH2 0x2C10 JUMP JUMPDEST JUMPDEST PUSH2 0x3F71 DUP5 DUP3 DUP6 ADD PUSH2 0x34E8 JUMP JUMPDEST SWAP2 POP POP SWAP3 SWAP2 POP POP JUMP JUMPDEST PUSH1 0x0 DUP1 PUSH1 0x0 PUSH1 0x60 DUP5 DUP7 SUB SLT ISZERO PUSH2 0x3F93 JUMPI PUSH2 0x3F92 PUSH2 0x2C0B JUMP JUMPDEST JUMPDEST PUSH1 0x0 DUP5 ADD CALLDATALOAD PUSH8 0xFFFFFFFFFFFFFFFF DUP2 GT ISZERO PUSH2 0x3FB1 JUMPI PUSH2 0x3FB0 PUSH2 0x2C10 JUMP JUMPDEST JUMPDEST PUSH2 0x3FBD DUP7 DUP3 DUP8 ADD PUSH2 0x3783 JUMP JUMPDEST SWAP4 POP POP PUSH1 0x20 DUP5 ADD CALLDATALOAD PUSH8 0xFFFFFFFFFFFFFFFF DUP2 GT ISZERO PUSH2 0x3FDE JUMPI PUSH2 0x3FDD PUSH2 0x2C10 JUMP JUMPDEST JUMPDEST PUSH2 0x3FEA DUP7 DUP3 DUP8 ADD PUSH2 0x35A4 JUMP JUMPDEST SWAP3 POP POP PUSH1 0x40 PUSH2 0x3FFB DUP7 DUP3 DUP8 ADD PUSH2 0x2D13 JUMP JUMPDEST SWAP2 POP POP SWAP3 POP SWAP3 POP SWAP3 JUMP JUMPDEST PUSH1 0x0 DUP1 PUSH1 0x40 DUP4 DUP6 SUB SLT ISZERO PUSH2 0x401C JUMPI PUSH2 0x401B PUSH2 0x2C0B JUMP JUMPDEST JUMPDEST PUSH1 0x0 DUP4 ADD CALLDATALOAD PUSH8 0xFFFFFFFFFFFFFFFF DUP2 GT ISZERO PUSH2 0x403A JUMPI PUSH2 0x4039 PUSH2 0x2C10 JUMP JUMPDEST JUMPDEST PUSH2 0x4046 DUP6 DUP3 DUP7 ADD PUSH2 0x34E8 JUMP JUMPDEST SWAP3 POP POP PUSH1 0x20 DUP4 ADD CALLDATALOAD PUSH8 0xFFFFFFFFFFFFFFFF DUP2 GT ISZERO PUSH2 0x4067 JUMPI PUSH2 0x4066 PUSH2 0x2C10 JUMP JUMPDEST JUMPDEST PUSH2 0x4073 DUP6 DUP3 DUP7 ADD PUSH2 0x2E50 JUMP JUMPDEST SWAP2 POP POP SWAP3 POP SWAP3 SWAP1 POP JUMP JUMPDEST PUSH1 0x0 DUP1 PUSH1 0x0 DUP1 PUSH1 0x80 DUP6 DUP8 SUB SLT ISZERO PUSH2 0x4097 JUMPI PUSH2 0x4096 PUSH2 0x2C0B JUMP JUMPDEST JUMPDEST PUSH1 0x0 DUP6 ADD CALLDATALOAD PUSH8 0xFFFFFFFFFFFFFFFF DUP2 GT ISZERO PUSH2 0x40B5 JUMPI PUSH2 0x40B4 PUSH2 0x2C10 JUMP JUMPDEST JUMPDEST PUSH2 0x40C1 DUP8 DUP3 DUP9 ADD PUSH2 0x3783 JUMP JUMPDEST SWAP5 POP POP PUSH1 0x20 DUP6 ADD CALLDATALOAD PUSH8 0xFFFFFFFFFFFFFFFF DUP2 GT ISZERO PUSH2 0x40E2 JUMPI PUSH2 0x40E1 PUSH2 0x2C10 JUMP JUMPDEST JUMPDEST PUSH2 0x40EE DUP8 DUP3 DUP9 ADD PUSH2 0x38AD JUMP JUMPDEST SWAP4 POP POP PUSH1 0x40 DUP6 ADD CALLDATALOAD PUSH8 0xFFFFFFFFFFFFFFFF DUP2 GT ISZERO PUSH2 0x410F JUMPI PUSH2 0x410E PUSH2 0x2C10 JUMP JUMPDEST JUMPDEST PUSH2 0x411B DUP8 DUP3 DUP9 ADD PUSH2 0x35A4 JUMP JUMPDEST SWAP3 POP POP PUSH1 0x60 PUSH2 0x412C DUP8 DUP3 DUP9 ADD PUSH2 0x2D13 JUMP JUMPDEST SWAP2 POP POP SWAP3 SWAP6 SWAP2 SWAP5 POP SWAP3 POP JUMP JUMPDEST PUSH1 0x0 DUP1 PUSH1 0x0 DUP1 PUSH1 0x80 DUP6 DUP8 SUB SLT ISZERO PUSH2 0x4152 JUMPI PUSH2 0x4151 PUSH2 0x2C0B JUMP JUMPDEST JUMPDEST PUSH1 0x0 DUP6 ADD CALLDATALOAD PUSH8 0xFFFFFFFFFFFFFFFF DUP2 GT ISZERO PUSH2 0x4170 JUMPI PUSH2 0x416F PUSH2 0x2C10 JUMP JUMPDEST JUMPDEST PUSH2 0x417C DUP8 DUP3 DUP9 ADD PUSH2 0x34E8 JUMP JUMPDEST SWAP5 POP POP PUSH1 0x20 DUP6 ADD CALLDATALOAD PUSH8 0xFFFFFFFFFFFFFFFF DUP2 GT ISZERO PUSH2 0x419D JUMPI PUSH2 0x419C PUSH2 0x2C10 JUMP JUMPDEST JUMPDEST PUSH2 0x41A9 DUP8 DUP3 DUP9 ADD PUSH2 0x2E50 JUMP JUMPDEST SWAP4 POP POP PUSH1 0x40 DUP6 ADD CALLDATALOAD PUSH8 0xFFFFFFFFFFFFFFFF DUP2 GT ISZERO PUSH2 0x41CA JUMPI PUSH2 0x41C9 PUSH2 0x2C10 JUMP JUMPDEST JUMPDEST PUSH2 0x41D6 DUP8 DUP3 DUP9 ADD PUSH2 0x35A4 JUMP JUMPDEST SWAP3 POP POP PUSH1 0x60 PUSH2 0x41E7 DUP8 DUP3 DUP9 ADD PUSH2 0x2D13 JUMP JUMPDEST SWAP2 POP POP SWAP3 SWAP6 SWAP2 SWAP5 POP SWAP3 POP JUMP JUMPDEST PUSH1 0x0 DUP1 PUSH1 0x40 DUP4 DUP6 SUB SLT ISZERO PUSH2 0x420A JUMPI PUSH2 0x4209 PUSH2 0x2C0B JUMP JUMPDEST JUMPDEST PUSH1 0x0 DUP4 ADD CALLDATALOAD PUSH8 0xFFFFFFFFFFFFFFFF DUP2 GT ISZERO PUSH2 0x4228 JUMPI PUSH2 0x4227 PUSH2 0x2C10 JUMP JUMPDEST JUMPDEST PUSH2 0x4234 DUP6 DUP3 DUP7 ADD PUSH2 0x38AD JUMP JUMPDEST SWAP3 POP POP PUSH1 0x20 PUSH2 0x4245 DUP6 DUP3 DUP7 ADD PUSH2 0x2D13 JUMP JUMPDEST SWAP2 POP POP SWAP3 POP SWAP3 SWAP1 POP JUMP JUMPDEST PUSH1 0x0 DUP1 PUSH1 0x0 PUSH1 0x60 DUP5 DUP7 SUB SLT ISZERO PUSH2 0x4268 JUMPI PUSH2 0x4267 PUSH2 0x2C0B JUMP JUMPDEST JUMPDEST PUSH1 0x0 DUP5 ADD CALLDATALOAD PUSH8 0xFFFFFFFFFFFFFFFF DUP2 GT ISZERO PUSH2 0x4286 JUMPI PUSH2 0x4285 PUSH2 0x2C10 JUMP JUMPDEST JUMPDEST PUSH2 0x4292 DUP7 DUP3 DUP8 ADD PUSH2 0x34E8 JUMP JUMPDEST SWAP4 POP POP PUSH1 0x20 DUP5 ADD CALLDATALOAD PUSH8 0xFFFFFFFFFFFFFFFF DUP2 GT ISZERO PUSH2 0x42B3 JUMPI PUSH2 0x42B2 PUSH2 0x2C10 JUMP JUMPDEST JUMPDEST PUSH2 0x42BF DUP7 DUP3 DUP8 ADD PUSH2 0x2E50 JUMP JUMPDEST SWAP3 POP POP PUSH1 0x40 DUP5 ADD CALLDATALOAD PUSH8 0xFFFFFFFFFFFFFFFF DUP2 GT ISZERO PUSH2 0x42E0 JUMPI PUSH2 0x42DF PUSH2 0x2C10 JUMP JUMPDEST JUMPDEST PUSH2 0x42EC DUP7 DUP3 DUP8 ADD PUSH2 0x35A4 JUMP JUMPDEST SWAP2 POP POP SWAP3 POP SWAP3 POP SWAP3 JUMP JUMPDEST PUSH32 0x4E487B7100000000000000000000000000000000000000000000000000000000 PUSH1 0x0 MSTORE PUSH1 0x32 PUSH1 0x4 MSTORE PUSH1 0x24 PUSH1 0x0 REVERT JUMPDEST PUSH32 0x4E487B7100000000000000000000000000000000000000000000000000000000 PUSH1 0x0 MSTORE PUSH1 0x22 PUSH1 0x4 MSTORE PUSH1 0x24 PUSH1 0x0 REVERT JUMPDEST PUSH1 0x0 PUSH1 0x2 DUP3 DIV SWAP1 POP PUSH1 0x1 DUP3 AND DUP1 PUSH2 0x436C JUMPI PUSH1 0x7F DUP3 AND SWAP2 POP JUMPDEST PUSH1 0x20 DUP3 LT DUP2 SUB PUSH2 0x437F JUMPI PUSH2 0x437E PUSH2 0x4325 JUMP JUMPDEST JUMPDEST POP SWAP2 SWAP1 POP JUMP INVALID LOG2 PUSH5 0x6970667358 0x22 SLT KECCAK256 0xE8 STOP PUSH11 0x5326B5645B970D091E618B 0x5F DUP13 0x2F GASLIMIT RETURN SWAP10 JUMP OR MULMOD 0xD9 SDIV 0xEF 0xC6 CHAINID SDIV DELEGATECALL GT 0xB7 PUSH5 0x736F6C6343 STOP ADDMOD SLT STOP CALLER "},"methodIdentifiers":{"DEFAULT_NAMESPACE()":"1b399c99","build((uint8,bytes16,bytes16,uint256,bool,bool,bytes))":"0e58be05","build((uint8,bytes16,bytes16,uint256,bool,bool,bytes),(bytes,bool,bytes))":"c9f97f53","build((uint8,bytes16,bytes16,uint256,bool,bool,bytes),(bytes,bool,bytes),bytes16)":"54852577","build((uint8,bytes16,bytes16,uint256,bool,bool,bytes),bytes16)":"080b53f8","build((uint8,bytes16,bytes16,uint256,bool,bool,bytes)[])":"b33cd323","build((uint8,bytes16,bytes16,uint256,bool,bool,bytes)[],(bytes,bool,bytes))":"b5ae2587","build((uint8,bytes16,bytes16,uint256,bool,bool,bytes)[],(bytes,bool,bytes),bytes16)":"14ddafa3","build((uint8,bytes16,bytes16,uint256,bool,bool,bytes)[],bytes16)":"f1c1e209","build((uint8,uint256,bool,bool,bool,bytes))":"d7ccd8da","build((uint8,uint256,bool,bool,bool,bytes),(bytes,bool,bytes))":"48fd24cc","build((uint8,uint256,bool,bool,bool,bytes),(bytes,bool,bytes),bytes16)":"10c5d31b","build((uint8,uint256,bool,bool,bool,bytes),(uint8,bytes16,bytes16,uint256,bool,bool,bytes))":"dde11c7c","build((uint8,uint256,bool,bool,bool,bytes),(uint8,bytes16,bytes16,uint256,bool,bool,bytes),(bytes,bool,bytes))":"f2d3f1f6","build((uint8,uint256,bool,bool,bool,bytes),(uint8,bytes16,bytes16,uint256,bool,bool,bytes),(bytes,bool,bytes),bytes16)":"e93f38b8","build((uint8,uint256,bool,bool,bool,bytes),(uint8,bytes16,bytes16,uint256,bool,bool,bytes),bytes16)":"31560e75","build((uint8,uint256,bool,bool,bool,bytes),bytes16)":"91ba07f3","build((uint8,uint256,bool,bool,bool,bytes)[])":"11f83e20","build((uint8,uint256,bool,bool,bool,bytes)[],(bytes,bool,bytes))":"2ceb1e8d","build((uint8,uint256,bool,bool,bool,bytes)[],(bytes,bool,bytes),bytes16)":"dd108267","build((uint8,uint256,bool,bool,bool,bytes)[],(uint8,bytes16,bytes16,uint256,bool,bool,bytes)[])":"a156e2d8","build((uint8,uint256,bool,bool,bool,bytes)[],(uint8,bytes16,bytes16,uint256,bool,bool,bytes)[],(bytes,bool,bytes))":"99240336","build((uint8,uint256,bool,bool,bool,bytes)[],(uint8,bytes16,bytes16,uint256,bool,bool,bytes)[],(bytes,bool,bytes),bytes16)":"e48cd721","build((uint8,uint256,bool,bool,bool,bytes)[],(uint8,bytes16,bytes16,uint256,bool,bool,bytes)[],bytes16)":"9266f47c","build((uint8,uint256,bool,bool,bool,bytes)[],bytes16)":"27b5b7c3"}}}}}