{"lib/sismo-connect-solidity/src/utils/ClaimRequestBuilder.sol":{"ClaimRequestBuilder":{"abi":[{"inputs":[],"name":"DEFAULT_CLAIM_REQUEST_EXTRA_DATA","outputs":[{"internalType":"bytes","name":"","type":"bytes"}],"stateMutability":"view","type":"function"},{"inputs":[],"name":"DEFAULT_CLAIM_REQUEST_GROUP_TIMESTAMP","outputs":[{"internalType":"bytes16","name":"","type":"bytes16"}],"stateMutability":"view","type":"function"},{"inputs":[],"name":"DEFAULT_CLAIM_REQUEST_IS_OPTIONAL","outputs":[{"internalType":"bool","name":"","type":"bool"}],"stateMutability":"view","type":"function"},{"inputs":[],"name":"DEFAULT_CLAIM_REQUEST_IS_SELECTABLE_BY_USER","outputs":[{"internalType":"bool","name":"","type":"bool"}],"stateMutability":"view","type":"function"},{"inputs":[],"name":"DEFAULT_CLAIM_REQUEST_TYPE","outputs":[{"internalType":"enum ClaimType","name":"","type":"uint8"}],"stateMutability":"view","type":"function"},{"inputs":[],"name":"DEFAULT_CLAIM_REQUEST_VALUE","outputs":[{"internalType":"uint256","name":"","type":"uint256"}],"stateMutability":"view","type":"function"},{"inputs":[{"internalType":"bytes16","name":"groupId","type":"bytes16"},{"internalType":"bytes16","name":"groupTimestamp","type":"bytes16"},{"internalType":"enum ClaimType","name":"claimType","type":"uint8"},{"internalType":"bytes","name":"extraData","type":"bytes"}],"name":"build","outputs":[{"components":[{"internalType":"enum ClaimType","name":"claimType","type":"uint8"},{"internalType":"bytes16","name":"groupId","type":"bytes16"},{"internalType":"bytes16","name":"groupTimestamp","type":"bytes16"},{"internalType":"uint256","name":"value","type":"uint256"},{"internalType":"bool","name":"isOptional","type":"bool"},{"internalType":"bool","name":"isSelectableByUser","type":"bool"},{"internalType":"bytes","name":"extraData","type":"bytes"}],"internalType":"struct ClaimRequest","name":"","type":"tuple"}],"stateMutability":"pure","type":"function"},{"inputs":[{"internalType":"bytes16","name":"groupId","type":"bytes16"},{"internalType":"bytes16","name":"groupTimestamp","type":"bytes16"},{"internalType":"uint256","name":"value","type":"uint256"},{"internalType":"bytes","name":"extraData","type":"bytes"}],"name":"build","outputs":[{"components":[{"internalType":"enum ClaimType","name":"claimType","type":"uint8"},{"internalType":"bytes16","name":"groupId","type":"bytes16"},{"internalType":"bytes16","name":"groupTimestamp","type":"bytes16"},{"internalType":"uint256","name":"value","type":"uint256"},{"internalType":"bool","name":"isOptional","type":"bool"},{"internalType":"bool","name":"isSelectableByUser","type":"bool"},{"internalType":"bytes","name":"extraData","type":"bytes"}],"internalType":"struct ClaimRequest","name":"","type":"tuple"}],"stateMutability":"pure","type":"function"},{"inputs":[{"internalType":"bytes16","name":"groupId","type":"bytes16"},{"internalType":"bytes16","name":"groupTimestamp","type":"bytes16"},{"internalType":"bool","name":"isOptional","type":"bool"},{"internalType":"bool","name":"isSelectableByUser","type":"bool"}],"name":"build","outputs":[{"components":[{"internalType":"enum ClaimType","name":"claimType","type":"uint8"},{"internalType":"bytes16","name":"groupId","type":"bytes16"},{"internalType":"bytes16","name":"groupTimestamp","type":"bytes16"},{"internalType":"uint256","name":"value","type":"uint256"},{"internalType":"bool","name":"isOptional","type":"bool"},{"internalType":"bool","name":"isSelectableByUser","type":"bool"},{"internalType":"bytes","name":"extraData","type":"bytes"}],"internalType":"struct ClaimRequest","name":"","type":"tuple"}],"stateMutability":"pure","type":"function"},{"inputs":[{"internalType":"bytes16","name":"groupId","type":"bytes16"},{"internalType":"uint256","name":"value","type":"uint256"},{"internalType":"enum ClaimType","name":"claimType","type":"uint8"},{"internalType":"bool","name":"isOptional","type":"bool"},{"internalType":"bool","name":"isSelectableByUser","type":"bool"}],"name":"build","outputs":[{"components":[{"internalType":"enum ClaimType","name":"claimType","type":"uint8"},{"internalType":"bytes16","name":"groupId","type":"bytes16"},{"internalType":"bytes16","name":"groupTimestamp","type":"bytes16"},{"internalType":"uint256","name":"value","type":"uint256"},{"internalType":"bool","name":"isOptional","type":"bool"},{"internalType":"bool","name":"isSelectableByUser","type":"bool"},{"internalType":"bytes","name":"extraData","type":"bytes"}],"internalType":"struct ClaimRequest","name":"","type":"tuple"}],"stateMutability":"pure","type":"function"},{"inputs":[{"internalType":"bytes16","name":"groupId","type":"bytes16"},{"internalType":"uint256","name":"value","type":"uint256"},{"internalType":"bool","name":"isOptional","type":"bool"},{"internalType":"bool","name":"isSelectableByUser","type":"bool"}],"name":"build","outputs":[{"components":[{"internalType":"enum ClaimType","name":"claimType","type":"uint8"},{"internalType":"bytes16","name":"groupId","type":"bytes16"},{"internalType":"bytes16","name":"groupTimestamp","type":"bytes16"},{"internalType":"uint256","name":"value","type":"uint256"},{"internalType":"bool","name":"isOptional","type":"bool"},{"internalType":"bool","name":"isSelectableByUser","type":"bool"},{"internalType":"bytes","name":"extraData","type":"bytes"}],"internalType":"struct ClaimRequest","name":"","type":"tuple"}],"stateMutability":"pure","type":"function"},{"inputs":[{"internalType":"bytes16","name":"groupId","type":"bytes16"},{"internalType":"bytes16","name":"groupTimestamp","type":"bytes16"},{"internalType":"enum ClaimType","name":"claimType","type":"uint8"},{"internalType":"bool","name":"isOptional","type":"bool"},{"internalType":"bool","name":"isSelectableByUser","type":"bool"}],"name":"build","outputs":[{"components":[{"internalType":"enum ClaimType","name":"claimType","type":"uint8"},{"internalType":"bytes16","name":"groupId","type":"bytes16"},{"internalType":"bytes16","name":"groupTimestamp","type":"bytes16"},{"internalType":"uint256","name":"value","type":"uint256"},{"internalType":"bool","name":"isOptional","type":"bool"},{"internalType":"bool","name":"isSelectableByUser","type":"bool"},{"internalType":"bytes","name":"extraData","type":"bytes"}],"internalType":"struct ClaimRequest","name":"","type":"tuple"}],"stateMutability":"pure","type":"function"},{"inputs":[{"internalType":"bytes16","name":"groupId","type":"bytes16"},{"internalType":"uint256","name":"value","type":"uint256"},{"internalType":"enum ClaimType","name":"claimType","type":"uint8"}],"name":"build","outputs":[{"components":[{"internalType":"enum ClaimType","name":"claimType","type":"uint8"},{"internalType":"bytes16","name":"groupId","type":"bytes16"},{"internalType":"bytes16","name":"groupTimestamp","type":"bytes16"},{"internalType":"uint256","name":"value","type":"uint256"},{"internalType":"bool","name":"isOptional","type":"bool"},{"internalType":"bool","name":"isSelectableByUser","type":"bool"},{"internalType":"bytes","name":"extraData","type":"bytes"}],"internalType":"struct ClaimRequest","name":"","type":"tuple"}],"stateMutability":"pure","type":"function"},{"inputs":[{"internalType":"bytes16","name":"groupId","type":"bytes16"},{"internalType":"bytes16","name":"groupTimestamp","type":"bytes16"},{"internalType":"uint256","name":"value","type":"uint256"}],"name":"build","outputs":[{"components":[{"internalType":"enum ClaimType","name":"claimType","type":"uint8"},{"internalType":"bytes16","name":"groupId","type":"bytes16"},{"internalType":"bytes16","name":"groupTimestamp","type":"bytes16"},{"internalType":"uint256","name":"value","type":"uint256"},{"internalType":"bool","name":"isOptional","type":"bool"},{"internalType":"bool","name":"isSelectableByUser","type":"bool"},{"internalType":"bytes","name":"extraData","type":"bytes"}],"internalType":"struct ClaimRequest","name":"","type":"tuple"}],"stateMutability":"pure","type":"function"},{"inputs":[{"internalType":"bytes16","name":"groupId","type":"bytes16"},{"internalType":"bytes16","name":"groupTimestamp","type":"bytes16"}],"name":"build","outputs":[{"components":[{"internalType":"enum ClaimType","name":"claimType","type":"uint8"},{"internalType":"bytes16","name":"groupId","type":"bytes16"},{"internalType":"bytes16","name":"groupTimestamp","type":"bytes16"},{"internalType":"uint256","name":"value","type":"uint256"},{"internalType":"bool","name":"isOptional","type":"bool"},{"internalType":"bool","name":"isSelectableByUser","type":"bool"},{"internalType":"bytes","name":"extraData","type":"bytes"}],"internalType":"struct ClaimRequest","name":"","type":"tuple"}],"stateMutability":"pure","type":"function"},{"inputs":[{"internalType":"bytes16","name":"groupId","type":"bytes16"},{"internalType":"bytes16","name":"groupTimestamp","type":"bytes16"},{"internalType":"uint256","name":"value","type":"uint256"},{"internalType":"enum ClaimType","name":"claimType","type":"uint8"},{"internalType":"bool","name":"isOptional","type":"bool"},{"internalType":"bool","name":"isSelectableByUser","type":"bool"}],"name":"build","outputs":[{"components":[{"internalType":"enum ClaimType","name":"claimType","type":"uint8"},{"internalType":"bytes16","name":"groupId","type":"bytes16"},{"internalType":"bytes16","name":"groupTimestamp","type":"bytes16"},{"internalType":"uint256","name":"value","type":"uint256"},{"internalType":"bool","name":"isOptional","type":"bool"},{"internalType":"bool","name":"isSelectableByUser","type":"bool"},{"internalType":"bytes","name":"extraData","type":"bytes"}],"internalType":"struct ClaimRequest","name":"","type":"tuple"}],"stateMutability":"pure","type":"function"},{"inputs":[{"internalType":"bytes16","name":"groupId","type":"bytes16"},{"internalType":"bytes16","name":"groupTimestamp","type":"bytes16"},{"internalType":"uint256","name":"value","type":"uint256"},{"internalType":"enum ClaimType","name":"claimType","type":"uint8"},{"internalType":"bytes","name":"extraData","type":"bytes"}],"name":"build","outputs":[{"components":[{"internalType":"enum ClaimType","name":"claimType","type":"uint8"},{"internalType":"bytes16","name":"groupId","type":"bytes16"},{"internalType":"bytes16","name":"groupTimestamp","type":"bytes16"},{"internalType":"uint256","name":"value","type":"uint256"},{"internalType":"bool","name":"isOptional","type":"bool"},{"internalType":"bool","name":"isSelectableByUser","type":"bool"},{"internalType":"bytes","name":"extraData","type":"bytes"}],"internalType":"struct ClaimRequest","name":"","type":"tuple"}],"stateMutability":"pure","type":"function"},{"inputs":[{"internalType":"bytes16","name":"groupId","type":"bytes16"},{"internalType":"enum ClaimType","name":"claimType","type":"uint8"}],"name":"build","outputs":[{"components":[{"internalType":"enum ClaimType","name":"claimType","type":"uint8"},{"internalType":"bytes16","name":"groupId","type":"bytes16"},{"internalType":"bytes16","name":"groupTimestamp","type":"bytes16"},{"internalType":"uint256","name":"value","type":"uint256"},{"internalType":"bool","name":"isOptional","type":"bool"},{"internalType":"bool","name":"isSelectableByUser","type":"bool"},{"internalType":"bytes","name":"extraData","type":"bytes"}],"internalType":"struct ClaimRequest","name":"","type":"tuple"}],"stateMutability":"pure","type":"function"},{"inputs":[{"internalType":"bytes16","name":"groupId","type":"bytes16"},{"internalType":"uint256","name":"value","type":"uint256"}],"name":"build","outputs":[{"components":[{"internalType":"enum ClaimType","name":"claimType","type":"uint8"},{"internalType":"bytes16","name":"groupId","type":"bytes16"},{"internalType":"bytes16","name":"groupTimestamp","type":"bytes16"},{"internalType":"uint256","name":"value","type":"uint256"},{"internalType":"bool","name":"isOptional","type":"bool"},{"internalType":"bool","name":"isSelectableByUser","type":"bool"},{"internalType":"bytes","name":"extraData","type":"bytes"}],"internalType":"struct ClaimRequest","name":"","type":"tuple"}],"stateMutability":"pure","type":"function"},{"inputs":[{"internalType":"bytes16","name":"groupId","type":"bytes16"},{"internalType":"enum ClaimType","name":"claimType","type":"uint8"},{"internalType":"bytes","name":"extraData","type":"bytes"}],"name":"build","outputs":[{"components":[{"internalType":"enum ClaimType","name":"claimType","type":"uint8"},{"internalType":"bytes16","name":"groupId","type":"bytes16"},{"internalType":"bytes16","name":"groupTimestamp","type":"bytes16"},{"internalType":"uint256","name":"value","type":"uint256"},{"internalType":"bool","name":"isOptional","type":"bool"},{"internalType":"bool","name":"isSelectableByUser","type":"bool"},{"internalType":"bytes","name":"extraData","type":"bytes"}],"internalType":"struct ClaimRequest","name":"","type":"tuple"}],"stateMutability":"pure","type":"function"},{"inputs":[{"internalType":"bytes16","name":"groupId","type":"bytes16"},{"internalType":"bytes","name":"extraData","type":"bytes"}],"name":"build","outputs":[{"components":[{"internalType":"enum ClaimType","name":"claimType","type":"uint8"},{"internalType":"bytes16","name":"groupId","type":"bytes16"},{"internalType":"bytes16","name":"groupTimestamp","type":"bytes16"},{"internalType":"uint256","name":"value","type":"uint256"},{"internalType":"bool","name":"isOptional","type":"bool"},{"internalType":"bool","name":"isSelectableByUser","type":"bool"},{"internalType":"bytes","name":"extraData","type":"bytes"}],"internalType":"struct ClaimRequest","name":"","type":"tuple"}],"stateMutability":"pure","type":"function"},{"inputs":[{"internalType":"bytes16","name":"groupId","type":"bytes16"},{"internalType":"enum ClaimType","name":"claimType","type":"uint8"},{"internalType":"bool","name":"isOptional","type":"bool"},{"internalType":"bool","name":"isSelectableByUser","type":"bool"}],"name":"build","outputs":[{"components":[{"internalType":"enum ClaimType","name":"claimType","type":"uint8"},{"internalType":"bytes16","name":"groupId","type":"bytes16"},{"internalType":"bytes16","name":"groupTimestamp","type":"bytes16"},{"internalType":"uint256","name":"value","type":"uint256"},{"internalType":"bool","name":"isOptional","type":"bool"},{"internalType":"bool","name":"isSelectableByUser","type":"bool"},{"internalType":"bytes","name":"extraData","type":"bytes"}],"internalType":"struct ClaimRequest","name":"","type":"tuple"}],"stateMutability":"pure","type":"function"},{"inputs":[{"internalType":"bytes16","name":"groupId","type":"bytes16"},{"internalType":"bytes16","name":"groupTimestamp","type":"bytes16"},{"internalType":"enum ClaimType","name":"claimType","type":"uint8"}],"name":"build","outputs":[{"components":[{"internalType":"enum ClaimType","name":"claimType","type":"uint8"},{"internalType":"bytes16","name":"groupId","type":"bytes16"},{"internalType":"bytes16","name":"groupTimestamp","type":"bytes16"},{"internalType":"uint256","name":"value","type":"uint256"},{"internalType":"bool","name":"isOptional","type":"bool"},{"internalType":"bool","name":"isSelectableByUser","type":"bool"},{"internalType":"bytes","name":"extraData","type":"bytes"}],"internalType":"struct ClaimRequest","name":"","type":"tuple"}],"stateMutability":"pure","type":"function"},{"inputs":[{"internalType":"bytes16","name":"groupId","type":"bytes16"},{"internalType":"bytes16","name":"groupTimestamp","type":"bytes16"},{"internalType":"uint256","name":"value","type":"uint256"},{"internalType":"enum ClaimType","name":"claimType","type":"uint8"}],"name":"build","outputs":[{"components":[{"internalType":"enum ClaimType","name":"claimType","type":"uint8"},{"internalType":"bytes16","name":"groupId","type":"bytes16"},{"internalType":"bytes16","name":"groupTimestamp","type":"bytes16"},{"internalType":"uint256","name":"value","type":"uint256"},{"internalType":"bool","name":"isOptional","type":"bool"},{"internalType":"bool","name":"isSelectableByUser","type":"bool"},{"internalType":"bytes","name":"extraData","type":"bytes"}],"internalType":"struct ClaimRequest","name":"","type":"tuple"}],"stateMutability":"pure","type":"function"},{"inputs":[{"internalType":"bytes16","name":"groupId","type":"bytes16"},{"internalType":"bytes16","name":"groupTimestamp","type":"bytes16"},{"internalType":"uint256","name":"value","type":"uint256"},{"internalType":"bool","name":"isOptional","type":"bool"},{"internalType":"bool","name":"isSelectableByUser","type":"bool"}],"name":"build","outputs":[{"components":[{"internalType":"enum ClaimType","name":"claimType","type":"uint8"},{"internalType":"bytes16","name":"groupId","type":"bytes16"},{"internalType":"bytes16","name":"groupTimestamp","type":"bytes16"},{"internalType":"uint256","name":"value","type":"uint256"},{"internalType":"bool","name":"isOptional","type":"bool"},{"internalType":"bool","name":"isSelectableByUser","type":"bool"},{"internalType":"bytes","name":"extraData","type":"bytes"}],"internalType":"struct ClaimRequest","name":"","type":"tuple"}],"stateMutability":"pure","type":"function"},{"inputs":[{"internalType":"bytes16","name":"groupId","type":"bytes16"},{"internalType":"uint256","name":"value","type":"uint256"},{"internalType":"enum ClaimType","name":"claimType","type":"uint8"},{"internalType":"bytes","name":"extraData","type":"bytes"}],"name":"build","outputs":[{"components":[{"internalType":"enum ClaimType","name":"claimType","type":"uint8"},{"internalType":"bytes16","name":"groupId","type":"bytes16"},{"internalType":"bytes16","name":"groupTimestamp","type":"bytes16"},{"internalType":"uint256","name":"value","type":"uint256"},{"internalType":"bool","name":"isOptional","type":"bool"},{"internalType":"bool","name":"isSelectableByUser","type":"bool"},{"internalType":"bytes","name":"extraData","type":"bytes"}],"internalType":"struct ClaimRequest","name":"","type":"tuple"}],"stateMutability":"pure","type":"function"},{"inputs":[{"internalType":"bytes16","name":"groupId","type":"bytes16"}],"name":"build","outputs":[{"components":[{"internalType":"enum ClaimType","name":"claimType","type":"uint8"},{"internalType":"bytes16","name":"groupId","type":"bytes16"},{"internalType":"bytes16","name":"groupTimestamp","type":"bytes16"},{"internalType":"uint256","name":"value","type":"uint256"},{"internalType":"bool","name":"isOptional","type":"bool"},{"internalType":"bool","name":"isSelectableByUser","type":"bool"},{"internalType":"bytes","name":"extraData","type":"bytes"}],"internalType":"struct ClaimRequest","name":"","type":"tuple"}],"stateMutability":"pure","type":"function"},{"inputs":[{"internalType":"bytes16","name":"groupId","type":"bytes16"},{"internalType":"bytes16","name":"groupTimestamp","type":"bytes16"},{"internalType":"uint256","name":"value","type":"uint256"},{"internalType":"enum ClaimType","name":"claimType","type":"uint8"},{"internalType":"bool","name":"isOptional","type":"bool"},{"internalType":"bool","name":"isSelectableByUser","type":"bool"},{"internalType":"bytes","name":"extraData","type":"bytes"}],"name":"build","outputs":[{"components":[{"internalType":"enum ClaimType","name":"claimType","type":"uint8"},{"internalType":"bytes16","name":"groupId","type":"bytes16"},{"internalType":"bytes16","name":"groupTimestamp","type":"bytes16"},{"internalType":"uint256","name":"value","type":"uint256"},{"internalType":"bool","name":"isOptional","type":"bool"},{"internalType":"bool","name":"isSelectableByUser","type":"bool"},{"internalType":"bytes","name":"extraData","type":"bytes"}],"internalType":"struct ClaimRequest","name":"","type":"tuple"}],"stateMutability":"pure","type":"function"},{"inputs":[{"internalType":"bytes16","name":"groupId","type":"bytes16"},{"internalType":"uint256","name":"value","type":"uint256"},{"internalType":"bytes","name":"extraData","type":"bytes"}],"name":"build","outputs":[{"components":[{"internalType":"enum ClaimType","name":"claimType","type":"uint8"},{"internalType":"bytes16","name":"groupId","type":"bytes16"},{"internalType":"bytes16","name":"groupTimestamp","type":"bytes16"},{"internalType":"uint256","name":"value","type":"uint256"},{"internalType":"bool","name":"isOptional","type":"bool"},{"internalType":"bool","name":"isSelectableByUser","type":"bool"},{"internalType":"bytes","name":"extraData","type":"bytes"}],"internalType":"struct ClaimRequest","name":"","type":"tuple"}],"stateMutability":"pure","type":"function"},{"inputs":[{"internalType":"bytes16","name":"groupId","type":"bytes16"},{"internalType":"bool","name":"isOptional","type":"bool"},{"internalType":"bool","name":"isSelectableByUser","type":"bool"}],"name":"build","outputs":[{"components":[{"internalType":"enum ClaimType","name":"claimType","type":"uint8"},{"internalType":"bytes16","name":"groupId","type":"bytes16"},{"internalType":"bytes16","name":"groupTimestamp","type":"bytes16"},{"internalType":"uint256","name":"value","type":"uint256"},{"internalType":"bool","name":"isOptional","type":"bool"},{"internalType":"bool","name":"isSelectableByUser","type":"bool"},{"internalType":"bytes","name":"extraData","type":"bytes"}],"internalType":"struct ClaimRequest","name":"","type":"tuple"}],"stateMutability":"pure","type":"function"},{"inputs":[{"internalType":"bytes16","name":"groupId","type":"bytes16"},{"internalType":"bytes16","name":"groupTimestamp","type":"bytes16"},{"internalType":"bytes","name":"extraData","type":"bytes"}],"name":"build","outputs":[{"components":[{"internalType":"enum ClaimType","name":"claimType","type":"uint8"},{"internalType":"bytes16","name":"groupId","type":"bytes16"},{"internalType":"bytes16","name":"groupTimestamp","type":"bytes16"},{"internalType":"uint256","name":"value","type":"uint256"},{"internalType":"bool","name":"isOptional","type":"bool"},{"internalType":"bool","name":"isSelectableByUser","type":"bool"},{"internalType":"bytes","name":"extraData","type":"bytes"}],"internalType":"struct ClaimRequest","name":"","type":"tuple"}],"stateMutability":"pure","type":"function"}],"evm":{"bytecode":{"linkReferences":{},"object":"608060405234801561001057600080fd5b50612714806100206000396000f3fe608060405234801561001057600080fd5b50600436106101e55760003560e01c806384a0e9071161010f578063d4e694f7116100a2578063e3ec2c9911610071578063e3ec2c991461068e578063ec294078146106be578063ee5decf2146106ee578063f744d6541461071e576101e5565b8063d4e694f7146105e0578063d8b6eb2b146105fe578063db9178d61461062e578063e379821c1461065e576101e5565b8063b5a7fef5116100de578063b5a7fef514610532578063bd240b8614610562578063c9062f3114610580578063d035c7ca146105b0576101e5565b806384a0e907146104845780638628695b146104a257806397e65353146104d2578063a820af1a14610502576101e5565b8063409f789a116101875780636b945f38116101565780636b945f38146103d6578063749d6d85146104065780637aadac0d1461042457806380decbce14610454576101e5565b8063409f789a146103285780634d06bd8814610358578063644c52c8146103885780636658580a146103b8576101e5565b806335628e71116101c357806335628e71146102685780633880e361146102985780633a5dc559146102c85780633b0cb073146102f8576101e5565b80630d55ad28146101ea578063102f7b601461021a57806330c62a4a1461024a575b600080fd5b61020460048036038101906101ff9190611921565b61074e565b6040516102119190611b79565b60405180910390f35b610234600480360381019061022f9190611bc7565b6107d2565b6040516102419190611b79565b60405180910390f35b610252610856565b60405161025f9190611c59565b60405180910390f35b610282600480360381019061027d9190611ca0565b61085b565b60405161028f9190611b79565b60405180910390f35b6102b260048036038101906102ad9190611d07565b6108ed565b6040516102bf9190611b79565b60405180910390f35b6102e260048036038101906102dd9190611d82565b61099e565b6040516102ef9190611b79565b60405180910390f35b610312600480360381019061030d9190611de9565b610a4f565b60405161031f9190611b79565b60405180910390f35b610342600480360381019061033d9190611e64565b610ae1565b60405161034f9190611b79565b60405180910390f35b610372600480360381019061036d9190611eb7565b610b92565b60405161037f9190611b79565b60405180910390f35b6103a2600480360381019061039d9190611f0a565b610c24565b6040516103af9190611b79565b60405180910390f35b6103c0610cb6565b6040516103cd9190611f59565b60405180910390f35b6103f060048036038101906103eb9190611f74565b610cbb565b6040516103fd9190611b79565b60405180910390f35b61040e610d4d565b60405161041b9190612010565b60405180910390f35b61043e6004803603810190610439919061202b565b610d71565b60405161044b9190611b79565b60405180910390f35b61046e600480360381019061046991906120c2565b610df5565b60405161047b9190611b79565b60405180910390f35b61048c610ea6565b6040516104999190612111565b60405180910390f35b6104bc60048036038101906104b7919061212c565b610eab565b6040516104c99190611b79565b60405180910390f35b6104ec60048036038101906104e7919061216c565b610f5c565b6040516104f99190611b79565b60405180910390f35b61051c600480360381019061051791906121db565b610fff565b6040516105299190611b79565b60405180910390f35b61054c60048036038101906105479190612237565b6110a2565b6040516105599190611b79565b60405180910390f35b61056a611153565b6040516105779190611c59565b60405180910390f35b61059a6004803603810190610595919061229e565b611158565b6040516105a79190611b79565b60405180910390f35b6105ca60048036038101906105c591906122f1565b6111ea565b6040516105d79190611b79565b60405180910390f35b6105e861127c565b6040516105f591906123a2565b60405180910390f35b610618600480360381019061061391906123c4565b61128f565b6040516106259190611b79565b60405180910390f35b6106486004803603810190610643919061243f565b611321565b6040516106559190611b79565b60405180910390f35b610678600480360381019061067391906124c2565b6113c4565b6040516106859190611b79565b60405180910390f35b6106a860048036038101906106a391906124ef565b611475565b6040516106b59190611b79565b60405180910390f35b6106d860048036038101906106d391906125ad565b6114f9565b6040516106e59190611b79565b60405180910390f35b6107086004803603810190610703919061261c565b61159c565b6040516107159190611b79565b60405180910390f35b6107386004803603810190610733919061266f565b61164d565b6040516107459190611b79565b60405180910390f35b6107566116d1565b6040518060e00160405280846004811115610774576107736119a4565b5b8152602001866fffffffffffffffffffffffffffffffff19168152602001856fffffffffffffffffffffffffffffffff1916815260200160018152602001600015158152602001600115158152602001838152509050949350505050565b6107da6116d1565b6040518060e00160405280600060048111156107f9576107f86119a4565b5b8152602001866fffffffffffffffffffffffffffffffff19168152602001856fffffffffffffffffffffffffffffffff19168152602001848152602001600015158152602001600115158152602001838152509050949350505050565b600081565b6108636116d1565b6040518060e0016040528060006004811115610882576108816119a4565b5b8152602001866fffffffffffffffffffffffffffffffff19168152602001856fffffffffffffffffffffffffffffffff191681526020016001815260200184151581526020018315158152602001604051806020016040528060008152508152509050949350505050565b6108f56116d1565b6040518060e00160405280856004811115610913576109126119a4565b5b8152602001876fffffffffffffffffffffffffffffffff191681526020017f6c617465737400000000000000000000000000000000000000000000000000006fffffffffffffffffffffffffffffffff191681526020018681526020018415158152602001831515815260200160405180602001604052806000815250815250905095945050505050565b6109a66116d1565b6040518060e00160405280600060048111156109c5576109c46119a4565b5b8152602001866fffffffffffffffffffffffffffffffff191681526020017f6c617465737400000000000000000000000000000000000000000000000000006fffffffffffffffffffffffffffffffff1916815260200185815260200184151581526020018315158152602001604051806020016040528060008152508152509050949350505050565b610a576116d1565b6040518060e00160405280856004811115610a7557610a746119a4565b5b8152602001876fffffffffffffffffffffffffffffffff19168152602001866fffffffffffffffffffffffffffffffff19168152602001600181526020018415158152602001831515815260200160405180602001604052806000815250815250905095945050505050565b610ae96116d1565b6040518060e00160405280836004811115610b0757610b066119a4565b5b8152602001856fffffffffffffffffffffffffffffffff191681526020017f6c617465737400000000000000000000000000000000000000000000000000006fffffffffffffffffffffffffffffffff191681526020018481526020016000151581526020016001151581526020016040518060200160405280600081525081525090509392505050565b610b9a6116d1565b6040518060e0016040528060006004811115610bb957610bb86119a4565b5b8152602001856fffffffffffffffffffffffffffffffff19168152602001846fffffffffffffffffffffffffffffffff191681526020018381526020016000151581526020016001151581526020016040518060200160405280600081525081525090509392505050565b610c2c6116d1565b6040518060e0016040528060006004811115610c4b57610c4a6119a4565b5b8152602001846fffffffffffffffffffffffffffffffff19168152602001836fffffffffffffffffffffffffffffffff191681526020016001815260200160001515815260200160011515815260200160405180602001604052806000815250815250905092915050565b600181565b610cc36116d1565b6040518060e00160405280856004811115610ce157610ce06119a4565b5b8152602001886fffffffffffffffffffffffffffffffff19168152602001876fffffffffffffffffffffffffffffffff19168152602001868152602001841515815260200183151581526020016040518060200160405280600081525081525090509695505050505050565b7f6c6174657374000000000000000000000000000000000000000000000000000081565b610d796116d1565b6040518060e00160405280846004811115610d9757610d966119a4565b5b8152602001876fffffffffffffffffffffffffffffffff19168152602001866fffffffffffffffffffffffffffffffff1916815260200185815260200160001515815260200160011515815260200183815250905095945050505050565b610dfd6116d1565b6040518060e00160405280836004811115610e1b57610e1a6119a4565b5b8152602001846fffffffffffffffffffffffffffffffff191681526020017f6c617465737400000000000000000000000000000000000000000000000000006fffffffffffffffffffffffffffffffff191681526020016001815260200160001515815260200160011515815260200160405180602001604052806000815250815250905092915050565b600081565b610eb36116d1565b6040518060e0016040528060006004811115610ed257610ed16119a4565b5b8152602001846fffffffffffffffffffffffffffffffff191681526020017f6c617465737400000000000000000000000000000000000000000000000000006fffffffffffffffffffffffffffffffff1916815260200183815260200160001515815260200160011515815260200160405180602001604052806000815250815250905092915050565b610f646116d1565b6040518060e00160405280846004811115610f8257610f816119a4565b5b8152602001856fffffffffffffffffffffffffffffffff191681526020017f6c617465737400000000000000000000000000000000000000000000000000006fffffffffffffffffffffffffffffffff19168152602001600181526020016000151581526020016001151581526020018381525090509392505050565b6110076116d1565b6040518060e0016040528060006004811115611026576110256119a4565b5b8152602001846fffffffffffffffffffffffffffffffff191681526020017f6c617465737400000000000000000000000000000000000000000000000000006fffffffffffffffffffffffffffffffff191681526020016001815260200160001515815260200160011515815260200183815250905092915050565b6110aa6116d1565b6040518060e001604052808560048111156110c8576110c76119a4565b5b8152602001866fffffffffffffffffffffffffffffffff191681526020017f6c617465737400000000000000000000000000000000000000000000000000006fffffffffffffffffffffffffffffffff191681526020016001815260200184151581526020018315158152602001604051806020016040528060008152508152509050949350505050565b600181565b6111606116d1565b6040518060e0016040528083600481111561117e5761117d6119a4565b5b8152602001856fffffffffffffffffffffffffffffffff19168152602001846fffffffffffffffffffffffffffffffff19168152602001600181526020016000151581526020016001151581526020016040518060200160405280600081525081525090509392505050565b6111f26116d1565b6040518060e001604052808360048111156112105761120f6119a4565b5b8152602001866fffffffffffffffffffffffffffffffff19168152602001856fffffffffffffffffffffffffffffffff19168152602001848152602001600015158152602001600115158152602001604051806020016040528060008152508152509050949350505050565b6040518060200160405280600081525081565b6112976116d1565b6040518060e00160405280600060048111156112b6576112b56119a4565b5b8152602001876fffffffffffffffffffffffffffffffff19168152602001866fffffffffffffffffffffffffffffffff191681526020018581526020018415158152602001831515815260200160405180602001604052806000815250815250905095945050505050565b6113296116d1565b6040518060e00160405280846004811115611347576113466119a4565b5b8152602001866fffffffffffffffffffffffffffffffff191681526020017f6c617465737400000000000000000000000000000000000000000000000000006fffffffffffffffffffffffffffffffff19168152602001858152602001600015158152602001600115158152602001838152509050949350505050565b6113cc6116d1565b6040518060e00160405280600060048111156113eb576113ea6119a4565b5b8152602001836fffffffffffffffffffffffffffffffff191681526020017f6c617465737400000000000000000000000000000000000000000000000000006fffffffffffffffffffffffffffffffff1916815260200160018152602001600015158152602001600115158152602001604051806020016040528060008152508152509050919050565b61147d6116d1565b6040518060e0016040528086600481111561149b5761149a6119a4565b5b8152602001896fffffffffffffffffffffffffffffffff19168152602001886fffffffffffffffffffffffffffffffff1916815260200187815260200185151581526020018415158152602001838152509050979650505050505050565b6115016116d1565b6040518060e00160405280600060048111156115205761151f6119a4565b5b8152602001856fffffffffffffffffffffffffffffffff191681526020017f6c617465737400000000000000000000000000000000000000000000000000006fffffffffffffffffffffffffffffffff191681526020018481526020016000151581526020016001151581526020018381525090509392505050565b6115a46116d1565b6040518060e00160405280600060048111156115c3576115c26119a4565b5b8152602001856fffffffffffffffffffffffffffffffff191681526020017f6c617465737400000000000000000000000000000000000000000000000000006fffffffffffffffffffffffffffffffff1916815260200160018152602001841515815260200183151581526020016040518060200160405280600081525081525090509392505050565b6116556116d1565b6040518060e0016040528060006004811115611674576116736119a4565b5b8152602001856fffffffffffffffffffffffffffffffff19168152602001846fffffffffffffffffffffffffffffffff19168152602001600181526020016000151581526020016001151581526020018381525090509392505050565b6040518060e00160405280600060048111156116f0576116ef6119a4565b5b815260200160006fffffffffffffffffffffffffffffffff1916815260200160006fffffffffffffffffffffffffffffffff1916815260200160008152602001600015158152602001600015158152602001606081525090565b6000604051905090565b600080fd5b600080fd5b60007fffffffffffffffffffffffffffffffff0000000000000000000000000000000082169050919050565b6117938161175e565b811461179e57600080fd5b50565b6000813590506117b08161178a565b92915050565b600581106117c357600080fd5b50565b6000813590506117d5816117b6565b92915050565b600080fd5b600080fd5b6000601f19601f8301169050919050565b7f4e487b7100000000000000000000000000000000000000000000000000000000600052604160045260246000fd5b61182e826117e5565b810181811067ffffffffffffffff8211171561184d5761184c6117f6565b5b80604052505050565b600061186061174a565b905061186c8282611825565b919050565b600067ffffffffffffffff82111561188c5761188b6117f6565b5b611895826117e5565b9050602081019050919050565b82818337600083830152505050565b60006118c46118bf84611871565b611856565b9050828152602081018484840111156118e0576118df6117e0565b5b6118eb8482856118a2565b509392505050565b600082601f830112611908576119076117db565b5b81356119188482602086016118b1565b91505092915050565b6000806000806080858703121561193b5761193a611754565b5b6000611949878288016117a1565b945050602061195a878288016117a1565b935050604061196b878288016117c6565b925050606085013567ffffffffffffffff81111561198c5761198b611759565b5b611998878288016118f3565b91505092959194509250565b7f4e487b7100000000000000000000000000000000000000000000000000000000600052602160045260246000fd5b600581106119e4576119e36119a4565b5b50565b60008190506119f5826119d3565b919050565b6000611a05826119e7565b9050919050565b611a15816119fa565b82525050565b611a248161175e565b82525050565b6000819050919050565b611a3d81611a2a565b82525050565b60008115159050919050565b611a5881611a43565b82525050565b600081519050919050565b600082825260208201905092915050565b60005b83811015611a98578082015181840152602081019050611a7d565b60008484015250505050565b6000611aaf82611a5e565b611ab98185611a69565b9350611ac9818560208601611a7a565b611ad2816117e5565b840191505092915050565b600060e083016000830151611af56000860182611a0c565b506020830151611b086020860182611a1b565b506040830151611b1b6040860182611a1b565b506060830151611b2e6060860182611a34565b506080830151611b416080860182611a4f565b5060a0830151611b5460a0860182611a4f565b5060c083015184820360c0860152611b6c8282611aa4565b9150508091505092915050565b60006020820190508181036000830152611b938184611add565b905092915050565b611ba481611a2a565b8114611baf57600080fd5b50565b600081359050611bc181611b9b565b92915050565b60008060008060808587031215611be157611be0611754565b5b6000611bef878288016117a1565b9450506020611c00878288016117a1565b9350506040611c1187828801611bb2565b925050606085013567ffffffffffffffff811115611c3257611c31611759565b5b611c3e878288016118f3565b91505092959194509250565b611c5381611a43565b82525050565b6000602082019050611c6e6000830184611c4a565b92915050565b611c7d81611a43565b8114611c8857600080fd5b50565b600081359050611c9a81611c74565b92915050565b60008060008060808587031215611cba57611cb9611754565b5b6000611cc8878288016117a1565b9450506020611cd9878288016117a1565b9350506040611cea87828801611c8b565b9250506060611cfb87828801611c8b565b91505092959194509250565b600080600080600060a08688031215611d2357611d22611754565b5b6000611d31888289016117a1565b9550506020611d4288828901611bb2565b9450506040611d53888289016117c6565b9350506060611d6488828901611c8b565b9250506080611d7588828901611c8b565b9150509295509295909350565b60008060008060808587031215611d9c57611d9b611754565b5b6000611daa878288016117a1565b9450506020611dbb87828801611bb2565b9350506040611dcc87828801611c8b565b9250506060611ddd87828801611c8b565b91505092959194509250565b600080600080600060a08688031215611e0557611e04611754565b5b6000611e13888289016117a1565b9550506020611e24888289016117a1565b9450506040611e35888289016117c6565b9350506060611e4688828901611c8b565b9250506080611e5788828901611c8b565b9150509295509295909350565b600080600060608486031215611e7d57611e7c611754565b5b6000611e8b868287016117a1565b9350506020611e9c86828701611bb2565b9250506040611ead868287016117c6565b9150509250925092565b600080600060608486031215611ed057611ecf611754565b5b6000611ede868287016117a1565b9350506020611eef868287016117a1565b9250506040611f0086828701611bb2565b9150509250925092565b60008060408385031215611f2157611f20611754565b5b6000611f2f858286016117a1565b9250506020611f40858286016117a1565b9150509250929050565b611f5381611a2a565b82525050565b6000602082019050611f6e6000830184611f4a565b92915050565b60008060008060008060c08789031215611f9157611f90611754565b5b6000611f9f89828a016117a1565b9650506020611fb089828a016117a1565b9550506040611fc189828a01611bb2565b9450506060611fd289828a016117c6565b9350506080611fe389828a01611c8b565b92505060a0611ff489828a01611c8b565b9150509295509295509295565b61200a8161175e565b82525050565b60006020820190506120256000830184612001565b92915050565b600080600080600060a0868803121561204757612046611754565b5b6000612055888289016117a1565b9550506020612066888289016117a1565b945050604061207788828901611bb2565b9350506060612088888289016117c6565b925050608086013567ffffffffffffffff8111156120a9576120a8611759565b5b6120b5888289016118f3565b9150509295509295909350565b600080604083850312156120d9576120d8611754565b5b60006120e7858286016117a1565b92505060206120f8858286016117c6565b9150509250929050565b61210b816119fa565b82525050565b60006020820190506121266000830184612102565b92915050565b6000806040838503121561214357612142611754565b5b6000612151858286016117a1565b925050602061216285828601611bb2565b9150509250929050565b60008060006060848603121561218557612184611754565b5b6000612193868287016117a1565b93505060206121a4868287016117c6565b925050604084013567ffffffffffffffff8111156121c5576121c4611759565b5b6121d1868287016118f3565b9150509250925092565b600080604083850312156121f2576121f1611754565b5b6000612200858286016117a1565b925050602083013567ffffffffffffffff81111561222157612220611759565b5b61222d858286016118f3565b9150509250929050565b6000806000806080858703121561225157612250611754565b5b600061225f878288016117a1565b9450506020612270878288016117c6565b935050604061228187828801611c8b565b925050606061229287828801611c8b565b91505092959194509250565b6000806000606084860312156122b7576122b6611754565b5b60006122c5868287016117a1565b93505060206122d6868287016117a1565b92505060406122e7868287016117c6565b9150509250925092565b6000806000806080858703121561230b5761230a611754565b5b6000612319878288016117a1565b945050602061232a878288016117a1565b935050604061233b87828801611bb2565b925050606061234c878288016117c6565b91505092959194509250565b600082825260208201905092915050565b600061237482611a5e565b61237e8185612358565b935061238e818560208601611a7a565b612397816117e5565b840191505092915050565b600060208201905081810360008301526123bc8184612369565b905092915050565b600080600080600060a086880312156123e0576123df611754565b5b60006123ee888289016117a1565b95505060206123ff888289016117a1565b945050604061241088828901611bb2565b935050606061242188828901611c8b565b925050608061243288828901611c8b565b9150509295509295909350565b6000806000806080858703121561245957612458611754565b5b6000612467878288016117a1565b945050602061247887828801611bb2565b9350506040612489878288016117c6565b925050606085013567ffffffffffffffff8111156124aa576124a9611759565b5b6124b6878288016118f3565b91505092959194509250565b6000602082840312156124d8576124d7611754565b5b60006124e6848285016117a1565b91505092915050565b600080600080600080600060e0888a03121561250e5761250d611754565b5b600061251c8a828b016117a1565b975050602061252d8a828b016117a1565b965050604061253e8a828b01611bb2565b955050606061254f8a828b016117c6565b94505060806125608a828b01611c8b565b93505060a06125718a828b01611c8b565b92505060c088013567ffffffffffffffff81111561259257612591611759565b5b61259e8a828b016118f3565b91505092959891949750929550565b6000806000606084860312156125c6576125c5611754565b5b60006125d4868287016117a1565b93505060206125e586828701611bb2565b925050604084013567ffffffffffffffff81111561260657612605611759565b5b612612868287016118f3565b9150509250925092565b60008060006060848603121561263557612634611754565b5b6000612643868287016117a1565b935050602061265486828701611c8b565b925050604061266586828701611c8b565b9150509250925092565b60008060006060848603121561268857612687611754565b5b6000612696868287016117a1565b93505060206126a7868287016117a1565b925050604084013567ffffffffffffffff8111156126c8576126c7611759565b5b6126d4868287016118f3565b915050925092509256fea26469706673582212207dac5455bfe0e8c651710f14dd6665ba301acab844f4e4c5f98885229ecc0cc764736f6c63430008120033","opcodes":"PUSH1 0x80 PUSH1 0x40 MSTORE CALLVALUE DUP1 ISZERO PUSH2 0x10 JUMPI PUSH1 0x0 DUP1 REVERT JUMPDEST POP PUSH2 0x2714 DUP1 PUSH2 0x20 PUSH1 0x0 CODECOPY PUSH1 0x0 RETURN INVALID PUSH1 0x80 PUSH1 0x40 MSTORE CALLVALUE DUP1 ISZERO PUSH2 0x10 JUMPI PUSH1 0x0 DUP1 REVERT JUMPDEST POP PUSH1 0x4 CALLDATASIZE LT PUSH2 0x1E5 JUMPI PUSH1 0x0 CALLDATALOAD PUSH1 0xE0 SHR DUP1 PUSH4 0x84A0E907 GT PUSH2 0x10F JUMPI DUP1 PUSH4 0xD4E694F7 GT PUSH2 0xA2 JUMPI DUP1 PUSH4 0xE3EC2C99 GT PUSH2 0x71 JUMPI DUP1 PUSH4 0xE3EC2C99 EQ PUSH2 0x68E JUMPI DUP1 PUSH4 0xEC294078 EQ PUSH2 0x6BE JUMPI DUP1 PUSH4 0xEE5DECF2 EQ PUSH2 0x6EE JUMPI DUP1 PUSH4 0xF744D654 EQ PUSH2 0x71E JUMPI PUSH2 0x1E5 JUMP JUMPDEST DUP1 PUSH4 0xD4E694F7 EQ PUSH2 0x5E0 JUMPI DUP1 PUSH4 0xD8B6EB2B EQ PUSH2 0x5FE JUMPI DUP1 PUSH4 0xDB9178D6 EQ PUSH2 0x62E JUMPI DUP1 PUSH4 0xE379821C EQ PUSH2 0x65E JUMPI PUSH2 0x1E5 JUMP JUMPDEST DUP1 PUSH4 0xB5A7FEF5 GT PUSH2 0xDE JUMPI DUP1 PUSH4 0xB5A7FEF5 EQ PUSH2 0x532 JUMPI DUP1 PUSH4 0xBD240B86 EQ PUSH2 0x562 JUMPI DUP1 PUSH4 0xC9062F31 EQ PUSH2 0x580 JUMPI DUP1 PUSH4 0xD035C7CA EQ PUSH2 0x5B0 JUMPI PUSH2 0x1E5 JUMP JUMPDEST DUP1 PUSH4 0x84A0E907 EQ PUSH2 0x484 JUMPI DUP1 PUSH4 0x8628695B EQ PUSH2 0x4A2 JUMPI DUP1 PUSH4 0x97E65353 EQ PUSH2 0x4D2 JUMPI DUP1 PUSH4 0xA820AF1A EQ PUSH2 0x502 JUMPI PUSH2 0x1E5 JUMP JUMPDEST DUP1 PUSH4 0x409F789A GT PUSH2 0x187 JUMPI DUP1 PUSH4 0x6B945F38 GT PUSH2 0x156 JUMPI DUP1 PUSH4 0x6B945F38 EQ PUSH2 0x3D6 JUMPI DUP1 PUSH4 0x749D6D85 EQ PUSH2 0x406 JUMPI DUP1 PUSH4 0x7AADAC0D EQ PUSH2 0x424 JUMPI DUP1 PUSH4 0x80DECBCE EQ PUSH2 0x454 JUMPI PUSH2 0x1E5 JUMP JUMPDEST DUP1 PUSH4 0x409F789A EQ PUSH2 0x328 JUMPI DUP1 PUSH4 0x4D06BD88 EQ PUSH2 0x358 JUMPI DUP1 PUSH4 0x644C52C8 EQ PUSH2 0x388 JUMPI DUP1 PUSH4 0x6658580A EQ PUSH2 0x3B8 JUMPI PUSH2 0x1E5 JUMP JUMPDEST DUP1 PUSH4 0x35628E71 GT PUSH2 0x1C3 JUMPI DUP1 PUSH4 0x35628E71 EQ PUSH2 0x268 JUMPI DUP1 PUSH4 0x3880E361 EQ PUSH2 0x298 JUMPI DUP1 PUSH4 0x3A5DC559 EQ PUSH2 0x2C8 JUMPI DUP1 PUSH4 0x3B0CB073 EQ PUSH2 0x2F8 JUMPI PUSH2 0x1E5 JUMP JUMPDEST DUP1 PUSH4 0xD55AD28 EQ PUSH2 0x1EA JUMPI DUP1 PUSH4 0x102F7B60 EQ PUSH2 0x21A JUMPI DUP1 PUSH4 0x30C62A4A EQ PUSH2 0x24A JUMPI JUMPDEST PUSH1 0x0 DUP1 REVERT JUMPDEST PUSH2 0x204 PUSH1 0x4 DUP1 CALLDATASIZE SUB DUP2 ADD SWAP1 PUSH2 0x1FF SWAP2 SWAP1 PUSH2 0x1921 JUMP JUMPDEST PUSH2 0x74E JUMP JUMPDEST PUSH1 0x40 MLOAD PUSH2 0x211 SWAP2 SWAP1 PUSH2 0x1B79 JUMP JUMPDEST PUSH1 0x40 MLOAD DUP1 SWAP2 SUB SWAP1 RETURN JUMPDEST PUSH2 0x234 PUSH1 0x4 DUP1 CALLDATASIZE SUB DUP2 ADD SWAP1 PUSH2 0x22F SWAP2 SWAP1 PUSH2 0x1BC7 JUMP JUMPDEST PUSH2 0x7D2 JUMP JUMPDEST PUSH1 0x40 MLOAD PUSH2 0x241 SWAP2 SWAP1 PUSH2 0x1B79 JUMP JUMPDEST PUSH1 0x40 MLOAD DUP1 SWAP2 SUB SWAP1 RETURN JUMPDEST PUSH2 0x252 PUSH2 0x856 JUMP JUMPDEST PUSH1 0x40 MLOAD PUSH2 0x25F SWAP2 SWAP1 PUSH2 0x1C59 JUMP JUMPDEST PUSH1 0x40 MLOAD DUP1 SWAP2 SUB SWAP1 RETURN JUMPDEST PUSH2 0x282 PUSH1 0x4 DUP1 CALLDATASIZE SUB DUP2 ADD SWAP1 PUSH2 0x27D SWAP2 SWAP1 PUSH2 0x1CA0 JUMP JUMPDEST PUSH2 0x85B JUMP JUMPDEST PUSH1 0x40 MLOAD PUSH2 0x28F SWAP2 SWAP1 PUSH2 0x1B79 JUMP JUMPDEST PUSH1 0x40 MLOAD DUP1 SWAP2 SUB SWAP1 RETURN JUMPDEST PUSH2 0x2B2 PUSH1 0x4 DUP1 CALLDATASIZE SUB DUP2 ADD SWAP1 PUSH2 0x2AD SWAP2 SWAP1 PUSH2 0x1D07 JUMP JUMPDEST PUSH2 0x8ED JUMP JUMPDEST PUSH1 0x40 MLOAD PUSH2 0x2BF SWAP2 SWAP1 PUSH2 0x1B79 JUMP JUMPDEST PUSH1 0x40 MLOAD DUP1 SWAP2 SUB SWAP1 RETURN JUMPDEST PUSH2 0x2E2 PUSH1 0x4 DUP1 CALLDATASIZE SUB DUP2 ADD SWAP1 PUSH2 0x2DD SWAP2 SWAP1 PUSH2 0x1D82 JUMP JUMPDEST PUSH2 0x99E JUMP JUMPDEST PUSH1 0x40 MLOAD PUSH2 0x2EF SWAP2 SWAP1 PUSH2 0x1B79 JUMP JUMPDEST PUSH1 0x40 MLOAD DUP1 SWAP2 SUB SWAP1 RETURN JUMPDEST PUSH2 0x312 PUSH1 0x4 DUP1 CALLDATASIZE SUB DUP2 ADD SWAP1 PUSH2 0x30D SWAP2 SWAP1 PUSH2 0x1DE9 JUMP JUMPDEST PUSH2 0xA4F JUMP JUMPDEST PUSH1 0x40 MLOAD PUSH2 0x31F SWAP2 SWAP1 PUSH2 0x1B79 JUMP JUMPDEST PUSH1 0x40 MLOAD DUP1 SWAP2 SUB SWAP1 RETURN JUMPDEST PUSH2 0x342 PUSH1 0x4 DUP1 CALLDATASIZE SUB DUP2 ADD SWAP1 PUSH2 0x33D SWAP2 SWAP1 PUSH2 0x1E64 JUMP JUMPDEST PUSH2 0xAE1 JUMP JUMPDEST PUSH1 0x40 MLOAD PUSH2 0x34F SWAP2 SWAP1 PUSH2 0x1B79 JUMP JUMPDEST PUSH1 0x40 MLOAD DUP1 SWAP2 SUB SWAP1 RETURN JUMPDEST PUSH2 0x372 PUSH1 0x4 DUP1 CALLDATASIZE SUB DUP2 ADD SWAP1 PUSH2 0x36D SWAP2 SWAP1 PUSH2 0x1EB7 JUMP JUMPDEST PUSH2 0xB92 JUMP JUMPDEST PUSH1 0x40 MLOAD PUSH2 0x37F SWAP2 SWAP1 PUSH2 0x1B79 JUMP JUMPDEST PUSH1 0x40 MLOAD DUP1 SWAP2 SUB SWAP1 RETURN JUMPDEST PUSH2 0x3A2 PUSH1 0x4 DUP1 CALLDATASIZE SUB DUP2 ADD SWAP1 PUSH2 0x39D SWAP2 SWAP1 PUSH2 0x1F0A JUMP JUMPDEST PUSH2 0xC24 JUMP JUMPDEST PUSH1 0x40 MLOAD PUSH2 0x3AF SWAP2 SWAP1 PUSH2 0x1B79 JUMP JUMPDEST PUSH1 0x40 MLOAD DUP1 SWAP2 SUB SWAP1 RETURN JUMPDEST PUSH2 0x3C0 PUSH2 0xCB6 JUMP JUMPDEST PUSH1 0x40 MLOAD PUSH2 0x3CD SWAP2 SWAP1 PUSH2 0x1F59 JUMP JUMPDEST PUSH1 0x40 MLOAD DUP1 SWAP2 SUB SWAP1 RETURN JUMPDEST PUSH2 0x3F0 PUSH1 0x4 DUP1 CALLDATASIZE SUB DUP2 ADD SWAP1 PUSH2 0x3EB SWAP2 SWAP1 PUSH2 0x1F74 JUMP JUMPDEST PUSH2 0xCBB JUMP JUMPDEST PUSH1 0x40 MLOAD PUSH2 0x3FD SWAP2 SWAP1 PUSH2 0x1B79 JUMP JUMPDEST PUSH1 0x40 MLOAD DUP1 SWAP2 SUB SWAP1 RETURN JUMPDEST PUSH2 0x40E PUSH2 0xD4D JUMP JUMPDEST PUSH1 0x40 MLOAD PUSH2 0x41B SWAP2 SWAP1 PUSH2 0x2010 JUMP JUMPDEST PUSH1 0x40 MLOAD DUP1 SWAP2 SUB SWAP1 RETURN JUMPDEST PUSH2 0x43E PUSH1 0x4 DUP1 CALLDATASIZE SUB DUP2 ADD SWAP1 PUSH2 0x439 SWAP2 SWAP1 PUSH2 0x202B JUMP JUMPDEST PUSH2 0xD71 JUMP JUMPDEST PUSH1 0x40 MLOAD PUSH2 0x44B SWAP2 SWAP1 PUSH2 0x1B79 JUMP JUMPDEST PUSH1 0x40 MLOAD DUP1 SWAP2 SUB SWAP1 RETURN JUMPDEST PUSH2 0x46E PUSH1 0x4 DUP1 CALLDATASIZE SUB DUP2 ADD SWAP1 PUSH2 0x469 SWAP2 SWAP1 PUSH2 0x20C2 JUMP JUMPDEST PUSH2 0xDF5 JUMP JUMPDEST PUSH1 0x40 MLOAD PUSH2 0x47B SWAP2 SWAP1 PUSH2 0x1B79 JUMP JUMPDEST PUSH1 0x40 MLOAD DUP1 SWAP2 SUB SWAP1 RETURN JUMPDEST PUSH2 0x48C PUSH2 0xEA6 JUMP JUMPDEST PUSH1 0x40 MLOAD PUSH2 0x499 SWAP2 SWAP1 PUSH2 0x2111 JUMP JUMPDEST PUSH1 0x40 MLOAD DUP1 SWAP2 SUB SWAP1 RETURN JUMPDEST PUSH2 0x4BC PUSH1 0x4 DUP1 CALLDATASIZE SUB DUP2 ADD SWAP1 PUSH2 0x4B7 SWAP2 SWAP1 PUSH2 0x212C JUMP JUMPDEST PUSH2 0xEAB JUMP JUMPDEST PUSH1 0x40 MLOAD PUSH2 0x4C9 SWAP2 SWAP1 PUSH2 0x1B79 JUMP JUMPDEST PUSH1 0x40 MLOAD DUP1 SWAP2 SUB SWAP1 RETURN JUMPDEST PUSH2 0x4EC PUSH1 0x4 DUP1 CALLDATASIZE SUB DUP2 ADD SWAP1 PUSH2 0x4E7 SWAP2 SWAP1 PUSH2 0x216C JUMP JUMPDEST PUSH2 0xF5C JUMP JUMPDEST PUSH1 0x40 MLOAD PUSH2 0x4F9 SWAP2 SWAP1 PUSH2 0x1B79 JUMP JUMPDEST PUSH1 0x40 MLOAD DUP1 SWAP2 SUB SWAP1 RETURN JUMPDEST PUSH2 0x51C PUSH1 0x4 DUP1 CALLDATASIZE SUB DUP2 ADD SWAP1 PUSH2 0x517 SWAP2 SWAP1 PUSH2 0x21DB JUMP JUMPDEST PUSH2 0xFFF JUMP JUMPDEST PUSH1 0x40 MLOAD PUSH2 0x529 SWAP2 SWAP1 PUSH2 0x1B79 JUMP JUMPDEST PUSH1 0x40 MLOAD DUP1 SWAP2 SUB SWAP1 RETURN JUMPDEST PUSH2 0x54C PUSH1 0x4 DUP1 CALLDATASIZE SUB DUP2 ADD SWAP1 PUSH2 0x547 SWAP2 SWAP1 PUSH2 0x2237 JUMP JUMPDEST PUSH2 0x10A2 JUMP JUMPDEST PUSH1 0x40 MLOAD PUSH2 0x559 SWAP2 SWAP1 PUSH2 0x1B79 JUMP JUMPDEST PUSH1 0x40 MLOAD DUP1 SWAP2 SUB SWAP1 RETURN JUMPDEST PUSH2 0x56A PUSH2 0x1153 JUMP JUMPDEST PUSH1 0x40 MLOAD PUSH2 0x577 SWAP2 SWAP1 PUSH2 0x1C59 JUMP JUMPDEST PUSH1 0x40 MLOAD DUP1 SWAP2 SUB SWAP1 RETURN JUMPDEST PUSH2 0x59A PUSH1 0x4 DUP1 CALLDATASIZE SUB DUP2 ADD SWAP1 PUSH2 0x595 SWAP2 SWAP1 PUSH2 0x229E JUMP JUMPDEST PUSH2 0x1158 JUMP JUMPDEST PUSH1 0x40 MLOAD PUSH2 0x5A7 SWAP2 SWAP1 PUSH2 0x1B79 JUMP JUMPDEST PUSH1 0x40 MLOAD DUP1 SWAP2 SUB SWAP1 RETURN JUMPDEST PUSH2 0x5CA PUSH1 0x4 DUP1 CALLDATASIZE SUB DUP2 ADD SWAP1 PUSH2 0x5C5 SWAP2 SWAP1 PUSH2 0x22F1 JUMP JUMPDEST PUSH2 0x11EA JUMP JUMPDEST PUSH1 0x40 MLOAD PUSH2 0x5D7 SWAP2 SWAP1 PUSH2 0x1B79 JUMP JUMPDEST PUSH1 0x40 MLOAD DUP1 SWAP2 SUB SWAP1 RETURN JUMPDEST PUSH2 0x5E8 PUSH2 0x127C JUMP JUMPDEST PUSH1 0x40 MLOAD PUSH2 0x5F5 SWAP2 SWAP1 PUSH2 0x23A2 JUMP JUMPDEST PUSH1 0x40 MLOAD DUP1 SWAP2 SUB SWAP1 RETURN JUMPDEST PUSH2 0x618 PUSH1 0x4 DUP1 CALLDATASIZE SUB DUP2 ADD SWAP1 PUSH2 0x613 SWAP2 SWAP1 PUSH2 0x23C4 JUMP JUMPDEST PUSH2 0x128F JUMP JUMPDEST PUSH1 0x40 MLOAD PUSH2 0x625 SWAP2 SWAP1 PUSH2 0x1B79 JUMP JUMPDEST PUSH1 0x40 MLOAD DUP1 SWAP2 SUB SWAP1 RETURN JUMPDEST PUSH2 0x648 PUSH1 0x4 DUP1 CALLDATASIZE SUB DUP2 ADD SWAP1 PUSH2 0x643 SWAP2 SWAP1 PUSH2 0x243F JUMP JUMPDEST PUSH2 0x1321 JUMP JUMPDEST PUSH1 0x40 MLOAD PUSH2 0x655 SWAP2 SWAP1 PUSH2 0x1B79 JUMP JUMPDEST PUSH1 0x40 MLOAD DUP1 SWAP2 SUB SWAP1 RETURN JUMPDEST PUSH2 0x678 PUSH1 0x4 DUP1 CALLDATASIZE SUB DUP2 ADD SWAP1 PUSH2 0x673 SWAP2 SWAP1 PUSH2 0x24C2 JUMP JUMPDEST PUSH2 0x13C4 JUMP JUMPDEST PUSH1 0x40 MLOAD PUSH2 0x685 SWAP2 SWAP1 PUSH2 0x1B79 JUMP JUMPDEST PUSH1 0x40 MLOAD DUP1 SWAP2 SUB SWAP1 RETURN JUMPDEST PUSH2 0x6A8 PUSH1 0x4 DUP1 CALLDATASIZE SUB DUP2 ADD SWAP1 PUSH2 0x6A3 SWAP2 SWAP1 PUSH2 0x24EF JUMP JUMPDEST PUSH2 0x1475 JUMP JUMPDEST PUSH1 0x40 MLOAD PUSH2 0x6B5 SWAP2 SWAP1 PUSH2 0x1B79 JUMP JUMPDEST PUSH1 0x40 MLOAD DUP1 SWAP2 SUB SWAP1 RETURN JUMPDEST PUSH2 0x6D8 PUSH1 0x4 DUP1 CALLDATASIZE SUB DUP2 ADD SWAP1 PUSH2 0x6D3 SWAP2 SWAP1 PUSH2 0x25AD JUMP JUMPDEST PUSH2 0x14F9 JUMP JUMPDEST PUSH1 0x40 MLOAD PUSH2 0x6E5 SWAP2 SWAP1 PUSH2 0x1B79 JUMP JUMPDEST PUSH1 0x40 MLOAD DUP1 SWAP2 SUB SWAP1 RETURN JUMPDEST PUSH2 0x708 PUSH1 0x4 DUP1 CALLDATASIZE SUB DUP2 ADD SWAP1 PUSH2 0x703 SWAP2 SWAP1 PUSH2 0x261C JUMP JUMPDEST PUSH2 0x159C JUMP JUMPDEST PUSH1 0x40 MLOAD PUSH2 0x715 SWAP2 SWAP1 PUSH2 0x1B79 JUMP JUMPDEST PUSH1 0x40 MLOAD DUP1 SWAP2 SUB SWAP1 RETURN JUMPDEST PUSH2 0x738 PUSH1 0x4 DUP1 CALLDATASIZE SUB DUP2 ADD SWAP1 PUSH2 0x733 SWAP2 SWAP1 PUSH2 0x266F JUMP JUMPDEST PUSH2 0x164D JUMP JUMPDEST PUSH1 0x40 MLOAD PUSH2 0x745 SWAP2 SWAP1 PUSH2 0x1B79 JUMP JUMPDEST PUSH1 0x40 MLOAD DUP1 SWAP2 SUB SWAP1 RETURN JUMPDEST PUSH2 0x756 PUSH2 0x16D1 JUMP JUMPDEST PUSH1 0x40 MLOAD DUP1 PUSH1 0xE0 ADD PUSH1 0x40 MSTORE DUP1 DUP5 PUSH1 0x4 DUP2 GT ISZERO PUSH2 0x774 JUMPI PUSH2 0x773 PUSH2 0x19A4 JUMP JUMPDEST JUMPDEST DUP2 MSTORE PUSH1 0x20 ADD DUP7 PUSH16 0xFFFFFFFFFFFFFFFFFFFFFFFFFFFFFFFF NOT AND DUP2 MSTORE PUSH1 0x20 ADD DUP6 PUSH16 0xFFFFFFFFFFFFFFFFFFFFFFFFFFFFFFFF NOT AND DUP2 MSTORE PUSH1 0x20 ADD PUSH1 0x1 DUP2 MSTORE PUSH1 0x20 ADD PUSH1 0x0 ISZERO ISZERO DUP2 MSTORE PUSH1 0x20 ADD PUSH1 0x1 ISZERO ISZERO DUP2 MSTORE PUSH1 0x20 ADD DUP4 DUP2 MSTORE POP SWAP1 POP SWAP5 SWAP4 POP POP POP POP JUMP JUMPDEST PUSH2 0x7DA PUSH2 0x16D1 JUMP JUMPDEST PUSH1 0x40 MLOAD DUP1 PUSH1 0xE0 ADD PUSH1 0x40 MSTORE DUP1 PUSH1 0x0 PUSH1 0x4 DUP2 GT ISZERO PUSH2 0x7F9 JUMPI PUSH2 0x7F8 PUSH2 0x19A4 JUMP JUMPDEST JUMPDEST DUP2 MSTORE PUSH1 0x20 ADD DUP7 PUSH16 0xFFFFFFFFFFFFFFFFFFFFFFFFFFFFFFFF NOT AND DUP2 MSTORE PUSH1 0x20 ADD DUP6 PUSH16 0xFFFFFFFFFFFFFFFFFFFFFFFFFFFFFFFF NOT AND DUP2 MSTORE PUSH1 0x20 ADD DUP5 DUP2 MSTORE PUSH1 0x20 ADD PUSH1 0x0 ISZERO ISZERO DUP2 MSTORE PUSH1 0x20 ADD PUSH1 0x1 ISZERO ISZERO DUP2 MSTORE PUSH1 0x20 ADD DUP4 DUP2 MSTORE POP SWAP1 POP SWAP5 SWAP4 POP POP POP POP JUMP JUMPDEST PUSH1 0x0 DUP2 JUMP JUMPDEST PUSH2 0x863 PUSH2 0x16D1 JUMP JUMPDEST PUSH1 0x40 MLOAD DUP1 PUSH1 0xE0 ADD PUSH1 0x40 MSTORE DUP1 PUSH1 0x0 PUSH1 0x4 DUP2 GT ISZERO PUSH2 0x882 JUMPI PUSH2 0x881 PUSH2 0x19A4 JUMP JUMPDEST JUMPDEST DUP2 MSTORE PUSH1 0x20 ADD DUP7 PUSH16 0xFFFFFFFFFFFFFFFFFFFFFFFFFFFFFFFF NOT AND DUP2 MSTORE PUSH1 0x20 ADD DUP6 PUSH16 0xFFFFFFFFFFFFFFFFFFFFFFFFFFFFFFFF NOT AND DUP2 MSTORE PUSH1 0x20 ADD PUSH1 0x1 DUP2 MSTORE PUSH1 0x20 ADD DUP5 ISZERO ISZERO DUP2 MSTORE PUSH1 0x20 ADD DUP4 ISZERO ISZERO DUP2 MSTORE PUSH1 0x20 ADD PUSH1 0x40 MLOAD DUP1 PUSH1 0x20 ADD PUSH1 0x40 MSTORE DUP1 PUSH1 0x0 DUP2 MSTORE POP DUP2 MSTORE POP SWAP1 POP SWAP5 SWAP4 POP POP POP POP JUMP JUMPDEST PUSH2 0x8F5 PUSH2 0x16D1 JUMP JUMPDEST PUSH1 0x40 MLOAD DUP1 PUSH1 0xE0 ADD PUSH1 0x40 MSTORE DUP1 DUP6 PUSH1 0x4 DUP2 GT ISZERO PUSH2 0x913 JUMPI PUSH2 0x912 PUSH2 0x19A4 JUMP JUMPDEST JUMPDEST DUP2 MSTORE PUSH1 0x20 ADD DUP8 PUSH16 0xFFFFFFFFFFFFFFFFFFFFFFFFFFFFFFFF NOT AND DUP2 MSTORE PUSH1 0x20 ADD PUSH32 0x6C61746573740000000000000000000000000000000000000000000000000000 PUSH16 0xFFFFFFFFFFFFFFFFFFFFFFFFFFFFFFFF NOT AND DUP2 MSTORE PUSH1 0x20 ADD DUP7 DUP2 MSTORE PUSH1 0x20 ADD DUP5 ISZERO ISZERO DUP2 MSTORE PUSH1 0x20 ADD DUP4 ISZERO ISZERO DUP2 MSTORE PUSH1 0x20 ADD PUSH1 0x40 MLOAD DUP1 PUSH1 0x20 ADD PUSH1 0x40 MSTORE DUP1 PUSH1 0x0 DUP2 MSTORE POP DUP2 MSTORE POP SWAP1 POP SWAP6 SWAP5 POP POP POP POP POP JUMP JUMPDEST PUSH2 0x9A6 PUSH2 0x16D1 JUMP JUMPDEST PUSH1 0x40 MLOAD DUP1 PUSH1 0xE0 ADD PUSH1 0x40 MSTORE DUP1 PUSH1 0x0 PUSH1 0x4 DUP2 GT ISZERO PUSH2 0x9C5 JUMPI PUSH2 0x9C4 PUSH2 0x19A4 JUMP JUMPDEST JUMPDEST DUP2 MSTORE PUSH1 0x20 ADD DUP7 PUSH16 0xFFFFFFFFFFFFFFFFFFFFFFFFFFFFFFFF NOT AND DUP2 MSTORE PUSH1 0x20 ADD PUSH32 0x6C61746573740000000000000000000000000000000000000000000000000000 PUSH16 0xFFFFFFFFFFFFFFFFFFFFFFFFFFFFFFFF NOT AND DUP2 MSTORE PUSH1 0x20 ADD DUP6 DUP2 MSTORE PUSH1 0x20 ADD DUP5 ISZERO ISZERO DUP2 MSTORE PUSH1 0x20 ADD DUP4 ISZERO ISZERO DUP2 MSTORE PUSH1 0x20 ADD PUSH1 0x40 MLOAD DUP1 PUSH1 0x20 ADD PUSH1 0x40 MSTORE DUP1 PUSH1 0x0 DUP2 MSTORE POP DUP2 MSTORE POP SWAP1 POP SWAP5 SWAP4 POP POP POP POP JUMP JUMPDEST PUSH2 0xA57 PUSH2 0x16D1 JUMP JUMPDEST PUSH1 0x40 MLOAD DUP1 PUSH1 0xE0 ADD PUSH1 0x40 MSTORE DUP1 DUP6 PUSH1 0x4 DUP2 GT ISZERO PUSH2 0xA75 JUMPI PUSH2 0xA74 PUSH2 0x19A4 JUMP JUMPDEST JUMPDEST DUP2 MSTORE PUSH1 0x20 ADD DUP8 PUSH16 0xFFFFFFFFFFFFFFFFFFFFFFFFFFFFFFFF NOT AND DUP2 MSTORE PUSH1 0x20 ADD DUP7 PUSH16 0xFFFFFFFFFFFFFFFFFFFFFFFFFFFFFFFF NOT AND DUP2 MSTORE PUSH1 0x20 ADD PUSH1 0x1 DUP2 MSTORE PUSH1 0x20 ADD DUP5 ISZERO ISZERO DUP2 MSTORE PUSH1 0x20 ADD DUP4 ISZERO ISZERO DUP2 MSTORE PUSH1 0x20 ADD PUSH1 0x40 MLOAD DUP1 PUSH1 0x20 ADD PUSH1 0x40 MSTORE DUP1 PUSH1 0x0 DUP2 MSTORE POP DUP2 MSTORE POP SWAP1 POP SWAP6 SWAP5 POP POP POP POP POP JUMP JUMPDEST PUSH2 0xAE9 PUSH2 0x16D1 JUMP JUMPDEST PUSH1 0x40 MLOAD DUP1 PUSH1 0xE0 ADD PUSH1 0x40 MSTORE DUP1 DUP4 PUSH1 0x4 DUP2 GT ISZERO PUSH2 0xB07 JUMPI PUSH2 0xB06 PUSH2 0x19A4 JUMP JUMPDEST JUMPDEST DUP2 MSTORE PUSH1 0x20 ADD DUP6 PUSH16 0xFFFFFFFFFFFFFFFFFFFFFFFFFFFFFFFF NOT AND DUP2 MSTORE PUSH1 0x20 ADD PUSH32 0x6C61746573740000000000000000000000000000000000000000000000000000 PUSH16 0xFFFFFFFFFFFFFFFFFFFFFFFFFFFFFFFF NOT AND DUP2 MSTORE PUSH1 0x20 ADD DUP5 DUP2 MSTORE PUSH1 0x20 ADD PUSH1 0x0 ISZERO ISZERO DUP2 MSTORE PUSH1 0x20 ADD PUSH1 0x1 ISZERO ISZERO DUP2 MSTORE PUSH1 0x20 ADD PUSH1 0x40 MLOAD DUP1 PUSH1 0x20 ADD PUSH1 0x40 MSTORE DUP1 PUSH1 0x0 DUP2 MSTORE POP DUP2 MSTORE POP SWAP1 POP SWAP4 SWAP3 POP POP POP JUMP JUMPDEST PUSH2 0xB9A PUSH2 0x16D1 JUMP JUMPDEST PUSH1 0x40 MLOAD DUP1 PUSH1 0xE0 ADD PUSH1 0x40 MSTORE DUP1 PUSH1 0x0 PUSH1 0x4 DUP2 GT ISZERO PUSH2 0xBB9 JUMPI PUSH2 0xBB8 PUSH2 0x19A4 JUMP JUMPDEST JUMPDEST DUP2 MSTORE PUSH1 0x20 ADD DUP6 PUSH16 0xFFFFFFFFFFFFFFFFFFFFFFFFFFFFFFFF NOT AND DUP2 MSTORE PUSH1 0x20 ADD DUP5 PUSH16 0xFFFFFFFFFFFFFFFFFFFFFFFFFFFFFFFF NOT AND DUP2 MSTORE PUSH1 0x20 ADD DUP4 DUP2 MSTORE PUSH1 0x20 ADD PUSH1 0x0 ISZERO ISZERO DUP2 MSTORE PUSH1 0x20 ADD PUSH1 0x1 ISZERO ISZERO DUP2 MSTORE PUSH1 0x20 ADD PUSH1 0x40 MLOAD DUP1 PUSH1 0x20 ADD PUSH1 0x40 MSTORE DUP1 PUSH1 0x0 DUP2 MSTORE POP DUP2 MSTORE POP SWAP1 POP SWAP4 SWAP3 POP POP POP JUMP JUMPDEST PUSH2 0xC2C PUSH2 0x16D1 JUMP JUMPDEST PUSH1 0x40 MLOAD DUP1 PUSH1 0xE0 ADD PUSH1 0x40 MSTORE DUP1 PUSH1 0x0 PUSH1 0x4 DUP2 GT ISZERO PUSH2 0xC4B JUMPI PUSH2 0xC4A PUSH2 0x19A4 JUMP JUMPDEST JUMPDEST DUP2 MSTORE PUSH1 0x20 ADD DUP5 PUSH16 0xFFFFFFFFFFFFFFFFFFFFFFFFFFFFFFFF NOT AND DUP2 MSTORE PUSH1 0x20 ADD DUP4 PUSH16 0xFFFFFFFFFFFFFFFFFFFFFFFFFFFFFFFF NOT AND DUP2 MSTORE PUSH1 0x20 ADD PUSH1 0x1 DUP2 MSTORE PUSH1 0x20 ADD PUSH1 0x0 ISZERO ISZERO DUP2 MSTORE PUSH1 0x20 ADD PUSH1 0x1 ISZERO ISZERO DUP2 MSTORE PUSH1 0x20 ADD PUSH1 0x40 MLOAD DUP1 PUSH1 0x20 ADD PUSH1 0x40 MSTORE DUP1 PUSH1 0x0 DUP2 MSTORE POP DUP2 MSTORE POP SWAP1 POP SWAP3 SWAP2 POP POP JUMP JUMPDEST PUSH1 0x1 DUP2 JUMP JUMPDEST PUSH2 0xCC3 PUSH2 0x16D1 JUMP JUMPDEST PUSH1 0x40 MLOAD DUP1 PUSH1 0xE0 ADD PUSH1 0x40 MSTORE DUP1 DUP6 PUSH1 0x4 DUP2 GT ISZERO PUSH2 0xCE1 JUMPI PUSH2 0xCE0 PUSH2 0x19A4 JUMP JUMPDEST JUMPDEST DUP2 MSTORE PUSH1 0x20 ADD DUP9 PUSH16 0xFFFFFFFFFFFFFFFFFFFFFFFFFFFFFFFF NOT AND DUP2 MSTORE PUSH1 0x20 ADD DUP8 PUSH16 0xFFFFFFFFFFFFFFFFFFFFFFFFFFFFFFFF NOT AND DUP2 MSTORE PUSH1 0x20 ADD DUP7 DUP2 MSTORE PUSH1 0x20 ADD DUP5 ISZERO ISZERO DUP2 MSTORE PUSH1 0x20 ADD DUP4 ISZERO ISZERO DUP2 MSTORE PUSH1 0x20 ADD PUSH1 0x40 MLOAD DUP1 PUSH1 0x20 ADD PUSH1 0x40 MSTORE DUP1 PUSH1 0x0 DUP2 MSTORE POP DUP2 MSTORE POP SWAP1 POP SWAP7 SWAP6 POP POP POP POP POP POP JUMP JUMPDEST PUSH32 0x6C61746573740000000000000000000000000000000000000000000000000000 DUP2 JUMP JUMPDEST PUSH2 0xD79 PUSH2 0x16D1 JUMP JUMPDEST PUSH1 0x40 MLOAD DUP1 PUSH1 0xE0 ADD PUSH1 0x40 MSTORE DUP1 DUP5 PUSH1 0x4 DUP2 GT ISZERO PUSH2 0xD97 JUMPI PUSH2 0xD96 PUSH2 0x19A4 JUMP JUMPDEST JUMPDEST DUP2 MSTORE PUSH1 0x20 ADD DUP8 PUSH16 0xFFFFFFFFFFFFFFFFFFFFFFFFFFFFFFFF NOT AND DUP2 MSTORE PUSH1 0x20 ADD DUP7 PUSH16 0xFFFFFFFFFFFFFFFFFFFFFFFFFFFFFFFF NOT AND DUP2 MSTORE PUSH1 0x20 ADD DUP6 DUP2 MSTORE PUSH1 0x20 ADD PUSH1 0x0 ISZERO ISZERO DUP2 MSTORE PUSH1 0x20 ADD PUSH1 0x1 ISZERO ISZERO DUP2 MSTORE PUSH1 0x20 ADD DUP4 DUP2 MSTORE POP SWAP1 POP SWAP6 SWAP5 POP POP POP POP POP JUMP JUMPDEST PUSH2 0xDFD PUSH2 0x16D1 JUMP JUMPDEST PUSH1 0x40 MLOAD DUP1 PUSH1 0xE0 ADD PUSH1 0x40 MSTORE DUP1 DUP4 PUSH1 0x4 DUP2 GT ISZERO PUSH2 0xE1B JUMPI PUSH2 0xE1A PUSH2 0x19A4 JUMP JUMPDEST JUMPDEST DUP2 MSTORE PUSH1 0x20 ADD DUP5 PUSH16 0xFFFFFFFFFFFFFFFFFFFFFFFFFFFFFFFF NOT AND DUP2 MSTORE PUSH1 0x20 ADD PUSH32 0x6C61746573740000000000000000000000000000000000000000000000000000 PUSH16 0xFFFFFFFFFFFFFFFFFFFFFFFFFFFFFFFF NOT AND DUP2 MSTORE PUSH1 0x20 ADD PUSH1 0x1 DUP2 MSTORE PUSH1 0x20 ADD PUSH1 0x0 ISZERO ISZERO DUP2 MSTORE PUSH1 0x20 ADD PUSH1 0x1 ISZERO ISZERO DUP2 MSTORE PUSH1 0x20 ADD PUSH1 0x40 MLOAD DUP1 PUSH1 0x20 ADD PUSH1 0x40 MSTORE DUP1 PUSH1 0x0 DUP2 MSTORE POP DUP2 MSTORE POP SWAP1 POP SWAP3 SWAP2 POP POP JUMP JUMPDEST PUSH1 0x0 DUP2 JUMP JUMPDEST PUSH2 0xEB3 PUSH2 0x16D1 JUMP JUMPDEST PUSH1 0x40 MLOAD DUP1 PUSH1 0xE0 ADD PUSH1 0x40 MSTORE DUP1 PUSH1 0x0 PUSH1 0x4 DUP2 GT ISZERO PUSH2 0xED2 JUMPI PUSH2 0xED1 PUSH2 0x19A4 JUMP JUMPDEST JUMPDEST DUP2 MSTORE PUSH1 0x20 ADD DUP5 PUSH16 0xFFFFFFFFFFFFFFFFFFFFFFFFFFFFFFFF NOT AND DUP2 MSTORE PUSH1 0x20 ADD PUSH32 0x6C61746573740000000000000000000000000000000000000000000000000000 PUSH16 0xFFFFFFFFFFFFFFFFFFFFFFFFFFFFFFFF NOT AND DUP2 MSTORE PUSH1 0x20 ADD DUP4 DUP2 MSTORE PUSH1 0x20 ADD PUSH1 0x0 ISZERO ISZERO DUP2 MSTORE PUSH1 0x20 ADD PUSH1 0x1 ISZERO ISZERO DUP2 MSTORE PUSH1 0x20 ADD PUSH1 0x40 MLOAD DUP1 PUSH1 0x20 ADD PUSH1 0x40 MSTORE DUP1 PUSH1 0x0 DUP2 MSTORE POP DUP2 MSTORE POP SWAP1 POP SWAP3 SWAP2 POP POP JUMP JUMPDEST PUSH2 0xF64 PUSH2 0x16D1 JUMP JUMPDEST PUSH1 0x40 MLOAD DUP1 PUSH1 0xE0 ADD PUSH1 0x40 MSTORE DUP1 DUP5 PUSH1 0x4 DUP2 GT ISZERO PUSH2 0xF82 JUMPI PUSH2 0xF81 PUSH2 0x19A4 JUMP JUMPDEST JUMPDEST DUP2 MSTORE PUSH1 0x20 ADD DUP6 PUSH16 0xFFFFFFFFFFFFFFFFFFFFFFFFFFFFFFFF NOT AND DUP2 MSTORE PUSH1 0x20 ADD PUSH32 0x6C61746573740000000000000000000000000000000000000000000000000000 PUSH16 0xFFFFFFFFFFFFFFFFFFFFFFFFFFFFFFFF NOT AND DUP2 MSTORE PUSH1 0x20 ADD PUSH1 0x1 DUP2 MSTORE PUSH1 0x20 ADD PUSH1 0x0 ISZERO ISZERO DUP2 MSTORE PUSH1 0x20 ADD PUSH1 0x1 ISZERO ISZERO DUP2 MSTORE PUSH1 0x20 ADD DUP4 DUP2 MSTORE POP SWAP1 POP SWAP4 SWAP3 POP POP POP JUMP JUMPDEST PUSH2 0x1007 PUSH2 0x16D1 JUMP JUMPDEST PUSH1 0x40 MLOAD DUP1 PUSH1 0xE0 ADD PUSH1 0x40 MSTORE DUP1 PUSH1 0x0 PUSH1 0x4 DUP2 GT ISZERO PUSH2 0x1026 JUMPI PUSH2 0x1025 PUSH2 0x19A4 JUMP JUMPDEST JUMPDEST DUP2 MSTORE PUSH1 0x20 ADD DUP5 PUSH16 0xFFFFFFFFFFFFFFFFFFFFFFFFFFFFFFFF NOT AND DUP2 MSTORE PUSH1 0x20 ADD PUSH32 0x6C61746573740000000000000000000000000000000000000000000000000000 PUSH16 0xFFFFFFFFFFFFFFFFFFFFFFFFFFFFFFFF NOT AND DUP2 MSTORE PUSH1 0x20 ADD PUSH1 0x1 DUP2 MSTORE PUSH1 0x20 ADD PUSH1 0x0 ISZERO ISZERO DUP2 MSTORE PUSH1 0x20 ADD PUSH1 0x1 ISZERO ISZERO DUP2 MSTORE PUSH1 0x20 ADD DUP4 DUP2 MSTORE POP SWAP1 POP SWAP3 SWAP2 POP POP JUMP JUMPDEST PUSH2 0x10AA PUSH2 0x16D1 JUMP JUMPDEST PUSH1 0x40 MLOAD DUP1 PUSH1 0xE0 ADD PUSH1 0x40 MSTORE DUP1 DUP6 PUSH1 0x4 DUP2 GT ISZERO PUSH2 0x10C8 JUMPI PUSH2 0x10C7 PUSH2 0x19A4 JUMP JUMPDEST JUMPDEST DUP2 MSTORE PUSH1 0x20 ADD DUP7 PUSH16 0xFFFFFFFFFFFFFFFFFFFFFFFFFFFFFFFF NOT AND DUP2 MSTORE PUSH1 0x20 ADD PUSH32 0x6C61746573740000000000000000000000000000000000000000000000000000 PUSH16 0xFFFFFFFFFFFFFFFFFFFFFFFFFFFFFFFF NOT AND DUP2 MSTORE PUSH1 0x20 ADD PUSH1 0x1 DUP2 MSTORE PUSH1 0x20 ADD DUP5 ISZERO ISZERO DUP2 MSTORE PUSH1 0x20 ADD DUP4 ISZERO ISZERO DUP2 MSTORE PUSH1 0x20 ADD PUSH1 0x40 MLOAD DUP1 PUSH1 0x20 ADD PUSH1 0x40 MSTORE DUP1 PUSH1 0x0 DUP2 MSTORE POP DUP2 MSTORE POP SWAP1 POP SWAP5 SWAP4 POP POP POP POP JUMP JUMPDEST PUSH1 0x1 DUP2 JUMP JUMPDEST PUSH2 0x1160 PUSH2 0x16D1 JUMP JUMPDEST PUSH1 0x40 MLOAD DUP1 PUSH1 0xE0 ADD PUSH1 0x40 MSTORE DUP1 DUP4 PUSH1 0x4 DUP2 GT ISZERO PUSH2 0x117E JUMPI PUSH2 0x117D PUSH2 0x19A4 JUMP JUMPDEST JUMPDEST DUP2 MSTORE PUSH1 0x20 ADD DUP6 PUSH16 0xFFFFFFFFFFFFFFFFFFFFFFFFFFFFFFFF NOT AND DUP2 MSTORE PUSH1 0x20 ADD DUP5 PUSH16 0xFFFFFFFFFFFFFFFFFFFFFFFFFFFFFFFF NOT AND DUP2 MSTORE PUSH1 0x20 ADD PUSH1 0x1 DUP2 MSTORE PUSH1 0x20 ADD PUSH1 0x0 ISZERO ISZERO DUP2 MSTORE PUSH1 0x20 ADD PUSH1 0x1 ISZERO ISZERO DUP2 MSTORE PUSH1 0x20 ADD PUSH1 0x40 MLOAD DUP1 PUSH1 0x20 ADD PUSH1 0x40 MSTORE DUP1 PUSH1 0x0 DUP2 MSTORE POP DUP2 MSTORE POP SWAP1 POP SWAP4 SWAP3 POP POP POP JUMP JUMPDEST PUSH2 0x11F2 PUSH2 0x16D1 JUMP JUMPDEST PUSH1 0x40 MLOAD DUP1 PUSH1 0xE0 ADD PUSH1 0x40 MSTORE DUP1 DUP4 PUSH1 0x4 DUP2 GT ISZERO PUSH2 0x1210 JUMPI PUSH2 0x120F PUSH2 0x19A4 JUMP JUMPDEST JUMPDEST DUP2 MSTORE PUSH1 0x20 ADD DUP7 PUSH16 0xFFFFFFFFFFFFFFFFFFFFFFFFFFFFFFFF NOT AND DUP2 MSTORE PUSH1 0x20 ADD DUP6 PUSH16 0xFFFFFFFFFFFFFFFFFFFFFFFFFFFFFFFF NOT AND DUP2 MSTORE PUSH1 0x20 ADD DUP5 DUP2 MSTORE PUSH1 0x20 ADD PUSH1 0x0 ISZERO ISZERO DUP2 MSTORE PUSH1 0x20 ADD PUSH1 0x1 ISZERO ISZERO DUP2 MSTORE PUSH1 0x20 ADD PUSH1 0x40 MLOAD DUP1 PUSH1 0x20 ADD PUSH1 0x40 MSTORE DUP1 PUSH1 0x0 DUP2 MSTORE POP DUP2 MSTORE POP SWAP1 POP SWAP5 SWAP4 POP POP POP POP JUMP JUMPDEST PUSH1 0x40 MLOAD DUP1 PUSH1 0x20 ADD PUSH1 0x40 MSTORE DUP1 PUSH1 0x0 DUP2 MSTORE POP DUP2 JUMP JUMPDEST PUSH2 0x1297 PUSH2 0x16D1 JUMP JUMPDEST PUSH1 0x40 MLOAD DUP1 PUSH1 0xE0 ADD PUSH1 0x40 MSTORE DUP1 PUSH1 0x0 PUSH1 0x4 DUP2 GT ISZERO PUSH2 0x12B6 JUMPI PUSH2 0x12B5 PUSH2 0x19A4 JUMP JUMPDEST JUMPDEST DUP2 MSTORE PUSH1 0x20 ADD DUP8 PUSH16 0xFFFFFFFFFFFFFFFFFFFFFFFFFFFFFFFF NOT AND DUP2 MSTORE PUSH1 0x20 ADD DUP7 PUSH16 0xFFFFFFFFFFFFFFFFFFFFFFFFFFFFFFFF NOT AND DUP2 MSTORE PUSH1 0x20 ADD DUP6 DUP2 MSTORE PUSH1 0x20 ADD DUP5 ISZERO ISZERO DUP2 MSTORE PUSH1 0x20 ADD DUP4 ISZERO ISZERO DUP2 MSTORE PUSH1 0x20 ADD PUSH1 0x40 MLOAD DUP1 PUSH1 0x20 ADD PUSH1 0x40 MSTORE DUP1 PUSH1 0x0 DUP2 MSTORE POP DUP2 MSTORE POP SWAP1 POP SWAP6 SWAP5 POP POP POP POP POP JUMP JUMPDEST PUSH2 0x1329 PUSH2 0x16D1 JUMP JUMPDEST PUSH1 0x40 MLOAD DUP1 PUSH1 0xE0 ADD PUSH1 0x40 MSTORE DUP1 DUP5 PUSH1 0x4 DUP2 GT ISZERO PUSH2 0x1347 JUMPI PUSH2 0x1346 PUSH2 0x19A4 JUMP JUMPDEST JUMPDEST DUP2 MSTORE PUSH1 0x20 ADD DUP7 PUSH16 0xFFFFFFFFFFFFFFFFFFFFFFFFFFFFFFFF NOT AND DUP2 MSTORE PUSH1 0x20 ADD PUSH32 0x6C61746573740000000000000000000000000000000000000000000000000000 PUSH16 0xFFFFFFFFFFFFFFFFFFFFFFFFFFFFFFFF NOT AND DUP2 MSTORE PUSH1 0x20 ADD DUP6 DUP2 MSTORE PUSH1 0x20 ADD PUSH1 0x0 ISZERO ISZERO DUP2 MSTORE PUSH1 0x20 ADD PUSH1 0x1 ISZERO ISZERO DUP2 MSTORE PUSH1 0x20 ADD DUP4 DUP2 MSTORE POP SWAP1 POP SWAP5 SWAP4 POP POP POP POP JUMP JUMPDEST PUSH2 0x13CC PUSH2 0x16D1 JUMP JUMPDEST PUSH1 0x40 MLOAD DUP1 PUSH1 0xE0 ADD PUSH1 0x40 MSTORE DUP1 PUSH1 0x0 PUSH1 0x4 DUP2 GT ISZERO PUSH2 0x13EB JUMPI PUSH2 0x13EA PUSH2 0x19A4 JUMP JUMPDEST JUMPDEST DUP2 MSTORE PUSH1 0x20 ADD DUP4 PUSH16 0xFFFFFFFFFFFFFFFFFFFFFFFFFFFFFFFF NOT AND DUP2 MSTORE PUSH1 0x20 ADD PUSH32 0x6C61746573740000000000000000000000000000000000000000000000000000 PUSH16 0xFFFFFFFFFFFFFFFFFFFFFFFFFFFFFFFF NOT AND DUP2 MSTORE PUSH1 0x20 ADD PUSH1 0x1 DUP2 MSTORE PUSH1 0x20 ADD PUSH1 0x0 ISZERO ISZERO DUP2 MSTORE PUSH1 0x20 ADD PUSH1 0x1 ISZERO ISZERO DUP2 MSTORE PUSH1 0x20 ADD PUSH1 0x40 MLOAD DUP1 PUSH1 0x20 ADD PUSH1 0x40 MSTORE DUP1 PUSH1 0x0 DUP2 MSTORE POP DUP2 MSTORE POP SWAP1 POP SWAP2 SWAP1 POP JUMP JUMPDEST PUSH2 0x147D PUSH2 0x16D1 JUMP JUMPDEST PUSH1 0x40 MLOAD DUP1 PUSH1 0xE0 ADD PUSH1 0x40 MSTORE DUP1 DUP7 PUSH1 0x4 DUP2 GT ISZERO PUSH2 0x149B JUMPI PUSH2 0x149A PUSH2 0x19A4 JUMP JUMPDEST JUMPDEST DUP2 MSTORE PUSH1 0x20 ADD DUP10 PUSH16 0xFFFFFFFFFFFFFFFFFFFFFFFFFFFFFFFF NOT AND DUP2 MSTORE PUSH1 0x20 ADD DUP9 PUSH16 0xFFFFFFFFFFFFFFFFFFFFFFFFFFFFFFFF NOT AND DUP2 MSTORE PUSH1 0x20 ADD DUP8 DUP2 MSTORE PUSH1 0x20 ADD DUP6 ISZERO ISZERO DUP2 MSTORE PUSH1 0x20 ADD DUP5 ISZERO ISZERO DUP2 MSTORE PUSH1 0x20 ADD DUP4 DUP2 MSTORE POP SWAP1 POP SWAP8 SWAP7 POP POP POP POP POP POP POP JUMP JUMPDEST PUSH2 0x1501 PUSH2 0x16D1 JUMP JUMPDEST PUSH1 0x40 MLOAD DUP1 PUSH1 0xE0 ADD PUSH1 0x40 MSTORE DUP1 PUSH1 0x0 PUSH1 0x4 DUP2 GT ISZERO PUSH2 0x1520 JUMPI PUSH2 0x151F PUSH2 0x19A4 JUMP JUMPDEST JUMPDEST DUP2 MSTORE PUSH1 0x20 ADD DUP6 PUSH16 0xFFFFFFFFFFFFFFFFFFFFFFFFFFFFFFFF NOT AND DUP2 MSTORE PUSH1 0x20 ADD PUSH32 0x6C61746573740000000000000000000000000000000000000000000000000000 PUSH16 0xFFFFFFFFFFFFFFFFFFFFFFFFFFFFFFFF NOT AND DUP2 MSTORE PUSH1 0x20 ADD DUP5 DUP2 MSTORE PUSH1 0x20 ADD PUSH1 0x0 ISZERO ISZERO DUP2 MSTORE PUSH1 0x20 ADD PUSH1 0x1 ISZERO ISZERO DUP2 MSTORE PUSH1 0x20 ADD DUP4 DUP2 MSTORE POP SWAP1 POP SWAP4 SWAP3 POP POP POP JUMP JUMPDEST PUSH2 0x15A4 PUSH2 0x16D1 JUMP JUMPDEST PUSH1 0x40 MLOAD DUP1 PUSH1 0xE0 ADD PUSH1 0x40 MSTORE DUP1 PUSH1 0x0 PUSH1 0x4 DUP2 GT ISZERO PUSH2 0x15C3 JUMPI PUSH2 0x15C2 PUSH2 0x19A4 JUMP JUMPDEST JUMPDEST DUP2 MSTORE PUSH1 0x20 ADD DUP6 PUSH16 0xFFFFFFFFFFFFFFFFFFFFFFFFFFFFFFFF NOT AND DUP2 MSTORE PUSH1 0x20 ADD PUSH32 0x6C61746573740000000000000000000000000000000000000000000000000000 PUSH16 0xFFFFFFFFFFFFFFFFFFFFFFFFFFFFFFFF NOT AND DUP2 MSTORE PUSH1 0x20 ADD PUSH1 0x1 DUP2 MSTORE PUSH1 0x20 ADD DUP5 ISZERO ISZERO DUP2 MSTORE PUSH1 0x20 ADD DUP4 ISZERO ISZERO DUP2 MSTORE PUSH1 0x20 ADD PUSH1 0x40 MLOAD DUP1 PUSH1 0x20 ADD PUSH1 0x40 MSTORE DUP1 PUSH1 0x0 DUP2 MSTORE POP DUP2 MSTORE POP SWAP1 POP SWAP4 SWAP3 POP POP POP JUMP JUMPDEST PUSH2 0x1655 PUSH2 0x16D1 JUMP JUMPDEST PUSH1 0x40 MLOAD DUP1 PUSH1 0xE0 ADD PUSH1 0x40 MSTORE DUP1 PUSH1 0x0 PUSH1 0x4 DUP2 GT ISZERO PUSH2 0x1674 JUMPI PUSH2 0x1673 PUSH2 0x19A4 JUMP JUMPDEST JUMPDEST DUP2 MSTORE PUSH1 0x20 ADD DUP6 PUSH16 0xFFFFFFFFFFFFFFFFFFFFFFFFFFFFFFFF NOT AND DUP2 MSTORE PUSH1 0x20 ADD DUP5 PUSH16 0xFFFFFFFFFFFFFFFFFFFFFFFFFFFFFFFF NOT AND DUP2 MSTORE PUSH1 0x20 ADD PUSH1 0x1 DUP2 MSTORE PUSH1 0x20 ADD PUSH1 0x0 ISZERO ISZERO DUP2 MSTORE PUSH1 0x20 ADD PUSH1 0x1 ISZERO ISZERO DUP2 MSTORE PUSH1 0x20 ADD DUP4 DUP2 MSTORE POP SWAP1 POP SWAP4 SWAP3 POP POP POP JUMP JUMPDEST PUSH1 0x40 MLOAD DUP1 PUSH1 0xE0 ADD PUSH1 0x40 MSTORE DUP1 PUSH1 0x0 PUSH1 0x4 DUP2 GT ISZERO PUSH2 0x16F0 JUMPI PUSH2 0x16EF PUSH2 0x19A4 JUMP JUMPDEST JUMPDEST DUP2 MSTORE PUSH1 0x20 ADD PUSH1 0x0 PUSH16 0xFFFFFFFFFFFFFFFFFFFFFFFFFFFFFFFF NOT AND DUP2 MSTORE PUSH1 0x20 ADD PUSH1 0x0 PUSH16 0xFFFFFFFFFFFFFFFFFFFFFFFFFFFFFFFF NOT AND DUP2 MSTORE PUSH1 0x20 ADD PUSH1 0x0 DUP2 MSTORE PUSH1 0x20 ADD PUSH1 0x0 ISZERO ISZERO DUP2 MSTORE PUSH1 0x20 ADD PUSH1 0x0 ISZERO ISZERO DUP2 MSTORE PUSH1 0x20 ADD PUSH1 0x60 DUP2 MSTORE POP SWAP1 JUMP JUMPDEST PUSH1 0x0 PUSH1 0x40 MLOAD SWAP1 POP SWAP1 JUMP JUMPDEST PUSH1 0x0 DUP1 REVERT JUMPDEST PUSH1 0x0 DUP1 REVERT JUMPDEST PUSH1 0x0 PUSH32 0xFFFFFFFFFFFFFFFFFFFFFFFFFFFFFFFF00000000000000000000000000000000 DUP3 AND SWAP1 POP SWAP2 SWAP1 POP JUMP JUMPDEST PUSH2 0x1793 DUP2 PUSH2 0x175E JUMP JUMPDEST DUP2 EQ PUSH2 0x179E JUMPI PUSH1 0x0 DUP1 REVERT JUMPDEST POP JUMP JUMPDEST PUSH1 0x0 DUP2 CALLDATALOAD SWAP1 POP PUSH2 0x17B0 DUP2 PUSH2 0x178A JUMP JUMPDEST SWAP3 SWAP2 POP POP JUMP JUMPDEST PUSH1 0x5 DUP2 LT PUSH2 0x17C3 JUMPI PUSH1 0x0 DUP1 REVERT JUMPDEST POP JUMP JUMPDEST PUSH1 0x0 DUP2 CALLDATALOAD SWAP1 POP PUSH2 0x17D5 DUP2 PUSH2 0x17B6 JUMP JUMPDEST SWAP3 SWAP2 POP POP JUMP JUMPDEST PUSH1 0x0 DUP1 REVERT JUMPDEST PUSH1 0x0 DUP1 REVERT JUMPDEST PUSH1 0x0 PUSH1 0x1F NOT PUSH1 0x1F DUP4 ADD AND SWAP1 POP SWAP2 SWAP1 POP JUMP JUMPDEST PUSH32 0x4E487B7100000000000000000000000000000000000000000000000000000000 PUSH1 0x0 MSTORE PUSH1 0x41 PUSH1 0x4 MSTORE PUSH1 0x24 PUSH1 0x0 REVERT JUMPDEST PUSH2 0x182E DUP3 PUSH2 0x17E5 JUMP JUMPDEST DUP2 ADD DUP2 DUP2 LT PUSH8 0xFFFFFFFFFFFFFFFF DUP3 GT OR ISZERO PUSH2 0x184D JUMPI PUSH2 0x184C PUSH2 0x17F6 JUMP JUMPDEST JUMPDEST DUP1 PUSH1 0x40 MSTORE POP POP POP JUMP JUMPDEST PUSH1 0x0 PUSH2 0x1860 PUSH2 0x174A JUMP JUMPDEST SWAP1 POP PUSH2 0x186C DUP3 DUP3 PUSH2 0x1825 JUMP JUMPDEST SWAP2 SWAP1 POP JUMP JUMPDEST PUSH1 0x0 PUSH8 0xFFFFFFFFFFFFFFFF DUP3 GT ISZERO PUSH2 0x188C JUMPI PUSH2 0x188B PUSH2 0x17F6 JUMP JUMPDEST JUMPDEST PUSH2 0x1895 DUP3 PUSH2 0x17E5 JUMP JUMPDEST SWAP1 POP PUSH1 0x20 DUP2 ADD SWAP1 POP SWAP2 SWAP1 POP JUMP JUMPDEST DUP3 DUP2 DUP4 CALLDATACOPY PUSH1 0x0 DUP4 DUP4 ADD MSTORE POP POP POP JUMP JUMPDEST PUSH1 0x0 PUSH2 0x18C4 PUSH2 0x18BF DUP5 PUSH2 0x1871 JUMP JUMPDEST PUSH2 0x1856 JUMP JUMPDEST SWAP1 POP DUP3 DUP2 MSTORE PUSH1 0x20 DUP2 ADD DUP5 DUP5 DUP5 ADD GT ISZERO PUSH2 0x18E0 JUMPI PUSH2 0x18DF PUSH2 0x17E0 JUMP JUMPDEST JUMPDEST PUSH2 0x18EB DUP5 DUP3 DUP6 PUSH2 0x18A2 JUMP JUMPDEST POP SWAP4 SWAP3 POP POP POP JUMP JUMPDEST PUSH1 0x0 DUP3 PUSH1 0x1F DUP4 ADD SLT PUSH2 0x1908 JUMPI PUSH2 0x1907 PUSH2 0x17DB JUMP JUMPDEST JUMPDEST DUP2 CALLDATALOAD PUSH2 0x1918 DUP5 DUP3 PUSH1 0x20 DUP7 ADD PUSH2 0x18B1 JUMP JUMPDEST SWAP2 POP POP SWAP3 SWAP2 POP POP JUMP JUMPDEST PUSH1 0x0 DUP1 PUSH1 0x0 DUP1 PUSH1 0x80 DUP6 DUP8 SUB SLT ISZERO PUSH2 0x193B JUMPI PUSH2 0x193A PUSH2 0x1754 JUMP JUMPDEST JUMPDEST PUSH1 0x0 PUSH2 0x1949 DUP8 DUP3 DUP9 ADD PUSH2 0x17A1 JUMP JUMPDEST SWAP5 POP POP PUSH1 0x20 PUSH2 0x195A DUP8 DUP3 DUP9 ADD PUSH2 0x17A1 JUMP JUMPDEST SWAP4 POP POP PUSH1 0x40 PUSH2 0x196B DUP8 DUP3 DUP9 ADD PUSH2 0x17C6 JUMP JUMPDEST SWAP3 POP POP PUSH1 0x60 DUP6 ADD CALLDATALOAD PUSH8 0xFFFFFFFFFFFFFFFF DUP2 GT ISZERO PUSH2 0x198C JUMPI PUSH2 0x198B PUSH2 0x1759 JUMP JUMPDEST JUMPDEST PUSH2 0x1998 DUP8 DUP3 DUP9 ADD PUSH2 0x18F3 JUMP JUMPDEST SWAP2 POP POP SWAP3 SWAP6 SWAP2 SWAP5 POP SWAP3 POP JUMP JUMPDEST PUSH32 0x4E487B7100000000000000000000000000000000000000000000000000000000 PUSH1 0x0 MSTORE PUSH1 0x21 PUSH1 0x4 MSTORE PUSH1 0x24 PUSH1 0x0 REVERT JUMPDEST PUSH1 0x5 DUP2 LT PUSH2 0x19E4 JUMPI PUSH2 0x19E3 PUSH2 0x19A4 JUMP JUMPDEST JUMPDEST POP JUMP JUMPDEST PUSH1 0x0 DUP2 SWAP1 POP PUSH2 0x19F5 DUP3 PUSH2 0x19D3 JUMP JUMPDEST SWAP2 SWAP1 POP JUMP JUMPDEST PUSH1 0x0 PUSH2 0x1A05 DUP3 PUSH2 0x19E7 JUMP JUMPDEST SWAP1 POP SWAP2 SWAP1 POP JUMP JUMPDEST PUSH2 0x1A15 DUP2 PUSH2 0x19FA JUMP JUMPDEST DUP3 MSTORE POP POP JUMP JUMPDEST PUSH2 0x1A24 DUP2 PUSH2 0x175E JUMP JUMPDEST DUP3 MSTORE POP POP JUMP JUMPDEST PUSH1 0x0 DUP2 SWAP1 POP SWAP2 SWAP1 POP JUMP JUMPDEST PUSH2 0x1A3D DUP2 PUSH2 0x1A2A JUMP JUMPDEST DUP3 MSTORE POP POP JUMP JUMPDEST PUSH1 0x0 DUP2 ISZERO ISZERO SWAP1 POP SWAP2 SWAP1 POP JUMP JUMPDEST PUSH2 0x1A58 DUP2 PUSH2 0x1A43 JUMP JUMPDEST DUP3 MSTORE POP POP JUMP JUMPDEST PUSH1 0x0 DUP2 MLOAD SWAP1 POP SWAP2 SWAP1 POP JUMP JUMPDEST PUSH1 0x0 DUP3 DUP3 MSTORE PUSH1 0x20 DUP3 ADD SWAP1 POP SWAP3 SWAP2 POP POP JUMP JUMPDEST PUSH1 0x0 JUMPDEST DUP4 DUP2 LT ISZERO PUSH2 0x1A98 JUMPI DUP1 DUP3 ADD MLOAD DUP2 DUP5 ADD MSTORE PUSH1 0x20 DUP2 ADD SWAP1 POP PUSH2 0x1A7D JUMP JUMPDEST PUSH1 0x0 DUP5 DUP5 ADD MSTORE POP POP POP POP JUMP JUMPDEST PUSH1 0x0 PUSH2 0x1AAF DUP3 PUSH2 0x1A5E JUMP JUMPDEST PUSH2 0x1AB9 DUP2 DUP6 PUSH2 0x1A69 JUMP JUMPDEST SWAP4 POP PUSH2 0x1AC9 DUP2 DUP6 PUSH1 0x20 DUP7 ADD PUSH2 0x1A7A JUMP JUMPDEST PUSH2 0x1AD2 DUP2 PUSH2 0x17E5 JUMP JUMPDEST DUP5 ADD SWAP2 POP POP SWAP3 SWAP2 POP POP JUMP JUMPDEST PUSH1 0x0 PUSH1 0xE0 DUP4 ADD PUSH1 0x0 DUP4 ADD MLOAD PUSH2 0x1AF5 PUSH1 0x0 DUP7 ADD DUP3 PUSH2 0x1A0C JUMP JUMPDEST POP PUSH1 0x20 DUP4 ADD MLOAD PUSH2 0x1B08 PUSH1 0x20 DUP7 ADD DUP3 PUSH2 0x1A1B JUMP JUMPDEST POP PUSH1 0x40 DUP4 ADD MLOAD PUSH2 0x1B1B PUSH1 0x40 DUP7 ADD DUP3 PUSH2 0x1A1B JUMP JUMPDEST POP PUSH1 0x60 DUP4 ADD MLOAD PUSH2 0x1B2E PUSH1 0x60 DUP7 ADD DUP3 PUSH2 0x1A34 JUMP JUMPDEST POP PUSH1 0x80 DUP4 ADD MLOAD PUSH2 0x1B41 PUSH1 0x80 DUP7 ADD DUP3 PUSH2 0x1A4F JUMP JUMPDEST POP PUSH1 0xA0 DUP4 ADD MLOAD PUSH2 0x1B54 PUSH1 0xA0 DUP7 ADD DUP3 PUSH2 0x1A4F JUMP JUMPDEST POP PUSH1 0xC0 DUP4 ADD MLOAD DUP5 DUP3 SUB PUSH1 0xC0 DUP7 ADD MSTORE PUSH2 0x1B6C DUP3 DUP3 PUSH2 0x1AA4 JUMP JUMPDEST SWAP2 POP POP DUP1 SWAP2 POP POP SWAP3 SWAP2 POP POP JUMP JUMPDEST PUSH1 0x0 PUSH1 0x20 DUP3 ADD SWAP1 POP DUP2 DUP2 SUB PUSH1 0x0 DUP4 ADD MSTORE PUSH2 0x1B93 DUP2 DUP5 PUSH2 0x1ADD JUMP JUMPDEST SWAP1 POP SWAP3 SWAP2 POP POP JUMP JUMPDEST PUSH2 0x1BA4 DUP2 PUSH2 0x1A2A JUMP JUMPDEST DUP2 EQ PUSH2 0x1BAF JUMPI PUSH1 0x0 DUP1 REVERT JUMPDEST POP JUMP JUMPDEST PUSH1 0x0 DUP2 CALLDATALOAD SWAP1 POP PUSH2 0x1BC1 DUP2 PUSH2 0x1B9B JUMP JUMPDEST SWAP3 SWAP2 POP POP JUMP JUMPDEST PUSH1 0x0 DUP1 PUSH1 0x0 DUP1 PUSH1 0x80 DUP6 DUP8 SUB SLT ISZERO PUSH2 0x1BE1 JUMPI PUSH2 0x1BE0 PUSH2 0x1754 JUMP JUMPDEST JUMPDEST PUSH1 0x0 PUSH2 0x1BEF DUP8 DUP3 DUP9 ADD PUSH2 0x17A1 JUMP JUMPDEST SWAP5 POP POP PUSH1 0x20 PUSH2 0x1C00 DUP8 DUP3 DUP9 ADD PUSH2 0x17A1 JUMP JUMPDEST SWAP4 POP POP PUSH1 0x40 PUSH2 0x1C11 DUP8 DUP3 DUP9 ADD PUSH2 0x1BB2 JUMP JUMPDEST SWAP3 POP POP PUSH1 0x60 DUP6 ADD CALLDATALOAD PUSH8 0xFFFFFFFFFFFFFFFF DUP2 GT ISZERO PUSH2 0x1C32 JUMPI PUSH2 0x1C31 PUSH2 0x1759 JUMP JUMPDEST JUMPDEST PUSH2 0x1C3E DUP8 DUP3 DUP9 ADD PUSH2 0x18F3 JUMP JUMPDEST SWAP2 POP POP SWAP3 SWAP6 SWAP2 SWAP5 POP SWAP3 POP JUMP JUMPDEST PUSH2 0x1C53 DUP2 PUSH2 0x1A43 JUMP JUMPDEST DUP3 MSTORE POP POP JUMP JUMPDEST PUSH1 0x0 PUSH1 0x20 DUP3 ADD SWAP1 POP PUSH2 0x1C6E PUSH1 0x0 DUP4 ADD DUP5 PUSH2 0x1C4A JUMP JUMPDEST SWAP3 SWAP2 POP POP JUMP JUMPDEST PUSH2 0x1C7D DUP2 PUSH2 0x1A43 JUMP JUMPDEST DUP2 EQ PUSH2 0x1C88 JUMPI PUSH1 0x0 DUP1 REVERT JUMPDEST POP JUMP JUMPDEST PUSH1 0x0 DUP2 CALLDATALOAD SWAP1 POP PUSH2 0x1C9A DUP2 PUSH2 0x1C74 JUMP JUMPDEST SWAP3 SWAP2 POP POP JUMP JUMPDEST PUSH1 0x0 DUP1 PUSH1 0x0 DUP1 PUSH1 0x80 DUP6 DUP8 SUB SLT ISZERO PUSH2 0x1CBA JUMPI PUSH2 0x1CB9 PUSH2 0x1754 JUMP JUMPDEST JUMPDEST PUSH1 0x0 PUSH2 0x1CC8 DUP8 DUP3 DUP9 ADD PUSH2 0x17A1 JUMP JUMPDEST SWAP5 POP POP PUSH1 0x20 PUSH2 0x1CD9 DUP8 DUP3 DUP9 ADD PUSH2 0x17A1 JUMP JUMPDEST SWAP4 POP POP PUSH1 0x40 PUSH2 0x1CEA DUP8 DUP3 DUP9 ADD PUSH2 0x1C8B JUMP JUMPDEST SWAP3 POP POP PUSH1 0x60 PUSH2 0x1CFB DUP8 DUP3 DUP9 ADD PUSH2 0x1C8B JUMP JUMPDEST SWAP2 POP POP SWAP3 SWAP6 SWAP2 SWAP5 POP SWAP3 POP JUMP JUMPDEST PUSH1 0x0 DUP1 PUSH1 0x0 DUP1 PUSH1 0x0 PUSH1 0xA0 DUP7 DUP9 SUB SLT ISZERO PUSH2 0x1D23 JUMPI PUSH2 0x1D22 PUSH2 0x1754 JUMP JUMPDEST JUMPDEST PUSH1 0x0 PUSH2 0x1D31 DUP9 DUP3 DUP10 ADD PUSH2 0x17A1 JUMP JUMPDEST SWAP6 POP POP PUSH1 0x20 PUSH2 0x1D42 DUP9 DUP3 DUP10 ADD PUSH2 0x1BB2 JUMP JUMPDEST SWAP5 POP POP PUSH1 0x40 PUSH2 0x1D53 DUP9 DUP3 DUP10 ADD PUSH2 0x17C6 JUMP JUMPDEST SWAP4 POP POP PUSH1 0x60 PUSH2 0x1D64 DUP9 DUP3 DUP10 ADD PUSH2 0x1C8B JUMP JUMPDEST SWAP3 POP POP PUSH1 0x80 PUSH2 0x1D75 DUP9 DUP3 DUP10 ADD PUSH2 0x1C8B JUMP JUMPDEST SWAP2 POP POP SWAP3 SWAP6 POP SWAP3 SWAP6 SWAP1 SWAP4 POP JUMP JUMPDEST PUSH1 0x0 DUP1 PUSH1 0x0 DUP1 PUSH1 0x80 DUP6 DUP8 SUB SLT ISZERO PUSH2 0x1D9C JUMPI PUSH2 0x1D9B PUSH2 0x1754 JUMP JUMPDEST JUMPDEST PUSH1 0x0 PUSH2 0x1DAA DUP8 DUP3 DUP9 ADD PUSH2 0x17A1 JUMP JUMPDEST SWAP5 POP POP PUSH1 0x20 PUSH2 0x1DBB DUP8 DUP3 DUP9 ADD PUSH2 0x1BB2 JUMP JUMPDEST SWAP4 POP POP PUSH1 0x40 PUSH2 0x1DCC DUP8 DUP3 DUP9 ADD PUSH2 0x1C8B JUMP JUMPDEST SWAP3 POP POP PUSH1 0x60 PUSH2 0x1DDD DUP8 DUP3 DUP9 ADD PUSH2 0x1C8B JUMP JUMPDEST SWAP2 POP POP SWAP3 SWAP6 SWAP2 SWAP5 POP SWAP3 POP JUMP JUMPDEST PUSH1 0x0 DUP1 PUSH1 0x0 DUP1 PUSH1 0x0 PUSH1 0xA0 DUP7 DUP9 SUB SLT ISZERO PUSH2 0x1E05 JUMPI PUSH2 0x1E04 PUSH2 0x1754 JUMP JUMPDEST JUMPDEST PUSH1 0x0 PUSH2 0x1E13 DUP9 DUP3 DUP10 ADD PUSH2 0x17A1 JUMP JUMPDEST SWAP6 POP POP PUSH1 0x20 PUSH2 0x1E24 DUP9 DUP3 DUP10 ADD PUSH2 0x17A1 JUMP JUMPDEST SWAP5 POP POP PUSH1 0x40 PUSH2 0x1E35 DUP9 DUP3 DUP10 ADD PUSH2 0x17C6 JUMP JUMPDEST SWAP4 POP POP PUSH1 0x60 PUSH2 0x1E46 DUP9 DUP3 DUP10 ADD PUSH2 0x1C8B JUMP JUMPDEST SWAP3 POP POP PUSH1 0x80 PUSH2 0x1E57 DUP9 DUP3 DUP10 ADD PUSH2 0x1C8B JUMP JUMPDEST SWAP2 POP POP SWAP3 SWAP6 POP SWAP3 SWAP6 SWAP1 SWAP4 POP JUMP JUMPDEST PUSH1 0x0 DUP1 PUSH1 0x0 PUSH1 0x60 DUP5 DUP7 SUB SLT ISZERO PUSH2 0x1E7D JUMPI PUSH2 0x1E7C PUSH2 0x1754 JUMP JUMPDEST JUMPDEST PUSH1 0x0 PUSH2 0x1E8B DUP7 DUP3 DUP8 ADD PUSH2 0x17A1 JUMP JUMPDEST SWAP4 POP POP PUSH1 0x20 PUSH2 0x1E9C DUP7 DUP3 DUP8 ADD PUSH2 0x1BB2 JUMP JUMPDEST SWAP3 POP POP PUSH1 0x40 PUSH2 0x1EAD DUP7 DUP3 DUP8 ADD PUSH2 0x17C6 JUMP JUMPDEST SWAP2 POP POP SWAP3 POP SWAP3 POP SWAP3 JUMP JUMPDEST PUSH1 0x0 DUP1 PUSH1 0x0 PUSH1 0x60 DUP5 DUP7 SUB SLT ISZERO PUSH2 0x1ED0 JUMPI PUSH2 0x1ECF PUSH2 0x1754 JUMP JUMPDEST JUMPDEST PUSH1 0x0 PUSH2 0x1EDE DUP7 DUP3 DUP8 ADD PUSH2 0x17A1 JUMP JUMPDEST SWAP4 POP POP PUSH1 0x20 PUSH2 0x1EEF DUP7 DUP3 DUP8 ADD PUSH2 0x17A1 JUMP JUMPDEST SWAP3 POP POP PUSH1 0x40 PUSH2 0x1F00 DUP7 DUP3 DUP8 ADD PUSH2 0x1BB2 JUMP JUMPDEST SWAP2 POP POP SWAP3 POP SWAP3 POP SWAP3 JUMP JUMPDEST PUSH1 0x0 DUP1 PUSH1 0x40 DUP4 DUP6 SUB SLT ISZERO PUSH2 0x1F21 JUMPI PUSH2 0x1F20 PUSH2 0x1754 JUMP JUMPDEST JUMPDEST PUSH1 0x0 PUSH2 0x1F2F DUP6 DUP3 DUP7 ADD PUSH2 0x17A1 JUMP JUMPDEST SWAP3 POP POP PUSH1 0x20 PUSH2 0x1F40 DUP6 DUP3 DUP7 ADD PUSH2 0x17A1 JUMP JUMPDEST SWAP2 POP POP SWAP3 POP SWAP3 SWAP1 POP JUMP JUMPDEST PUSH2 0x1F53 DUP2 PUSH2 0x1A2A JUMP JUMPDEST DUP3 MSTORE POP POP JUMP JUMPDEST PUSH1 0x0 PUSH1 0x20 DUP3 ADD SWAP1 POP PUSH2 0x1F6E PUSH1 0x0 DUP4 ADD DUP5 PUSH2 0x1F4A JUMP JUMPDEST SWAP3 SWAP2 POP POP JUMP JUMPDEST PUSH1 0x0 DUP1 PUSH1 0x0 DUP1 PUSH1 0x0 DUP1 PUSH1 0xC0 DUP8 DUP10 SUB SLT ISZERO PUSH2 0x1F91 JUMPI PUSH2 0x1F90 PUSH2 0x1754 JUMP JUMPDEST JUMPDEST PUSH1 0x0 PUSH2 0x1F9F DUP10 DUP3 DUP11 ADD PUSH2 0x17A1 JUMP JUMPDEST SWAP7 POP POP PUSH1 0x20 PUSH2 0x1FB0 DUP10 DUP3 DUP11 ADD PUSH2 0x17A1 JUMP JUMPDEST SWAP6 POP POP PUSH1 0x40 PUSH2 0x1FC1 DUP10 DUP3 DUP11 ADD PUSH2 0x1BB2 JUMP JUMPDEST SWAP5 POP POP PUSH1 0x60 PUSH2 0x1FD2 DUP10 DUP3 DUP11 ADD PUSH2 0x17C6 JUMP JUMPDEST SWAP4 POP POP PUSH1 0x80 PUSH2 0x1FE3 DUP10 DUP3 DUP11 ADD PUSH2 0x1C8B JUMP JUMPDEST SWAP3 POP POP PUSH1 0xA0 PUSH2 0x1FF4 DUP10 DUP3 DUP11 ADD PUSH2 0x1C8B JUMP JUMPDEST SWAP2 POP POP SWAP3 SWAP6 POP SWAP3 SWAP6 POP SWAP3 SWAP6 JUMP JUMPDEST PUSH2 0x200A DUP2 PUSH2 0x175E JUMP JUMPDEST DUP3 MSTORE POP POP JUMP JUMPDEST PUSH1 0x0 PUSH1 0x20 DUP3 ADD SWAP1 POP PUSH2 0x2025 PUSH1 0x0 DUP4 ADD DUP5 PUSH2 0x2001 JUMP JUMPDEST SWAP3 SWAP2 POP POP JUMP JUMPDEST PUSH1 0x0 DUP1 PUSH1 0x0 DUP1 PUSH1 0x0 PUSH1 0xA0 DUP7 DUP9 SUB SLT ISZERO PUSH2 0x2047 JUMPI PUSH2 0x2046 PUSH2 0x1754 JUMP JUMPDEST JUMPDEST PUSH1 0x0 PUSH2 0x2055 DUP9 DUP3 DUP10 ADD PUSH2 0x17A1 JUMP JUMPDEST SWAP6 POP POP PUSH1 0x20 PUSH2 0x2066 DUP9 DUP3 DUP10 ADD PUSH2 0x17A1 JUMP JUMPDEST SWAP5 POP POP PUSH1 0x40 PUSH2 0x2077 DUP9 DUP3 DUP10 ADD PUSH2 0x1BB2 JUMP JUMPDEST SWAP4 POP POP PUSH1 0x60 PUSH2 0x2088 DUP9 DUP3 DUP10 ADD PUSH2 0x17C6 JUMP JUMPDEST SWAP3 POP POP PUSH1 0x80 DUP7 ADD CALLDATALOAD PUSH8 0xFFFFFFFFFFFFFFFF DUP2 GT ISZERO PUSH2 0x20A9 JUMPI PUSH2 0x20A8 PUSH2 0x1759 JUMP JUMPDEST JUMPDEST PUSH2 0x20B5 DUP9 DUP3 DUP10 ADD PUSH2 0x18F3 JUMP JUMPDEST SWAP2 POP POP SWAP3 SWAP6 POP SWAP3 SWAP6 SWAP1 SWAP4 POP JUMP JUMPDEST PUSH1 0x0 DUP1 PUSH1 0x40 DUP4 DUP6 SUB SLT ISZERO PUSH2 0x20D9 JUMPI PUSH2 0x20D8 PUSH2 0x1754 JUMP JUMPDEST JUMPDEST PUSH1 0x0 PUSH2 0x20E7 DUP6 DUP3 DUP7 ADD PUSH2 0x17A1 JUMP JUMPDEST SWAP3 POP POP PUSH1 0x20 PUSH2 0x20F8 DUP6 DUP3 DUP7 ADD PUSH2 0x17C6 JUMP JUMPDEST SWAP2 POP POP SWAP3 POP SWAP3 SWAP1 POP JUMP JUMPDEST PUSH2 0x210B DUP2 PUSH2 0x19FA JUMP JUMPDEST DUP3 MSTORE POP POP JUMP JUMPDEST PUSH1 0x0 PUSH1 0x20 DUP3 ADD SWAP1 POP PUSH2 0x2126 PUSH1 0x0 DUP4 ADD DUP5 PUSH2 0x2102 JUMP JUMPDEST SWAP3 SWAP2 POP POP JUMP JUMPDEST PUSH1 0x0 DUP1 PUSH1 0x40 DUP4 DUP6 SUB SLT ISZERO PUSH2 0x2143 JUMPI PUSH2 0x2142 PUSH2 0x1754 JUMP JUMPDEST JUMPDEST PUSH1 0x0 PUSH2 0x2151 DUP6 DUP3 DUP7 ADD PUSH2 0x17A1 JUMP JUMPDEST SWAP3 POP POP PUSH1 0x20 PUSH2 0x2162 DUP6 DUP3 DUP7 ADD PUSH2 0x1BB2 JUMP JUMPDEST SWAP2 POP POP SWAP3 POP SWAP3 SWAP1 POP JUMP JUMPDEST PUSH1 0x0 DUP1 PUSH1 0x0 PUSH1 0x60 DUP5 DUP7 SUB SLT ISZERO PUSH2 0x2185 JUMPI PUSH2 0x2184 PUSH2 0x1754 JUMP JUMPDEST JUMPDEST PUSH1 0x0 PUSH2 0x2193 DUP7 DUP3 DUP8 ADD PUSH2 0x17A1 JUMP JUMPDEST SWAP4 POP POP PUSH1 0x20 PUSH2 0x21A4 DUP7 DUP3 DUP8 ADD PUSH2 0x17C6 JUMP JUMPDEST SWAP3 POP POP PUSH1 0x40 DUP5 ADD CALLDATALOAD PUSH8 0xFFFFFFFFFFFFFFFF DUP2 GT ISZERO PUSH2 0x21C5 JUMPI PUSH2 0x21C4 PUSH2 0x1759 JUMP JUMPDEST JUMPDEST PUSH2 0x21D1 DUP7 DUP3 DUP8 ADD PUSH2 0x18F3 JUMP JUMPDEST SWAP2 POP POP SWAP3 POP SWAP3 POP SWAP3 JUMP JUMPDEST PUSH1 0x0 DUP1 PUSH1 0x40 DUP4 DUP6 SUB SLT ISZERO PUSH2 0x21F2 JUMPI PUSH2 0x21F1 PUSH2 0x1754 JUMP JUMPDEST JUMPDEST PUSH1 0x0 PUSH2 0x2200 DUP6 DUP3 DUP7 ADD PUSH2 0x17A1 JUMP JUMPDEST SWAP3 POP POP PUSH1 0x20 DUP4 ADD CALLDATALOAD PUSH8 0xFFFFFFFFFFFFFFFF DUP2 GT ISZERO PUSH2 0x2221 JUMPI PUSH2 0x2220 PUSH2 0x1759 JUMP JUMPDEST JUMPDEST PUSH2 0x222D DUP6 DUP3 DUP7 ADD PUSH2 0x18F3 JUMP JUMPDEST SWAP2 POP POP SWAP3 POP SWAP3 SWAP1 POP JUMP JUMPDEST PUSH1 0x0 DUP1 PUSH1 0x0 DUP1 PUSH1 0x80 DUP6 DUP8 SUB SLT ISZERO PUSH2 0x2251 JUMPI PUSH2 0x2250 PUSH2 0x1754 JUMP JUMPDEST JUMPDEST PUSH1 0x0 PUSH2 0x225F DUP8 DUP3 DUP9 ADD PUSH2 0x17A1 JUMP JUMPDEST SWAP5 POP POP PUSH1 0x20 PUSH2 0x2270 DUP8 DUP3 DUP9 ADD PUSH2 0x17C6 JUMP JUMPDEST SWAP4 POP POP PUSH1 0x40 PUSH2 0x2281 DUP8 DUP3 DUP9 ADD PUSH2 0x1C8B JUMP JUMPDEST SWAP3 POP POP PUSH1 0x60 PUSH2 0x2292 DUP8 DUP3 DUP9 ADD PUSH2 0x1C8B JUMP JUMPDEST SWAP2 POP POP SWAP3 SWAP6 SWAP2 SWAP5 POP SWAP3 POP JUMP JUMPDEST PUSH1 0x0 DUP1 PUSH1 0x0 PUSH1 0x60 DUP5 DUP7 SUB SLT ISZERO PUSH2 0x22B7 JUMPI PUSH2 0x22B6 PUSH2 0x1754 JUMP JUMPDEST JUMPDEST PUSH1 0x0 PUSH2 0x22C5 DUP7 DUP3 DUP8 ADD PUSH2 0x17A1 JUMP JUMPDEST SWAP4 POP POP PUSH1 0x20 PUSH2 0x22D6 DUP7 DUP3 DUP8 ADD PUSH2 0x17A1 JUMP JUMPDEST SWAP3 POP POP PUSH1 0x40 PUSH2 0x22E7 DUP7 DUP3 DUP8 ADD PUSH2 0x17C6 JUMP JUMPDEST SWAP2 POP POP SWAP3 POP SWAP3 POP SWAP3 JUMP JUMPDEST PUSH1 0x0 DUP1 PUSH1 0x0 DUP1 PUSH1 0x80 DUP6 DUP8 SUB SLT ISZERO PUSH2 0x230B JUMPI PUSH2 0x230A PUSH2 0x1754 JUMP JUMPDEST JUMPDEST PUSH1 0x0 PUSH2 0x2319 DUP8 DUP3 DUP9 ADD PUSH2 0x17A1 JUMP JUMPDEST SWAP5 POP POP PUSH1 0x20 PUSH2 0x232A DUP8 DUP3 DUP9 ADD PUSH2 0x17A1 JUMP JUMPDEST SWAP4 POP POP PUSH1 0x40 PUSH2 0x233B DUP8 DUP3 DUP9 ADD PUSH2 0x1BB2 JUMP JUMPDEST SWAP3 POP POP PUSH1 0x60 PUSH2 0x234C DUP8 DUP3 DUP9 ADD PUSH2 0x17C6 JUMP JUMPDEST SWAP2 POP POP SWAP3 SWAP6 SWAP2 SWAP5 POP SWAP3 POP JUMP JUMPDEST PUSH1 0x0 DUP3 DUP3 MSTORE PUSH1 0x20 DUP3 ADD SWAP1 POP SWAP3 SWAP2 POP POP JUMP JUMPDEST PUSH1 0x0 PUSH2 0x2374 DUP3 PUSH2 0x1A5E JUMP JUMPDEST PUSH2 0x237E DUP2 DUP6 PUSH2 0x2358 JUMP JUMPDEST SWAP4 POP PUSH2 0x238E DUP2 DUP6 PUSH1 0x20 DUP7 ADD PUSH2 0x1A7A JUMP JUMPDEST PUSH2 0x2397 DUP2 PUSH2 0x17E5 JUMP JUMPDEST DUP5 ADD SWAP2 POP POP SWAP3 SWAP2 POP POP JUMP JUMPDEST PUSH1 0x0 PUSH1 0x20 DUP3 ADD SWAP1 POP DUP2 DUP2 SUB PUSH1 0x0 DUP4 ADD MSTORE PUSH2 0x23BC DUP2 DUP5 PUSH2 0x2369 JUMP JUMPDEST SWAP1 POP SWAP3 SWAP2 POP POP JUMP JUMPDEST PUSH1 0x0 DUP1 PUSH1 0x0 DUP1 PUSH1 0x0 PUSH1 0xA0 DUP7 DUP9 SUB SLT ISZERO PUSH2 0x23E0 JUMPI PUSH2 0x23DF PUSH2 0x1754 JUMP JUMPDEST JUMPDEST PUSH1 0x0 PUSH2 0x23EE DUP9 DUP3 DUP10 ADD PUSH2 0x17A1 JUMP JUMPDEST SWAP6 POP POP PUSH1 0x20 PUSH2 0x23FF DUP9 DUP3 DUP10 ADD PUSH2 0x17A1 JUMP JUMPDEST SWAP5 POP POP PUSH1 0x40 PUSH2 0x2410 DUP9 DUP3 DUP10 ADD PUSH2 0x1BB2 JUMP JUMPDEST SWAP4 POP POP PUSH1 0x60 PUSH2 0x2421 DUP9 DUP3 DUP10 ADD PUSH2 0x1C8B JUMP JUMPDEST SWAP3 POP POP PUSH1 0x80 PUSH2 0x2432 DUP9 DUP3 DUP10 ADD PUSH2 0x1C8B JUMP JUMPDEST SWAP2 POP POP SWAP3 SWAP6 POP SWAP3 SWAP6 SWAP1 SWAP4 POP JUMP JUMPDEST PUSH1 0x0 DUP1 PUSH1 0x0 DUP1 PUSH1 0x80 DUP6 DUP8 SUB SLT ISZERO PUSH2 0x2459 JUMPI PUSH2 0x2458 PUSH2 0x1754 JUMP JUMPDEST JUMPDEST PUSH1 0x0 PUSH2 0x2467 DUP8 DUP3 DUP9 ADD PUSH2 0x17A1 JUMP JUMPDEST SWAP5 POP POP PUSH1 0x20 PUSH2 0x2478 DUP8 DUP3 DUP9 ADD PUSH2 0x1BB2 JUMP JUMPDEST SWAP4 POP POP PUSH1 0x40 PUSH2 0x2489 DUP8 DUP3 DUP9 ADD PUSH2 0x17C6 JUMP JUMPDEST SWAP3 POP POP PUSH1 0x60 DUP6 ADD CALLDATALOAD PUSH8 0xFFFFFFFFFFFFFFFF DUP2 GT ISZERO PUSH2 0x24AA JUMPI PUSH2 0x24A9 PUSH2 0x1759 JUMP JUMPDEST JUMPDEST PUSH2 0x24B6 DUP8 DUP3 DUP9 ADD PUSH2 0x18F3 JUMP JUMPDEST SWAP2 POP POP SWAP3 SWAP6 SWAP2 SWAP5 POP SWAP3 POP JUMP JUMPDEST PUSH1 0x0 PUSH1 0x20 DUP3 DUP5 SUB SLT ISZERO PUSH2 0x24D8 JUMPI PUSH2 0x24D7 PUSH2 0x1754 JUMP JUMPDEST JUMPDEST PUSH1 0x0 PUSH2 0x24E6 DUP5 DUP3 DUP6 ADD PUSH2 0x17A1 JUMP JUMPDEST SWAP2 POP POP SWAP3 SWAP2 POP POP JUMP JUMPDEST PUSH1 0x0 DUP1 PUSH1 0x0 DUP1 PUSH1 0x0 DUP1 PUSH1 0x0 PUSH1 0xE0 DUP9 DUP11 SUB SLT ISZERO PUSH2 0x250E JUMPI PUSH2 0x250D PUSH2 0x1754 JUMP JUMPDEST JUMPDEST PUSH1 0x0 PUSH2 0x251C DUP11 DUP3 DUP12 ADD PUSH2 0x17A1 JUMP JUMPDEST SWAP8 POP POP PUSH1 0x20 PUSH2 0x252D DUP11 DUP3 DUP12 ADD PUSH2 0x17A1 JUMP JUMPDEST SWAP7 POP POP PUSH1 0x40 PUSH2 0x253E DUP11 DUP3 DUP12 ADD PUSH2 0x1BB2 JUMP JUMPDEST SWAP6 POP POP PUSH1 0x60 PUSH2 0x254F DUP11 DUP3 DUP12 ADD PUSH2 0x17C6 JUMP JUMPDEST SWAP5 POP POP PUSH1 0x80 PUSH2 0x2560 DUP11 DUP3 DUP12 ADD PUSH2 0x1C8B JUMP JUMPDEST SWAP4 POP POP PUSH1 0xA0 PUSH2 0x2571 DUP11 DUP3 DUP12 ADD PUSH2 0x1C8B JUMP JUMPDEST SWAP3 POP POP PUSH1 0xC0 DUP9 ADD CALLDATALOAD PUSH8 0xFFFFFFFFFFFFFFFF DUP2 GT ISZERO PUSH2 0x2592 JUMPI PUSH2 0x2591 PUSH2 0x1759 JUMP JUMPDEST JUMPDEST PUSH2 0x259E DUP11 DUP3 DUP12 ADD PUSH2 0x18F3 JUMP JUMPDEST SWAP2 POP POP SWAP3 SWAP6 SWAP9 SWAP2 SWAP5 SWAP8 POP SWAP3 SWAP6 POP JUMP JUMPDEST PUSH1 0x0 DUP1 PUSH1 0x0 PUSH1 0x60 DUP5 DUP7 SUB SLT ISZERO PUSH2 0x25C6 JUMPI PUSH2 0x25C5 PUSH2 0x1754 JUMP JUMPDEST JUMPDEST PUSH1 0x0 PUSH2 0x25D4 DUP7 DUP3 DUP8 ADD PUSH2 0x17A1 JUMP JUMPDEST SWAP4 POP POP PUSH1 0x20 PUSH2 0x25E5 DUP7 DUP3 DUP8 ADD PUSH2 0x1BB2 JUMP JUMPDEST SWAP3 POP POP PUSH1 0x40 DUP5 ADD CALLDATALOAD PUSH8 0xFFFFFFFFFFFFFFFF DUP2 GT ISZERO PUSH2 0x2606 JUMPI PUSH2 0x2605 PUSH2 0x1759 JUMP JUMPDEST JUMPDEST PUSH2 0x2612 DUP7 DUP3 DUP8 ADD PUSH2 0x18F3 JUMP JUMPDEST SWAP2 POP POP SWAP3 POP SWAP3 POP SWAP3 JUMP JUMPDEST PUSH1 0x0 DUP1 PUSH1 0x0 PUSH1 0x60 DUP5 DUP7 SUB SLT ISZERO PUSH2 0x2635 JUMPI PUSH2 0x2634 PUSH2 0x1754 JUMP JUMPDEST JUMPDEST PUSH1 0x0 PUSH2 0x2643 DUP7 DUP3 DUP8 ADD PUSH2 0x17A1 JUMP JUMPDEST SWAP4 POP POP PUSH1 0x20 PUSH2 0x2654 DUP7 DUP3 DUP8 ADD PUSH2 0x1C8B JUMP JUMPDEST SWAP3 POP POP PUSH1 0x40 PUSH2 0x2665 DUP7 DUP3 DUP8 ADD PUSH2 0x1C8B JUMP JUMPDEST SWAP2 POP POP SWAP3 POP SWAP3 POP SWAP3 JUMP JUMPDEST PUSH1 0x0 DUP1 PUSH1 0x0 PUSH1 0x60 DUP5 DUP7 SUB SLT ISZERO PUSH2 0x2688 JUMPI PUSH2 0x2687 PUSH2 0x1754 JUMP JUMPDEST JUMPDEST PUSH1 0x0 PUSH2 0x2696 DUP7 DUP3 DUP8 ADD PUSH2 0x17A1 JUMP JUMPDEST SWAP4 POP POP PUSH1 0x20 PUSH2 0x26A7 DUP7 DUP3 DUP8 ADD PUSH2 0x17A1 JUMP JUMPDEST SWAP3 POP POP PUSH1 0x40 DUP5 ADD CALLDATALOAD PUSH8 0xFFFFFFFFFFFFFFFF DUP2 GT ISZERO PUSH2 0x26C8 JUMPI PUSH2 0x26C7 PUSH2 0x1759 JUMP JUMPDEST JUMPDEST PUSH2 0x26D4 DUP7 DUP3 DUP8 ADD PUSH2 0x18F3 JUMP JUMPDEST SWAP2 POP POP SWAP3 POP SWAP3 POP SWAP3 JUMP INVALID LOG2 PUSH5 0x6970667358 0x22 SLT KECCAK256 PUSH30 0xAC5455BFE0E8C651710F14DD6665BA301ACAB844F4E4C5F98885229ECC0C 0xC7 PUSH5 0x736F6C6343 STOP ADDMOD SLT STOP CALLER "},"methodIdentifiers":{"DEFAULT_CLAIM_REQUEST_EXTRA_DATA()":"d4e694f7","DEFAULT_CLAIM_REQUEST_GROUP_TIMESTAMP()":"749d6d85","DEFAULT_CLAIM_REQUEST_IS_OPTIONAL()":"30c62a4a","DEFAULT_CLAIM_REQUEST_IS_SELECTABLE_BY_USER()":"bd240b86","DEFAULT_CLAIM_REQUEST_TYPE()":"84a0e907","DEFAULT_CLAIM_REQUEST_VALUE()":"6658580a","build(bytes16)":"e379821c","build(bytes16,bool,bool)":"ee5decf2","build(bytes16,bytes)":"a820af1a","build(bytes16,bytes16)":"644c52c8","build(bytes16,bytes16,bool,bool)":"35628e71","build(bytes16,bytes16,bytes)":"f744d654","build(bytes16,bytes16,uint256)":"4d06bd88","build(bytes16,bytes16,uint256,bool,bool)":"d8b6eb2b","build(bytes16,bytes16,uint256,bytes)":"102f7b60","build(bytes16,bytes16,uint256,uint8)":"d035c7ca","build(bytes16,bytes16,uint256,uint8,bool,bool)":"6b945f38","build(bytes16,bytes16,uint256,uint8,bool,bool,bytes)":"e3ec2c99","build(bytes16,bytes16,uint256,uint8,bytes)":"7aadac0d","build(bytes16,bytes16,uint8)":"c9062f31","build(bytes16,bytes16,uint8,bool,bool)":"3b0cb073","build(bytes16,bytes16,uint8,bytes)":"0d55ad28","build(bytes16,uint256)":"8628695b","build(bytes16,uint256,bool,bool)":"3a5dc559","build(bytes16,uint256,bytes)":"ec294078","build(bytes16,uint256,uint8)":"409f789a","build(bytes16,uint256,uint8,bool,bool)":"3880e361","build(bytes16,uint256,uint8,bytes)":"db9178d6","build(bytes16,uint8)":"80decbce","build(bytes16,uint8,bool,bool)":"b5a7fef5","build(bytes16,uint8,bytes)":"97e65353"}}}}}