{
  "abi": [
    {
      "inputs": [],
      "name": "baseCost",
      "outputs": [
        {
          "internalType": "uint256",
          "name": "",
          "type": "uint256"
        }
      ],
      "stateMutability": "view",
      "type": "function"
    },
    {
      "inputs": [
        {
          "internalType": "uint256",
          "name": "pairCount",
          "type": "uint256"
        }
      ],
      "name": "getGasCost",
      "outputs": [
        {
          "internalType": "uint256",
          "name": "",
          "type": "uint256"
        }
      ],
      "stateMutability": "view",
      "type": "function"
    },
    {
      "inputs": [],
      "name": "perPairCost",
      "outputs": [
        {
          "internalType": "uint256",
          "name": "",
          "type": "uint256"
        }
      ],
      "stateMutability": "view",
      "type": "function"
    },
    {
      "inputs": [],
      "name": "run",
      "outputs": [],
      "stateMutability": "nonpayable",
      "type": "function"
    }
  ],
  "bytecode": {
    "object": "0x608060405234801561001057600080fd5b506106d6806100206000396000f3fe608060405234801561001057600080fd5b506004361061004c5760003560e01c80634e79f8ca146100515780639382255714610076578063c04062261461007f578063ebfd94b214610089575b600080fd5b61006461005f366004610614565b610092565b60405190815260200160405180910390f35b61006460005481565b6100876100b3565b005b61006460015481565b600080546001546100a39084610643565b6100ad919061065a565b92915050565b6100bb6100bd565b565b60006100c76100f5565b905060006100d3610328565b90506100df828261066d565b60018190556100ee908361066d565b6000555050565b6000806040518060c0016040528060018152602001600281526020017f198e9393920d483a7260bfb731fb5d25f1aa493335a9e71297e485b7aef312c281526020017f1800deef121f1e76426a00665e5c4479674322d4f75edadd46debd5cd992f6ed81526020017f090689d0585ff075ec9e99ad690c3395bc4b313370b38ef355acdadcd122975b81526020017f12c85ea5db8c6deb4aab71808dcb408fe3d1e7690c43d37b4ce6cc0166fa7daa81525090506101b16105f6565b6000806107d05a6101c2919061066d565b90506107d05a1161022e5760405162461bcd60e51b815260206004820152603d602482015260008051602061068183398151915260448201527f3a206e6f7420656e6f756768206761732c2073696e676c65207061697200000060648201526084015b60405180910390fd5b60005a905060208460c087600886fa925060005a61024c908361066d565b9050836102af5760405162461bcd60e51b815260206004820152603c602482015260008051602061068183398151915260448201527f3a2073696e676c6520706169722063616c6c206973206661696c6564000000006064820152608401610225565b84511561031e5760405162461bcd60e51b8152602060048201526043602482015260008051602061068183398151915260448201527f3a2073696e676c6520706169722063616c6c20726573756c74206d757374206260648201526206520360ec1b608482015260a401610225565b9695505050505050565b60008060405180610180016040528060018152602001600281526020017f198e9393920d483a7260bfb731fb5d25f1aa493335a9e71297e485b7aef312c281526020017f1800deef121f1e76426a00665e5c4479674322d4f75edadd46debd5cd992f6ed81526020017f090689d0585ff075ec9e99ad690c3395bc4b313370b38ef355acdadcd122975b81526020017f12c85ea5db8c6deb4aab71808dcb408fe3d1e7690c43d37b4ce6cc0166fa7daa815260200160018152602001600281526020017f198e9393920d483a7260bfb731fb5d25f1aa493335a9e71297e485b7aef312c281526020017f1800deef121f1e76426a00665e5c4479674322d4f75edadd46debd5cd992f6ed81526020017f275dc4a288d1afb3cbb1ac09187524c7db36395df7be3b99e673b13a075a65ec81526020017f1d9befcd05a5323e6da4d435f3b617cdb3af83285c2df711ef39c01571827f9d815250905061048b6105f6565b6000806107d05a61049c919061066d565b90506107d05a116105035760405162461bcd60e51b815260206004820152603d602482015260008051602061068183398151915260448201527f3a206e6f7420656e6f756768206761732c20636f75706c6520706169720000006064820152608401610225565b60005a905060208461018087600886fa925060005a610522908361066d565b9050836105855760405162461bcd60e51b815260206004820152603c602482015260008051602061068183398151915260448201527f3a20636f75706c6520706169722063616c6c206973206661696c6564000000006064820152608401610225565b845160011461031e5760405162461bcd60e51b8152602060048201526043602482015260008051602061068183398151915260448201527f3a20636f75706c6520706169722063616c6c20726573756c74206d757374206260648201526265203160e81b608482015260a401610225565b60405180602001604052806001906020820280368337509192915050565b60006020828403121561062657600080fd5b5035919050565b634e487b7160e01b600052601160045260246000fd5b80820281158282048414176100ad576100ad61062d565b808201808211156100ad576100ad61062d565b818103818111156100ad576100ad61062d56fe424e50616972696e67507265636f6d70696c65436f7374457374696d61746f72a2646970667358221220a15ae02edad649c7746be0d017cbb538250dfa82358ce82465a6f50faf1ab2db64736f6c63430008130033",
    "linkReferences": {}
  },
  "methodIdentifiers": {
    "baseCost()": "93822557",
    "getGasCost(uint256)": "4e79f8ca",
    "perPairCost()": "ebfd94b2",
    "run()": "c0406226"
  },
  "id": 27
}