{
  "_format": "hh-sol-artifact-1",
  "contractName": "NewAccount",
  "sourceName": "contracts/newAccount.sol",
  "abi": [
    {
      "inputs": [
        {
          "internalType": "contract IEntryPoint",
          "name": "anEntryPoint",
          "type": "address"
        }
      ],
      "stateMutability": "nonpayable",
      "type": "constructor"
    },
    {
      "anonymous": false,
      "inputs": [
        {
          "indexed": false,
          "internalType": "address",
          "name": "previousAdmin",
          "type": "address"
        },
        {
          "indexed": false,
          "internalType": "address",
          "name": "newAdmin",
          "type": "address"
        }
      ],
      "name": "AdminChanged",
      "type": "event"
    },
    {
      "anonymous": false,
      "inputs": [
        {
          "indexed": true,
          "internalType": "address",
          "name": "beacon",
          "type": "address"
        }
      ],
      "name": "BeaconUpgraded",
      "type": "event"
    },
    {
      "anonymous": false,
      "inputs": [
        {
          "indexed": false,
          "internalType": "uint8",
          "name": "version",
          "type": "uint8"
        }
      ],
      "name": "Initialized",
      "type": "event"
    },
    {
      "anonymous": false,
      "inputs": [
        {
          "indexed": true,
          "internalType": "contract IEntryPoint",
          "name": "entryPoint",
          "type": "address"
        },
        {
          "indexed": true,
          "internalType": "address",
          "name": "owner",
          "type": "address"
        }
      ],
      "name": "SimpleAccountInitialized",
      "type": "event"
    },
    {
      "anonymous": false,
      "inputs": [
        {
          "indexed": true,
          "internalType": "address",
          "name": "implementation",
          "type": "address"
        }
      ],
      "name": "Upgraded",
      "type": "event"
    },
    {
      "inputs": [],
      "name": "addDeposit",
      "outputs": [],
      "stateMutability": "payable",
      "type": "function"
    },
    {
      "inputs": [],
      "name": "entryPoint",
      "outputs": [
        {
          "internalType": "contract IEntryPoint",
          "name": "",
          "type": "address"
        }
      ],
      "stateMutability": "view",
      "type": "function"
    },
    {
      "inputs": [
        {
          "internalType": "address",
          "name": "dest",
          "type": "address"
        },
        {
          "internalType": "uint256",
          "name": "value",
          "type": "uint256"
        },
        {
          "internalType": "bytes",
          "name": "func",
          "type": "bytes"
        }
      ],
      "name": "execute",
      "outputs": [],
      "stateMutability": "nonpayable",
      "type": "function"
    },
    {
      "inputs": [
        {
          "internalType": "address[]",
          "name": "dest",
          "type": "address[]"
        },
        {
          "internalType": "bytes[]",
          "name": "func",
          "type": "bytes[]"
        }
      ],
      "name": "executeBatch",
      "outputs": [],
      "stateMutability": "nonpayable",
      "type": "function"
    },
    {
      "inputs": [],
      "name": "getDeposit",
      "outputs": [
        {
          "internalType": "uint256",
          "name": "",
          "type": "uint256"
        }
      ],
      "stateMutability": "view",
      "type": "function"
    },
    {
      "inputs": [],
      "name": "getNonce",
      "outputs": [
        {
          "internalType": "uint256",
          "name": "",
          "type": "uint256"
        }
      ],
      "stateMutability": "view",
      "type": "function"
    },
    {
      "inputs": [
        {
          "internalType": "address",
          "name": "anOwner",
          "type": "address"
        }
      ],
      "name": "initialize",
      "outputs": [],
      "stateMutability": "nonpayable",
      "type": "function"
    },
    {
      "inputs": [
        {
          "internalType": "address",
          "name": "",
          "type": "address"
        },
        {
          "internalType": "address",
          "name": "",
          "type": "address"
        },
        {
          "internalType": "uint256[]",
          "name": "",
          "type": "uint256[]"
        },
        {
          "internalType": "uint256[]",
          "name": "",
          "type": "uint256[]"
        },
        {
          "internalType": "bytes",
          "name": "",
          "type": "bytes"
        }
      ],
      "name": "onERC1155BatchReceived",
      "outputs": [
        {
          "internalType": "bytes4",
          "name": "",
          "type": "bytes4"
        }
      ],
      "stateMutability": "pure",
      "type": "function"
    },
    {
      "inputs": [
        {
          "internalType": "address",
          "name": "",
          "type": "address"
        },
        {
          "internalType": "address",
          "name": "",
          "type": "address"
        },
        {
          "internalType": "uint256",
          "name": "",
          "type": "uint256"
        },
        {
          "internalType": "uint256",
          "name": "",
          "type": "uint256"
        },
        {
          "internalType": "bytes",
          "name": "",
          "type": "bytes"
        }
      ],
      "name": "onERC1155Received",
      "outputs": [
        {
          "internalType": "bytes4",
          "name": "",
          "type": "bytes4"
        }
      ],
      "stateMutability": "pure",
      "type": "function"
    },
    {
      "inputs": [
        {
          "internalType": "address",
          "name": "",
          "type": "address"
        },
        {
          "internalType": "address",
          "name": "",
          "type": "address"
        },
        {
          "internalType": "uint256",
          "name": "",
          "type": "uint256"
        },
        {
          "internalType": "bytes",
          "name": "",
          "type": "bytes"
        }
      ],
      "name": "onERC721Received",
      "outputs": [
        {
          "internalType": "bytes4",
          "name": "",
          "type": "bytes4"
        }
      ],
      "stateMutability": "pure",
      "type": "function"
    },
    {
      "inputs": [],
      "name": "owner",
      "outputs": [
        {
          "internalType": "address",
          "name": "",
          "type": "address"
        }
      ],
      "stateMutability": "view",
      "type": "function"
    },
    {
      "inputs": [],
      "name": "proxiableUUID",
      "outputs": [
        {
          "internalType": "bytes32",
          "name": "",
          "type": "bytes32"
        }
      ],
      "stateMutability": "view",
      "type": "function"
    },
    {
      "inputs": [
        {
          "internalType": "bytes4",
          "name": "interfaceId",
          "type": "bytes4"
        }
      ],
      "name": "supportsInterface",
      "outputs": [
        {
          "internalType": "bool",
          "name": "",
          "type": "bool"
        }
      ],
      "stateMutability": "view",
      "type": "function"
    },
    {
      "inputs": [
        {
          "internalType": "address",
          "name": "",
          "type": "address"
        },
        {
          "internalType": "address",
          "name": "",
          "type": "address"
        },
        {
          "internalType": "address",
          "name": "",
          "type": "address"
        },
        {
          "internalType": "uint256",
          "name": "",
          "type": "uint256"
        },
        {
          "internalType": "bytes",
          "name": "",
          "type": "bytes"
        },
        {
          "internalType": "bytes",
          "name": "",
          "type": "bytes"
        }
      ],
      "name": "tokensReceived",
      "outputs": [],
      "stateMutability": "pure",
      "type": "function"
    },
    {
      "inputs": [
        {
          "internalType": "address",
          "name": "newImplementation",
          "type": "address"
        }
      ],
      "name": "upgradeTo",
      "outputs": [],
      "stateMutability": "nonpayable",
      "type": "function"
    },
    {
      "inputs": [
        {
          "internalType": "address",
          "name": "newImplementation",
          "type": "address"
        },
        {
          "internalType": "bytes",
          "name": "data",
          "type": "bytes"
        }
      ],
      "name": "upgradeToAndCall",
      "outputs": [],
      "stateMutability": "payable",
      "type": "function"
    },
    {
      "inputs": [
        {
          "components": [
            {
              "internalType": "address",
              "name": "sender",
              "type": "address"
            },
            {
              "internalType": "uint256",
              "name": "nonce",
              "type": "uint256"
            },
            {
              "internalType": "bytes",
              "name": "initCode",
              "type": "bytes"
            },
            {
              "internalType": "bytes",
              "name": "callData",
              "type": "bytes"
            },
            {
              "internalType": "uint256",
              "name": "callGasLimit",
              "type": "uint256"
            },
            {
              "internalType": "uint256",
              "name": "verificationGasLimit",
              "type": "uint256"
            },
            {
              "internalType": "uint256",
              "name": "preVerificationGas",
              "type": "uint256"
            },
            {
              "internalType": "uint256",
              "name": "maxFeePerGas",
              "type": "uint256"
            },
            {
              "internalType": "uint256",
              "name": "maxPriorityFeePerGas",
              "type": "uint256"
            },
            {
              "internalType": "bytes",
              "name": "paymasterAndData",
              "type": "bytes"
            },
            {
              "internalType": "bytes",
              "name": "signature",
              "type": "bytes"
            }
          ],
          "internalType": "struct UserOperation",
          "name": "userOp",
          "type": "tuple"
        },
        {
          "internalType": "bytes32",
          "name": "userOpHash",
          "type": "bytes32"
        },
        {
          "internalType": "uint256",
          "name": "missingAccountFunds",
          "type": "uint256"
        }
      ],
      "name": "validateUserOp",
      "outputs": [
        {
          "internalType": "uint256",
          "name": "validationData",
          "type": "uint256"
        }
      ],
      "stateMutability": "nonpayable",
      "type": "function"
    },
    {
      "inputs": [
        {
          "internalType": "address payable",
          "name": "withdrawAddress",
          "type": "address"
        },
        {
          "internalType": "uint256",
          "name": "amount",
          "type": "uint256"
        }
      ],
      "name": "withdrawDepositTo",
      "outputs": [],
      "stateMutability": "nonpayable",
      "type": "function"
    },
    {
      "stateMutability": "payable",
      "type": "receive"
    }
  ],
  "bytecode": "0x60c0604052306080523480156200001557600080fd5b50604051620023d2380380620023d2833981016040819052620000389162000117565b6001600160a01b03811660a0526200004f62000056565b5062000149565b600054610100900460ff1615620000c35760405162461bcd60e51b815260206004820152602760248201527f496e697469616c697a61626c653a20636f6e747261637420697320696e697469604482015266616c697a696e6760c81b606482015260840160405180910390fd5b60005460ff9081161462000115576000805460ff191660ff9081179091556040519081527f7f26b83ff96e1f2b6a682f133852f6798a09c465da95921460cefb38474024989060200160405180910390a15b565b6000602082840312156200012a57600080fd5b81516001600160a01b03811681146200014257600080fd5b9392505050565b60805160a051612216620001bc6000396000818161032f01528181610833015281816108da01528181610cb001528181610ee701528181610f2e015281816112320152611490015260008181610651015281816106e70152818161099e01528181610a340152610b6301526122166000f3fe60806040526004361061012c5760003560e01c806352d1902d116100a5578063bc197c8111610074578063c4d66de811610059578063c4d66de8146103d0578063d087d288146103f0578063f23a6e611461040557600080fd5b8063bc197c8114610373578063c399ec88146103bb57600080fd5b806352d1902d146102b35780638da5cb5b146102c8578063b0d691fe14610320578063b61d27f61461035357600080fd5b80633659cfe6116100fc5780634a58db19116100e15780634a58db19146102785780634d44560d146102805780634f1ef286146102a057600080fd5b80633659cfe61461022a5780633a871cdd1461024a57600080fd5b806223de291461013857806301ffc9a71461015f578063150b7a021461019457806318dfb3c71461020a57600080fd5b3661013357005b600080fd5b34801561014457600080fd5b5061015d610153366004611abe565b5050505050505050565b005b34801561016b57600080fd5b5061017f61017a366004611b6f565b61044b565b60405190151581526020015b60405180910390f35b3480156101a057600080fd5b506101d96101af366004611bb1565b7f150b7a020000000000000000000000000000000000000000000000000000000095945050505050565b6040517fffffffff00000000000000000000000000000000000000000000000000000000909116815260200161018b565b34801561021657600080fd5b5061015d610225366004611c69565b610530565b34801561023657600080fd5b5061015d610245366004611cd5565b61063a565b34801561025657600080fd5b5061026a610265366004611cf2565b61080b565b60405190815260200161018b565b61015d610831565b34801561028c57600080fd5b5061015d61029b366004611d46565b6108d0565b61015d6102ae366004611da1565b610987565b3480156102bf57600080fd5b5061026a610b49565b3480156102d457600080fd5b506000546102fb9062010000900473ffffffffffffffffffffffffffffffffffffffff1681565b60405173ffffffffffffffffffffffffffffffffffffffff909116815260200161018b565b34801561032c57600080fd5b507f00000000000000000000000000000000000000000000000000000000000000006102fb565b34801561035f57600080fd5b5061015d61036e366004611e83565b610c1b565b34801561037f57600080fd5b506101d961038e366004611ed3565b7fbc197c810000000000000000000000000000000000000000000000000000000098975050505050505050565b3480156103c757600080fd5b5061026a610c6a565b3480156103dc57600080fd5b5061015d6103eb366004611cd5565b610d21565b3480156103fc57600080fd5b5061026a610e9a565b34801561041157600080fd5b506101d9610420366004611f71565b7ff23a6e61000000000000000000000000000000000000000000000000000000009695505050505050565b60007fffffffff0000000000000000000000000000000000000000000000000000000082167f150b7a020000000000000000000000000000000000000000000000000000000014806104de57507fffffffff0000000000000000000000000000000000000000000000000000000082167f4e2312e000000000000000000000000000000000000000000000000000000000145b8061052a57507fffffffff0000000000000000000000000000000000000000000000000000000082167f01ffc9a700000000000000000000000000000000000000000000000000000000145b92915050565b610538610f16565b82811461058c5760405162461bcd60e51b815260206004820152601360248201527f77726f6e67206172726179206c656e677468730000000000000000000000000060448201526064015b60405180910390fd5b60005b83811015610633576106218585838181106105ac576105ac611fed565b90506020020160208101906105c19190611cd5565b60008585858181106105d5576105d5611fed565b90506020028101906105e7919061201c565b8080601f016020809104026020016040519081016040528093929190818152602001838380828437600092019190915250610fc592505050565b8061062b81612081565b91505061058f565b5050505050565b73ffffffffffffffffffffffffffffffffffffffff7f00000000000000000000000000000000000000000000000000000000000000001630036106e55760405162461bcd60e51b815260206004820152602c60248201527f46756e6374696f6e206d7573742062652063616c6c6564207468726f7567682060448201527f64656c656761746563616c6c00000000000000000000000000000000000000006064820152608401610583565b7f000000000000000000000000000000000000000000000000000000000000000073ffffffffffffffffffffffffffffffffffffffff1661075a7f360894a13ba1a3210667c828492db98dca3e2076cc3735a920a3ca505d382bbc5473ffffffffffffffffffffffffffffffffffffffff1690565b73ffffffffffffffffffffffffffffffffffffffff16146107e35760405162461bcd60e51b815260206004820152602c60248201527f46756e6374696f6e206d7573742062652063616c6c6564207468726f7567682060448201527f6163746976652070726f787900000000000000000000000000000000000000006064820152608401610583565b6107ec81611042565b604080516000808252602082019092526108089183919061104a565b50565b600061081561121a565b61081f848461129f565b905061082a82611358565b9392505050565b7f00000000000000000000000000000000000000000000000000000000000000006040517fb760faf900000000000000000000000000000000000000000000000000000000815230600482015273ffffffffffffffffffffffffffffffffffffffff919091169063b760faf99034906024016000604051808303818588803b1580156108bc57600080fd5b505af1158015610633573d6000803e3d6000fd5b6108d86113c3565b7f00000000000000000000000000000000000000000000000000000000000000006040517f205c287800000000000000000000000000000000000000000000000000000000815273ffffffffffffffffffffffffffffffffffffffff848116600483015260248201849052919091169063205c287890604401600060405180830381600087803b15801561096b57600080fd5b505af115801561097f573d6000803e3d6000fd5b505050505050565b73ffffffffffffffffffffffffffffffffffffffff7f0000000000000000000000000000000000000000000000000000000000000000163003610a325760405162461bcd60e51b815260206004820152602c60248201527f46756e6374696f6e206d7573742062652063616c6c6564207468726f7567682060448201527f64656c656761746563616c6c00000000000000000000000000000000000000006064820152608401610583565b7f000000000000000000000000000000000000000000000000000000000000000073ffffffffffffffffffffffffffffffffffffffff16610aa77f360894a13ba1a3210667c828492db98dca3e2076cc3735a920a3ca505d382bbc5473ffffffffffffffffffffffffffffffffffffffff1690565b73ffffffffffffffffffffffffffffffffffffffff1614610b305760405162461bcd60e51b815260206004820152602c60248201527f46756e6374696f6e206d7573742062652063616c6c6564207468726f7567682060448201527f6163746976652070726f787900000000000000000000000000000000000000006064820152608401610583565b610b3982611042565b610b458282600161104a565b5050565b60003073ffffffffffffffffffffffffffffffffffffffff7f00000000000000000000000000000000000000000000000000000000000000001614610bf65760405162461bcd60e51b815260206004820152603860248201527f555550535570677261646561626c653a206d757374206e6f742062652063616c60448201527f6c6564207468726f7567682064656c656761746563616c6c00000000000000006064820152608401610583565b507f360894a13ba1a3210667c828492db98dca3e2076cc3735a920a3ca505d382bbc90565b610c23610f16565b610c64848484848080601f016020809104026020016040519081016040528093929190818152602001838380828437600092019190915250610fc592505050565b50505050565b6040517f70a0823100000000000000000000000000000000000000000000000000000000815230600482015260009073ffffffffffffffffffffffffffffffffffffffff7f000000000000000000000000000000000000000000000000000000000000000016906370a08231906024015b602060405180830381865afa158015610cf8573d6000803e3d6000fd5b505050506040513d601f19601f82011682018060405250810190610d1c91906120e0565b905090565b600054610100900460ff1615808015610d415750600054600160ff909116105b80610d5b5750303b158015610d5b575060005460ff166001145b610dcd5760405162461bcd60e51b815260206004820152602e60248201527f496e697469616c697a61626c653a20636f6e747261637420697320616c72656160448201527f647920696e697469616c697a65640000000000000000000000000000000000006064820152608401610583565b600080547fffffffffffffffffffffffffffffffffffffffffffffffffffffffffffffff001660011790558015610e2b57600080547fffffffffffffffffffffffffffffffffffffffffffffffffffffffffffff00ff166101001790555b610e348261143a565b8015610b4557600080547fffffffffffffffffffffffffffffffffffffffffffffffffffffffffffff00ff169055604051600181527f7f26b83ff96e1f2b6a682f133852f6798a09c465da95921460cefb38474024989060200160405180910390a15050565b6040517f35567e1a0000000000000000000000000000000000000000000000000000000081523060048201526000602482018190529073ffffffffffffffffffffffffffffffffffffffff7f000000000000000000000000000000000000000000000000000000000000000016906335567e1a90604401610cdb565b3373ffffffffffffffffffffffffffffffffffffffff7f0000000000000000000000000000000000000000000000000000000000000000161480610f77575060005462010000900473ffffffffffffffffffffffffffffffffffffffff1633145b610fc35760405162461bcd60e51b815260206004820181905260248201527f6163636f756e743a206e6f74204f776e6572206f7220456e747279506f696e746044820152606401610583565b565b6000808473ffffffffffffffffffffffffffffffffffffffff168484604051610fee919061211d565b60006040518083038185875af1925050503d806000811461102b576040519150601f19603f3d011682016040523d82523d6000602084013e611030565b606091505b50915091508161063357805160208201fd5b6108086113c3565b7f4910fdfa16fed3260ed0e7147f7cc6da11a60208b5b9406d12a635614ffd91435460ff16156110825761107d836114d9565b505050565b8273ffffffffffffffffffffffffffffffffffffffff166352d1902d6040518163ffffffff1660e01b8152600401602060405180830381865afa925050508015611107575060408051601f3d9081017fffffffffffffffffffffffffffffffffffffffffffffffffffffffffffffffe0168201909252611104918101906120e0565b60015b6111795760405162461bcd60e51b815260206004820152602e60248201527f45524331393637557067726164653a206e657720696d706c656d656e7461746960448201527f6f6e206973206e6f7420555550530000000000000000000000000000000000006064820152608401610583565b7f360894a13ba1a3210667c828492db98dca3e2076cc3735a920a3ca505d382bbc811461120e5760405162461bcd60e51b815260206004820152602960248201527f45524331393637557067726164653a20756e737570706f727465642070726f7860448201527f6961626c655555494400000000000000000000000000000000000000000000006064820152608401610583565b5061107d8383836115c9565b3373ffffffffffffffffffffffffffffffffffffffff7f00000000000000000000000000000000000000000000000000000000000000001614610fc35760405162461bcd60e51b815260206004820152601c60248201527f6163636f756e743a206e6f742066726f6d20456e747279506f696e74000000006044820152606401610583565b7f19457468657265756d205369676e6564204d6573736167653a0a3332000000006000908152601c829052603c812061131c6112df61014086018661201c565b8080601f01602080910402602001604051908101604052809392919081815260200183838082843760009201919091525085939250506115ee9050565b60005462010000900473ffffffffffffffffffffffffffffffffffffffff90811691161461134e57600191505061052a565b5060009392505050565b80156108085760405160009033907fffffffffffffffffffffffffffffffffffffffffffffffffffffffffffffffff90849084818181858888f193505050503d8060008114610633576040519150601f19603f3d011682016040523d82523d6000602084013e610633565b60005462010000900473ffffffffffffffffffffffffffffffffffffffff163314806113ee57503330145b610fc35760405162461bcd60e51b815260206004820152600a60248201527f6f6e6c79206f776e6572000000000000000000000000000000000000000000006044820152606401610583565b600080547fffffffffffffffffffff0000000000000000000000000000000000000000ffff166201000073ffffffffffffffffffffffffffffffffffffffff8481168202929092178084556040519190048216927f0000000000000000000000000000000000000000000000000000000000000000909216917f47e55c76e7a6f1fd8996a1da8008c1ea29699cca35e7bcd057f2dec313b6e5de91a350565b73ffffffffffffffffffffffffffffffffffffffff81163b6115635760405162461bcd60e51b815260206004820152602d60248201527f455243313936373a206e657720696d706c656d656e746174696f6e206973206e60448201527f6f74206120636f6e7472616374000000000000000000000000000000000000006064820152608401610583565b7f360894a13ba1a3210667c828492db98dca3e2076cc3735a920a3ca505d382bbc80547fffffffffffffffffffffffff00000000000000000000000000000000000000001673ffffffffffffffffffffffffffffffffffffffff92909216919091179055565b6115d283611612565b6000825111806115df5750805b1561107d57610c64838361165f565b60008060006115fd8585611684565b9150915061160a816116c9565b509392505050565b61161b816114d9565b60405173ffffffffffffffffffffffffffffffffffffffff8216907fbc7cd75a20ee27fd9adebab32041f755214dbc6bffa90cc0225b39da2e5c2d3b90600090a250565b606061082a83836040518060600160405280602781526020016121ba6027913961182e565b60008082516041036116ba5760208301516040840151606085015160001a6116ae878285856118b3565b945094505050506116c2565b506000905060025b9250929050565b60008160048111156116dd576116dd612139565b036116e55750565b60018160048111156116f9576116f9612139565b036117465760405162461bcd60e51b815260206004820152601860248201527f45434453413a20696e76616c6964207369676e617475726500000000000000006044820152606401610583565b600281600481111561175a5761175a612139565b036117a75760405162461bcd60e51b815260206004820152601f60248201527f45434453413a20696e76616c6964207369676e6174757265206c656e677468006044820152606401610583565b60038160048111156117bb576117bb612139565b036108085760405162461bcd60e51b815260206004820152602260248201527f45434453413a20696e76616c6964207369676e6174757265202773272076616c60448201527f75650000000000000000000000000000000000000000000000000000000000006064820152608401610583565b60606000808573ffffffffffffffffffffffffffffffffffffffff1685604051611858919061211d565b600060405180830381855af49150503d8060008114611893576040519150601f19603f3d011682016040523d82523d6000602084013e611898565b606091505b50915091506118a9868383876119a2565b9695505050505050565b6000807f7fffffffffffffffffffffffffffffff5d576e7357a4501ddfe92f46681b20a08311156118ea5750600090506003611999565b6040805160008082526020820180845289905260ff881692820192909252606081018690526080810185905260019060a0016020604051602081039080840390855afa15801561193e573d6000803e3d6000fd5b50506040517fffffffffffffffffffffffffffffffffffffffffffffffffffffffffffffffe0015191505073ffffffffffffffffffffffffffffffffffffffff811661199257600060019250925050611999565b9150600090505b94509492505050565b60608315611a1e578251600003611a175773ffffffffffffffffffffffffffffffffffffffff85163b611a175760405162461bcd60e51b815260206004820152601d60248201527f416464726573733a2063616c6c20746f206e6f6e2d636f6e74726163740000006044820152606401610583565b5081611a28565b611a288383611a30565b949350505050565b815115611a405781518083602001fd5b8060405162461bcd60e51b81526004016105839190612168565b73ffffffffffffffffffffffffffffffffffffffff8116811461080857600080fd5b60008083601f840112611a8e57600080fd5b50813567ffffffffffffffff811115611aa657600080fd5b6020830191508360208285010111156116c257600080fd5b60008060008060008060008060c0898b031215611ada57600080fd5b8835611ae581611a5a565b97506020890135611af581611a5a565b96506040890135611b0581611a5a565b955060608901359450608089013567ffffffffffffffff80821115611b2957600080fd5b611b358c838d01611a7c565b909650945060a08b0135915080821115611b4e57600080fd5b50611b5b8b828c01611a7c565b999c989b5096995094979396929594505050565b600060208284031215611b8157600080fd5b81357fffffffff000000000000000000000000000000000000000000000000000000008116811461082a57600080fd5b600080600080600060808688031215611bc957600080fd5b8535611bd481611a5a565b94506020860135611be481611a5a565b935060408601359250606086013567ffffffffffffffff811115611c0757600080fd5b611c1388828901611a7c565b969995985093965092949392505050565b60008083601f840112611c3657600080fd5b50813567ffffffffffffffff811115611c4e57600080fd5b6020830191508360208260051b85010111156116c257600080fd5b60008060008060408587031215611c7f57600080fd5b843567ffffffffffffffff80821115611c9757600080fd5b611ca388838901611c24565b90965094506020870135915080821115611cbc57600080fd5b50611cc987828801611c24565b95989497509550505050565b600060208284031215611ce757600080fd5b813561082a81611a5a565b600080600060608486031215611d0757600080fd5b833567ffffffffffffffff811115611d1e57600080fd5b84016101608187031215611d3157600080fd5b95602085013595506040909401359392505050565b60008060408385031215611d5957600080fd5b8235611d6481611a5a565b946020939093013593505050565b7f4e487b7100000000000000000000000000000000000000000000000000000000600052604160045260246000fd5b60008060408385031215611db457600080fd5b8235611dbf81611a5a565b9150602083013567ffffffffffffffff80821115611ddc57600080fd5b818501915085601f830112611df057600080fd5b813581811115611e0257611e02611d72565b604051601f82017fffffffffffffffffffffffffffffffffffffffffffffffffffffffffffffffe0908116603f01168101908382118183101715611e4857611e48611d72565b81604052828152886020848701011115611e6157600080fd5b8260208601602083013760006020848301015280955050505050509250929050565b60008060008060608587031215611e9957600080fd5b8435611ea481611a5a565b935060208501359250604085013567ffffffffffffffff811115611ec757600080fd5b611cc987828801611a7c565b60008060008060008060008060a0898b031215611eef57600080fd5b8835611efa81611a5a565b97506020890135611f0a81611a5a565b9650604089013567ffffffffffffffff80821115611f2757600080fd5b611f338c838d01611c24565b909850965060608b0135915080821115611f4c57600080fd5b611f588c838d01611c24565b909650945060808b0135915080821115611b4e57600080fd5b60008060008060008060a08789031215611f8a57600080fd5b8635611f9581611a5a565b95506020870135611fa581611a5a565b94506040870135935060608701359250608087013567ffffffffffffffff811115611fcf57600080fd5b611fdb89828a01611a7c565b979a9699509497509295939492505050565b7f4e487b7100000000000000000000000000000000000000000000000000000000600052603260045260246000fd5b60008083357fffffffffffffffffffffffffffffffffffffffffffffffffffffffffffffffe184360301811261205157600080fd5b83018035915067ffffffffffffffff82111561206c57600080fd5b6020019150368190038213156116c257600080fd5b60007fffffffffffffffffffffffffffffffffffffffffffffffffffffffffffffffff82036120d9577f4e487b7100000000000000000000000000000000000000000000000000000000600052601160045260246000fd5b5060010190565b6000602082840312156120f257600080fd5b5051919050565b60005b838110156121145781810151838201526020016120fc565b50506000910152565b6000825161212f8184602087016120f9565b9190910192915050565b7f4e487b7100000000000000000000000000000000000000000000000000000000600052602160045260246000fd5b60208152600082518060208401526121878160408501602087016120f9565b601f017fffffffffffffffffffffffffffffffffffffffffffffffffffffffffffffffe016919091016040019291505056fe416464726573733a206c6f772d6c6576656c2064656c65676174652063616c6c206661696c6564a26469706673582212206840f08d7f4ec9606a6500ecca8212e0b1911e9530c33bc5724cde512f91236964736f6c63430008110033",
  "linkReferences": {},
  "deployedLinkReferences": {}
}