{
  "abi": [
    {
      "inputs": [
        {
          "internalType": "address",
          "name": "accountFactory",
          "type": "address"
        },
        {
          "internalType": "string",
          "name": "_symbol",
          "type": "string"
        },
        {
          "internalType": "contract IEntryPoint",
          "name": "_entryPoint",
          "type": "address"
        }
      ],
      "stateMutability": "nonpayable",
      "type": "constructor"
    },
    {
      "anonymous": false,
      "inputs": [
        {
          "indexed": true,
          "internalType": "address",
          "name": "owner",
          "type": "address"
        },
        {
          "indexed": true,
          "internalType": "address",
          "name": "spender",
          "type": "address"
        },
        {
          "indexed": false,
          "internalType": "uint256",
          "name": "value",
          "type": "uint256"
        }
      ],
      "name": "Approval",
      "type": "event"
    },
    {
      "anonymous": false,
      "inputs": [
        {
          "indexed": true,
          "internalType": "address",
          "name": "previousOwner",
          "type": "address"
        },
        {
          "indexed": true,
          "internalType": "address",
          "name": "newOwner",
          "type": "address"
        }
      ],
      "name": "OwnershipTransferred",
      "type": "event"
    },
    {
      "anonymous": false,
      "inputs": [
        {
          "indexed": true,
          "internalType": "address",
          "name": "from",
          "type": "address"
        },
        {
          "indexed": true,
          "internalType": "address",
          "name": "to",
          "type": "address"
        },
        {
          "indexed": false,
          "internalType": "uint256",
          "name": "value",
          "type": "uint256"
        }
      ],
      "name": "Transfer",
      "type": "event"
    },
    {
      "inputs": [],
      "name": "COST_OF_POST",
      "outputs": [
        {
          "internalType": "uint256",
          "name": "",
          "type": "uint256"
        }
      ],
      "stateMutability": "view",
      "type": "function"
    },
    {
      "inputs": [
        {
          "internalType": "uint32",
          "name": "unstakeDelaySec",
          "type": "uint32"
        }
      ],
      "name": "addStake",
      "outputs": [],
      "stateMutability": "payable",
      "type": "function"
    },
    {
      "inputs": [
        {
          "internalType": "address",
          "name": "owner",
          "type": "address"
        },
        {
          "internalType": "address",
          "name": "spender",
          "type": "address"
        }
      ],
      "name": "allowance",
      "outputs": [
        {
          "internalType": "uint256",
          "name": "",
          "type": "uint256"
        }
      ],
      "stateMutability": "view",
      "type": "function"
    },
    {
      "inputs": [
        {
          "internalType": "address",
          "name": "spender",
          "type": "address"
        },
        {
          "internalType": "uint256",
          "name": "amount",
          "type": "uint256"
        }
      ],
      "name": "approve",
      "outputs": [
        {
          "internalType": "bool",
          "name": "",
          "type": "bool"
        }
      ],
      "stateMutability": "nonpayable",
      "type": "function"
    },
    {
      "inputs": [
        {
          "internalType": "address",
          "name": "account",
          "type": "address"
        }
      ],
      "name": "balanceOf",
      "outputs": [
        {
          "internalType": "uint256",
          "name": "",
          "type": "uint256"
        }
      ],
      "stateMutability": "view",
      "type": "function"
    },
    {
      "inputs": [],
      "name": "decimals",
      "outputs": [
        {
          "internalType": "uint8",
          "name": "",
          "type": "uint8"
        }
      ],
      "stateMutability": "view",
      "type": "function"
    },
    {
      "inputs": [
        {
          "internalType": "address",
          "name": "spender",
          "type": "address"
        },
        {
          "internalType": "uint256",
          "name": "subtractedValue",
          "type": "uint256"
        }
      ],
      "name": "decreaseAllowance",
      "outputs": [
        {
          "internalType": "bool",
          "name": "",
          "type": "bool"
        }
      ],
      "stateMutability": "nonpayable",
      "type": "function"
    },
    {
      "inputs": [],
      "name": "deposit",
      "outputs": [],
      "stateMutability": "payable",
      "type": "function"
    },
    {
      "inputs": [],
      "name": "entryPoint",
      "outputs": [
        {
          "internalType": "contract IEntryPoint",
          "name": "",
          "type": "address"
        }
      ],
      "stateMutability": "view",
      "type": "function"
    },
    {
      "inputs": [],
      "name": "getDeposit",
      "outputs": [
        {
          "internalType": "uint256",
          "name": "",
          "type": "uint256"
        }
      ],
      "stateMutability": "view",
      "type": "function"
    },
    {
      "inputs": [
        {
          "internalType": "address",
          "name": "spender",
          "type": "address"
        },
        {
          "internalType": "uint256",
          "name": "addedValue",
          "type": "uint256"
        }
      ],
      "name": "increaseAllowance",
      "outputs": [
        {
          "internalType": "bool",
          "name": "",
          "type": "bool"
        }
      ],
      "stateMutability": "nonpayable",
      "type": "function"
    },
    {
      "inputs": [
        {
          "internalType": "address",
          "name": "recipient",
          "type": "address"
        },
        {
          "internalType": "uint256",
          "name": "amount",
          "type": "uint256"
        }
      ],
      "name": "mintTokens",
      "outputs": [],
      "stateMutability": "nonpayable",
      "type": "function"
    },
    {
      "inputs": [],
      "name": "name",
      "outputs": [
        {
          "internalType": "string",
          "name": "",
          "type": "string"
        }
      ],
      "stateMutability": "view",
      "type": "function"
    },
    {
      "inputs": [],
      "name": "owner",
      "outputs": [
        {
          "internalType": "address",
          "name": "",
          "type": "address"
        }
      ],
      "stateMutability": "view",
      "type": "function"
    },
    {
      "inputs": [
        {
          "internalType": "enum IPaymaster.PostOpMode",
          "name": "mode",
          "type": "uint8"
        },
        {
          "internalType": "bytes",
          "name": "context",
          "type": "bytes"
        },
        {
          "internalType": "uint256",
          "name": "actualGasCost",
          "type": "uint256"
        }
      ],
      "name": "postOp",
      "outputs": [],
      "stateMutability": "nonpayable",
      "type": "function"
    },
    {
      "inputs": [],
      "name": "renounceOwnership",
      "outputs": [],
      "stateMutability": "nonpayable",
      "type": "function"
    },
    {
      "inputs": [],
      "name": "symbol",
      "outputs": [
        {
          "internalType": "string",
          "name": "",
          "type": "string"
        }
      ],
      "stateMutability": "view",
      "type": "function"
    },
    {
      "inputs": [],
      "name": "theFactory",
      "outputs": [
        {
          "internalType": "address",
          "name": "",
          "type": "address"
        }
      ],
      "stateMutability": "view",
      "type": "function"
    },
    {
      "inputs": [],
      "name": "totalSupply",
      "outputs": [
        {
          "internalType": "uint256",
          "name": "",
          "type": "uint256"
        }
      ],
      "stateMutability": "view",
      "type": "function"
    },
    {
      "inputs": [
        {
          "internalType": "address",
          "name": "to",
          "type": "address"
        },
        {
          "internalType": "uint256",
          "name": "amount",
          "type": "uint256"
        }
      ],
      "name": "transfer",
      "outputs": [
        {
          "internalType": "bool",
          "name": "",
          "type": "bool"
        }
      ],
      "stateMutability": "nonpayable",
      "type": "function"
    },
    {
      "inputs": [
        {
          "internalType": "address",
          "name": "from",
          "type": "address"
        },
        {
          "internalType": "address",
          "name": "to",
          "type": "address"
        },
        {
          "internalType": "uint256",
          "name": "amount",
          "type": "uint256"
        }
      ],
      "name": "transferFrom",
      "outputs": [
        {
          "internalType": "bool",
          "name": "",
          "type": "bool"
        }
      ],
      "stateMutability": "nonpayable",
      "type": "function"
    },
    {
      "inputs": [
        {
          "internalType": "address",
          "name": "newOwner",
          "type": "address"
        }
      ],
      "name": "transferOwnership",
      "outputs": [],
      "stateMutability": "nonpayable",
      "type": "function"
    },
    {
      "inputs": [],
      "name": "unlockStake",
      "outputs": [],
      "stateMutability": "nonpayable",
      "type": "function"
    },
    {
      "inputs": [
        {
          "components": [
            {
              "internalType": "address",
              "name": "sender",
              "type": "address"
            },
            {
              "internalType": "uint256",
              "name": "nonce",
              "type": "uint256"
            },
            {
              "internalType": "bytes",
              "name": "initCode",
              "type": "bytes"
            },
            {
              "internalType": "bytes",
              "name": "callData",
              "type": "bytes"
            },
            {
              "internalType": "uint256",
              "name": "callGasLimit",
              "type": "uint256"
            },
            {
              "internalType": "uint256",
              "name": "verificationGasLimit",
              "type": "uint256"
            },
            {
              "internalType": "uint256",
              "name": "preVerificationGas",
              "type": "uint256"
            },
            {
              "internalType": "uint256",
              "name": "maxFeePerGas",
              "type": "uint256"
            },
            {
              "internalType": "uint256",
              "name": "maxPriorityFeePerGas",
              "type": "uint256"
            },
            {
              "internalType": "bytes",
              "name": "paymasterAndData",
              "type": "bytes"
            },
            {
              "internalType": "bytes",
              "name": "signature",
              "type": "bytes"
            }
          ],
          "internalType": "struct UserOperation",
          "name": "userOp",
          "type": "tuple"
        },
        {
          "internalType": "bytes32",
          "name": "userOpHash",
          "type": "bytes32"
        },
        {
          "internalType": "uint256",
          "name": "maxCost",
          "type": "uint256"
        }
      ],
      "name": "validatePaymasterUserOp",
      "outputs": [
        {
          "internalType": "bytes",
          "name": "context",
          "type": "bytes"
        },
        {
          "internalType": "uint256",
          "name": "validationData",
          "type": "uint256"
        }
      ],
      "stateMutability": "nonpayable",
      "type": "function"
    },
    {
      "inputs": [
        {
          "internalType": "address payable",
          "name": "withdrawAddress",
          "type": "address"
        }
      ],
      "name": "withdrawStake",
      "outputs": [],
      "stateMutability": "nonpayable",
      "type": "function"
    },
    {
      "inputs": [
        {
          "internalType": "address payable",
          "name": "withdrawAddress",
          "type": "address"
        },
        {
          "internalType": "uint256",
          "name": "amount",
          "type": "uint256"
        }
      ],
      "name": "withdrawTo",
      "outputs": [],
      "stateMutability": "nonpayable",
      "type": "function"
    }
  ],
  "bytecode": {
    "object": "0x60c06040523480156200001157600080fd5b5060405162001c3538038062001c35833981016040819052620000349162000327565b8180826200004233620000a0565b6001600160a01b031660805260046200005c8382620004b2565b5060056200006b8282620004b2565b5050506001600160a01b03831660a05262000088306001620000f0565b620000973033600019620001b9565b505050620005a6565b600080546001600160a01b038381166001600160a01b0319831681178455604051919092169283917f8be0079c531659141344cd1fd0a4f28419497f9722a3daafe3b4186f6b6457e09190a35050565b6001600160a01b0382166200014c5760405162461bcd60e51b815260206004820152601f60248201527f45524332303a206d696e7420746f20746865207a65726f20616464726573730060448201526064015b60405180910390fd5b80600360008282546200016091906200057e565b90915550506001600160a01b0382166000818152600160209081526040808320805486019055518481527fddf252ad1be2c89b69c2b068fc378daa952ba7f163c4a11628f55a4df523b3ef910160405180910390a35050565b6001600160a01b0383166200021d5760405162461bcd60e51b8152602060048201526024808201527f45524332303a20617070726f76652066726f6d20746865207a65726f206164646044820152637265737360e01b606482015260840162000143565b6001600160a01b038216620002805760405162461bcd60e51b815260206004820152602260248201527f45524332303a20617070726f766520746f20746865207a65726f206164647265604482015261737360f01b606482015260840162000143565b6001600160a01b0383811660008181526002602090815260408083209487168084529482529182902085905590518481527f8c5be1e5ebec7d5bd14f71427d1e84f3dd0314c0f7b2291e5b200ac8c7c3b925910160405180910390a3505050565b505050565b6001600160a01b0381168114620002fc57600080fd5b50565b634e487b7160e01b600052604160045260246000fd5b80516200032281620002e6565b919050565b6000806000606084860312156200033d57600080fd5b83516200034a81620002e6565b602085810151919450906001600160401b03808211156200036a57600080fd5b818701915087601f8301126200037f57600080fd5b815181811115620003945762000394620002ff565b604051601f8201601f19908116603f01168101908382118183101715620003bf57620003bf620002ff565b816040528281528a86848701011115620003d857600080fd5b600093505b82841015620003fc5784840186015181850187015292850192620003dd565b60008684830101528097505050505050506200041b6040850162000315565b90509250925092565b600181811c908216806200043957607f821691505b6020821081036200045a57634e487b7160e01b600052602260045260246000fd5b50919050565b601f821115620002e157600081815260208120601f850160051c81016020861015620004895750805b601f850160051c820191505b81811015620004aa5782815560010162000495565b505050505050565b81516001600160401b03811115620004ce57620004ce620002ff565b620004e681620004df845462000424565b8462000460565b602080601f8311600181146200051e5760008415620005055750858301515b600019600386901b1c1916600185901b178555620004aa565b600085815260208120601f198616915b828110156200054f578886015182559484019460019091019084016200052e565b50858210156200056e5787850151600019600388901b60f8161c191681555b5050505050600190811b01905550565b80820180821115620005a057634e487b7160e01b600052601160045260246000fd5b92915050565b60805160a051611631620006046000396000818161034b01526111d90152600081816103df0152818161050301528181610646015281816107a501528181610839015281816108b00152818161093d0152610e2401526116316000f3fe6080604052600436106101815760003560e01c80639f5ca221116100d1578063c23a5cea1161008a578063dd62ed3e11610064578063dd62ed3e14610453578063f0dda65c14610473578063f2fde38b14610493578063f465c77e146104b357600080fd5b8063c23a5cea14610416578063c399ec8814610436578063d0e30db01461044b57600080fd5b80639f5ca22114610339578063a457c2d71461036d578063a9059cbb1461038d578063a9a23409146103ad578063b0d691fe146103cd578063bb9fe6bf1461040157600080fd5b8063313ce5671161013e578063715018a611610118578063715018a6146102c7578063796d4371146102dc5780638da5cb5b146102f257806395d89b411461032457600080fd5b8063313ce56714610255578063395093511461027157806370a082311461029157600080fd5b80630396cb601461018657806306fdde031461019b578063095ea7b3146101c657806318160ddd146101f6578063205c28781461021557806323b872dd14610235575b600080fd5b610199610194366004611255565b6104e1565b005b3480156101a757600080fd5b506101b061056c565b6040516101bd91906112c8565b60405180910390f35b3480156101d257600080fd5b506101e66101e13660046112f0565b6105fe565b60405190151581526020016101bd565b34801561020257600080fd5b506003545b6040519081526020016101bd565b34801561022157600080fd5b506101996102303660046112f0565b610618565b34801561024157600080fd5b506101e661025036600461131c565b61068a565b34801561026157600080fd5b50604051601281526020016101bd565b34801561027d57600080fd5b506101e661028c3660046112f0565b6106ae565b34801561029d57600080fd5b506102076102ac36600461135d565b6001600160a01b031660009081526001602052604090205490565b3480156102d357600080fd5b506101996106d0565b3480156102e857600080fd5b50610207613a9881565b3480156102fe57600080fd5b506000546001600160a01b03165b6040516001600160a01b0390911681526020016101bd565b34801561033057600080fd5b506101b06106e4565b34801561034557600080fd5b5061030c7f000000000000000000000000000000000000000000000000000000000000000081565b34801561037957600080fd5b506101e66103883660046112f0565b6106f3565b34801561039957600080fd5b506101e66103a83660046112f0565b610773565b3480156103b957600080fd5b506101996103c836600461137a565b610781565b3480156103d957600080fd5b5061030c7f000000000000000000000000000000000000000000000000000000000000000081565b34801561040d57600080fd5b5061019961079b565b34801561042257600080fd5b5061019961043136600461135d565b610812565b34801561044257600080fd5b50610207610898565b610199610928565b34801561045f57600080fd5b5061020761046e366004611409565b61098a565b34801561047f57600080fd5b5061019961048e3660046112f0565b6109b5565b34801561049f57600080fd5b506101996104ae36600461135d565b6109cb565b3480156104bf57600080fd5b506104d36104ce366004611442565b610a09565b6040516101bd929190611496565b6104e9610a2c565b604051621cb65b60e51b815263ffffffff821660048201527f00000000000000000000000000000000000000000000000000000000000000006001600160a01b031690630396cb609034906024016000604051808303818588803b15801561055057600080fd5b505af1158015610564573d6000803e3d6000fd5b505050505050565b60606004805461057b906114b8565b80601f01602080910402602001604051908101604052809291908181526020018280546105a7906114b8565b80156105f45780601f106105c9576101008083540402835291602001916105f4565b820191906000526020600020905b8154815290600101906020018083116105d757829003601f168201915b5050505050905090565b60003361060c818585610a86565b60019150505b92915050565b610620610a2c565b60405163040b850f60e31b81526001600160a01b038381166004830152602482018390527f0000000000000000000000000000000000000000000000000000000000000000169063205c287890604401600060405180830381600087803b15801561055057600080fd5b600033610698858285610baa565b6106a3858585610c1e565b506001949350505050565b60003361060c8185856106c1838361098a565b6106cb91906114f2565b610a86565b6106d8610a2c565b6106e26000610dc9565b565b60606005805461057b906114b8565b60003381610701828661098a565b9050838110156107665760405162461bcd60e51b815260206004820152602560248201527f45524332303a2064656372656173656420616c6c6f77616e63652062656c6f77604482015264207a65726f60d81b60648201526084015b60405180910390fd5b6106a38286868403610a86565b60003361060c818585610c1e565b610789610e19565b61079584848484610e89565b50505050565b6107a3610a2c565b7f00000000000000000000000000000000000000000000000000000000000000006001600160a01b031663bb9fe6bf6040518163ffffffff1660e01b8152600401600060405180830381600087803b1580156107fe57600080fd5b505af1158015610795573d6000803e3d6000fd5b61081a610a2c565b60405163611d2e7560e11b81526001600160a01b0382811660048301527f0000000000000000000000000000000000000000000000000000000000000000169063c23a5cea90602401600060405180830381600087803b15801561087d57600080fd5b505af1158015610891573d6000803e3d6000fd5b5050505050565b6040516370a0823160e01b81523060048201526000907f00000000000000000000000000000000000000000000000000000000000000006001600160a01b0316906370a0823190602401602060405180830381865afa1580156108ff573d6000803e3d6000fd5b505050506040513d601f19601f820116820180604052508101906109239190611513565b905090565b60405163b760faf960e01b81523060048201527f00000000000000000000000000000000000000000000000000000000000000006001600160a01b03169063b760faf99034906024016000604051808303818588803b15801561087d57600080fd5b6001600160a01b03918216600090815260026020908152604080832093909416825291909152205490565b6109bd610a2c565b6109c78282610ebc565b5050565b6109d3610a2c565b6109f0306109e96000546001600160a01b031690565b6000610a86565b6109f981610f7d565b610a063082600019610a86565b50565b60606000610a15610e19565b610a20858585610ff3565b91509150935093915050565b6000546001600160a01b031633146106e25760405162461bcd60e51b815260206004820181905260248201527f4f776e61626c653a2063616c6c6572206973206e6f7420746865206f776e6572604482015260640161075d565b6001600160a01b038316610ae85760405162461bcd60e51b8152602060048201526024808201527f45524332303a20617070726f76652066726f6d20746865207a65726f206164646044820152637265737360e01b606482015260840161075d565b6001600160a01b038216610b495760405162461bcd60e51b815260206004820152602260248201527f45524332303a20617070726f766520746f20746865207a65726f206164647265604482015261737360f01b606482015260840161075d565b6001600160a01b0383811660008181526002602090815260408083209487168084529482529182902085905590518481527f8c5be1e5ebec7d5bd14f71427d1e84f3dd0314c0f7b2291e5b200ac8c7c3b925910160405180910390a3505050565b6000610bb6848461098a565b905060001981146107955781811015610c115760405162461bcd60e51b815260206004820152601d60248201527f45524332303a20696e73756666696369656e7420616c6c6f77616e6365000000604482015260640161075d565b6107958484848403610a86565b6001600160a01b038316610c825760405162461bcd60e51b815260206004820152602560248201527f45524332303a207472616e736665722066726f6d20746865207a65726f206164604482015264647265737360d81b606482015260840161075d565b6001600160a01b038216610ce45760405162461bcd60e51b815260206004820152602360248201527f45524332303a207472616e7366657220746f20746865207a65726f206164647260448201526265737360e81b606482015260840161075d565b6001600160a01b03831660009081526001602052604090205481811015610d5c5760405162461bcd60e51b815260206004820152602660248201527f45524332303a207472616e7366657220616d6f756e7420657863656564732062604482015265616c616e636560d01b606482015260840161075d565b6001600160a01b0380851660008181526001602052604080822086860390559286168082529083902080548601905591517fddf252ad1be2c89b69c2b068fc378daa952ba7f163c4a11628f55a4df523b3ef90610dbc9086815260200190565b60405180910390a3610795565b600080546001600160a01b038381166001600160a01b0319831681178455604051919092169283917f8be0079c531659141344cd1fd0a4f28419497f9722a3daafe3b4186f6b6457e09190a35050565b336001600160a01b037f000000000000000000000000000000000000000000000000000000000000000016146106e25760405162461bcd60e51b815260206004820152601560248201527414d95b99195c881b9bdd08115b9d1c9e541bda5b9d605a1b604482015260640161075d565b6000610e978385018561135d565b90506000610eaf610eaa613a98856114f2565b611196565b9050610564823083610c1e565b6001600160a01b038216610f125760405162461bcd60e51b815260206004820152601f60248201527f45524332303a206d696e7420746f20746865207a65726f206164647265737300604482015260640161075d565b8060036000828254610f2491906114f2565b90915550506001600160a01b0382166000818152600160209081526040808320805486019055518481527fddf252ad1be2c89b69c2b068fc378daa952ba7f163c4a11628f55a4df523b3ef910160405180910390a35050565b610f85610a2c565b6001600160a01b038116610fea5760405162461bcd60e51b815260206004820152602660248201527f4f776e61626c653a206e6577206f776e657220697320746865207a65726f206160448201526564647265737360d01b606482015260840161075d565b610a0681610dc9565b606060008061100184611196565b9050613a988660a00135116110675760405162461bcd60e51b815260206004820152602660248201527f546f6b656e5061796d61737465723a2067617320746f6f206c6f7720666f72206044820152650706f73744f760d41b606482015260840161075d565b611074604087018761152c565b1590506110f857611084866111a3565b806110956102ac602089018961135d565b10156110f35760405162461bcd60e51b815260206004820152602760248201527f546f6b656e5061796d61737465723a206e6f2062616c616e636520287072652d6044820152666372656174652960c81b606482015260840161075d565b611157565b806111096102ac602089018961135d565b10156111575760405162461bcd60e51b815260206004820152601a60248201527f546f6b656e5061796d61737465723a206e6f2062616c616e6365000000000000604482015260640161075d565b611164602087018761135d565b604080516001600160a01b0390921660208301520160408051601f198184030181529190529660009650945050505050565b600061061260648361157a565b60006111b2604083018361152c565b6111c19160149160009161159c565b6111ca916115c6565b60601c90506001600160a01b037f00000000000000000000000000000000000000000000000000000000000000001681146109c75760405162461bcd60e51b815260206004820152602560248201527f546f6b656e5061796d61737465723a2077726f6e67206163636f756e7420666160448201526463746f727960d81b606482015260840161075d565b60006020828403121561126757600080fd5b813563ffffffff8116811461127b57600080fd5b9392505050565b6000815180845260005b818110156112a85760208185018101518683018201520161128c565b506000602082860101526020601f19601f83011685010191505092915050565b60208152600061127b6020830184611282565b6001600160a01b0381168114610a0657600080fd5b6000806040838503121561130357600080fd5b823561130e816112db565b946020939093013593505050565b60008060006060848603121561133157600080fd5b833561133c816112db565b9250602084013561134c816112db565b929592945050506040919091013590565b60006020828403121561136f57600080fd5b813561127b816112db565b6000806000806060858703121561139057600080fd5b84356003811061139f57600080fd5b9350602085013567ffffffffffffffff808211156113bc57600080fd5b818701915087601f8301126113d057600080fd5b8135818111156113df57600080fd5b8860208285010111156113f157600080fd5b95986020929092019750949560400135945092505050565b6000806040838503121561141c57600080fd5b8235611427816112db565b91506020830135611437816112db565b809150509250929050565b60008060006060848603121561145757600080fd5b833567ffffffffffffffff81111561146e57600080fd5b8401610160818703121561148157600080fd5b95602085013595506040909401359392505050565b6040815260006114a96040830185611282565b90508260208301529392505050565b600181811c908216806114cc57607f821691505b6020821081036114ec57634e487b7160e01b600052602260045260246000fd5b50919050565b8082018082111561061257634e487b7160e01b600052601160045260246000fd5b60006020828403121561152557600080fd5b5051919050565b6000808335601e1984360301811261154357600080fd5b83018035915067ffffffffffffffff82111561155e57600080fd5b60200191503681900382131561157357600080fd5b9250929050565b60008261159757634e487b7160e01b600052601260045260246000fd5b500490565b600080858511156115ac57600080fd5b838611156115b957600080fd5b5050820193919092039150565b6bffffffffffffffffffffffff1981358181169160148510156115f35780818660140360031b1b83161692505b50509291505056fea2646970667358221220678fe4c45c88e3912882a2be2e2c7c6ee6e1709236e9617b581a53fdb24012c864736f6c63430008130033",
    "linkReferences": {}
  },
  "methodIdentifiers": {
    "COST_OF_POST()": "796d4371",
    "addStake(uint32)": "0396cb60",
    "allowance(address,address)": "dd62ed3e",
    "approve(address,uint256)": "095ea7b3",
    "balanceOf(address)": "70a08231",
    "decimals()": "313ce567",
    "decreaseAllowance(address,uint256)": "a457c2d7",
    "deposit()": "d0e30db0",
    "entryPoint()": "b0d691fe",
    "getDeposit()": "c399ec88",
    "increaseAllowance(address,uint256)": "39509351",
    "mintTokens(address,uint256)": "f0dda65c",
    "name()": "06fdde03",
    "owner()": "8da5cb5b",
    "postOp(uint8,bytes,uint256)": "a9a23409",
    "renounceOwnership()": "715018a6",
    "symbol()": "95d89b41",
    "theFactory()": "9f5ca221",
    "totalSupply()": "18160ddd",
    "transfer(address,uint256)": "a9059cbb",
    "transferFrom(address,address,uint256)": "23b872dd",
    "transferOwnership(address)": "f2fde38b",
    "unlockStake()": "bb9fe6bf",
    "validatePaymasterUserOp((address,uint256,bytes,bytes,uint256,uint256,uint256,uint256,uint256,bytes,bytes),bytes32,uint256)": "f465c77e",
    "withdrawStake(address)": "c23a5cea",
    "withdrawTo(address,uint256)": "205c2878"
  },
  "id": 16
}