{
  "_format": "hh-sol-artifact-1",
  "contractName": "DAO",
  "sourceName": "contracts/BaiscDAO.sol",
  "abi": [
    {
      "inputs": [
        {
          "internalType": "uint256",
          "name": "_rank",
          "type": "uint256"
        },
        {
          "internalType": "address",
          "name": "_wallet",
          "type": "address"
        },
        {
          "internalType": "bytes32",
          "name": "_args",
          "type": "bytes32"
        }
      ],
      "name": "MelonAction",
      "outputs": [],
      "stateMutability": "nonpayable",
      "type": "function"
    }
  ],
  "bytecode": "0x608060405234801561001057600080fd5b50610277806100206000396000f3fe608060405234801561001057600080fd5b506004361061002b5760003560e01c8063ac7a43d514610030575b600080fd5b61004a60048036038101906100459190610171565b61004c565b005b6003831115801561005e575060008310155b61009d576040517f08c379a000000000000000000000000000000000000000000000000000000000815260040161009490610221565b60405180910390fd5b505050565b600080fd5b6000819050919050565b6100ba816100a7565b81146100c557600080fd5b50565b6000813590506100d7816100b1565b92915050565b600073ffffffffffffffffffffffffffffffffffffffff82169050919050565b6000610108826100dd565b9050919050565b610118816100fd565b811461012357600080fd5b50565b6000813590506101358161010f565b92915050565b6000819050919050565b61014e8161013b565b811461015957600080fd5b50565b60008135905061016b81610145565b92915050565b60008060006060848603121561018a576101896100a2565b5b6000610198868287016100c8565b93505060206101a986828701610126565b92505060406101ba8682870161015c565b9150509250925092565b600082825260208201905092915050565b7f52616e6b206572726f7200000000000000000000000000000000000000000000600082015250565b600061020b600a836101c4565b9150610216826101d5565b602082019050919050565b6000602082019050818103600083015261023a816101fe565b905091905056fea2646970667358221220bf9b94445155a545168e17f148e35ce43c1179cec8bf146f7c525ef9d9d36f4064736f6c63430008120033",
  "linkReferences": {},
  "deployedLinkReferences": {}
}